:100000005446495300010000088B020069A523DB18
:10001000104101301912160953395059104102028A
:1000200019121609533950591041011419121609A1
:100030005339505903000000000000000000000088
:100040005446435300200000305F020000000000CF
:10005000008001100121000025210000F5E00100D1
:10006000292100002B2100002D2100003D2100004E
:100070003D2100003D2100003D2100002F21000016
:10008000312100003D21000033210000895C000087
:10009000835D0000372100003D210000595500100C
:1000A00037210000A9400000AF4000003D210000C2
:1000B0003D2100009F580000DD4F0000B5400000CA
:1000C0001D560000372100003D2100003D210000A9
:1000D0000000000000000000000000000000000020
:1000E0000000000000000000000000000000000010
:1000F0000000000000000000000000000000000000
:1001000000000000000000000000000000000000EF
:1001100000000000000000000000000000000000DF
:1001200000000000000000000000000000000000CF
:1001300000000000000000000000000000000000BF
:1001400000000000000000000000000000000000AF
:1001500000F003F800F020F8FEE70D480168890878
:100160008900002001C101C101C101C17047000027
:100170000C5F0010FEE7FEE7FEE7FEE7FEE7FEE7A6
:10018000FEE7FEE7FEE703480047FEE7FEE7000064
:10019000202100003D21000000F002F800F068F886
:1001A0000AA090E8000C82448344AAF10107DA45D2
:1001B00001D100F05DF8AFF2090EBAE80F0013F0BC
:1001C000010F18BFFB1A43F001031847DCFC0100C4
:1001D0004CFD01000A444FF0000C10F8013B13F0F5
:1001E000070408BF10F8014B1D1108BF10F8015B90
:1001F000641E05D010F8016B641E01F8016BF9D183
:1002000013F0080F1EBF10F8014BAD1C0C1B09D1D9
:100210006D1E58BF01F801CBFAD505E014F8016B4B
:1002200001F8016B6D1EF9D59142D6D370470000DD
:10023000103A24BF78C878C1FAD8520724BF30C812
:1002400030C144BF04680C607047000000230024E4
:1002500000250026103A28BF78C1FBD8520728BFD6
:1002600030C148BF0B6070471FB51FBD10B510BD32
:10027000DFF80CD0FFF7F8FF05F0B4FB1BF054FFDC
:100280000080011003B4FFF7F1FF03BC1BF054FF23
:1002900008B5002103200B460A4600911AF046F9E2
:1002A00008BD38B5FE4D0024AC81EC812C821AF0DB
:1002B00010F92862FF206872FA482346224604603B
:1002C000446004720120A872AC612C706C70032031
:1002D000214600941AF02AF9012038BD38B5F04DB6
:1002E00002286C7A22460DD0052810D0A24208BF01
:1002F00038BD002003460246214600901AF016F948
:100300006C7238BD022914BF01240224EEE70229D1
:1003100014BF64246524E9E738B513460A464FF054
:10032000010C00240146604600941AF0FFF838BD25
:1003300038B500240BF034FF002818BF012410F05A
:1003400056FD002818BF0224D5484178A14208BFB5
:1003500038BD4470032000230146224600931AF062
:10036000E5F838BDCE498A78824208BF704708B5A3
:1003700002008A704FF003004FF0020118BF012203
:10038000002300931AF0D2F808BDC5490120C870B7
:100390007047C348C0787047C1490020C870704793
:1003A0002DE9F04104460127002503F00700BC4E6B
:1003B0008846012804BF0020308246D0022844D15C
:1003C000308A04280BD2002818BFF06902D11AF035
:1003D0002AFAF06110F8011B2170F0612EE0062866
:1003E00008D21AF022FA318AC1F10501C900C840C9
:1003F000207023E0082808D21AF01BFA318AC1F1D4
:100400000701C900C840207018E00C2808D21AF073
:1004100060F8318AC1F10B01C900C84020700DE0BD
:100420000E2808D21AF057F8318AC1F10D01C9001F
:10043000C840207002E0FF2020700027308A401C56
:1004400080B230820E2828BF012588F80050384637
:10045000BDE8F08130B403F007000024DFF840C2AB
:1004600001280BD06046BCF810308089022B0CD2DA
:10047000120242EA1020ACF80C0010E0ACF80C407C
:10048000ACF80E40ACF810400CE01844851EB5F5F1
:10049000806F04DADCF82050284400F8022C581C45
:1004A000ACF810000C7030BC00207047F0B4074668
:1004B000002003F007047A4D0646012C04BF2E826B
:1004C0006E6125D0DFF8D8C1022CBCF80EC003D075
:1004D00013F0070F0DD01BE02A8A0CEB0203B3F5D3
:1004E000806F15D2286AC05C3870501C28820120A9
:1004F0000EE0120242EA1C22EA816B69012B05D14F
:10050000B2F5806F24BF40F2FF32EA815A1C6A6163
:100510000E70F0BC704738B503F0070000240D469C
:1005200001280AD15E4821460B4604828481C48199
:1005300002200A46009419F0F9FF2C70002038BD03
:1005400030B50C0058A183B009684FF00002029149
:1005500008BF03250AD0217802AB5D5C002D18BFCF
:10056000022D41D0012D7ED0032D0DD10F21017020
:100570000321417042808280C28002814281828157
:10058000817B21F001018173002D1EBF012D03B07D
:1005900030BD05F03BFA05281CBF03B030BD0BF0A1
:1005A000A2FB042804BF03B030BD002D0CBFC02047
:1005B000C1208DF8000060788DF80100608801236B
:1005C000000A8DF80200A0788DF80300A0880622AA
:1005D000000A8DF8040020798DF80500694607208F
:1005E0000FF0EAFD03B030BD617800EB011202F8B4
:1005F000101C617800EB011101F80F5C62786188D2
:1006000000EB021222F80E1C6278A18800EB0212A5
:1006100022F80C1C6278A17900EB021222F80A1C65
:100620006278217A00EB021222F8081C6278617A63
:1006300000EB021222F8061C6278217B00EB02120A
:1006400022F8041CE1790529617800EB011010F80B
:10065000021C0EBF41F0010121F0010100F8021C53
:1006600092D139E0FFE7617800EB011303F8101C29
:100670006378012100EB031303F80F1C6378618892
:1006800000EB031323F80E1C6378A18800EB03131F
:1006900023F80C1C617800EB011121F80A2C05E00D
:1006A000008400100088001003000201617800EB54
:1006B000011121F8082C617800EB011121F8062CBA
:1006C000617800EB011121F8042C617800EB011036
:1006D00010F8021C21F0010100F8021C54E76449E3
:1006E0000020087170476248007970476049012016
:1006F000087170475F4A1154704710B582B0017895
:100700008DF8001041788DF8011081788DF8021075
:10071000C1788DF8031001798DF8041041798DF8B6
:10072000051080798DF8060000248DF8074016F03A
:10073000C4FB002804BF9DF800004A2806D19DF89C
:1007400001104B48002918BF047004D068461BF004
:1007500009FD02B010BD012101708169491C816150
:10076000F4E770474249002818BF0120887270479B
:100770003F48807A70473E484079704708B5002866
:1007800014BF012200223A48012142710320002AAD
:1007900018BF01220023009319F0C8FE08BD344899
:1007A0004079704732498871704731488079002814
:1007B00018BF0120704701460020072904BF2E48BA
:1007C0007047082908BF2D48704710B44FF0000C3F
:1007D000072808BFDFF8A0C003D0082808BFDFF84B
:1007E0009CC04FF0000093B1002A9CBF10BC704722
:1007F0003CF9103031F91040234403EBD3735B1004
:100800002CF81030401C8242F2D810BC7047002AED
:100810009CBF10BC704731F810302CF81030401CD1
:100820008242F8D810BC704711480078002818BFE1
:10083000012070470E48806970470D4988617047F4
:10084000002818BF01200A49C87170470848C079BC
:10085000002818BF01207047002818BF0120044954
:10086000087270470248007A002818BF01207047BC
:100870000084001000880010128800100A88001000
:100880007047FE48D0F8500300F00100704770B583
:10089000FA4D04000AD001F09DFB38B9D5F8500399
:1008A00010F0010F1CBF0020A86005D10120A86036
:1008B000002C08BF002000D00120286270BDEF4846
:1008C000006A002818BF01207047C00000F1804076
:1008D00000F5A04041637047C00000F1804000F582
:1008E000A040006B00F4807070471021C00000F140
:1008F000804000F5A04041637047E049D1F84021B5
:1009000060F30D22C1F840217047DC48D0F8400167
:10091000C0F30520704700F00F0202EB4202920183
:10092000C0F3031002EB801000F1804000F5A040FE
:100930000029D0F8401114BF41F0010121F001015C
:10094000C0F84011704700F00F0101EB410189012F
:10095000C0F3031001EB801000F1804000F5A040CF
:10096000D0F8400100F00100704700F00F0202EBE8
:1009700042029201C0F3031002EB801000F18040AC
:1009800000F5A0400029D0F8401114BF41F0020149
:1009900021F00201C0F84011704700F00F0101EB97
:1009A00041018901C0F3031001EB801000F1804088
:1009B00000F5A040D0F84001C0F340007047AF49B7
:1009C00000230B6202680A6042684A6082688A609B
:1009D000C268CA60426A0A64826A4A6402698A61B9
:1009E0004269CA61826B0A66826C0A67C26C4A6796
:1009F000026D8A67426DCA67826DC1F88020C26D40
:100A0000C1F88420026EC1F88820426EC1F88C20A3
:100A1000426FC1F8B020C26FC1F8B820C26EC1F8F1
:100A2000A820D0F89422C1F85023D0F89822C1F819
:100A30005423D0F89C22C1F85823D0F8A022C1F842
:100A40005C23D0F88420C1F8F020D0F88820C1F8C9
:100A5000F420D0F88C20C1F8F820D0F89020C1F80C
:100A6000FC2021224A63CA63C2694A62C26A8A645C
:100A7000026BCA64026FC1F8AC20026ACA62426BA0
:100A80000A65C26B4A66026C8A66426CCA66826FED
:100A9000C1F8B420D0F88020C1F8BC20D0F8A4223E
:100AA000C1F86023D0F8A822C1F86423D0F8AC22A2
:100AB000C1F86823D0F8B022C1F86C23D0F8B42272
:100AC000C1F87023D0F8B822C1F87423D0F8BC2242
:100AD000C1F87823D0F8C022C1F87C23D0F88C224A
:100AE00022F48032C1F84023D0F89022C1F84C2380
:100AF000D0F89420C1F80021D0F89820C1F8042142
:100B0000D0F89C20C1F80821D0F8A020C1F80C2111
:100B1000D0F8A420C1F81021D0F8A820C1F81421E1
:100B2000D0F8C820C1F83421D0F8AC20C1F8182181
:100B3000D0F8B020C1F81C21D0F8B420C1F8202191
:100B4000D0F8B820C1F82421D0F8BC20C1F8282161
:100B5000D0F8C020C1F82C21D0F8C420C1F8302131
:100B6000D0F8CC20C1F84021D0F8D020C1F84421E1
:100B7000D0F8D820C1F84C21D0F8E420C1F8602189
:100B8000D0F8E820C1F86421D0F8EC20C1F8682141
:100B9000D0F8F020C1F86C21D0F8D420C1F8482159
:100BA000D0F8DC20C1F85021D0F8E020C1F8542161
:100BB000D0F8F420C1F87021D0F8F820C1F87421E1
:100BC000D0F8FC20C1F87821D0F80021C1F87C21B0
:100BD000D0F83C21C1F8C021D0F84021C1F8C4218F
:100BE000D0F84421C1F8C821D0F84821C1F8CC215F
:100BF000D0F84C21C1F8D021D0F85021C1F8D4212F
:100C0000D0F87021C1F8F421D0F85421C1F8D821CE
:100C1000D0F85821C1F8DC21D0F85C21C1F8E021DE
:100C2000D0F86021C1F8E421D0F86421C1F8E821AE
:100C3000D0F86821C1F8EC21D0F86C21C1F8F0217E
:100C4000D0F87421C1F80022D0F87821C1F804222C
:100C5000D0F88021C1F80C22D0F88C21C1F82022D4
:100C6000D0F89021C1F82422D0F89421C1F828228C
:100C7000D0F89821C1F82C2202E00000005000407A
:100C8000D0F8AC21C1F84022D0F8B021C1F84422FC
:100C9000D0F8B821C1F84C22D0F8C421C1F86022A4
:100CA000D0F8C821C1F86422D0F8CC21C1F868225C
:100CB000D0F8D021C1F86C22D0F87C21C1F80822EC
:100CC000D0F88421C1F81022D0F88821C1F814226C
:100CD000D0F89C21C1F83022D0F8A021C1F83422EC
:100CE000D0F8A421C1F83822D0F8A821C1F83C22BC
:100CF000D0F8B421C1F84822D0F8BC21C1F8502264
:100D0000D0F8C021C1F85422D0F8D421C1F8702203
:100D1000D0F8D821C1F87422D0F8DC21C1F87822AB
:100D2000D0F8E021C1F87C22D0F8E421C1F880227B
:100D3000D0F8E821C1F88422D0F8EC21C1F888224B
:100D4000D0F8F021C1F88C22D0F8F421C1F890221B
:100D5000D0F8F821C1F89422D0F81822C1F8B422B2
:100D6000D0F8FC21C1F89822D0F80022C1F89C22CA
:100D7000D0F80422C1F8A022D0F80822C1F8A42299
:100D8000D0F80C22C1F8A822D0F81022C1F8AC2269
:100D9000D0F81422C1F8B022D0F81C22C1F8C02229
:100DA000D0F82022C1F8C422D0F82822C1F8CC22E1
:100DB000D0F83422C1F8E022D0F83822C1F8E42279
:100DC000D0F83C22C1F8E822D0F84022C1F8EC2249
:100DD000D0F85422C1F80023D0F85822C1F80423D7
:100DE000D0F86022C1F80C23D0F86C22C1F820237F
:100DF000D0F87022C1F82423D0F87422C1F8282337
:100E0000D0F87822C1F82C23D0F82422C1F8C822C7
:100E1000D0F82C22C1F8D022D0F83022C1F8D42248
:100E2000D0F84422C1F8F022D0F84822C1F8F422C8
:100E3000D0F84C22C1F8F822D0F85022C1F8FC2298
:100E4000D0F85C22C1F80823D0F86422C1F810233E
:100E5000D0F86822C1F81423D0F87C22C1F83023DE
:100E6000D0F88022C1F83423D0F88422C1F8382386
:100E7000D0F88822C1F83C23FE4A126832F0FF0CF9
:100E800005D1D1F890C062F3030CC1F890C0FA4AC2
:100E90005370D0F8943213F0010F1CBF012353702C
:100EA000D1F8503323F00103C1F85033D0F8A43205
:100EB00013F0010F03D0537843F002035370D1F8BD
:100EC000603323F00103C1F86033D0F8B43213F07B
:100ED000010F03D0537843F004035370D1F87033FB
:100EE00023F00103C1F87033D0F8AC0210F0010F09
:100EF00003D0507840F008005070D1F8680320F01B
:100F00000100C1F868037047DB4800787047DA4891
:100F100080787047D849C8707047D748C078704704
:100F2000D649D1F8542360F30902C1F8542370471D
:100F3000D248D0F85403C0F309007047CF48D0F826
:100F4000440340F21512C0F30B0153003C20A1F200
:100F5000151CBCF1000F4CBF521A6246A1F22A2C9C
:100F6000BCF1000F4CBF591AA1F22A219142B8BF1F
:100F70001E20C1494A6882421CBF0122C1E9010208
:100F80007047BD494860002088607047BA48816852
:100F9000002904BF0020704700218160406870472D
:100FA000B549C8607047B548C06870472DE9F0473B
:100FB000DFF8C492054615F4003F99F8010099F84E
:100FC000031000EA010418BF24F0010415F4802F77
:100FD00018BF24F0020415F4002F18BF24F00404F5
:100FE00015F4801F18BF24F00804DFF89082D8F8A9
:100FF000400320F48030C8F8400314F00F0F65D090
:10100000D9F80C60D8F84803002740F00100C8F870
:101010004803D8F8480320F00100C8F84803D8F87E
:10102000400340F48030C8F840034FF0630A0DE0FD
:1010300002F0C5FE5046D8F8481311F0010F01D058
:10104000012703E0011EA0F10100F4DC301EA6F12F
:10105000010601DD002FEBD0BFB3D8F8500314F028
:10106000010F0CBF20F0010040F00100C8F8500350
:10107000D8F8600314F0020F14BF40F0010020F014
:101080000100C8F86003D8F8700314F0040F14BF0F
:1010900040F0010020F00100C8F87003D8F86803A0
:1010A00014F0080F14BF40F0010020F00100C8F850
:1010B000680389F80240012089F80000D8F840034D
:1010C00040F48030C8F840033AE0FFE7D8F8500316
:1010D00020F00100C8F85003D8F8600320F00100A8
:1010E000C8F86003D8F8700320F00100C8F8700356
:1010F000D8F8680320F00100C8F86803002089F8D8
:101100000200ACB1022089F80000D8F8400340F496
:101110008030C8F84003D8F8480340F00100C8F810
:101120004803D8F8480320F00100C8F8480307E056
:10113000D8F8401321F48031C8F8401389F8000032
:10114000D8F8400115F0020F20F00D0018BF40F054
:10115000010015F0080F18BF40F0040015F0040F4F
:1011600018BF40F00800C8F8400115F0010F21D069
:1011700001F067F9044601F067F90146D8F80C0060
:1011800000280EBF2046084621460028D8F8000255
:1011900014BF40F0010020F00100C8F80002D8F8A8
:1011A0004002002914BF40F0010020F00100C8F8FF
:1011B00040020BE0D8F8000220F00100C8F800025D
:1011C000D8F8400220F00100C8F8400215F0200FC6
:1011D00018BF002417D0204601F03DF900284FEA3F
:1011E000841000F1804000F5A040D0F8C01214BF78
:1011F00041F0010121F00101C0F8C012641C022C71
:10120000E9D3BDE8F087D8F8C00220F00100C8F8A3
:10121000C002D8F8000320F00100C8F80003BDE8C0
:10122000F0872DE9F003024602F00F01002001EBE8
:1012300041018C01C2F3031104EB811101F18041E2
:1012400001F5A041D1F8401111F0010F11D142F088
:101250001001C1F3031104EB811101F1804101F58B
:10126000A041D1F8401111F0010F04BFBDE8F00317
:10127000704705E0E0FE03002484001000500040A9
:1012800002EB42018E0106F1804101F5A041D1F847
:101290002431C3F30809FA4BDB69D1F8001103F0DC
:1012A00008071FFA81F8002142EA0113C3F3031370
:1012B00004EB831303F1804303F5A043D3F84031DB
:1012C00013F0010F18D006EB811303F1804303F5EF
:1012D000A043D3F844C1CCF3080517F1000C1CBFA0
:1012E000D3F844C1CCF3023CD3F8403105FA0CFCEE
:1012F000C3F3054360441844491C0229D4D309EBC5
:10130000C90100FB08F001EB0911BDE8F00300EB97
:101310004100704710B50120FFF783FF044602200B
:10132000FFF77FFF044400F037FC20444FF47A714C
:1013300048434CF25031B0FBF1F010BD2DE9F041C3
:10134000CF4E0546306810F01F0408BF012401206D
:10135000FFF767FF07460220FFF763FF074400F02F
:101360001BFC3918C74F002D18BF002959D0D6F8DB
:101370005003002210F0010FC348A0FB05C04FEA44
:10138000501033D07823B3EB151F08D9D6F85C037F
:1013900020F00F0040F00100C6F85C0334E0D6F8FE
:1013A0005433DFF8E8C2C3F3090363436FF0180551
:1013B0006B430CEB43034FEA101CB3FBF1F0102816
:1013C00028BF0F20844598BF6046002808BF012031
:1013D00005D0012884BF00FB1132B2FBF0F2D6F831
:1013E0005C3360F30303C6F85C330DE0D6F85C337E
:1013F000C0F3031023F00F031843C6F85C03B7FBD8
:10140000F5F0884288BF421A32206043B2FBF0F008
:10141000B0F5005F28BF41F6FF70726860F30C0200
:1014200072607068C0F30C00604300EBC00202EB16
:10143000001001EB4000B7FBF0F0BDE8F0819048F0
:10144000D0F8501311F0010F07D0D0F85C0300F072
:101450000F00C0EB00108001704770B50168406854
:1014600001F01F05C0F30C060120FFF7DAFE044669
:101470000220FFF7D6FE044400F08EFB06FB05F1C8
:10148000322201FB024108447E49B1FBF0F070BDFD
:101490007B48D0F85C0300F00F00704778494A6839
:1014A0004B68C2F30C0260F30C034B6010467047AC
:1014B00073484068C0F30C00704700EB40008001A7
:1014C00000F1804000F5A040D0F80001704980B2E2
:1014D000B1FBF0F0401C4008704730B46C4B31B1A8
:1014E000B3FBF1F1491C4A08B2F5804F01D343F632
:1014F000FF72B3FBF2F1491C4D0861494FEA520CEF
:1015000051F8803F096803F00704C1F3031300EBAF
:101510004001890101F1804101F5A04118B3D1F8E2
:101520000401DB1C634380B2A2EB4303D1F800410A
:1015300023F0010362F30F04C1F80041D1F8002148
:101540006CF31F42C1F80021D1F8042160F30F02AF
:10155000C1F80421D1F8180163F30F00C1F8180194
:10156000284630BC7047DB1CACF106006343A0EB9F
:101570004303DBE700EB4000800100F1804000F511
:10158000A040D0F80001000C704700EB400292012F
:1015900002F1804202F5A042D2F8003161F31F430C
:1015A000C2F80031002818BF7047354A52F8800F42
:1015B00000F0070C52F81C0BC0F30313881FD91C52
:1015C00001FB0CF1A0EB4101936E21F0010160F3EE
:1015D0000F039366D06F61F30F00D067704700F080
:1015E0000F0101EB41018901C0F3031001EB8010F1
:1015F00000F1804000F5A040D0F84401C0F308009D
:10160000704700F00F0202EB42029201C0F3031098
:10161000204B02EB801000F1804000F5A0409B5869
:10162000D0F84421CB1A61F30802C0F84421D0F865
:1016300044119B1E63F31841C0F8441170471049D0
:10164000C969154A11F0100F00F00F0101EB4101BB
:101650004FEA8111C0F3031001EB801000F18040CC
:1016600000F5A0405258D0F84401D2B2C0F30800AF
:1016700008BF0022801A0004000C08BF0120704738
:10168000005000400008AF2F89888888D8810C005E
:10169000A08601001C5100402851004000F00F03BB
:1016A00003EB43039B01C0F3031003EB801000EB3B
:1016B000810000F1804000F5A040C0F85021704743
:1016C00000F00F0202EB42029201C0F3031002EBA2
:1016D000801000EB810000F1804000F5A040D0F8C0
:1016E00050017047F84A0021D26912F0080F10D05B
:1016F00000F00F0101EB41018901C0F3031001EB80
:10170000801000F1804000F5A040D0F84401C0F303
:10171000023108467047EC4AD36943F00803D361AD
:1017200000F00F0202EB42029201C0F3031002EB41
:10173000801000F1804000F5A040D0F8442161F312
:101740000E32C0F844217047DF4A0021D26912F0FE
:10175000080F10D000F00F0101EB41018901C0F327
:10176000031001EB801000F1804000F5A040D0F89C
:101770004801C0F302410846704700F00F0202EB37
:1017800042029201C0F3031002EB801000F180408E
:1017900000F5A040D0F8482161F31242C0F848217A
:1017A0007047C9490028886914BF40F0080020F03C
:1017B000080088617047C4488069C0F3C000704762
:1017C000C1490028886914BF40F0020020F00200DF
:1017D00088617047BC488069C0F34000704700F0E2
:1017E0000F0202EB42029201C0F3031002EB8010E1
:1017F00000F1804000F5A040C0F84C11704700F0A7
:101800000F0101EB41018901C0F3031001EB8010CE
:1018100000F1804000F5A040D0F84C017047AA4A82
:10182000D2F85C13022903D110F0010F18BF7047E2
:10183000D2F8400110F0010F0BD0D2F84C01D2F8D1
:1018400044110028C1F302311EBF0029C043C2F871
:101850004C01012101EB410100204FEA811C0CEBFE
:10186000801101F1804101F5A041D1F8402112F031
:10187000010F0BD0D1F84C21D1F84431002AC3F329
:1018800002331EBF002BD243C1F84C21401C02285A
:10189000E5D370478C4A0021D26912F0080F10D0AE
:1018A00000F00F0101EB41018901C0F3031001EBCE
:1018B000801000F1804000F5A040D0F84801C0F34E
:1018C00000510846704701207047F0B4022ADDE954
:1018D000044C069E26BF921E52080022022B26BFF1
:1018E0009B1E5B080023794DA5FB04542709BCF11E
:1018F000020F0CBF0124002400F00F0505EB450585
:10190000AD01C0F3031005EB801000F1804505F533
:10191000A045D5F86401002E61F31B6062F314400A
:1019200063F30C2067F307006CF38F3014BF40F4AF
:10193000005020F40050002C14BF40F4001020F49C
:101940000010C5F86401F0BC70472DE9F00700F005
:101950000F0606EB4606B601C0F3031006EB801037
:1019600000F1804000F5A040DDE90754DDF824C017
:10197000D0F864010029C0F3036AC0F30449C0F33E
:101980008137C0F34036C0F30428C0B218BFC1F895
:1019900000A01AB14FEA4901891C11601BB14FEA3E
:1019A0004801891C19601DB100EB8000800028608F
:1019B000002C18BF2760BCF1000F18BFCCF80060E6
:1019C000BDE8F007704740490028C86914BF40F0DF
:1019D000200020F02000C86170473B48C069C0F378
:1019E0004010704770B491B000224FF480456C10E5
:1019F000EC4601E0082A05D2531C03EB8303B5FB38
:101A0000F3F304E0D31F03EB8303B4FBF3F35B1A9C
:101A100048BF5B424CF82230521C102AEAD3002601
:101A2000009B01215CF821209A42BCBF13460E4660
:101A3000491C1029F6D300F00F0101EB4101890187
:101A4000C0F3031001EB801000F1804101F5A041CB
:101A5000D1F86801D1F8682100F00F0066F30302A5
:101A6000C1F86821082807D2401C00EB8000B5FBB4
:101A7000F0F011B070BC7047C01F00EB8000B4FBE9
:101A8000F0F011B070BC704700F00F0101EB4101A4
:101A90008901C0F3031001EB801000F1804000F5D4
:101AA000A040D0F8680100F00F00082834BF401CA7
:101AB000C01F00EB800034BF4FF480414FF4005151
:101AC000B1FBF0F07047000000500040CDCCCCCC12
:101AD00010F00F0F08BF704700F00F0000EB400040
:101AE000800100F1804000F5A0400029D0F82C11C1
:101AF0000CBF21F4803141F48031C0F82C117047C3
:101B0000002110F00F0F0ED000F00F0000EB40008E
:101B1000800100F1804000F5A040D0F82C0110F4C5
:101B2000803F18BF01210846704700F00F0000EB0E
:101B30004000800100F1804202F5A042D2F8340159
:101B4000C2F834117047304B58679967DA677047AD
:101B50002D490028D1F8AC0014BF40F0020020F05D
:101B60000200C1F8AC00704727490028D1F8AC004A
:101B700014BF40F0010020F00100C1F8AC00704734
:101B80002148D0F8E00070471F49C1F8E4007047D1
:101B90001D48D0F89800704770B41B4E0020D6F84E
:101BA000401111F0010F04BF70BC704711F0040F19
:101BB000D6F8242101F00805D6F800C1C2F30802C6
:101BC0001FFA8CF4D6F844C1CCF3080C18BFC1F34B
:101BD0000740F369C1F3052113F008031CBFD6F8D1
:101BE0004431C3F30233002D18BF491C0CFA03F330
:101BF00001FB0300604302EBC20170BC01EB021168
:101C000000EB41007047000000500040FEF757BE57
:101C100010B5FEF754FE012818BF10BD0020FEF7D6
:101C200036FE21210020FEF750FE2121BDE81040A4
:101C30000120FEF74ABE10B5FEF722FEFEF73FFE7A
:101C400001280AD10020FEF722FE21210020FEF704
:101C50003CFE21210120FEF738FE0121052001F084
:101C6000D4FB0121052001F0D0FBFA490020C87106
:101C700010BD10B54FF4066001F01DFCBDE810402A
:101C80004FF4066001F008BCF24A01465079002882
:101C900018BF0120002918BF012151710021917145
:101CA0007047EC4A516A506208467047E949002083
:101CB0000871887048707047E64900200871887084
:101CC0004870704770B50007C00E0D46801E00EBCF
:101CD000400101EB0014E0484FF4987200EBC4009F
:101CE00029461AF044FADD4805F5987100EBC40066
:101CF000BDE870404FF498721AF039BA2DE9F041FE
:101D00000546FEF702FED64FDFF858830446EDB1D4
:101D10004C2004FB00F21646294638461AF027FAF2
:101D2000324605F5006140461AF021FA04EB440002
:101D300000EB041407EB84004C211AF01DFA08EBA9
:101D40008400BDE8F0414C211AF016BA4C21401C29
:101D500041430C4638461AF00FFA21464046BDE88A
:101D6000F0411AF009BA10B5BA4CE061FFF71EF95C
:101D7000FFF7CAF8A1696FF30F01A161A269C1B2AF
:101D800042EA0121A161022818BF10BDA06940F0FC
:101D90000100A06110BDB4488168B44A114381605C
:101DA0000168521C1143016000F055BE2DE9F0415D
:101DB000AD4A05460C469068AC4B184390601068DD
:101DC000591C0843106000F046FE0026002C7DD010
:101DD0000020FEF75CFD206820B1FEF7F0FD00203A
:101DE000FEF755FD2846FFF7BEFF0020FEF7ABFDCE
:101DF000002835D06068FFF781FF9D48E36853B144
:101E0000A1694FF4407C4A420CEB820203EB810152
:101E10001AF0ADF91DE0974D4FF440711AF0ACF98E
:101E2000002001232956002910DB0A09120202EBC7
:101E3000800202F1405202F540420907C90ED2F871
:101E400000C003FA01F14CEA01011160401C262890
:101E5000E8D38948616959B14FF400721AF087F9E3
:101E60000120FEF770FDDFF8F0817C4F48B904E0F7
:101E70004FF400711AF080F9F2E71120FEF763FDCC
:101E800070B1A56865B140464FF4987229461AF0C2
:101E90006EF938464FF4987205F598711AF067F9A3
:101EA0000220FEF750FD18B91220FEF74CFD68B174
:101EB00024695CB171484FF4987221461AF057F9C1
:101EC0006F484FF4987204F5987100E001E01AF041
:101ED0004EF960480671867046704662417900216D
:101EE000417186714FF4066001F0E5FABDE8F041FA
:101EF0004FF4066001F0D0BA10B50020FEF7C7FC21
:101F000000F096FD5348C078002808BF10BD564821
:101F1000016821F0030141F00D7141F08051016031
:101F2000816821F0020141F00D7141F08051816022
:101F300010BD4FF4066001F0B4BA10B54FF406605E
:101F400001F0AFFAFEF7BBFC01280AD10020FEF732
:101F50009EFC21210020FEF7B8FC21210120FEF784
:101F6000B4FC4848D0F8401321F48031C0F8401345
:101F70000020FEF78CFC00F05BFD3648C07800289E
:101F800008BF10BD3848016821F0030141F00D7110
:101F900041F080510160816821F0020141F00D7132
:101FA00041F08051816010BD10B501F07FFA10F052
:101FB000600018BF012010BD2648C0697047254841
:101FC0008069704772B623498A6922EA00008861F5
:101FD00062B670471F480078002818BF012070477C
:101FE00070B5FEF76CFC002818BF70BD0024194DB9
:101FF0002C71AC706C7021212046FEF766FC21210B
:102000000120FEF762FC2C70BDE870400120FEF755
:102010003EBC70B50446FEF752FC002818BF70BDE8
:1020200000210C4D2971A970697021210020FEF753
:102030004CFC21210120FEF748FC022C3CBF012072
:10204000FEF753FC012028702C62BDE87040FEF7BB
:102050001EBC000034840010189D003018BD0030F4
:102060000080003000A000300080004002003412E8
:1020700000C000301A88001000D00030489E0030A8
:1020800048BE00300050004010B5FEF718FC002894
:1020900018BF10BD0020FE4C2071A070607021217F
:1020A000FEF713FC21210120FEF70FFC0120FEF7B3
:1020B0001CFC012020702062BDE81040FEF7E7BB49
:1020C0000020FEF7E4BBF249002088704870012030
:1020D000FEF7DDBBEE4988627047ED48806A7047C5
:1020E000002818BF0120EA49C8627047E848C06A62
:1020F000002818BF01207047002000F0D3BB01204A
:1021000000F0D0BB10B5FFF73BFD0446FFF73CFDE8
:10211000E048044208BF10BDDD48816941F0040178
:1021200081610E2101EAD43104F001020A43816980
:1021300062F31F418161D848016841F020010160CC
:1021400010BD002818BF0120D149C8707047D3487E
:102150007047D3487047CE48006B7047CC48017A2F
:10216000827A914214BF406B806B7047C848806B85
:1021700070472DE9F04FC94F4FF0000C8DB007F1BB
:102180004C04E6464FF0FF3807F80C8004F80CE0EA
:102190000CF1010CBCF1260FF6DB4FF0000C00280F
:1021A00007DD12F80C5007F80C500CF1010C6045DB
:1021B000F7DC00220126CDF804E06D46CDF800E002
:1021C000002816DD17F902C0BCF1000F0EDBBCF1D0
:1021D000260F0BD24FEA5C190CF01F0C55F829A002
:1021E00006FA0CFC4AEA0C0C45F829C0521C824243
:1021F000E8DB002294460DF108094FEA521A02F07A
:102200001F0B55F82AA006FA0BFB1AEA0B0F1ABF90
:1022100009F802C00CF1010C09F80280521C262AB0
:10222000EBDB0022002810DD17F902C0BCF1000F23
:1022300008DBBCF1260F3ABF19F80CC004F802C045
:1022400004F80280521C8242EEDBDFF844A2002236
:102250000028CAF830E009DD14F902C0944502D024
:10226000CAF8304002E0521C8242F5DBDFF834B29B
:102270000020ABF1720404F14C0704F8008007F869
:1022800000E00BF800E0401C2628F6DB00200029C7
:1022900004DD1A5C2254401C8142FADC0020CDF897
:1022A00004E0CDF800E0002912DD2256002A0CDB04
:1022B000262A0AD2530902F01F0255F823C006FA53
:1022C00002F24CEA020245F82320401C8842ECDB73
:1022D00000200246430900F01F0C55F8233006FA8F
:1022E0000CFC13EA0C0F1ABF09F80020521C09F865
:1022F0000080401C2628EDDB002000290BDD225643
:10230000002A05DB262A3CBF19F802200BF8002022
:10231000401C8842F3DB0020CAF838E0002909DDC0
:102320001BF90020824202D0CAF838B002E0401CFB
:102330008842F5DB11F0010F18BF252015D04209A6
:1023400000F01F0355F8222006FA03F31A420AD1BF
:10235000420900F01F0055F8223006FA00F0184339
:1023600045F8220001E0401EE9D50020024643095D
:1023700000F01F0C55F8233006FA0CFC13EA0C0F82
:102380001ABF09F80020521C09F80080401C2628BA
:10239000EDDB002000290ADD2256002A04DB262A74
:1023A0003CBF19F802203A54401C8842F4DB00205C
:1023B000CAF834E00029DCBF0DB0BDE8F08F3A5612
:1023C000824204D0CAF834700DB0BDE8F08F401CD2
:1023D0008842F4DB0DB0BDE8F08F40F2DB114843DA
:1023E000314901EB800070473049C0EB001001EB30
:1023F000C0007047DFF898C0012B8CF808008CF8FB
:10240000091003D9401C20F0010011468CF80A0085
:102410008CF80B1000FB01F24FF6FF7101EA42024B
:10242000ACF8122001EA4000ACF8140070471848DC
:10243000C07A70471648807A7047154A10735173F6
:1024400070471348407B70471148007B7047184A1B
:102450001070517070471649085C70472DE9F047BD
:10246000DFF82C90044699F80500002804BF99F87D
:10247000010019F086FE99F80400002808BFBDE8A5
:10248000F0874FF0000847464646454612E00000F8
:102490003484001001000700748400101A880010B2
:1024A00040880010B28800102422011090290110E9
:1024B00042840010D9F81C0010F0020F1CBFDFF896
:1024C0000C8410F0040F05D0B9F81210FF4A21F067
:1024D00001018F1810F0010F18BFFD4E10F0200FF2
:1024E00018BFFC4DD9F828002060FEF710FD10F051
:1024F000010F06D0FEF7CCFF022828BF99F8020092
:1025000000D20020E760C4E90108C4E904650120A5
:10251000BDE8F087F048002101718171704770B506
:102520000546FEF7F2F94C2100FB01F21446EB4997
:10253000284619F01CFE224605F50060BDE87040F3
:10254000E74919F014BEF0B583B0FEF7DEF9044692
:1025500000210846FFF7B4F8009001210020FFF7A2
:10256000AFF800220190002C2AD96E464FF0010CE2
:102570004FF6F07502EB4200002100EB02104B0910
:1025800001F01F0756F823300CFA07F73B4211D031
:10259000CB079B0C03EB80034F0803EB870303F18E
:1025A000405303F500431B889BB2AB4202D903B0F2
:1025B0000020F0BD491C2629E1D3521CA242D9D3E8
:1025C00003B00120F0BD70B50D460107C80E811E95
:1025D00001EB410000EB0114C2484FF4987200EB8C
:1025E000C401284619F0C3FDBF484FF4987200EBB0
:1025F000C40105F59870BDE8704019F0B8BD2DE92B
:10260000F04F00F00F07780083B0A0F1020B002517
:10261000E9464FF001084FF6F07647EA051A5046B2
:10262000FEF791F9002843D05046FFF75BF808FA0F
:1026300000F4022C88BF022400215046FFF740F826
:10264000009001215046FFF73BF800210190002C3B
:102650002ED90BEB0500982200FB02FA01EB410298
:10266000002002EB011C420900F01F0359F8222050
:1026700008FA03F31A4215D000F001020AEB4232C5
:1026800002EB8C02430802EB830202F1405202F596
:102690001042B2F8182D92B2B24203D903B0002012
:1026A000BDE8F08F401C2628DDD3491CA142D5D3BC
:1026B0006D1C022DB1D303B00120BDE8F08F2DE9D0
:1026C000F0410026844D00280C4640D000F00F0158
:1026D000C0F3031001290EBF00210229BDE8F081DB
:1026E000022828BFBDE8F0810F18FEF7E8F85FEA7E
:1026F00000081CBF0020FEF7CAF80023982007FB43
:1027000000FC03EB4300002200EB031702F0010082
:102710000CEB4030510800EB870000EB810000F12A
:10272000405000F51040521CC0F8184D262AEDD339
:102730005B1C022BE5D3B8F1000F08BFBDE8F081A8
:10274000AE706E70BDE8F0410120FEF7A0B8FEF754
:10275000B6F85FEA00081CBF0020FEF798F80023D7
:1027600003EB4300002200EB031CD007800C510850
:1027700000EB8C0000EB810707F1405707F500479D
:10278000521C3C60262AF0D35B1C312BE8D3B8F1F5
:10279000000FD5D1BDE8F08110B5FEF750FF4E49CE
:1027A000088210BD4C4AC1B200F47F43128A9142A4
:1027B00088BF11464FF0640C01FB0CF1B1FBF2F144
:1027C0001A0A02FB0C1110F4803F12BF08B24842F3
:1027D00000B2704710B54FF44071444C444819F0B2
:1027E000CBFC002001232156002910DB0A0912022C
:1027F00002EB800202F1405202F540420907C90E85
:10280000D2F800C003FA01F14CEA01011160401C4A
:102810002628E8D310BD10B5344C4FF4407134482D
:1028200019F0AAFC002001232156002910DB0A0917
:10283000120202EB800202F1405202F54042090707
:10284000C90ED2F800C003FA01F14CEA010111608F
:10285000401C2628E8D341F67871204819F08CFCFA
:10286000BDE8104041F678711D4819F085BC1A4842
:1028700010B5808B00F48170FFF775FA4FF440714A
:102880001B4819F079FC41F61851144819F074FCF2
:1028900041F61851124819F06FFCBDE810400020B5
:1028A000FEF7FCBD70B50C4C0546A06A401CA0624A
:1028B000E16A002918BFFEF7B2FF2078F8B1206A5C
:1028C00010B1206A401E2062206A13E02422011009
:1028D00090290110802A01103484001000800030FB
:1028E00000A00030189D003018BD00301A8800107C
:1028F00000C00030002804BF0020FDF7C8FF2021E1
:102900002846FDF7E2FF616A00291CBF2846884778
:10291000FEF7FAFA022815D10D48D0F8481311F045
:10292000010F0FD0D0F8481341F00101C0F848134F
:10293000D0F8481321F00101C0F84813A06940F015
:102940000200A0610348016841F02001016070BDF0
:1029500000500040748400102DE9F0410027644DC0
:102960000126002808BF2E701FD001282F7018BF25
:102970006F701AD0DFF87C81D8F800005E490843F8
:10298000C8F8000029785D4C002914BF49F60830CA
:102990005B48E06014BF5B484FF0BB70A0605A48D2
:1029A000006830F0FF0206D101E06E70E2E7E268F5
:1029B00060F30302E26051B1A06840F01800A0602B
:1029C000012000F073F8A06840F48050A06001205E
:1029D00000F06CF8687818B1E06840F03000E06012
:1029E000D4F8B00040F00100C4F8B000012000F0BD
:1029F0005DF8E6674FF4E0602061C4F888702878DD
:102A0000002818BFC4F89460E06820F03000E0604F
:102A1000A06820F48050A060D8F8000020F00400E6
:102A200040F00D7040F08050C8F80000BDE8F08123
:102A30003248C16821F03001C160816821F48051C1
:102A400081602C48016821F0040141F00D7141F0D2
:102A5000805101607047274802682749114301608F
:102A6000234926480A783AB1826842F01802826007
:102A7000826842F480528260497819B1C16841F09D
:102A80003001C160D0F8B01041F00101C0F8B010C1
:102A900070471E49C0F3080041EA00201749086446
:102AA000704716494FF020400864704782B040F2EA
:102AB0004C42009013E000BF00BF00BF00BF00BF4A
:102AC00000BF00BF00BF00BF00BF00BF00BF00BF0E
:102AD00000BF00BF00BF0198411E0191EBD20098DA
:102AE000411E009128BF0192F5D202B0704700004C
:102AF0007084001000800040040034120060004028
:102B000005F4010020009B00D0FE0300130000A08C
:102B1000284827498161891CC1614A1E42630368B4
:102B200023F0030343F00D7343F0805303604369C4
:102B300023F0010343F00D7343F0805343610369B5
:102B40001A4302611C4A82601C4AC260C268114377
:102B5000C1601B4900200860704710B501F027F9DB
:102B600017480468002C08BF30BFFAD0002101606C
:102B700001F021F9204610BD10B501F018F90C48FC
:102B80000F4B0C49421C1C682CB10020186001F04E
:102B900012F9204610BD72B648638A6120BF886171
:102BA0004A6362B6BFF36F8FBFF34F8FEBE700004E
:102BB00000003412008000403C003412280034121F
:102BC00074840010704770470022B2EBD10F26D2F8
:102BD0000368B3F1FF3F04BF4368B3F1FF3F17D170
:102BE0008368B3F1FF3F04BFC368B3F1FF3F0FD168
:102BF0000369B3F1FF3F04BF4369B3F1FF3F07D15E
:102C00008369B3F1FF3F04BFC369B3F1FF3F01D054
:102C1000002070472030521CB2EBD10FD8D30120D6
:102C2000704710B40023B3EBD20F30D2D0F800C0FD
:102C30000C68A44522D1D0F804C04C68A4451DD12D
:102C4000D0F808C08C68A44518D1D0F80CC0CC6866
:102C5000A44513D1D0F810C00C69A4450ED1D0F80A
:102C600014C04C69A44509D1D0F818C08C69A4459A
:102C700004D1D0F81CC0CC69A44502D010BC0020FF
:102C80007047203020315B1CB3EBD20FCED310BC89
:102C9000012070472DE9F041054601F090F8002031
:102CA00021264FF4825784464FF4E0221660C5F87F
:102CB00000C0116841F004011160116811F0040FA7
:102CC000FBD1176080232C460021D4F80080B8F196
:102CD000FF3F04BFD4F80480B8F1FF3F1DD1D4F802
:102CE0000880B8F1FF3F04BFD4F80C80B8F1FF3F73
:102CF00013D1D4F81080B8F1FF3F04BFD4F814808A
:102D0000B8F1FF3F09D1D4F81880B8F1FF3F04BFF4
:102D1000D4F81C80B8F1FF3F08D0C2F800C0401CB6
:102D2000C0B20828C2D30220BDE8F081491C20347B
:102D3000B1EBD30FC9D3C2F800C00120BDE8F081C8
:102D40002DE9F041054601F03AF8002009268446B5
:102D50004FF4E0231E60C5F800C0196841F004017B
:102D60001960196811F0040FFBD12C464FF48062F2
:102D700000212768B7F1FF3F04BF6768B7F1FF3F45
:102D800017D1A768B7F1FF3F04BFE768B7F1FF3F6E
:102D90000FD12769B7F1FF3F04BF6769B7F1FF3F64
:102DA00007D1A769B7F1FF3F04BFE769B7F1FF3F5C
:102DB00008D0C3F800C0401CC0B20328CAD3022008
:102DC000BDE8F081491C2034B1EBD20FD1D3C3F858
:102DD00000C00120BDE8F0812DE9F05F8846814602
:102DE00004274FF07F0A4FF0020B4FF4E02600F06B
:102DF000E6FF4946424653464FF0060CC6F800B07F
:102E000052F8040B41F8040BC6F800C0306810F00B
:102E1000040FFBD15B1EF1D2002030604C464546CA
:102E20001F20D4E900C3D4E90221D5F800E0E6452B
:102E300004BFD5F804C09C4505D1AB68934204BFDC
:102E4000EA688A4208D07F1E03D34846FFF722FF74
:102E5000CDE70220BDE8F09F10341035401EE0D2CF
:102E60000120BDE8F09F70B50D46044600F0A7FFB5
:102E70004FF400722146284619F079F9012070BDFF
:102E80002DE9F0410546C005ADF5007D14460E461E
:102E9000C00D25D0A8466FF308086F4600F08FFFDD
:102EA0004FF400724146384619F061F9C5F3080045
:102EB000C0F50077A74288BF274668443A463146A6
:102EC00019F064F94046FFF7E5FE022844D0694650
:102ED0004046FFF781FF022843D03D443E44E41BB7
:102EE000B4F5007F19D34FF400723146684619F0EB
:102EF0004DF92846FFF7CEFE02282DD06946284618
:102F0000FFF76AFF02282CD0A4F5007405F50075C0
:102F100006F50076B4F5007FE5D2C4B16F4600F047
:102F20004EFF4FF400722946384619F020F9224628
:102F30003146684619F02AF92846FFF7ABFE022809
:102F40000AD069462846FFF747FF022809D00DF549
:102F5000007D0120BDE8F0810DF5007D0A20BDE86F
:102F6000F0810DF5007D0B20BDE8F0812E49086051
:102F7000086100F010B82C490860486100F00BB8F7
:102F800029494867704728498867704726480121C2
:102F90000166016570474FF04022116B10F0010F80
:102FA00018BF21F4404110F0020F1CBF21F4405122
:102FB00041F4805110F0040F18BF21F4406110F06B
:102FC000080F18BF41F4407110F0100F18BF41F006
:102FD000C00110F0200F18BF41F0300110F0400F79
:102FE00018BF41F00C0110F0800F18BF41F0030131
:102FF00041F4BE0141F020411163D2F8901010F469
:10300000807F1CBF21F0030141F0020110F4007F1A
:103010001CBF21F00C0040F0080141F4BE0040F05C
:103020002040C2F89000704700100040704772B610
:10303000D3488268D3490A438260C2681143C160A1
:1030400062B64169D04A114341617047CC48416939
:1030500021F0010141F00D7141F08051416172B6E2
:10306000C16821F0400141F00D7141F08051C16013
:10307000816821F0400141F00D7141F08051816083
:1030800062B6704710B572B6BD4CA168BD48014329
:10309000A160E1680843E06062B66069BA4908432C
:1030A0006061BA4843F63F71C16000218163816469
:1030B000C0F8B01003210A2000F0A7F90A2000F0A0
:1030C000C7F9606920F0010040F00D7040F08050B9
:1030D000606172B6E06820F0400040F00D7040F092
:1030E0008050E060A06820F0400040F00D7040F09B
:1030F0008050A06062B610BDA44A10605160484381
:1031000090607047A14A10605160484310F0010F71
:1031100018BF401C906070479C49C1F8B0007047D0
:103120009A49002818BF012088647047974988632E
:10313000C86840F00200C8607047DFF850C2CCF8A1
:103140002000CCF82410CCF82820CCF82C3001201A
:10315000CCF83000DCF8340010F0010F05D020BFAF
:10316000DCF8340010F0010FF9D110F0020018BFA4
:103170004FF0FF3070478548C16821F00201C160FF
:1031800070478248C16841F00101C16070477F4BC0
:10319000186259629A6201201864586C10F0010F8D
:1031A00004D020BF586C10F0010FFAD110F00600C7
:1031B00018BF4FF0FF3070477448C16821F001011B
:1031C000C16070477148C16841F00401C160704737
:1031D000027C017B02F03F0241EA02416B4A9165A9
:1031E00001685162416891628168D1620121116573
:1031F000516D11F0010F04D020BF516D11F0010F7E
:10320000FAD1D36D8382D36D1B0CC382136E0383FB
:10321000136E1B0C4383536E8383526EC2F30E42B4
:10322000C28311F0020018BF4FF0FF3070475748BB
:10323000C16821F00401C16070475448C16841F081
:103240000801C1607047DFF844C1CCF87820CCF8A1
:103250002000CCF82430CCF828100120CCF87000E5
:10326000DCF8740010F0010F05D020BFDCF874000A
:1032700010F0010FF9D110F0060018BF4FF0FF3029
:1032800070474248C16821F00801C1607047016879
:103290004FEA31423D49C1F89C204068C1F8A00086
:1032A000C86840F02000C860704701684FEA3142AA
:1032B0003649C1F89C208088C1F8A000C86840F059
:1032C0002000C8607047314B18625A629962012031
:1032D000C3F89400D3F8980010F0010F05D020BF78
:1032E000D3F8980010F0010FF9D110F0060018BFC4
:1032F0004FF0FF307047254A106251620120C2F83A
:103300009000D2F8980010F0010F05D020BFD2F83D
:10331000980010F0010FF9D110F0060018BF4FF01F
:10332000FF3070471948C16821F02001C160704723
:103330001648C16841F01001C1607047A3F1050C47
:10334000124BC3F888C018625A6299620120C3F810
:103350008000D3F8840010F0010F05D020BFD3F80F
:10336000840010F0010FF9D110F0060018BF4FF0E3
:10337000FF3070470548C16821F01001C1607047F7
:1033800000800040400034120100341200900040E0
:103390001B4810B5022140F8501F01210161102186
:1033A000416241F206014161002181610421816392
:1033B00090214163416B41F0010141634FF4817100
:1033C00001610161032000F043F80021032000F0B7
:1033D0001CF8002010BD10B5032000F045F8084887
:1033E0004FF480710166002101661021816702217E
:1033F0004165002010BD034900200870704700009F
:103400000030004078840010704700F00303DA00B9
:103410004FF0FF0C0CFA02F24FF0050C0CEBC3035B
:1034200001FA03F300F00C0101F1E021002807DAB2
:10343000D1F8140D90431A401043C1F8140D704791
:10344000D1F8000490431A401043C1F800047047BB
:1034500000F01F01012202FA01F14009800000F191
:10346000E020C0F80011704700F01F01012202FAAD
:1034700001F14009800000F1E020C0F880117047A0
:1034800000F01F01012202FA01F14009800000F161
:10349000E020C0F8801270474FF0E021C1F8000131
:1034A00070474FF0E021C1F8800170474FF0E020F5
:1034B000D0F8000170474FF0E021C1F8800270475A
:1034C000084800687047074A11681060084670474E
:1034D000044A126800F1100352F8230042F8231046
:1034E0007047000008ED00E002210C20FFF78DBFBF
:1034F00072B6BC488268BC490A438260C268114304
:10350000C16062B6704772B6B648816821F48051D6
:1035100041F00D7141F080518160C16821F480510A
:1035200041F00D7141F08051C16062B67047AF4803
:1035300081B0016F11F4007FFBD1816E11F0010F9A
:103540001CBFD0F88410009104D0D0F88410009AE9
:103550009142FAD0016F11F4007F04BF4CF2710167
:10356000016642F24131816601B070479F4981B0E6
:103570004FF40D528A660A6FCA66012898BF01206F
:1035800005D9401EB0F5803F28BF4FF6FF7082B2CC
:103590004FF05C5040EA022048664FF01140C1F8FD
:1035A0008000086F10F4007FFBD1886E10F0010FCF
:1035B0001CBFD1F88400009004D0D1F88400009A98
:1035C0009042FAD0086F10F4007F04BF4CF27100F3
:1035D000086642F24130886601B07047834881B086
:1035E000016F11F4007FFBD1816E11F0010F1CBF40
:1035F000D0F88410009104D0D0F88410009A914241
:10360000FAD04FF40D51816601B07047754880685B
:1036100010F4805008BF70477448806E00F00100BD
:1036200070477248406EC0F30F2070476F48D0F863
:103630008400704710B50C20FFF722FF0C20FFF725
:1036400007FF6A490220486710BD684910B503208A
:1036500088670C20FFF708FFBDE810400C20FFF73B
:103660000FBF634A11681060084670475F4810B585
:10367000016FC1665E480068002818BF80475D483A
:10368000016841F48051016010BD5948406870479D
:1036900010B572B65348826853490A438260C268C3
:1036A0001143C16062B60320504988670C20FFF7C0
:1036B000DBFE0C20FFF7E4FE00F062F94E4B042025
:1036C000C3F888004FF6FF70C3F88C0072B6603301
:1036D000FFF74CFF4FF40070186062B610BDF8B5EC
:1036E00072B64248016F11F4007FFBD1816E11F078
:1036F000010F1CBFD0F88410009104D0D0F88410C2
:10370000009A9142FAD04FF40D5181663A494FF434
:1037100000320A6662B6D1F80412324D002946D052
:10372000334C4FF6FF73591AA160AA69D5F81CC033
:1037300002F00F020CF00F0C6244121D01FA02F2AB
:10374000A2F54341DFF8B4C0513961452FD2D0F81A
:103750008400191AE160B1F5803F28D2284B4FF060
:10376000000CA1FB03070CFB037301FB0C31634648
:1037700018F011FD401C40082061B0F57A7F38BF79
:103780004FF47A701F4B9968002908BF98605A68F7
:103790001A609968C3E901108A421DD9824205D98D
:1037A000814201D9616002E0606000E0626000F087
:1037B000F5F872B6A86820F4805040F00D7040F023
:1037C0008050A860E86820F4805040F00D7040F010
:1037D0008050E86062B6F8BD8242E7D88142E3D803
:1037E000E0E70000008000400010341200C00040FC
:1037F0007C8400107484001000A000404F622500FB
:1038000000E1F505D88800100F4881680F4A114380
:1038100081600F48016841F404710160001F016874
:1038200021F004010160016841F01001016070475E
:10383000084908607047BFF34F8F08490648086081
:10384000BFF34F8FFEE700000080004004003412F9
:1038500014ED00E008ED00E00400FA050CED00E0D6
:1038600015488168154A114381601003416941F090
:1038700001014161016A21F00F0211490A4302620C
:10388000104B8A1EC3F8C420016570474FF04020DA
:10389000006900F0700070474FF040200A4940F87E
:1038A000301F0A4941600A4901660A49416670476A
:1038B0004FF0402040687047008000400400341200
:1038C00003005FA000600040C0845FA050995FA02B
:1038D0000A005FA000005FA0022824BF00207047FC
:1038E000E44B53F8202043F820101046704770B581
:1038F000E14C206FDF4D10F0010F05D00120E06694
:103900002868002818BF8047206F10F0020F08BFFA
:1039100070BD0220E0666868002808BF70BDBDE881
:103920007040004710B572B6D4488268D4490A4343
:103930008260C2681143C16062B60222CE490A6544
:1039400001230B660323CB664A6572B6816821F0BA
:10395000800141F00D7141F080518160C16821F01A
:10396000800141F00D7141F08051C16062B60920C3
:10397000FFF76EFD0221BDE810400920FFF745BDAD
:1039800072B6BE488268BE490A438260C26811436B
:10399000C16062B60220B84908657047B649022086
:1039A000486572B6B548816821F0800141F00D711B
:1039B00041F080518160C16821F0800141F00D71BA
:1039C00041F08051C16062B67047AC488068C0F376
:1039D000C0107047A848016F11F4007F14BF4FF466
:1039E00040714FF480710166704710B5A24CE06FD2
:1039F00010F0020F4FF0010018BF0320606700F0C5
:103A000077F99E498A69C96902F00F02D04001F036
:103A10000F01C8400521B0FBF1F04FF4057100091A
:103A2000C4F880109749A1FB00104009C4F8840035
:103A3000206F10F4007F14BF4FF440704FF480707B
:103A4000206610BD8C48016F11F4807F14BF4FF4C5
:103A500040714FF4007101667047874B30B4DA6FE4
:103A600012F0010F14BF032202225A6700EB400537
:103A7000C5EBC010C1EBC0004FF4FA744C43C0EB6F
:103A8000001000EB4000804904EBC000A1FB0010D7
:103A90007A4900224FF0020C8C69C008C96904F011
:103AA0000F0401F00F012144C8400521B0FBF1F0E3
:103AB000B0F5803F05D3511C4008CAB2B0F5803F35
:103AC000F9D242EA0C2141F01001C3F88810C3F882
:103AD0008C00186F10F4807F14BF4FF440704FF4C7
:103AE0000070186630BC70476348016F11F4003FE6
:103AF00014BF4FF440314FF48031016670475E4887
:103B0000016F11F4803F14BF4FF440314FF4003186
:103B1000016670475848006FC0F300207047564850
:103B2000006FC0F34020704754498968C1F3C01149
:103B3000002904BF002070474F4900280CBFD1F86E
:103B40000002D1F8040270474C4B9A68C2F3C012CD
:103B5000002A04BF00207047474A00280CBFD2F853
:103B60008000D2F88800C0F30A200CBFD2F8802071
:103B7000D2F8882002F00F02D3F818C0DB690CF0ED
:103B80000F0C03F00F0363441A449140012202EB2F
:103B9000400048433B49A1FB0010000970473B49E6
:103BA00001200870704770B4344B322251439A6937
:103BB000D3F81CC002F00F020CF00F0C6244121D6F
:103BC000D14008BF012104D0B1F5803F28BF4FF696
:103BD000FF719A68C2F3C012002A1CBF70BC704704
:103BE00072B6D3F808C0264A4CEA020CC3F808C0E3
:103BF000D3F80CC04CEA0202DA6062B61E4A4FF0FB
:103C0000020CC2F850C04FF4003414660425C2F808
:103C10008850C2F88C101E4DD566C2F874C01D497C
:103C200002283CBF134E46F82010002117480170AF
:103C30004FF400711166017819B920BF017800298D
:103C4000FBD014669567D566C2F854C072B6986802
:103C500020F0800040F00D7040F080509860D868EF
:103C600020F0800040F00D7040F08050D86062B6C7
:103C700070BC70479484001000A000400080004099
:103C8000800034121F85EB51CDCCCCCC9084001039
:103C9000020002024F5B00004FF0E021002088612B
:103CA000086127494860704710B54FF0E024606113
:103CB0000020A0610221401EFFF7A7FB0720206122
:103CC000BDE8104007F088BE10B507F089FE4FF040
:103CD000E0210020086110BD10B507F081FE4FF013
:103CE000E0210020086116480188491C018010BDB0
:103CF0001348806870472DE9F041114C00270546B4
:103D00002780A0684FF47A71B0FBF1F04FF0E02605
:103D1000401E7061B7610221C81EFFF776FB0720C5
:103D2000306107F059FE2188A942FCD307F058FE04
:103D30003761BDE8F0810349484301498860704715
:103D40009C84001040420F00704770B505464FF448
:103D50000D500406A0660320E066264860664CF21B
:103D6000710020662448C4F8800042F24630A06604
:103D700002210020FFF749FB0020FFF769FB002D1F
:103D800008BF70BDA06E42F241310843A06670BD0D
:103D9000012110B5880781674FF40D51816600201D
:103DA000FFF762FBBDE810400020FFF769BB012070
:103DB00081074867704701208107886770474CF288
:103DC00071008107086670470C4A11681060084648
:103DD00070470A4808B5006818B18047002818BF26
:103DE00008BD4CF2710188070166016FC166006F62
:103DF000009008BD075E5F3700AF2F91A8840010C8
:103E000070B5FA4D00244FF4E4612C706C70EC70C6
:103E1000F74818F0B1F94FF4E461F64818F0ACF93E
:103E2000AC602C714C21F44818F0A6F94C21F348F1
:103E300018F0A2F96C717421F14818F09DF9742101
:103E4000F04818F099F9EC60AC71EC612C626C628E
:103E5000AC62EC622C632C6170BDE44900204870B8
:103E60007047E24840787047E0480079002818BF62
:103E700001207047DD488079002818BF0120704775
:103E8000DA484079002818BF01207047D748C07829
:103E9000002818BF012070470021D448C162016387
:103EA0007047D948704770B5D84A054610785178A0
:103EB0004218520014462946D34818F067F92246A2
:103EC0002946D34818F062F9C8490120887170BDAD
:103ED000C64800697047C548407800EB4001C1EB17
:103EE0004010C74901EB800070472DE9F041BF4DFC
:103EF0000446C3496A78C74F02EB4200C0EB421048
:103F0000C54E01EB80033A783078214610444200D8
:103F1000184618F03BF96A78BA4902EB4200C0EB48
:103F2000421001EB80033A78307821461044420079
:103F3000184618F02BF901206871BDE8F081AB48F4
:103F4000C0687047A9484078C0EBC001C1EB801041
:103F5000A74901EB401070472DE9F041A34E0746F9
:103F60003078002814BFAD48AD48047814BFAD4880
:103F7000AD48057804FB05F8FFF759F829462046B7
:103F8000FFF7BAF870789B4CC0EBC001C1EB801012
:103F9000974904EB401201EB40103B460146FFF706
:103FA000CCF8FFF753F870784FEA4802C0EBC00135
:103FB000C1EB801004EB4010394618F0E7F80120FF
:103FC000F070BDE8F0812DE9F047884D044688493E
:103FD0006A78DFF84882C2EBC200C0EB821001EBC6
:103FE00040132878DFF838928E4E8F4F002815BF87
:103FF00098F8000099F8000032783A7800FB02F057
:104000004FEA40022146184618F0C0F86A7879490C
:10401000C2EBC200C0EB821001EB401C28782146A5
:10402000002815BF98F8002099F8002033783B78D5
:1040300002FB03F04FEA4002604618F0A7F80120A7
:10404000E870BDE8F08769488068704770B5774CC4
:104050000546014622786848520018F097F8227801
:1040600029465200654818F091F86049012008710E
:1040700070BD2DE9F04FADF26C7DDFF8709101203D
:10408000CDF84C0799F80300CDF8480799F80400DB
:10409000CDF8440799F80500CDF8400799F80600D7
:1040A000CDF83C0701F0B2FC8046FDF7AFFDCDF83E
:1040B0006407FDF78FFFCDF86007FDF7F9F9CDF83C
:1040C0005C07FCF724FF0446FCF71EFF0646FDF7DD
:1040D0009FFD99F802000025002804BF0420C9F8BC
:1040E000180008D0B8F1020F1CBF0A20C9F8180048
:1040F0000CD089F80250FDF7A2F9083000094FF002
:10410000010BCDF85007022E0AD022E012F0D5FEA6
:1041100010F4817F14BF3C201E20C9F81800E8E786
:10412000B8F1020F03D0B8F1050F08D011E04FF439
:104130007A71484390FBF1F0C9F8180007E007F0E6
:10414000F8FD002814BF05201220C9F8180089F8CE
:1041500002B0D9F818000428BCBF0420C9F8180020
:1041600099F80200B9F81810000240EA014040F046
:1041700001020023912107200BF0EEFF14F0010F44
:104180002ED1B8F1020F2BD00020FDF787F9FDF7F3
:104190007BFF18F005F800252F46CDF8385706F0BC
:1041A000E1FA012846D00DF5E460FEF757F9002842
:1041B00000F0DF820DF5E46007F0CDFA002089F809
:1041C0000100D9F81800C01E8542CABF87420124E9
:1041D0000024DDF82C0758B3DDF8440748B35DE050
:1041E000FDF7FEFE0020CDF84C07D2E7AC840010AE
:1041F000F82A0110E4880010449E0010909E0010E0
:1042000018320110DC9E0010C884001017850010C1
:10421000D084001014850010158500101285001040
:104220000F850010138500101085001016850010F2
:1042300034E004E00120CDF8380700F084BA684685
:10424000DDF82C1717F0B1FF82467CB1F94E5146CC
:1042500030784200F84817F099FF30785146420014
:10426000F64817F093FF89F804B017E0FEF7DFFE79
:10427000F04E01213078FEF73FFFF04A5346A2F19D
:104280004C010846FEF759FFFEF7E0FE3078514634
:104290004200EA4817F07AFF89F804B0DDF82807F1
:1042A000002800F0D680DDF84807002840F0D180D3
:1042B00099F80000DDF82867F0BBD9F808A0BAF13A
:1042C000000F24D0DE480078CDF85807DD4800788C
:1042D000CDF85407FEF7ABFEDDF85417DDF85807AC
:1042E000FEF710FF314652460846FEF750FFFEF734
:1042F000ADFED5480078022804BF504606F069FE9E
:10430000D1480078092804BF304606F062FECF4845
:104310000078012816D9DFF830A39AF800000428A5
:1043200004BF304606F055FE3146684617F042FF9E
:1043300006469AF8000000E004E0052804BF304675
:1043400006F047FECCB399F8010099F80020C0EBC5
:10435000C001C1EB8011BE48002A00EB411031467C
:104360000CBFBC4AB64A137814BFB64ABA4A127890
:1043700003FB02F24FEA420217F008FF99F801002E
:10438000C0EBC001C1EB8011B44800EB411399F8B8
:1043900000003146002814BFA948AE48007814BF79
:1043A000A84AAD4A127800FB02F04FEA40021846D4
:1043B00017F0ECFE89F803B03CE0FFE7CDF8546756
:1043C00099F80000002814BF9D48A24890F800A06A
:1043D00014BF9C48A04806780AFB06F0CDF85807A1
:1043E000FEF725FE31465046FEF786FE99F801009D
:1043F0009A4EC0EBC001C1EB8010954906EB40120C
:1044000001EB40100146DDF85437FEF796FEFEF74B
:104410001DFEDDF85807420099F80100C0EBC0010D
:10442000C1EB801006EB4010DDF8541717F0AEFE1C
:1044300089F803B08448007803280AD199F801006C
:10444000C0EBC001C1EB8011814800EB411006F0C8
:10445000C0FDDDF8300700287ED0DDF840070028D9
:104460007AD199F80000DDF8306748BBD9F80CA084
:10447000BAF1000F24D07A4801787A4800780844CD
:10448000401C4008019002200090FEF7D0FDDDE9BD
:104490000010FEF737FE314652460846FEF777FE1B
:1044A000FEF7D4FD70480078022804BF504606F09D
:1044B0002CFF6D480078092804BF304606F025FF20
:1044C0004CB399F80100DFF898A100EB4001C1EB73
:1044D000401166489AF8002000EB8103614831469C
:1044E000007810444200184617F050FE99F8010079
:1044F0005C4A00EB4001C1EB40115D489AF8003086
:10450000127800EB81001A443146520017F03EFE4B
:1045100089F805B02FE0524800960178514800789C
:104520000E18FEF784FD701C40080221FEF7E4FD22
:1045300099F80100DFF838A100EB4001C1EB401011
:104540004A490AEB800201EB80010846009BFEF716
:10455000F4FDFEF77BFD00E01CE099F8010072001D
:1045600000EB4001C1EB40100AEB8000009917F00E
:104570000DFE89F805B03C48007803280AD199F867
:10458000010000EB4001C1EB4011384800EB810015
:1045900006F0BBFEDDF83407002873D0DDF83C07D9
:1045A00030B1B8F1020F18BFB8F1050F6BD0BDE004
:1045B00099F80000DDF8346740BBD9F810A0BAF1D3
:1045C000000F23D02B48017840780844401C400855
:1045D000019002200090FEF72AFDDDE90010FEF7B1
:1045E00091FD314652460846FEF7D1FDFEF72EFDFD
:1045F00021480078022804BF504606F0A5FF1E4857
:104600000078092804BF304606F09EFF194801785B
:10461000407874B10844440022463146174817F0E8
:10462000B5FD22463146164817F0B0FD89F806B0B0
:1046300042E029E016850010449E0010909E001074
:10464000128500101385001095850010118500104B
:10465000F82A01100F85001010850010E488001062
:1046600014850010158500109A850010183201106D
:10467000DC9E0010178500109F850010C884001074
:10468000D084001052E028E00C18FEF7D0FC601C2B
:1046900040080221FEF730FDF84A3346A2F1080136
:1046A0000846FEF74AFDFEF7D1FC62003146F348AA
:1046B00017F06CFD89F806B0F1480078032804BFB4
:1046C000F04806F041FF17F07AFD0020C9F82C00F1
:1046D000C9F8300000F0E9FD28E00021DDF83407DA
:1046E00017F072FDDDF85007782828BF15F0010F8C
:1046F0001CD0E54C207A58B10820FCF75CF8E34A5E
:104700001378527899184A0001460820FBF704FEF6
:10471000E07958B10720FCF74EF8DC4A0146072043
:10472000137852781A445200FBF7F6FDFDF7F2FEBB
:10473000D9F818006D1C7F1C8542A8BF874211DB89
:10474000D9F8140070B1FDF763FADDF85C07FCF7E7
:10475000A5FEDDF8640788B1DDF8600760B1FDF7FC
:1047600093FC0BE0DDF84C07002818BFFDF78CFC2C
:1047700015E501F098F912E5FDF732FCDDF8380790
:10478000002804BF0420C9F818000FD0DDF848073E
:1047900089F80300DDF8440789F80400DDF84007D4
:1047A00089F80500DDF83C0789F80600DDF83807D0
:1047B000B9F81810000240EA0142002391210720B5
:1047C0000BF0CAFCDDF838070DF26C7DBDE8F08F08
:1047D00010B50024FDF7F0FBAD4910F0020F0AD030
:1047E000CA78002A08BF012410F0040F03D00A7908
:1047F000002A08BF012410F0010F03D04A79002AD3
:1048000008BF012410F0200F03D08879002808BFCA
:1048100001240020002C08BF10BD00200870BDE856
:10482000104026E438B505460F2412F046FB40B18F
:1048300001F0ECF8022803D001F0E8F8052800D1D7
:104840000E242146284601F031FA012804D1FFF751
:10485000BFFF009001F0ADFB8D48C17800291CBF5F
:104860004179002906D0817900291FBF00790028ED
:10487000012038BD002038BDD4E7704770B5844CA6
:1048800000250646E57025716571FBF7DFFF0028FE
:1048900018BFA571002E1CBF0120A070BDE870409C
:1048A0000CF0BEB9002818BF01207949C8717047C3
:1048B0007748C079704777487047774801787748DC
:1048C000007848434100734817F056BC70B506465F
:1048D0007148047871480578FEF7A9FB29462046FF
:1048E000FEF710FC6A484078C0EBC001C1EB8010B5
:1048F0006B4901EB401231466648FEF748FCFEF773
:10490000A5FB68480078152818BF70BD6148BDE850
:10491000704006F05EBB002818BF01205C49C870DB
:10492000704710B55A4C002804BFA06010BDDFF8D6
:1049300078C15E490B785E490A7801465A435200B5
:10494000604617F023FC5848A06010BD59487047D6
:10495000002818BF01204E4908717047002818BF71
:1049600001204B494871704710B5494C002804BFDD
:10497000E06010BD742201464F4817F007FC4E4816
:10498000E06010BD002818BF0120414988717047C0
:1049900010B53F4C002804BF206110BD3B490A7888
:1049A000497811444A000146444817F0EFFB434858
:1049B000206110BD42487047344A01464048137890
:1049C00052781A44520017F0E1BB30B44FF0000C9B
:1049D000029C634304BF30BC704732F91C4051F85D
:1049E0002C502C4440F82C400CF1010C6345F4D8B9
:1049F00030BC7047002B08BF704710B4DDF804C00E
:104A0000BCF1000F4FF0000C11D0002A9CBF10BC6D
:104A1000704751F82C4004EB5304B4FBF3F420F836
:104A20001C400CF1010C6245F3D810BC7047002A01
:104A30009CBF10BC704751F82C4094FBF3F420F855
:104A40001C400CF1010C6245F5D810BC704770B5E4
:104A50000F4D00260446EE702E716E71FBF7F6FEC8
:104A6000002818BFAE710CF0DBF8002C14BF012039
:104A700000202870BDE87040FFF7FBBAD08400101A
:104A80009F850010C8840010008800101785001052
:104A9000AC840010049000100F85001010850010E9
:104AA000F82A011095850010249700101285001037
:104AB00013850010449E0010509F0010E0840010E9
:104AC000D88400102DE9F04F8FB04FF4E461FE4818
:104AD00017F052FB7421FD4817F04EFBFC4E0020EE
:104AE0007063B0630090019002900390FDF764FA48
:104AF0000446FDF78BF80C90FDF76CFA0B90FCF771
:104B0000D7FC0A90FDF784F80020FCF7C7FCFDF7FE
:104B1000BBFA00273D4605F025FE012878D004A801
:104B2000FDF79CFC002872D004A806F014FE14F0D7
:104B3000020F1DD0E4480D908346E648DDF818A02A
:104B400090F80080E44890F80090FEF770FA012099
:104B5000FEF7E6FA49464046FEF7D4FA5A46514671
:104B60000D98FEF714FB0020FEF7DAFAFEF76EFA56
:104B700014F0010F21D0D5480D908346D7484FF04F
:104B80000209DDF820A00178D54800780844401CCF
:104B90004FEA5008FEF74BFA0120FEF7C1FA4946EA
:104BA0004046FEF7AFFA5A4651460D98FEF7EFFA27
:104BB0000020FEF7B5FAFEF749FA14F0200F1DD0D9
:104BC000C8496B46099891F800C049781A46614473
:104BD000491C4FEA510C00214FF002085FEA4C09D2
:104BE00018BF0CFB08FC09D030F9118052F8219055
:104BF000C84443F82180491C8C45F5D8FDF78AFC50
:104C00007F1C102F05D2FDF73FFA84E700E00CE08F
:104C10000125FCF7FDFF0A98FCF740FC0C9848B111
:104C20000B9828B1FDF730FA04E000F03CFF72E782
:104C3000FDF7D6F9002D52D114F0020F18D0A54877
:104C4000A14B0178A4489C46007801FB00F210209B
:104C50000021002A0AD93CF9118008EB5008B8FB62
:104C6000F0F723F81170491C8A42F4D89648B060D6
:104C700014F0010F18D09948944B017898481F46BA
:104C800000780A184FF010004FF000010AD037F9F1
:104C9000118008EB5008B8FBF0FC23F811C0491C48
:104CA0008A42F4D88948F06014F0200F17D08D485C
:104CB0008D4C6B46017840780A184FF010014FF088
:104CC00000000AD053F820C00CEB510CBCFBF1FCE7
:104CD00024F810C0401C8242F4D8834830610FB0E1
:104CE0002846BDE8F08F012070474FF43F307047F1
:104CF0004FF43F30006870474FF43F310A68B2F11B
:104D0000FF3F15D0052804BFC87A704728DC01286A
:104D100004BF08797047022804BF087A7047032847
:104D200004BF487A7047042804BF887A704727E098
:104D3000052813D007DC012822D002281CBF032835
:104D400004280BD01CE0142812BF15282D20704712
:104D5000162804BF28207047172811D1002070475B
:104D6000142804BF087B7047152804BF487B704790
:104D7000162804BF887B7047172804BFC87B70477C
:104D8000FF20704770B5ADF5007D00244FF4007131
:104D9000684617F0F1F94FF43F36FF224FF40071E7
:104DA000684617F016FAFF21254661F307052D2204
:104DB000214662F3070162F30F2128224BF6BB3034
:104DC00062F3174164F31F61CDE90005CDE90241AB
:104DD00004943046FDF75EFF69463046FDF7FCFF60
:104DE0000DF5007D70BD2DE9F04F4FF43F34ADF56A
:104DF000017D834620688A9F984691468A46B0F195
:104E0000FF3F08BFFFF7BEFFD4E901106AF30700B8
:104E100069F30F20256868F31740D4E903646BF346
:104E2000070167F31F608B460746FF224FF40071AE
:104E3000684617F0CEF90297CDE90364CDE9005B2F
:104E40004FF43F342046FDF725FF69462046FDF725
:104E5000C3FF012818BF00200DF5017DBDE8F08FCC
:104E60002DE9F04F4FF43F3389461D680021ADF521
:104E7000017D90468246B5F1FF3F02BF08460DF521
:104E8000017DBDE8F08FFF22D3E902744FF4007179
:104E90006846D3F810B05E6817F09BF96AF3070410
:104EA00069F30F2468F31744012060F31F64CDE910
:104EB0000274CDE900564FF43F34CDF810B02046CF
:104EC000FDF7E8FE694611E024970010509F00109E
:104ED000AC8400101285001013850010148500109A
:104EE0001585001017850010E08400102046FDF79E
:104EF00073FF0DF5017DBDE8F08F2DE9F04F4FF404
:104F00003F30894E00250368ADF5017D74422F4680
:104F10001720FFF7F1FE84461420FFF7EDFE40B2A4
:104F2000B3F1FF3F04D0BCF1000F03D12D2801D015
:104F3000FFF728FF1420FFF7DFFE40B20290152094
:104F4000FFF7DAFE4FFA80F91620FFF7D5FE40B2E0
:104F500001901620FFF7D0FE404240B20090FDF7CE
:104F60002BF8DFF8C8A1834600208AF803008AF8EE
:104F700004008AF80500FBF769FC00281CBF00202C
:104F80008AF806000BF04CFE00208AF80000FFF7BC
:104F900070F81BF0010F04D017F020F9012808BFAA
:104FA00001251BF0020F7DD061489AF801104FF0E7
:104FB000000890F800C05F48C1EBC102C2EB81114C
:104FC00000785D4A002802EB4112C8BFACF1010A2B
:104FD0001EDD0021BAF1000F16DD01F1010B01FB0E
:104FE00000830BFB008B32F8133032F81BB0A3EBBD
:104FF0000B031BB2002BB8BF5B421BB2BB42C8BF46
:105000001F46491C5145E8DB08F101088045E0DBFB
:10501000B945B8BF45F002054FF00008C146BCF1E4
:10502000000FC8BFA0F1010A1BDD0021BAF1000F7B
:1050300013DD09FB001332F813B002EB43035B8866
:10504000ABEB03031BB2002BB8BF5B421BB2434563
:10505000C8BF9846491C5145EBDB09F10109E14500
:10506000E3DB02994145B8BF45F004054FF0000964
:10507000BCF1000F13DD002300280CDD09FB00311B
:1050800032F91110B142C8BF0E46A142B8BF0C465A
:105090005B1C8342F2DB09F10109E145EBDB01987E
:1050A000B04200E005E002DB0098A04201DD45F0DF
:1050B0000805604208F0FF0B4FF43F3400F0FF0892
:1050C000206807F0FF0A06F0FF09B0F1FF3F08BFB4
:1050D000FFF758FED4E901106BF307006AF30F20C5
:1050E000266869F31740D4E9037465F3070168F390
:1050F0001F600D468046FF224FF40071684617F08E
:1051000068F8CDF80880CDE90374CDE900654FF467
:105110003F342046FDF7BEFD69462046FDF75CFEA4
:105120000DF5017DBDE8F08FF1D8FFFFAC840010D4
:10513000108500100F850010F82A0110F84920F0A2
:105140007E4008617047F64800697047F44800895E
:105150007047F34840897047F148B0F90C00704738
:10516000084318BF7047EE48006910F0807F1CBFED
:105170000020107070472DE9FF5FEA480027DDF836
:105180003CA005780E98119E8B46B9463C4650458A
:105190002CD006FB050E10983BF91EC006FB050936
:1051A0003BF91900BCEB000148BFA0EB0C0106FB6A
:1051B00005A83BF91840B4EB000C48BFA0EB040C69
:1051C00001EB0C0004B232F91EC032F91900BCEB3D
:1051D000000148BFA0EB0C0132F918C0BCEB000283
:1051E00048BFA0EB0C0288180FFA80F9012B37D0CA
:1051F0004FF0010816F0F7FFCB49002C0A7807DDC5
:10520000109906FB05113BF911101431282909D812
:105210000099B1F914103C2904DC0099B1F9161079
:105220003C2926DD0E9902EB0A0C11448C4520D94D
:10523000129B139D13442A448B421CBF8D1A15F1F7
:10524000020F30F9115000EB4106B6F90260A5EBF0
:10525000060508D01E353C2D08D94FF0000808E09F
:10526000A1450CDD0AE00A35142DF6D8491C8C4501
:10527000E2D8A14503DDB8F1000F00D0012704B04A
:105280003846BDE8F09F7047A84A0280428000215E
:105290008280C1800181534243818181C181018229
:1052A00041828182C182028370479D490020C8816A
:1052B000486170479A4800218161C16170479C48EC
:1052C00070479C4A01469A48137852781A44520013
:1052D00016F05CBF2DE9F04383B00C460546FFF79E
:1052E00069FB024692480021031F002C88BF4FF043
:1052F000010C0AD95E5C2EB935F911603C2EA8BFAD
:1053000003F801C0491CA142F4D3854EB6F80E80C3
:10531000B8F1000F09D10021002C06D935F811C0D1
:1053200020F811C0491C8C42F8D80021EC46002C12
:105330000AD935F8117030F81190A7EB09072CF84D
:105340001170491C8C42F4D8B8F11E0F24BF002103
:10535000002C11D9585C00281CBF3CF9110010F139
:10536000140F06DD142804DC32F81170384422F8DA
:105370001100491CA142EDD31046FFF71DFBF08937
:1053800042F2107188423ABF401CF081F1816948B5
:1053900029460278407810444200654816F0F6FE2F
:1053A00003B0BDE8F0835E480078002818BF0120F4
:1053B000704710B54FF4E4615F4816F0DDFE5849C0
:1053C0000020087010BD2DE9F04F85B09846DDE94A
:1053D0000FB591460F4604460E9E0BF032FC4FF07F
:1053E000000A00287ED100F011FB05287AD00A209F
:1053F0000297CDE903505148494F1E25007800908F
:10540000494800780190388910B97878012814D17A
:105410000BF052FC88B9BBF1010F0ED0012E02D166
:105420007889C82809D87889002804BF38890028D5
:1054300003D00BF0B9FC012809D107F016F928B305
:1054400011F0EBFD10B311F0AAFD08281ED00BF0EF
:10545000E4FB012809D007F008F968B111F0DDFD7F
:1054600050B111F09CFD082806D005200490039847
:1054700001280CBF41253C250020DDE900128918D8
:105480000BD0029A32F91020AA4202DD87F807A059
:1054900014E0401C80B28142F3D8386910F4803F98
:1054A0000CD0F879401CC0B2F8710499884205D933
:1054B000012078714FF0FF3487F807A00BF0ADFBA7
:1054C00001281FD10A25002E26DCBBF1010F23D0B5
:1054D000386910F4003F15D0B879401CB87111F04C
:1054E0009CFD00E00EE020B111F059FD082818BF26
:1054F0000525B879A84205D9012078714FF0FF340D
:1055000087F806A011F0D9FC10F4807F3ED000F09F
:105510007DFA022814D039E087F806A0F2E70000EF
:10552000E88400100F85001015850010F1D8FFFFEA
:105530000085001017850010B4A500101485001018
:105540004FF0010B16F054FE074611F09EFC054685
:1055500011F097FC024600210020002D08D900FB25
:10556000021337F913300F2B10DB401CA842F6D37F
:10557000BBF1000F0AD0491C0129EDD9BBF1000F86
:1055800004D04FF0FF340120FE49487111F045FD71
:1055900070B111F004FD08280AD000F03DFA04288B
:1055A00008BF002E04D1F74901204FF0FF344871A5
:1055B000B4F1FF3F2AD0002C1CBF05B0BDE8F08F2E
:1055C000F04CE07801281CBF05B0BDE8F08F84F8EE
:1055D00003A04FF4E461EC4816F0CEFD84F800A07F
:1055E00000F01AFA042830D0B9F1000F1CBF484669
:1055F000FEF7E9FCB8F1000F04BF05B0BDE8F08F7D
:10560000404605B0BDE8F04FFEF76FBCDD4C607959
:1056100001281CBF05B0BDE8F08F4846FFF756F9DA
:1056200084F805A04FF4E461D74816F0A5FD84F88E
:1056300000A0B9F1000F1CBF4846FEF7C4FCB8F14A
:10564000000FDDD105B0BDE8F08FB9F1000F1CBF30
:105650004846FEF781FCB8F1000F04BF05B0BDE875
:10566000F08F404605B0BDE8F04F16F0C6BD2DE9FD
:10567000FF4FADF6646D9B464FF01E0ADDF8AC8E11
:1056800006F0F3FF012808BF4FF03C0ABBF91410E5
:105690000123DDF8982EDDF8640E16F0B3FDDFF877
:1056A000E4920020054689F80100FEF74BFCB74F55
:1056B00006463C7800F0AAF905289BF80C0017D0A4
:1056C000BBF80E30C1B28B4224BFBBF80820BBF838
:1056D0000AC034D3D0B284452CD301FB040B36F975
:1056E0001BB00BF1140BBBF1280F1FD9012526E0CD
:1056F000BBF80E30C0B2834224BFBBF80820BBF811
:105700000AC01CD3D1B28C450AD300FB041B36F966
:105710001BB01BF1140FE9DB491CC9B28C45F4D254
:105720006DB9401CC0B28342ECD208E0401CC0B24C
:105730008445D2D21DB9481CC1B28B42CAD291480D
:1057400045700078924D80B30BF067FA01282CD099
:1057500006F08BFF012828D1DFF82C9297F800B0D3
:10576000DDF8646E2C785B464A46314601A8009409
:1057700016F04DFD5B46324649460DF2247000940A
:1057800016F045FD0DF6486101A816F045FD0446EA
:105790000DF648610DF2247016F03EFD142CD6BFB4
:1057A00014280120002088F8000011F086FB10F476
:1057B000817F14D1DDF8980EB0F9120000280EDCBC
:1057C0000BF02BFA01280AD011F027FC18B111F0C8
:1057D000E6FB082803D16B48407801287ED147F6C4
:1057E000FF70DDF86C6E0390287801904FF000098F
:1057F000DDF89C4E3F784D4611F05FFB10F4817F41
:1058000014BF4FF00F08D04611F057FB10F4817F02
:1058100014BF6FF00E00CAF10000029011F04DFBB2
:1058200010F4807F1CBF4FF0010B4FF0200C0ED105
:1058300011F043FB10F0020F4FF0000B08BFBC4605
:1058400005D05448006890F83D0100F1010C00209B
:105850000090039880456ADADDE9002000287ED9AF
:10586000ACF1010005900198401E0490ACF10200DB
:1058700003905846E34538BF13B253D202FB070AE0
:105880001FFA8AF136F911100029B4BFC1F1000ED8
:105890008E46C6451ADD41450BDDB4F904E071457D
:1058A00002DDA180E080238109F101010FFA81F975
:1058B0000CE0DDF808E08E4508DDB4F90AE08E451D
:1058C00002DD6181A081E381691C0DB205998842E6
:1058D00025D236F91AE006EB4A0100E046E0B1F9BC
:1058E00002A0BEEB0A0148BFAAEB0E0109B2DDF827
:1058F00000A052451CBFDDF810A0524505D0584508
:105900001CBFDDF80CA0504504D1B4F902A08A45B3
:10591000B8BF6180B4F900A08A45B8BF2180401C9F
:105920006045ABD30198521C8242A2D317E0DDE957
:105930000001002913D95B46E3450CD200FB073177
:1059400089B236F9112002998A42BCBF691C0DB296
:105950005B1C6345F2D30199401C8842EBD3A4F849
:1059600010906582DDF8A41E01200870DDF89C0E01
:10597000B0F91000002814DCDDF89C0EB0F912001C
:10598000002809E0E8840010B4A500100F8500107D
:10599000108500107886001003DC1148407801283B
:1059A0000CD1052347F6FF71DDF8A02EDDF8680E57
:1059B00016F028FCDDF8A81E01200870DDF8980E0E
:1059C000418A07480181DDF8981E098A4181DDF886
:1059D000981E498981810DF6746DBDE8F08F000035
:1059E000E884001010B507F093F907F03CFA0020A6
:1059F00010BD0000FB4988707047FA4880787047F6
:105A0000F849C8707047F748C0787047F548007883
:105A10007047F44840787047F2480078022805D073
:105A200005281CBF0020704706F05DB90BF0D8B800
:105A3000EC490870704770B5EA4E04460D46307860
:105A4000A04212D002281AD0052814BF002006F068
:105A50004AF944EA05213278002341EA024141EA49
:105A60000062612107200AF077FB7570072C28BFC0
:105A700070BDDFE804F016070B13160F16000BF0CD
:105A8000AFF8E6E7284600F0A1FA0AE028460BF056
:105A900048F906E0284606F01BF902E028460AF01D
:105AA00013FC347070BDD04900200968B1F864104F
:105AB00011F4807F08BF7047FDF74FB8CA49002036
:105AC0000968B1F8641011F4807F08BF7047FDF7D2
:105AD00053B8C54900200968B1F8641011F4806F0B
:105AE00008BF704716F09DBBBE49087900281CBF4F
:105AF000401E0871704770B5BC49D1F8CC00B94C54
:105B000010F0030F0AD040F4BE0040F02040C1F86E
:105B1000C8002079002804BF01202071B4488068A3
:105B2000B14D10F0020F296807D14FF040204069B5
:105B300010F0010F01D0207940B1B1F864100020BD
:105B400011F4807F18BFFDF717F807E0B1F8641073
:105B5000002011F4806F18BF16F063FBA5490842BE
:105B600008BF70BD2968496E090C217170BD10B560
:105B700072B6FEF70DF9BDE81040FDF75CBE10B53A
:105B8000012802D0022805D008E04FF44330FDF789
:105B900081F803E04FF040219748086772B6FEF79E
:105BA000F7F8BDE81040FDF746BE8E4900284A7957
:105BB00018BF01204871C0B2824208BF704700225E
:105BC000002818BF01220023012102200AF0C4BAD4
:105BD00084484079002818BF0120704781488079A7
:105BE00070472DE9F0417F4E00281CBF0020B071A6
:105BF00004D1B079002818BFBDE8F0814FF04027EC
:105C00003D6B0120FDF7B7F90420FDF7B4F97B4C9B
:105C10000520E066FEF7D3F840F2CF70216F11F057
:105C2000010F04D0B07940F00E00B07103E0011E06
:105C3000A0F10100F2DCB07978B1FEF7C0F870484D
:105C4000216F11F0040F04D0B07940F00100B07161
:105C500003E0011EA0F10100F2DC45F4BE0040F0BB
:105C600020403863BDE8F0815E48806970475D4838
:105C7000406970475B484069002818BFC07A704788
:105C80005849C86170475748C0697047554908620C
:105C900070475448006A70475348026802F5C07361
:105CA000118A508A02F5A072FCF763BA2DE9F04F11
:105CB000DFF8309197B08A46C9F8180006F049FF1E
:105CC000C9F8140000287DD090F800C089F807C0FA
:105CD000417889F80810837804460CF1010089F8AE
:105CE000093000F0FE0089F80A00E27889F80B20FC
:105CF000207989F80C00607989F80D0009F10F0509
:105D0000A0792870E0796870207889F80E006046E4
:105D1000FCF770FB99F80D1099F80C00FCF78DFB5F
:105D200069782878FCF793FB6946204606F03AFF2D
:105D3000608AD9F81C5000281CBF6843050BB4F8D2
:105D40001A80D9F82060B8F1000F08BF4FF48058CE
:105D5000678C002F08BF4FF4805700201AF0040F03
:105D600018BF4FF485701AF0080F18BF40F00400F8
:105D70001AF0020F1CBF40F2012108431AF0010F74
:105D800018BF40F48460616A6FF30F0A08406FF334
:105D90000F0108434AEA000A0098109004981190F5
:105DA000089812900C98149001981390A07A16906D
:105DB0000798159010A95046FBF7F8FF99F80000D6
:105DC000052800E001E024D11CE007480068B0F895
:105DD000640010F4807F18BFFCF7CEFE002017B0DF
:105DE000BDE8F08F08850010788600100060004044
:105DF0000080004008000300AD2007B00010004004
:105E00003F0D0300FBF783F810F0040F18BFFBF7FA
:105E100095F81AF0020F57D006F091F95FEA000BDF
:105E200023D006F0A3F96843050B59460020FBF781
:105E300054FB218A00291CBF0020FBF7E2FB06F07F
:105E4000B5F97043000B4030C1090A20012202FA63
:105E500000F30B4201D1401EF9D5461FA07B00285C
:105E600018BFA0F1010B0AD105E0B4F80CB0BBF1EA
:105E7000000FDAD1DDE70020FBF734FC8346E07B3E
:105E8000002814BF401EFBF75FFC0BEB0601052941
:105E900003DD711A4E1D052103E00029BCBF761AEF
:105EA00000210644052E03DD701FC540052604E0D1
:105EB000002E02DA7042854000260020FBF72BFC02
:105EC00031460020FBF759FC1AF0010F23D0A18ABC
:105ED00000291CBF0120FBF700FB268B3EB1314699
:105EE0000120FBF78EFB31461120FBF78AFBA67DD4
:105EF0003EB1711E0120FBF70EFC711E1120FBF755
:105F00000AFCE67D3EB1711E0120FBF736FC711ED6
:105F10001120FBF732FC1AF0200F23D0A18B0029AF
:105F20001CBF0220FBF7D9FA268C3EB13146022075
:105F3000FBF767FB31461220FBF763FBA67F3EB100
:105F4000711E0220FBF7E7FB711E1220FBF7E3FB3B
:105F5000E67F3EB1711E0220FBF70FFC711E12207E
:105F6000FBF70BFCE07A00281CBF0001FBF7E6F909
:105F7000029806F0C0F8039830B12B4699F8082033
:105F800099F8071016F052F93A464146284616F09D
:105F900052F90598FEF7C5FC0998FEF7E5FC06F0F6
:105FA000FEFD10F4005F1CBF0D98FEF7F1FC012010
:105FB00015E710B5FBF7C1FF06F0A5F80249002070
:105FC0004861012010BD000008850010FE490870DE
:105FD0007047FD4800787047FC4810B4FC4A0168DF
:105FE000914218D14168B1F5987F14D80022D0F8B9
:105FF00008C003461146B2EB9C0F24BF10BC70478B
:1060000053F82140491C2244B1EB9C0FF8D3002ADD
:1060100004BF10BC7047002010BC7047EB48FCF771
:1060200039BE2DE9F041ADF5007D044606F071FD65
:1060300040B181692162C16961624169A162C06840
:10604000E06205E04FF0FF30E062A0626062206233
:106050003C250020C4E90250DD4F4FF49876C4E996
:106060000076224601462B4652F820C0401C61446F
:10607000B0EB930FF8D3C1F10008FF224FF4007189
:106080006846C4F80C8016F0A4F8CDF80C80009790
:10609000CDE9016510340DF110080FCC88E80F0030
:1060A0000FCC0DF1200888E80F00D4E90001A268A8
:1060B000C64CCDE90C010E922046FCF7EBFD69467B
:1060C0002046FCF789FE012818BF00200DF5007D51
:1060D000BDE8F081BC4901200870704770B50E46DC
:1060E00005461024FFF7C3FD15F0020F18BF052465
:1060F00008D115F0010F18BF092403D115F0200FA6
:1061000018BF0D243246102C28BF70BD002A08BFCE
:1061100070BD204490F928102046BDE8704006F07C
:1061200074BDF0B581B0ADF5805D0446FFF79FFD0D
:10613000054614F0020F0AD0684604270646FCF70D
:10614000EEF995F92C103246384606F05EFD14F053
:10615000010F0BD0694608270E460120FCF733FAE1
:1061600095F930103246384606F04FFD14F0200FF6
:1061700002BF01B00DF5805DF0BD0C2669460C46EE
:106180000220FCF720FA95F934102246304606F03A
:106190003CFD01B00DF5805DF0BD2DE9F34F8BB0F6
:1061A000002005900868029048680390087A0190E2
:1061B000487A0090887AB1F90C90B1F90EA0CA69BA
:1061C0000792D1E908840A8A4969C0F5807602EA13
:1061D000000706910B9810F0010F16D000984FF0B1
:1061E000000E002840F2FD800121069801FA0EF20F
:1061F000104018BF012004900EEB4E01002001EB6F
:106200000E1183460A9100F0DCB80020FBF75BFB1F
:106210000546DDE900014843032101EB400020F081
:1062200003024146204615F0B1FF2846FBF74BFB21
:1062300000980025002840F2D4800122069802FA36
:1062400005F1084018BF01200021049005EB45002E
:1062500000EB05108C4609904BE04A0902A801F0BA
:106260001F0350F822200120984002423ED038F906
:10627000020B049AA0EB0A000CF1010C002A0CBFDF
:10628000A9EB000409EB000401F0010207984FEAB2
:10629000510B00EB4232099802EB8000089050F855
:1062A0002B20C2F30720D3B212F4803F02D0002C7F
:1062B00002DB03E0002C01DD9C1B00E09C19BC42CA
:1062C00005DDFF283ABF0024401C3C4606E0002CB8
:1062D00004DA0028C6BF3C46401E002402F4803287
:1062E00042EA0020089A204342F82B00491C262944
:1062F00002D201988445B0D300986D1C85429CD38E
:106300006FE0420902A900F01F0351F82220012189
:1063100099400A4252D034F9021B049AA1EB0A01B7
:106320000BF1010B002A0CBFA9EB0101494438F91C
:10633000022BA2EB0A0214BF4A44A9EB0202002975
:10634000B4BF4B420B46002AB8BF52429A4235D9DD
:10635000079A00F0010302EB43330A9A03EB82022F
:106360004308CDE9083252F82330C3F3072203F083
:10637000FF0C13F4803F02D0002902DB04E0002967
:1063800002DD0CEB060501E0ACEB0605BD4205DDC8
:10639000FF2A3ABF0025521C3D4606E0002D04DAD4
:1063A000002AC6BF3D46521E002503F4803141EA53
:1063B0000221DDE90823294343F82210401C262846
:1063C00009D201998B4505E02C85001000FE0200E2
:1063D0005443524695D300980EF1010E8645FFF4C2
:1063E00003AF0B98032826BF0120059005980DB038
:1063F000BDE8F08F2DE9F04F8BB0002204920A68BF
:1064000000924A6801920B7A4D7A8E7A0396B1F91E
:106410000C40B1F90E200592D1E907C24E690696EB
:10642000098A039EC0F1080801EA060700B3B8F123
:10643000000F7DDB4FF0000A002D7AD9012000FA11
:1064400008FBA8F10100012101FA00F00A904FF0C9
:106450000109069809FA0AF1084018BF0120002135
:1064600002900AEB4A0000EB0A100E460990A6E0E3
:106470004FF0000A002D5CD94FF00109069809FA87
:106480000AF1084018BF0120002102900AEB4A00DF
:1064900000EB0A100E46089045E04FEA511901F052
:1064A0001F0B5DF82990012000FA0BF019EA000F8C
:1064B00036D032F9029B0598761CA9EB0000DDF876
:1064C0000890B9F1000F0CBFA4EB000904EB000920
:1064D00001F001000CEB403B08980BEB80004FEA09
:1064E000510B079050F82B0010F4803F0AD0B9F1FF
:1064F000000F0FDA10F47F4018BFA0F5807040F451
:10650000803007E0B9F1000F04DD10F47F4018BFC0
:10651000A0F5807040F08000DDF81C9049F82B0059
:10652000491C262901D29E42B7D30AF1010A01E093
:1065300053E04BE0AA459FD348E04FEA511901F0E0
:106540001F0E5DF82990012000FA0EF019EA000FE5
:1065500032D032F9029B0598761CA9EB0000DDF8D9
:106560000890B9F1000F0CBFA4EB000904EB00097F
:1065700001F001000CEB403E09980EEB80004FEA61
:10658000510ECDE907E050F82E0010F4803F03D003
:10659000B9F1000F05DA02E0B9F1000F01DD20EAE0
:1065A0000B00B8F1000FC4BFDDF8289049EA0000E5
:1065B000DDE9079E4EF82900491C262901D29E429A
:1065C000BBD30AF1010AAA45FFF441AFB8F1000FAD
:1065D000C2BF04980BB0BDE8F08F0026002D35D95E
:1065E0000398C0F5807A40F4807E002006EB4601D7
:1065F000024601EB061B24E0440900F01F085DF889
:106600002440012101FA08F10C4217D000F00101E9
:106610000CEB413101EB8B094FEA5008521C59F841
:106620002840E1B201EB5A0101EA0E01B94288BFEC
:10663000394624F0FF04214349F82810401C26283D
:1066400001D29A42D8D3761CAE42CED30120049018
:106650000BB0BDE8F08F2DE9F04F89B00022049215
:106660000A6800924A6801920E7A4A7A0292D1E947
:106670000772B1F90C30B1F90E5049690591FE4924
:106680008969A0EB010CCCF10808814245D845D1BD
:1066900002984FF0000900283FD90121059801FA1E
:1066A00009FC1CEA000018BF01200390002009EB40
:1066B0004901844601EB091B28E0440900F01F0A48
:1066C0005DF82440012101FA0AF10C421BD032F995
:1066D000021B039C491B0CF1010C002C0CBF5C1A23
:1066E0005C1800F0010107EB413101EB8B0E4FEA22
:1066F000500A002C5EF82A10C8BF41F4803141F4E2
:1067000000414EF82A10401C262801D2B445D4D3AB
:10671000029809F101098145BFD35CE0B8F1000F8F
:106720005EDB02984FF00009002854D908F10800F8
:10673000012101FA00FA401E01FA00F0089001243C
:10674000059804FA09F1084018BF012000210390C0
:1067500009EB490000EB09108C46079034E04C0926
:1067600001F01F0B5DF82440012000FA0BF00442F9
:1067700027D032F9020B039C401B0CF1010C002CBA
:106780000CBF1C1A1C1801F0010007EB403B0798D6
:106790000BEB80004FEA510B069050F82B0010F4E1
:1067A000803F02D0002C04DA01E0002C01DD20EA59
:1067B0000A00B8F1000FC4BF089C2043069C44F8AF
:1067C0002B00491C262901D2B445C8D3029809F1EF
:1067D00001098145B3D3B8F1000F04BF0120049033
:1067E000049809B0BDE8F08F70B5A44D1646D5F8F1
:1067F00044231205120D1DD000281CBFC1F3080050
:10680000FCF747F9D5F8480340F00100C5F8480304
:10681000D5F8480320F00100C5F848030022341ED3
:1068200023DDD5F8481340F2A91011F0010F08D16B
:10683000401E01D2002070BDD5F8481311F0010FA1
:10684000F6D0D5F84403C0F30B000244D5F8480352
:1068500040F00100C5F84803D5F8480320F00100D6
:10686000C5F84803641E002CDBDC1001B0FBF6F019
:1068700080B270BD2DE9F34FADF5777D0020E79034
:10688000E69072B6FBF798FB0646FDF79EF848B116
:10689000FDF740F9E790FDF727F9FDF740F9E6909D
:1068A000FDF72DF9FBF777FAFBF7B0F9ED904FF410
:1068B0008B5000F096FE704D6861FBF78BFBEC90FF
:1068C000FBF7A6F9FBF712FCE8900020FBF708FCA9
:1068D0000120FAF794FFF2901120FAF790FFF3905D
:1068E0000220FAF78CFFF0901220FAF788FFF1905F
:1068F000FCF78CFEEB90FCF771FE4FF49350FCF725
:10690000DAFD62B6FAF757FFEA900120FAF749FF7D
:10691000FAF760FFE9900020FAF752FF0120FAF73A
:10692000D2FFF4900020FBF7BCF9EF900020FBF7BA
:10693000ABF9EE900020FAF7B1FDF5900020824609
:106940000DF5547B4BF820A0401C0628FAD34C4F81
:1069500016F0020F4FF001040AD041F618513846E4
:10696000D49415F009FC41F61851464815F004FC82
:1069700016F0010F15D04FF49871434815F0FCFB49
:106980004FF49871414815F0F7FB0120F9F7DBFF50
:10699000002818BFD6941120F9F7D5FF002818BF9A
:1069A000D79416F0200F15D04FF49871384815F091
:1069B000E3FB4FF49871374815F0DEFB0220F9F73E
:1069C000C2FF002818BFD8941220F9F7BCFF002896
:1069D00018BFD994DFF8C080D4984FF040590028F0
:1069E00030D000210846FAF76BFE98900121002074
:1069F000FAF766FE999098F800008DF8680227482B
:106A00000078012894BF2648264800788DF869024E
:106A10000020FAF73FFF002814BF00204FF0FF309E
:106A20009D90F8988DF86A026888ADF86C02ADF810
:106A30006EA20020FAF703FEADF870021A489F9785
:106A4000CDE9A090D598FF26A8B100210846FAF715
:106A500037FEA29001210020FAF732FEA39098F8A9
:106A600000008DF890028DF89142CDF89CA28DF82F
:106A7000926269881AE035E02C85001000500040D1
:106A80000080003000A00030189D003018BD00309C
:106A9000489E003048BE003012850010118500105D
:106AA000108500101385001000400030ADF89412DE
:106AB000ADF896A20020FAF7C2FDADF898029DF855
:106AC000690200EB400101EB001107EB8101A99184
:106AD0009DF86812484309EB4001AA91FE4901EB79
:106AE0004000AB90FD4FDFF8F883D69878B30021D3
:106AF0000120FAF7E5FD0121AC900846FAF7E0FD28
:106B0000AD90FAF750FA00280CBF98F800003878DA
:106B10008DF8B8020120FAF7E5FD04FA00F08DF8CF
:106B2000B9020120FAF76BFEB1908DF8BA62A8881D
:106B3000ADF8BC02ADF8BEA20120FAF780FDADF8B9
:106B4000C002E848B390E848B490E848B590D798B8
:106B500078B300211120FAF7B3FDB690012111207E
:106B6000FAF7AEFDB790FAF71EFA00280CBF387896
:106B700098F800008DF8E0021120FAF7B3FD04FA4E
:106B800000F08DF8E1021120FAF739FEBB908DF884
:106B9000E262A888ADF8E402ADF8E6A21120FAF7A7
:106BA0004EFDADF8E802D248BD90D248BE90D24822
:106BB000BF90D24FD89848B300210220FAF780FD49
:106BC000C09001210220FAF77BFDC19038788DF842
:106BD00008030220FAF786FD04FA00F08DF8090395
:106BE0000220FAF70CFEC5908DF80A63E888ADF82C
:106BF0000C03ADF80EA30220FAF721FDADF8100347
:106C0000BF48C790BF48C890BF48C990D99848B3FB
:106C100000211220FAF754FDCA9001211220FAF740
:106C20004FFDCB9078788DF830031220FAF75AFD9B
:106C300004FA00F08DF831031220FAF7E0FDCF904E
:106C40008DF83263E888ADF83403ADF836A312202E
:106C5000FAF7F5FCADF83803AC48D190AC48D290C7
:106C6000AC48D39026A8B590CDF8D0D24CA8BE9011
:106C700072A8BF909DF8B9020225022888BF8DF83E
:106C8000B9529DF8E102022888BF8DF8E152012037
:106C9000FAF7B5FD4FF0AA3620B131460120FAF7D8
:106CA0009EFDB1961120FAF7AAFD28B14FF0AA3146
:106CB0001120FAF794FDBB969DF80903022809D923
:106CC000042805D99DF80813C89800EB8100C890E6
:106CD0008DF809539DF83103022809D9042805D9F4
:106CE0009DF83013D29800EB8100D2908DF831538B
:106CF0000220FAF784FD28B14FF0AA310220FAF7FA
:106D00006EFDC5961220FAF77AFD28B14FF0AA3130
:106D10001220FAF764FDCF96BDF8BE0200F5806040
:106D2000ADF8BE02BDF8E60200F58060ADF8E602FF
:106D3000BDF80E0300F58060ADF80E03BDF8360314
:106D400000F58060ADF83603FBF79EF90026B146EA
:106D5000B0463546374603F005FD012800F0738143
:106D6000B9F1800F00F26F81DAA8FBF777FB0028FA
:106D700000F06481DAA804F0EEFCD69800285CD01C
:106D80009DF8B8A20120FAF7ADFC012101FA00F349
:106D9000DFF854C10020B49CB0EB4A0F38BF00218B
:106DA00005D224F81010401CB0EB4A0FF9D3002094
:106DB000B0EB530F17D20021B1EB4A0F38BF00FBE5
:106DC0000AF20CD201EB420E34F811B03CF81EE08E
:106DD000F34424F811B0491CB1EB4A0FF2D3401C24
:106DE000B0EB530FE7D3022B0FD90020B0EB4A0FC3
:106DF00038BF5A0809D234F91010B1FBF2F124F867
:106E00001010401CB0EB4A0FF5D30120FAF7F7FC45
:106E100000F00300012810D10020BAF1000F0CD9B6
:106E200000EB0A0134F8102034F8113024F8103047
:106E3000401C24F811208245F2D8D798E8B39DF879
:106E4000E0A21120FAF74EFC012101FA00F3DFF86D
:106E5000A4C00020BE9CB0EB4A0F38BF002105D271
:106E600024F81010401CB0EB4A0FF9D30020B0EB0F
:106E7000530F17D20021B1EB4A0F38BF00FB0AF2C3
:106E80000CD201EB420E34F811B03CF81EE0F34492
:106E900024F811B0491CB1EB4A0FF2D3401CB0EBFF
:106EA000530FE7D3022B11D90020B0EB4A0F38BFA4
:106EB0005A080BD234F9101000E040E0B1FBF2F1B7
:106EC00024F81010401CB0EB4A0FF3D31120FAF74E
:106ED00096FC00F003001FE0004000301485001015
:106EE00015850010189D0030CC090030CC490030C9
:106EF000B09D0030CC0E0030CC4E00301785001015
:106F0000489E00304C1800304C580030E09E003055
:106F10004C1D00304C5D0030012810D10020BAF12A
:106F2000000F0CD900EB0A0134F8102034F81130AE
:106F300024F81030401C24F811208245F2D818F1B2
:106F400001086FD04FF0000840460DF5607A4FF011
:106F5000010B09F101094AF820B0401C0628FAD3B8
:106F6000002D08BF00240CD0012D08BF00241AD02A
:106F7000022D08BF002428D0032D08BF012635D0DC
:106F800061E0D4A850F8240048B104EB840198A82B
:106F900000EBC1013846FFF75EFB4AF82400641C91
:106FA000062CEED322E0D4A850F8240048B104EB1C
:106FB000840198A800EBC1013846FFF71BFA4AF894
:106FC0002400641C062CEED310E0D4A850F8240052
:106FD00048B104EB840198A800EBC1013846FFF7E3
:106FE000DCF84AF82400641C062CEED301210020B2
:106FF0005AF82020AAB1401C0628F9D389B11F2DC8
:107000000DD26D1CF7980BFA05F1014207D16D1CEA
:10701000032D04D8F7980BFA05F10142F7D00027A9
:1070200000E07F1CFBF776FA6EB9E89818B1FBF721
:1070300054F8FAF7F4FBFBF727F88CE6FEF73EFD71
:10704000002E3FF488AEFBF765FAFAF7E1FD012068
:10705000F299FAF7C4FB1120F399FAF7C0FB02206A
:10706000F099FAF7BCFB1220F199FAF7B8FBE8980F
:10707000FBF736F8E998FAF7A3FBEA98FAF791FBE1
:10708000F498FAF720FCEF98FAF70BFEEE98FAF76F
:10709000FBFDF598FAF702FAED9830B1EC9810B1D3
:1070A000FAF7F2FF01E0FAF79BFFFCF78EFC48B11C
:1070B000E798002818BFFCF78DFCE698002818BF59
:1070C000FCF7C0FCEB98002818BFFCF730FA002E44
:1070D0000CBF012000200DF5797DBDE8F08F2DE972
:1070E000F843074600200E46054600907DE02846FE
:1070F00005F02FFD002877D0008900EA070424F06E
:10710000CC0030F47C406FD00F212846FEF7CEFD36
:10711000002869D0FAF750FF0099002962D1FAF7E8
:1071200022FEFF210F20FFF7A5FB0090FAF770FD6C
:107130000098002856D19EB114F0010F1CBF022008
:10714000FEF7EFFF14F0100F1CBF0120FEF7E9FF60
:1071500014F4807F1CBF2020FEF7E3FF0098E8BBFB
:1071600024F0990030F4794006D0FDF7ABFC009094
:10717000FAF74EFD009888BB86B314F0020F0DD0CD
:10718000FCF761FF8046FEF772FD05235FEA080207
:1071900004D090F92D10184605F037FD14F0200F9B
:1071A0000DD0FCF7CCFE8046FEF761FD09235FEAB7
:1071B000080204D090F93110184605F026FD14F4A9
:1071C000007F0FD0FCF784FE0446FEF750FD0D2330
:1071D000220007D090F93510184601E002E003E0E4
:1071E00005F013FDFEF7E5FE6D1C05F0AEFCA842B0
:1071F000009803D900283FF47AAF04E0002804BFC8
:107200000120BDE8F8830020BDE8F883F0B5FF4F0A
:1072100091B001243D78FEF7F9FB01287BD1FC48B1
:107220000068B0F93610B0F9340015F009F815F01F
:10723000020F4FF0000644D001A800F095F906981F
:107240002146401C069040F27770FFF748FF012866
:1072500003D1FDF748FD012813D008980023401CF6
:107260000890502005901A462121072008F074FF4D
:1072700000231A461946FE200096FDF7B4FD01A82A
:107280003EE015F0080F14BFA220A12005907869F8
:1072900058B1E048006CC0F30820ADF83C009DF800
:1072A0003E00401C8DF83E0006E0ADF83C609DF8C5
:1072B0003F00401C8DF83F007E610798401C0790FE
:1072C000DDE715F0100F1DD0B868032824BF002497
:1072D000BE6005D2684600F047F90C98401C0C903F
:1072E00021464FF4E060FFF7FAFE08B1C4B106E0B2
:1072F000002301222121072008F02EFF14B1684647
:10730000FEF78FFE0020FDF7B9FA00232A46402140
:10731000072008F021FF11B0BDE8F04003F080B96C
:1073200005F03DFC20F4E04005F036FCEAE7B74A02
:10733000002804BF51807047012804BF9180704726
:10734000022808BFD180704701004FF00000AF4A0B
:1073500004BFB2F902007047012904BFB2F904006A
:107360007047022908BFB2F90600704770B50126C0
:10737000FEF732FE20B10069A12818BFA22801D073
:10738000002070BD002405F0E0FB002842D9204613
:1073900005F0DFFB00281EBF058925F0CC0030F486
:1073A0007C4032D00F212046FEF780FC68B315F0F8
:1073B000010F0AD0FBF7C7F838B944F480720023F4
:1073C0002021072008F0C8FE002615F0100F0BD072
:1073D0000120FBF714F938B944F48052002320212E
:1073E000072008F0B9FE002615F4807F0BD002209C
:1073F000FBF705F938B944F4803200232021072037
:1074000008F0AAFE0026FEF7D4FD641C05F09DFBE3
:10741000A042BCD8304670BD002070477B48C06891
:10742000704770B506460024FEF7E7FA40BB774D7B
:10743000286928B3B6F9020046F678118142A4BF44
:1074400047F23051C84202DB0020A86070BDA96835
:10745000491CA960032913D3C0F3072144EA014161
:1074600041EA006200236821072008F075FE102120
:107470000120FEF7E0FAE868401CE860012070BDDA
:10748000002070BD61484078704760490020487016
:10749000704710B5002105220846FFF7A5F95B49A2
:1074A0000022A0B1A0F5885059380E280FD948788D
:1074B000401CC0B248700A280AD94A704FF48B5059
:1074C00000F08FF800281CBF012010BD00E04A70BA
:1074D000002010BD10B5FEF77FFD18B34E4A0168BD
:1074E00091421FD14168B1F5987F1BD80022D0F896
:1074F00008C003461146B2EB9C0F07D253F8214057
:10750000491C2244B1EB9C0FF8D35AB9188F0028BC
:107510001CBFA0F57F41B1F1FF0103D0FBF7B9FA21
:10752000012010BD002010BD10B5FEF755FDB8B10B
:10753000394A0168914213D14168B1F5987F0FD85B
:107540000022D0F808C003461146B2EB9C0F09D2C6
:1075500053F82140491C2244B1EB9C0FF8D30AB1E7
:10756000002010BD188F10BD10B50446FEF734FD85
:1075700098B1B0E80E10A4E80E10B0E80E10A4E820
:107580000E10B0E80E10A4E80E1070E80C12806B1C
:1075900044F83019C4E90D201EE0FF223C212046AA
:1075A00014F017FE1C4820604FF4987060603C2077
:1075B0000021C4E902015020C4E90401481EE06230
:1075C000A062A1616062C4E9071021636163218741
:1075D00084F83A1084F83B101048FBF75BFB01205D
:1075E00010BD2DE9F04704003DD00A48006C4FF073
:1075F0000008C0F3082A40F2FF17C146464608EBD0
:10760000070000EBD0704510A9B209E02C850010EE
:1076100078860010006000405443524600FE02008D
:1076200064220120FFF7E0F8B0B1A04288BF6F1ECE
:1076300038BF05F101081BD1A9461FFA89F14FF0A7
:1076400064024FF00100FFF7CFF8A0F58850B02892
:107650009CBF0120BDE8F087BAF1000F15D050465D
:10766000FBF717FA13E0FBF71CFA0120BDE8F087DF
:10767000011B48BF211A321B48BFA21B9142BCBF4D
:10768000A9460646B845BADDD7E7FBF70AFA002057
:10769000BDE8F08770470020704710B503F0070081
:1076A000042808BFFEF763FA002010BD70B503F090
:1076B00007020025F84CF94B012A02D0022A14D007
:1076C00011E0052018709D60FCF7F2F82268532144
:1076D00011702268452151702268010A9170216859
:1076E000C87020680571002070BD1A78052A13D172
:1076F0009A68052A28BF104607D2D4F800C01CF8A3
:1077000002C080F800C0501C9860052804D10120F8
:107710009D60087003201870012070BD2DE9F041B4
:1077200003F0070201260025DB4CDC4B012A02D0C6
:10773000022A3BD037E0052018709D60FCF7B8F8AE
:107740002168AC270F702268010A51702168887087
:1077500005F080F9DFF8488380B1D8F8000005F023
:1077600099FA58B1D8F8000090F8200010F0020FF4
:1077700004D0206847702168432088702068C67054
:107780002068057105F066F950B1D8F8000005F0E1
:1077900081FA28B1D8F800002168007E487102E023
:1077A0002168FF2048710020BDE8F0811A78052A81
:1077B00012D19A68062A28BF104607D2D4F800C012
:1077C0001CF802C080F800C0501C9860062803D145
:1077D0009D600E70032018700120BDE8F08103F059
:1077E0000702022A1CBF00207047202202700120DD
:1077F000087070472DE9F041A84F0D46064613F07A
:10780000070F04D003F00700022808D004E012F0AC
:10781000040F1CBF0020B8700020BDE8F08102F00A
:10782000F9FE002814BF0124002402F0F6FE00280F
:1078300014BF0222002242EA0403B878002814BFD1
:107840000422002242EA0300307001202870BDE8C3
:10785000F08170B503F0070C0026904C8E4DBCF102
:10786000010F0AD0204613F0070F00780DD0BCF1AD
:10787000040F08BF062818D029E0A6602868067003
:10788000286846700520207021E005281FD1A068D7
:10789000022803D22B681A54401CA060022816D17B
:1078A0000120A6600870062010E02868007855289E
:1078B0000BD128684078AC2818BFBC2805D12868AF
:1078C0000122411C062002F08BFE032020700020C4
:1078D00070BD70B503F0070200256F4C6F4B012A95
:1078E00002D0022A24D021E0052018709D6002F009
:1078F00042FE41F6E8710144B0F53C3F10D8CA7829
:10790000086862F31F60674A904208BF002007D1F1
:107910000A18236812791A54401C1428F8D305E079
:10792000002021680D54401C1428FAD3002070BD9B
:107930001A78052A13D19A68142A28BF104607D24C
:10794000D4F800C01CF802C080F800C0501C986039
:10795000142804D101209D600870032018700120B4
:1079600070BD70B503F0070200254B4C4B4B012A4C
:1079700002D0022A3FD03CE0052018709D6002F042
:10798000FAFD41F6E8710144B0F53C3F2BD8CA78C6
:10799000086862F31F60434A904224D12268087C41
:1079A00010702268487C50702268887C9070206833
:1079B000CA7CC27020680A7A02712268487A5071C3
:1079C0002268887A90712268C87AD0712268087D0E
:1079D00010722268487D50722268887D9072C87D3E
:1079E0002168C87205E0002021680D54401C0C2855
:1079F000FAD3002070BD1A78052A13D19A680C2A90
:107A000028BF104607D2D4F800C01CF802C080F886
:107A100000C0501C98600C2804D101209D600870A3
:107A200003201870012070BD70B503F00702002517
:107A3000194C1A4E012A02D0022A3FD03CE005F030
:107A400068F840B3D0E906212368C0681A70D4F8FA
:107A500000C0130A8CF80130D4F800C0130C120EC9
:107A60008CF802302368DA702268117123680A0AE0
:107A70005A7123680A0C090E9A712268D171216823
:107A800008722268010A51722268010C9172010E7B
:107A90002068C1720DE007E08419020050850010D3
:107AA0007886001034CD12AB21680D54401C0C2890
:107AB000FAD305203070B560002070BD3278052AF9
:107AC00010D1B2680C2A28BF104604D223689B5CF0
:107AD0000370501CB0600C2804D10120B560087000
:107AE00003203070012070BD70B503F00702002440
:107AF000F84DF94B012A02D0022A3ED03BE0052086
:107B0000187000269C6002F036FD00F50051B0F5BB
:107B10003C3F98BF11F0030F27D1F04A086890420C
:107B200004BF0022104620D151F82030401C1A44D6
:107B30000728F9D302B1C6B128680A7C02702A6806
:107B4000487C50702A68887C90702A68C87CD07005
:107B50002A68087D10712A68487D50712A68887DDE
:107B60009071C87D2968C87105E0002029680C540F
:107B7000401C0828FAD3002070BD1A78052A13D1BA
:107B80009A68082A28BF104607D2D5F800C01CF80A
:107B900002C080F800C0501C9860082804D1012061
:107BA0009C60087003201870012070BD2DE9F04121
:107BB00003F0070C0027C84E4FF00508BCF1010F79
:107BC0000DD013F0070F0FD03246BCF1020F127820
:107BD00010D0BCF1040F08BF062A26D058E086F862
:107BE00000807770B76053E07270BD48B0620620C5
:107BF00030704DE0052A15D1B268042A28BF10461E
:107C000009D2C2F10303D6F828C0DB002CFA03F333
:107C10000370501CB060042804D10120B7600870C4
:107C2000032030700120BDE8F08170780125002428
:107C300010F0010F11D002F09EFCB0F53C3F23D8AC
:107C40006A030021B1EB900F07D252F8043B491CA4
:107C50001C44B1EB900FF8D3B5B1707810F0020F5F
:107C60000ED004F056FF78B182680021B1EB920F7C
:107C700006D250F8043B491C1C44B1EB920FF8D3D8
:107C8000002D18BFB46200D1B762777086F800800B
:107C90000020BDE8F081F0B503F0070C00268D4D03
:107CA0008D4C83B0BCF1010F0ED013F0070F1DD027
:107CB000224603271278BCF1020F26D0BCF1040F34
:107CC00008BF062A36D03CE002AA01A9684603F0A4
:107CD00081F80520207029680198087029680098AB
:107CE0004870296802988870A6602AE0A068032876
:107CF00003D229680A54401CA060022821D306211F
:107D00002170032808BFA6601BE0052A0FD1A268D6
:107D1000032A28BF104604D22B689B5C0370501CBA
:107D2000A060032803D10120A6600870277003B06B
:107D30000120F0BD286882780178407803F03DF892
:107D4000277003B00020F0BD08B503F0070001283C
:107D50000AD104F07FFE38B101208DF80000024600
:107D600069460D2002F03CFC002008BD08B503F078
:107D7000070001280AD104F06DFE38B100208DF80B
:107D80000000012269460D2002F02AFC002008BDF7
:107D900008B503F00700012809D104F05BFE30B1FB
:107DA00003208DF800000122694602F019FC002032
:107DB00008BD0020704708B503F0070001280AD16C
:107DC00004F048FE38B10B208DF80000012269460E
:107DD000032002F005FC002008BD1FB513F0070FBB
:107DE0000ED104F037FE58B19DF80800F0280AD0F3
:107DF00004F030FE20B1012202A9092002F0F0FBBC
:107E000004B0002010BDFEF709F9F9E708B503F04A
:107E1000070001280AD104F01DFE38B110208DF8AA
:107E2000000001226946032002F0DAFB002008BDB1
:107E300070B503F00700274C274D012808D013F038
:107E4000070F12D0042804BF2878062816D01FE098
:107E50000020A86021680870216848702168887037
:107E60002168C8700520287012E0A86804280FD285
:107E700021680A54401CA860062008E004F0EAFDCE
:107E800030B104221046216802F0AAFB03202870BA
:107E9000002070BD10B503F00700012804D103F0E5
:107EA000AFFD0D4900200871002010BD10B503F092
:107EB000070C094CBCF1010F06D013F0070F11D0CD
:107EC000BCF1020F20D01DE00020A06008F03BF9BB
:107ED000A06117E0841902005085001054464953F0
:107EE000EFBEADDEA068002804BF1002A06106D07E
:107EF000012804D1A0691043A06108F023F9A0680B
:107F0000401CA060002010BDA26812B1012A04D05C
:107F100007E0218B090A017003E0237E0370012032
:107F20000870501CA060012010BD10B503F0070CB4
:107F3000FE4CBCF1010F06D013F0070F09D0BCF1C5
:107F4000020F18D015E00020A06008F0FFF8A06133
:107F50000FE0A068002804BF1002A06106D001282D
:107F600004D1A0691043A06108F0F3F8A068401C98
:107F7000A060002010BDA26812B1012A04D007E061
:107F8000218B090A017003E0237E03700120087031
:107F9000501CA060012010BD70B503F0070CE34D2C
:107FA0000E460446BCF1010F06D013F0070F07D0B0
:107FB000BCF1020F18D015E00020A860E86011E0C5
:107FC000A868002804BF1002A86108D0012806D1C3
:107FD000A869104381B2A861E8880EF083FFA86801
:107FE000401CA860002070BDE86802280ED2E88816
:107FF0000EF07CFFEB6882B2002B04BF100A2070E9
:1080000004D0012B02D1227001203070E868401C9E
:10801000E860012070BD10B403F0070CC34CBCF144
:10802000010F08BF00200BD013F0070F03D0BCF1E5
:10803000020F09D005E0A068002808BFE280401CBC
:10804000A06010BC00207047A2681AB9A379037021
:1080500001200870501CA06010BC012070472DE961
:10806000F047064603F00700B04F8946012808BFD5
:10807000002039D0DFF8B882AE4D13F0070F02D0E0
:10808000022835D031E0B868002808BF7A7029D0BE
:10809000012804BF1002B86124D0022822D1B86997
:1080A0001043B8617E7884B204F0D4FCD0B1062EBF
:1080B00018D2DFE806F00306090C1014A8F80E40E9
:1080C00010E0A8F80C400DE0286884860AE02868D3
:1080D000A0F80C4106E02868A0F8504002E02868AB
:1080E000A0F85240B868401CB8600020BDE8F08796
:1080F000F86802282CD297F801A0002404F0AAFC0A
:10810000D8B1BAF1060F18D2DFE80AF00306090C5D
:108110001014B8F80E4010E0B8F80C400DE02868D4
:10812000848E0AE02868B0F80C4106E02868B0F8B0
:10813000504002E02868B0F85240F868002804BFB8
:10814000200A307004D0012802D1347089F8000070
:10815000F868401CF8600120BDE8F0872DE9F04187
:108160001C4617460E46054604F074FC68B114F030
:10817000070F04D004F00700022809D005E0002F03
:1081800014BF012000200BF017FC0020BDE8F08197
:10819000674890F86C00C008287001203070BDE876
:1081A000F0812DE9F0411C4615460F46064613F0B6
:1081B000070F08D104F04EFC28B1022D3CBF284621
:1081C00009F05BFD03E004F00700022802D0002064
:1081D000BDE8F08109F04AFD307001203870BDE83B
:1081E000F08170B503F007020026534C4F4D012A71
:1081F00002D0022A15D012E008F0B3FD2168087001
:10820000FDF704FC2168487003F096FF2168887030
:10821000FDF702FC2168C87005202870AE600020C0
:1082200070BD2A78052A10D1AA68042A28BF1046F2
:1082300004D223689B5C0370501CA860042804D1FE
:108240000120AE60087003202870012070BD70B559
:1082500003F00702384C0025344E012A02D0022ACE
:1082600054D051E0FDF7B8FE002836D04169FF290F
:108270002CBFFF21C9B2226811708169FF2934BF68
:10828000C9B2FF2122685170C169FF2934BFC9B248
:10829000FF21226891702268017CD170226890F8D9
:1082A00020101171018C2268090A5171016A22683B
:1082B000090C9171016A2268090ED171016BFF29C5
:1082C00034BFC9B2FF2122681172406BFF2834BF4E
:1082D000C0B2FF202168487215E020680570206850
:1082E00045702068857021685020C8702168FF2083
:1082F000087121684871216888712168C8712068F7
:10830000057220684572B560002070BDB2680A2A07
:1083100028BF104604D223689B5C0370501CB060D9
:108320000A2802D10120B560087007E050850010CE
:108330006C3A01107886001084190200012070BD8B
:1083400003F00702FE4B4FF0000C012A08BFC3F8F0
:1083500008C001D0022A01D0002070479A68022A82
:108360003DBF80F800C0501C98601046022803D121
:108370000120C3F808C00870012070472DE9F047BC
:10838000064603F00700EE4F8A464FF0000801282A
:1083900008BFC7F8088001D0022802D00020BDE83D
:1083A000F087B868A0BB0024254602F0E4F8014637
:1083B00000F5005018384FF400524FF04009B1F565
:1083C0003C3F20D890F803C003686CF31F63DFF8CC
:1083D00074C3634517D1091FB4EB910F06D252F84D
:1083E000043B641C5D40B4EB910FF8D3C17D406940
:1083F00061F31F60A84206D104F02CFB012804BFE2
:108400008020307001D086F80090B868401CB860B9
:10841000012803D1C7F808808AF800000120BDE8D0
:10842000F0872DE9F04103F007020026C64CC44D49
:10843000012A02D0022A56D052E0FBF739FA052071
:10844000287004F007FB002849D0C04F386804F0BA
:1084500021FC002843D00EF028FD80460EF029FDB7
:1084600039680A7E12F0040F11D0C98A2268090AFD
:10847000117039682268897D517039682268898A4B
:10848000090A917039682268097DD17010E0898AE3
:108490002268090A117039682268097D51703968AB
:1084A0002268C98A090A917039682268897DD17069
:1084B00022684FEA18211171216881F8058022682D
:1084C000010A91712168C87138682268817C117233
:1084D0002268017C5172008B2168000A8872AE60AC
:1084E0000020BDE8F0812A78052A10D1AA680B2A5D
:1084F00028BF104604D223689B5C0370501CA86000
:108500000B2804D10120AE600870032028700120E0
:10851000BDE8F0812DE9F04703F0070200268A4DFF
:10852000874B012A02D0022A5DD059E0052018703D
:1085300000249E6002F01FF800F50053B0F53C3FA8
:1085400098BF13F0030F45D1814A1968914204BFC7
:108550000022114608D153F821C0491C6244072962
:10856000F9D3002A08BF01249F7C93F8138084B3B9
:1085700041F6E8710144B0F53C3F07D8CA78086875
:1085800062F31F606F4A904208BF012491F8129075
:1085900091F813A0002C08BF002014D004F0B9FA01
:1085A0002968806981F80090296881F801A02A680B
:1085B000010C000E91702968C8702868077128683E
:1085C00080F805800CE029680E54401C0628FAD378
:1085D00006E0FFE7002029680E54401C0628FAD365
:1085E0000020BDE8F0871A78052A13D19A68072A77
:1085F00028BF104607D2D5F800C01CF802C080F88A
:1086000000C0501C9860072804D101209E600870AB
:10861000032018700120BDE8F08710B503F0070CA7
:10862000474CBCF1010F06D013F0070F0AD0BCF184
:10863000020F1AD017E00020A060E0600EF0B5FC39
:10864000A06110E0A068002804BF1002A06107D05C
:10865000012805D1A0691043A06180B20EF0A2FCF0
:10866000A068401CA060002010BDE268022A0BD266
:1086700012B1012A04D007E0218B090A017003E03E
:10868000237E037001200870501CE060012010BDA3
:1086900070B503F007010026294D0446012908BFE3
:1086A000EE6201D0022901D0002070BDE86A0028E6
:1086B00004BF284813F0C9FDE96A082928BF2670BD
:1086C00002D22448405C2070481CE862012070BD42
:1086D0002DE9F04103F007010026194D0746012955
:1086E00008BFEE6201D0022902D00020BDE8F0816F
:1086F00095F82C0000F007042879204304D1154890
:1087000013F0A3FD01202871052C28BF2E711148FC
:10871000005D3870E86A401CE8620120BDE8F08125
:1087200070B5044603F007000D4602281CBF002068
:1087300070BD13F08FFD20700120287070BD000007
:108740005085001034CD12AB8419020078860010D9
:10875000544649538085001070B503F00702002588
:10876000F94C012A02D0022A12D00FE00520207015
:10877000002211461046A56002F02CFB4FF6FF7157
:1087800001EA4000206102F038FB6062002070BD09
:108790002278052A17D1D4F810C0A268624528BFF4
:1087A000104607D212F0010F1CBF637803700CD083
:1087B000501CA060604506D10120A5600870032010
:1087C000207002F027FB012070BD666A22F00103D1
:1087D000F35A1E0A06706370EAE770B503F00702E9
:1087E0000025D94C012A02D0022A11D00EE0D74828
:1087F00005220068B0F91210B0F910002270084488
:108800004000A560206102F04BFD6062002070BD59
:108810002278052A17D1D4F810C0A268624528BF73
:10882000104607D212F0010F1CBF637803700CD002
:10883000501CA060604506D10120A560087003208F
:10884000207002F03BFD012070BD666A22F001033A
:10885000F35A1E0A06706370EAE7F8B503F00702E0
:108860000025B94C012A02D0022A14D011E00021BF
:108870006A460846009502F0ADFA05202070A56012
:1088800000984FF6FF7101EA4000206102F02FFED0
:1088900060620020F8BD2278052A17D1D4F810C0F4
:1088A000A268624528BF104607D212F0010F1CBF14
:1088B000637803700CD0501CA060604506D1012085
:1088C000A56008700320207002F01BFE0120F8BD97
:1088D000666A22F00103F35A1E0A06706370EAE723
:1088E00070B50D46044613F0070F04D003F00700DF
:1088F000022805D002E01046FDF782F8002070BD86
:10890000FDF781F820700120287070BD70B503F06C
:10891000070203258C4C012A02D0022A11D00EE056
:10892000FDF771F804F054FBE06100281ABF052040
:108930002070257004F03FFB20620020A060002022
:1089400070BD2278052A0BD1E369A2689B5C037095
:10895000501CA060226A904202D30120087025704A
:10896000012070BD70B503F00702794B0325764CEA
:10897000012A02D0022A0DD00AE0186804F006FC91
:10898000206200281ABF0520207025700020A060FA
:10899000002070BD2278052A0BD11B68A2689B5C61
:1089A0000370501CA060226A904202D3012008701C
:1089B0002570012070BD70B503F00702644B0325DC
:1089C000614C012A02D0022A0DD00AE0186813F087
:1089D00046FC206200281ABF052020702570002068
:1089E000A060002070BD2278052A0BD11B68A26808
:1089F0009B5C0370501CA060226A904202D301204D
:108A000008702570012070BD7FB51C460E460546D6
:108A100013F0070F08D104F01DF828B1012202A9B4
:108A2000252001F0DDFD03E004F00700022802D05C
:108A300004B0002070BD02F08AFA28700120307066
:108A400004B070BD2DE9F04103F0070200273E4E4F
:108A500088460546012A02D0022A0BD007E00520ED
:108A600030700A20B760306102F0C7F970620020F0
:108A7000BDE8F0813078052819D1B26830698242AA
:108A800028BF104608D212F0010F1CBF7078287062
:108A900010D0B068401CB0603169884207D1012015
:108AA000B76088F800000320307002F0B3F90120AD
:108AB000BDE8F081002402F04AFA012804D1B06830
:108AC000716A20F001000C5A200A28707470E0E7E7
:108AD0007FB51C460E46054613F0070F08D103F07C
:108AE000B9FF28B1012202A91F2001F079FD03E09E
:108AF00004F00700022802D004B0002070BD08F086
:108B000064FA28700120307004B070BD7FB51C4637
:108B10000E46054613F0070F08D103F09BFF28B15E
:108B2000012202A9202001F05BFD03E004F0070010
:108B3000022802D004B0002070BD08F04CFA287062
:108B40000120307004B070BD508500107886001090
:108B5000841902007FB51C460E46054613F0070F28
:108B600008D103F077FF28B1012202A90C2001F0FF
:108B700037FD03E004F00700022802D004B0002013
:108B800070BD08F0EEF828700120307004B070BDA0
:108B90007FB51C460E46054613F0070F08D103F0BB
:108BA00059FF28B1012202A90F2001F019FD03E0AD
:108BB00004F00700022802D004B0002070BD03F0CA
:108BC00054FD00F00F0040F01000287001203070BC
:108BD00004B070BD2DE9F04103F0070CFE4D0E46C8
:108BE0000746BCF1010F07D0FC4C13F0070F07D06C
:108BF000BCF1020F1BD017E00020A860E86013E072
:108C0000A86804283CBF21680A54032809D12068B9
:108C100021680068C97800BA20F0FF000843FCF71B
:108C20008DFAA868401CA8600020BDE8F081E868C3
:108C300070B9FCF788FA216820F07E42100E0870A7
:108C40002168100C48702168100A88702068C27072
:108C5000EA68042A06D22068032A805C387004BFC0
:108C600001203070501CE8600120BDE8F0817FB524
:108C70001C460D46064613F0070F08D103F0EAFE26
:108C800028B1012202A9102001F0AAFC03E004F09F
:108C90000700022802D004B0002070BD03F02AFDB6
:108CA00000F00F0403F0E1FC64F31F1030700120AA
:108CB000287004B070BD10B503F00702C64C012A3D
:108CC00002D0022A0DD00AE004F0C4FA0021E061CB
:108CD00000281ABF4FF4056020622162A1600020C5
:108CE00010BD236AA2689A4228BF104607D2D4F862
:108CF0001CC01CF802C080F800C0501CA060984244
:108D000004BF01200870012010BD10B413F0070F3C
:108D10004FF0402C04D003F00702022A13D00FE0DA
:108D2000012A04BFDCF8140040F0010006D0002A3C
:108D300004BFDCF8140020F0010001D1CCF81400CD
:108D400010BC00207047DCF81430002213F0010F33
:108D500018BF0122A24BD3F83CC0A24B1B68B3F84A
:108D6000A430C3F30334012303FA04F41CEA040F10
:108D700018BF42F0020202700B7010BC0120704755
:108D800070B514460E46054613F0070F04D003F0E5
:108D90000700022813D010E0002C14BF012000208F
:108DA00002F00CFE4CB14FF04020016B21F4405119
:108DB00041F4BE0141F020410163002070BD02F08A
:108DC00004FE002814BF012200222A700120307006
:108DD00070BD2DE9F04103F0070C7F4C0F46804633
:108DE000BCF1010F12D07E4E13F0070F4FF00305B8
:108DF00010D02046BCF1020F027822D0BCF1040F43
:108E000002BFA0680128062A2FD032E0052020707A
:108E1000002014E0A06810B1012804D00DE06270B9
:108E20000620207009E0607800EA0201316320EA40
:108E300002017163FAF79AF82570A068401CA060DF
:108E400017E0A068012808BF062A03D16078FAF766
:108E500092F82570F06B88F8000001203870A06847
:108E6000401CA0600120BDE8F0816078FAF783F82B
:108E700025700020BDE8F08170B5044603F00700BE
:108E80000D4602281CBF002070BDFCF7A1FE002883
:108E900014BF0122002222700120287070BD70B51D
:108EA0000D46044613F0070F04D003F00700022814
:108EB00005D002E0104607F085FE002070BD07F0E7
:108EC00084FE20700120287070BD70B50D460446E8
:108ED00013F0070F04D003F00700022805D002E0CA
:108EE0001046F8F717F8002070BDF8F716F8207054
:108EF0000120287070BD70B503F00702DFF8D8C0FC
:108F00000C460546012A08BF05200DD013F0070FB7
:108F100008BF062008D0022A09D0042A04BF9CF802
:108F20000000062809D00EE08CF800000BE0FCF7EA
:108F300055FE28700120207070BD03208CF80000C1
:108F40000120FCF74EFE002070BD70B503F0070253
:108F5000214D0E460446012A04BF0020A86001D01E
:108F6000022A01D0002070BD0EF01DFFAA68002A61
:108F700004BF000A207004D0012A02D12070012011
:108F80003070501CA860012070BD70B5044603F01D
:108F900007000D46022807D013F0070F04BF104644
:108FA000FCF728FD002070BDFCF727FD2070012094
:108FB000287070BD70B5044603F00700064D0E46DC
:108FC000012804BF0020A8601DD013F0070F0BD0AC
:108FD00002281AD017E00000508500108419020002
:108FE0000010004078860010A868FE4904283CBFA5
:108FF0000B681A54401CA860042804D10422096894
:10900000132001F0EDFA002070BD0CF015FAAA68EB
:10901000002A04BF000E20700FD0012A08BF000CE8
:1090200006D0022A08BF000A02D0032A02D004E0B8
:10903000207002E0207001203070501CA8600120D8
:1090400070BD70B503F0070CE74D0E460446BCF149
:10905000010F04BF0020A86015D013F0070F03D044
:10906000BCF1020F11D00EE0A868DE4902283CBF17
:109070000B681A54401CA860022804D10222096817
:10908000142001F0ADFA002070BD0CF0A1F9AA681F
:10909000002A04BF000A207004D0012A02D12070E7
:1090A00001203070501CA860012070BD70B50446CE
:1090B00003F00700CC4D0E46012804BF0020A86035
:1090C00014D013F0070F02D0022811D00EE0A868C8
:1090D000C44904283CBF0B681A54401CA8600428EB
:1090E00004D104220968152001F07AFA002070BD2D
:1090F0000CF0DDF9AA68002A04BF000E20700FD022
:10910000012A08BF000C06D0022A08BF000A02D0BC
:10911000032A02D004E0207002E0207001203070A9
:10912000501CA860012070BD70B5044603F0070014
:10913000AD4D0E46012804BF0020A86037D013F0C3
:10914000070F02D0022834D031E0A868A54C0028CF
:1091500004BF21680A7021680978012901D039B15A
:109160001BE0002818BF04283CBF21680A5414E003
:109170000CF0B8F92168000948700CF0A7F9C0F3A9
:1091800003260CF0AFF9216846EA001088700CF055
:109190009DF92168C8700320A860A868401CA860D9
:1091A000042804D104221620216801F019FA0020B5
:1091B00070BD0CF0A3F9AA68002A04BF000E20704D
:1091C0000FD0012A08BF000C06D0022A08BF000AEF
:1091D00002D0032A02D004E0207002E020700120B7
:1091E0003070501CA860012070BD10B503F007025C
:1091F0007D4C012A02D0022A27D024E004F02AF86C
:109200000023002804BFE36123621BD000F150015A
:10921000E1614168B1F5887F90F820100CD390F897
:10922000212001EB020C01FB02C190F8222090F8F2
:1092300023001044084404E090F822000A1801FBBF
:1092400000202062A360002010BD236AA2689A4219
:1092500028BF104607D2D4F81CC01CF802C080F802
:1092600000C0501CA060984204BF0120087001207B
:1092700010BD03F00702012A02D0022A05D002E045
:1092800059490020886000207047012202700A704E
:109290001046704710B513F0070F04D003F0070213
:1092A000022A05D002E0104601F0C1FD002010BDE9
:1092B0004E4A127802700120087010BD10B513F0EC
:1092C000070F04D003F00702022A05D002E010467F
:1092D00002F001F8002010BD454A1278027001200A
:1092E000087010BD10B513F0070F04D003F007028B
:1092F000022A05D002E0104602F010F9002010BD4D
:109300003C4A127802700120087010BD1FB513F09E
:10931000070F07D103F09EFB20B1012202A90B2009
:1093200001F05EF904B0002010BD70B503F0070035
:109330002D4C1546012804BF0020A06024D013F056
:10934000070F21D103F086FBF0B1A068254E03285A
:109350003CBF31680D54401CA060032814D1F8F7BD
:109360001AFD3068B0F8010045BAF8F74FFC040068
:1093700018BFF8F7A5FE306829460078F8F7ADF871
:10938000002C18BFF8F79FFE002070BD70B503F0E9
:109390000700154C1646012804BF0020A06034D0F9
:1093A00013F0070F31D103F055FB70B3A0680D4DDA
:1093B00002283CBF29680E54401CA060022824D11A
:1093C000F8F7E9FCF8F722FC040018BFF8F778FE7C
:1093D00028680078D8B129684978F8F712F9286820
:1093E000417809E08419020050850010958500102D
:1093F0009A8500109F850010007840F01000F8F763
:1094000000F9002C18BFF8F75EFE002070BD286838
:1094100041780020F3E77FB51C460E46054613F061
:10942000070F08D103F016FB28B1012202A917206B
:1094300001F0D6F803E004F00700022802D004B0DF
:10944000002070BD07F068FC002814BF0122002234
:109450002A700120307004B070BD7FB51C460E46E6
:10946000054613F0070F08D103F0F4FA28B10122E2
:1094700002A9182001F0B4F803E004F00700022864
:1094800002D004B0002070BD07F033FC287001202A
:10949000307004B070BD2DE9F04103F0070CFB4CB7
:1094A0000E460746BCF1010F07D0F94D13F0070F28
:1094B00007D0BCF1020F19D015E00020A060E060D9
:1094C00011E0A06803283CBF29680A54401CA06032
:1094D000032808D12868B0F8010040BA01B2286812
:1094E0000078FDF724FF0020BDE8F081E268022A41
:1094F00012D242B928680078FDF726FF2A68010ACF
:109500005170296888702868E2681044012A407800
:10951000387004BF01203070E068401CE06001201A
:10952000BDE8F08170B503F00700D84C154601285E
:1095300004BF0020A06017D013F0070F14D103F070
:1095400089FA88B1A068D24B03283CBF19680D5432
:10955000401CA060032807D11868B0F8010041BA88
:1095600018680078F9F7ABF8002070BD10B503F06B
:109570000702C64C012A02D0022A07D004E00020CC
:10958000A060FAF782F8A061002010BDA268042A4A
:1095900007D2C2F10303D4F818C0DB002CFA03F39E
:1095A0000370501CA060042804BF01200870012033
:1095B00010BD10B503F00700012807D103F04AFAE7
:1095C00020B1002211461C2001F00AF8002010BD35
:1095D0002DE9F04103F00705AC4E174688460446D6
:1095E000012D04BF0020B0601BD013F0070F16D16F
:1095F00003F030FA98B1B068A54B03283CBF196856
:109600000F54401CB06003280BD1186890F9022059
:1096100090F9011090F90000FBF722FC01E0022D07
:1096200002D00020BDE8F081B06830B1012809D037
:1096300002280CD003280FD015E01420FBF75CFBA8
:10964000207010E01520FBF757FB20700BE0162070
:10965000FBF752FB207006E01720FBF74DFB207054
:10966000012088F80000B068401CB0600120BDE80F
:10967000F08170B50D46044613F0070F04D003F0D7
:109680000700022805D002E0804900208860002001
:1096900070BD0120FBF730FB20700120287070BDE9
:1096A00070B503F0070C0026794C784DBCF1010F22
:1096B00006D013F0070F0CD0BCF1020F1FD01CE036
:1096C00007F04FFCAE60216808702168000A4870FE
:1096D00013E0A868022803D221680A54401CA8603D
:1096E00002280AD1AE602068007810F0010F04D083
:1096F00002221920216800F073FF002070BDAA68C3
:10970000022A28BF104604D223689B5C0370501CB9
:10971000A860022804D10120AE60087003202870E0
:10972000012070BD7FB51C460E46054613F0070F9D
:1097300008D103F08FF928B1012202A9232000F0FB
:109740004FFF03E004F00700022802D004B000201D
:1097500070BD0DF019FC28700120307004B070BD90
:109760007FB51C460E46054613F0070F08D103F0DF
:1097700071F928B1012202A91E2000F031FF03E097
:1097800004F00700022802D004B0002070BD0DF0E4
:1097900006FC28700120307004B070BD7FB51C46F7
:1097A0000E46054613F0070F08D103F053F928B110
:1097B000012202A9222000F013FF03E004F00700B9
:1097C000022802D004B0002070BD10F09AFA287070
:1097D0000120307004B070BD7FB51C460E460546B2
:1097E00013F0070F0ED103F035F958B19DF80800BA
:1097F000002818BF0DF0DCFB012202A91D2000F09B
:10980000EFFE03E004F00700022802D004B00020BD
:1098100070BD0DF0D0FB28700120307004B070BD19
:109820002DE9FF41194E1C460F46054613F0070F60
:109830001CD103F00FF9C8B19DF80800002818BF2B
:10984000012802D0022807D014E0F070012202A9FA
:10985000082000F0C5FE0DE0F07004208DF808002F
:10986000012202A9082000F0BBFE03E004F007007B
:10987000022803D004B00020BDE8F081F078287001
:109880000120387004B0BDE8F08100005085001060
:10989000841902007FB51C460D46064613F0070FDB
:1098A00008D103F0D7F828B1012202A9082000F05E
:1098B00097FE03E004F00700022802D004B0002065
:1098C00070BDFCF7A3F8801E052813D2DFE800F076
:1098D00003070E05100000240DE001240BE0022414
:1098E00006F0F5FC042808BF052404E0032402E088
:1098F000042400E0FF2434700120287004B070BDFF
:109900002DE9F0411C4617460E46054613F0070F99
:109910000BD103F09FF840B1384607F04DF9002213
:109920001146012000F05CFE03E004F0070002286D
:1099300002D00020BDE8F08107F041F92870012035
:109940003070BDE8F08110B5104613F0070F08BF66
:1099500007F0F5F9002010BD10B5104613F0070F01
:1099600008BF07F0F3F9002010BD70B5044603F0FE
:1099700007000D4602281CBF002070BD07F0EEF95D
:1099800020700120287070BD03F0070230B4FA4B3C
:109990004FF0000C012A05D0022A04BF1A78022ACF
:1099A0000BD01EE002201870F448C3F808C06FF016
:1099B0007F410068081A986113E09A68042A28BF5A
:1099C000104606D29D69D40025FA04F40470501C98
:1099D0009860042805D10120C3F808C0087003204E
:1099E000187030BC0120704713F0070F04BFE44823
:1099F00002700020704710B503F00700DE4901280F
:109A000004BF0020886013D013F0070F10D18868BE
:109A1000DC4B04283CBFD3F800C00CF80020401CED
:109A20008860042804D104221220196800F0D8FDAF
:109A3000002010BD2DE9F047164603F00702002470
:109A4000CD4F012A04BFBC60FC6064D0DFF83883CE
:109A500013F0070F07D0022A33D0042A04BF387846
:109A600006284FD058E0BD68002D08BFFE6125D004
:109A7000012D06D0D7F81090AC1E4C4516D284B9F3
:109A800008E0701C3861F9690844B0F5007F88BFB0
:109A90003C6113E04FF400724FF43E31BB4812F0CA
:109AA00066FBB849F869096820440E54601C4845B3
:109AB00004D1B648C0F8FC8106203870681CB86034
:109AC0002AE0FF2202703B69CBB1D7F81CC0FA68CC
:109AD0009444BCF5007F10D2AD4D2D68454518BFAC
:109AE000047005D10CF53C3C9CF800C880F800C01F
:109AF000501C984204BF01200870501CF8600120DF
:109B0000BDE8F0874FF43E30F9F7C4F89F494FF4B1
:109B10003E30F9F761F93C700020BDE8F0872DE98F
:109B2000F0478C4603F007010024934F16460129A5
:109B300004BFBC60FC6062D013F0070F954BDFF8E8
:109B4000588207D0022932D0042904BF3878062869
:109B50004DD055E0BD68002D08BFFE6124D0012D19
:109B600006D0D7F81090AC1E4C4515D27CB908E051
:109B7000701C3861F9690844B0F5007F88BF3C610A
:109B800012E04FF400721946804812F0F0FA7D4955
:109B9000F869096820440E54601C484504D17B488C
:109BA000C0F8FC8106203870681CB86028E0FF21EE
:109BB00001703B69C3B1FA69F9680A44B2F5007FE4
:109BC00010D2764D2D68454518BF047004D102F5BA
:109BD000383292F8002E0270481C984204BF0120CF
:109BE0008CF80000481CF8600120BDE8F0871D4695
:109BF0001846F9F74FF865492846F9F7EDF83C7033
:109C00000020BDE8F08770B503F007005A4C1546F8
:109C1000012804BF0020A06014D013F0070F11D159
:109C200002F018FF70B1A068564902283CBF0A68CC
:109C30001554401CA060022804D1022209680520A6
:109C400000F0CEFC002070BD2DE9F041054603F088
:109C500007004C4C484E0F4601280AD013F0070F5E
:109C600014D002281BD0042804BF3078062834D032
:109C70003FE00020B06021680870216848702168CA
:109C800088702168C8700520307032E0B068042800
:109C90002FD221680A54401CB060062028E0B0682A
:109CA00060B906F080FF216808702268010A5170CF
:109CB0002268010C000E91702168C870B0680428F9
:109CC0003ABF2168095CFF21297024BF0121397046
:109CD000401CB0600120BDE8F08102F0BBFE40B145
:109CE0002068C178006861F31F6006F057FF032009
:109CF00030700020BDE8F08170B503F007011E4C04
:109D0000064601290BD01F4D13F0070F11D0022971
:109D100019D0042904BF2078062822D02AE0002088
:109D2000A060EA2A14BF062012206070052020706F
:109D300020E0A068B0F5007F1CD229680A54401CBE
:109D4000A060062015E0A06818B96178286812F0B4
:109D50008BFA2868A168405C3070481CA060012024
:109D600070BD02F077FE28B1A168286812F081FA70
:109D700003202070002070BD50850010A0840010CA
:109D80003B84001084190200554E564DD4AC00108F
:109D9000FCF9020000EE0200324E564DFCEF0200CC
:109DA0007FB51C460E46054613F0070F08D102F09A
:109DB00051FE28B1012202A9262000F011FC03E087
:109DC00004F00700022802D004B0002070BD06F0A5
:109DD000EBFF28700120307004B070BD7FB51C46C9
:109DE0000E46054613F0070F08D102F033FE28B1E6
:109DF000012202A9112000F0F3FB03E004F00700A8
:109E0000022802D004B0002070BD0FF0F2FD2870CF
:109E10000120307004B070BD2DE9F041054603F01B
:109E20000700F74CF74E0F4601280AD013F0070F32
:109E300014D002281BD0042804BF3078062834D060
:109E40003FE00020B06021680870216848702168F8
:109E500088702168C8700520307032E0B06804282E
:109E60002FD221680A54401CB060062028E0B06858
:109E700060B912F003FA216808702268010A517073
:109E80002268010C000E91702168C870B068042827
:109E90003ABF2168095CFF21297024BF0121397074
:109EA000401CB0600120BDE8F08102F0D3FD40B15C
:109EB0002068C178006861F31F6012F0E4F90320A4
:109EC00030700020BDE8F0817FB50D46044613F0E8
:109ED000070F04D003F00700022808D004E0012295
:109EE00002A9242000F07CFB04B0002070BD12F019
:109EF000CFF920700120287004B070BD1FB513F099
:109F0000070F04D1012202A91A2000F069FB04B056
:109F1000002010BD2DE9F041044603F00700B94EC2
:109F20000F46012804BF0020B06001D0022802D0F3
:109F30000020BDE8F081B24DB06860B9FDF76EFA5F
:109F40002A68010E11702A68010C51702A68010AF2
:109F500091702968C870B06804283ABF2968095C04
:109F6000FF21217024BF01213970401CB060012005
:109F7000BDE8F0812DE9F04103F00702A14D0E4646
:109F80000446012A04BF0020A86001D0022A02D0A2
:109F90000020BDE8F0819A4FA86830B912F07DF931
:109FA0003A68010A117039684870AA68022A3ABFF3
:109FB0003868805CFF20207024BF01203070501C66
:109FC000A8600120BDE8F08103F007008D49012859
:109FD00006D013F0070F04BF0878012806D014E05C
:109FE000012008700020886048610DE0886804281E
:109FF00005D24B69401C42EA03224A61886004286A
:10A0000003D1032008704869C8610020704703F03D
:10A010000700DFF8F0C1012807D013F0070F04BFD5
:10A020009CF80000022809D01EE002208CF80000F5
:10A030000020CCF80800CCF8180015E0DCF8080087
:10A04000022808D2DCF81810401C42EA0121CCF8A2
:10A050001810CCF80800022806D1DCF81800CCF85B
:10A06000200003208CF800000020704770B403F03B
:10A0700007020025634C012A02D0022A06D002E022
:10A0800002202070A56070BC002070472278022A50
:10A090001CD1D4F820C0A268624528BF10460ED259
:10A0A00012F0030F04D1E36953F8046BC4E90663AB
:10A0B000237E0370A069000AA061501CA060604567
:10A0C00004D10120A56008700320207070BC01201D
:10A0D000704770B503F0070000254A4C0E46012872
:10A0E00006D013F0070F04BF2078022805D02BE01C
:10A0F00002202070A560A56126E0216AA068884240
:10A1000019D2A169090A41EA0262401CA26110F059
:10A11000030FA0600FD1E069B0F5443F28BF026093
:10A1200006D2B0F5005F03D304223749F8F7A8FE42
:10A13000E069001DE061216AA068884204D1012025
:10A14000A560307003202070002070BD70B503F052
:10A15000070C00252B4CBCF1010F08BFA5603AD0BD
:10A1600013F0070F03D0BCF1020F36D033E0052AFD
:10A1700008BF4FF43E302DD005DC16D2DFE802F0E8
:10A18000171A1D2022002148202A006808BFB43079
:10A1900020D006DC102A1DD0112A08BF1C4819D077
:10A1A00003E0302A11D0312A12D0656113E04FF458
:10A1B00000500FE04FF443300CE04FF4203009E042
:10A1C000144807E04FF4403004E001F0D1FC01E016
:10A1D0000FF09EF86061002070BDA268042A07D2CB
:10A1E000C2F10303D4F814C0DB002CFA03F30370AC
:10A1F000501CA060042824BF01200870012070BDFD
:10A2000084190200508500106885001078860010BF
:10A210006C3A011000FE020070B403F0070CDE4D32
:10A22000BCF1010F07D0DD4C13F0070F07D0BCF1D4
:10A23000020F21D01DE00020A860E86019E0A868A6
:10A2400005283CBF21680A54042810D123682268DD
:10A25000D4F800C0D3F80130696912781BBA9CF8B1
:10A2600004C023F0FF0343EA0C0341F82230401CF2
:10A27000A86070BC00207047EB6873B1042B07D254
:10A280002268032B1A445278027004BF0120087020
:10A29000581CE86070BC012070472268D5F814C0D3
:10A2A00012785CF8222026684FEA126C86F801C00A
:10A2B00026684FEA124C86F802C026684FEA122C34
:10A2C00086F803C0D4F800C08CF80420D8E710B595
:10A2D00003F00700012804D1002211460E2000F0EF
:10A2E0007FF9002010BD2DE9F04103F00704AA4ECC
:10A2F000174688460546012C04BF0020B06017D0E1
:10A3000013F0070F12D102F0A5FB78B1B068A34992
:10A3100002283CBF0A681754401CB060022807D1CD
:10A3200002220968072000F05BF901E0022C02D04C
:10A330000020BDE8F081B26812B1012A04D009E022
:10A34000FBF764FB287005E0FBF766FB2870012033
:10A3500088F80000B068401CB0600120BDE8F081C2
:10A3600070B503F0070000258B4C012808D013F0CE
:10A37000070F0BD0042804BF2078062825D02DE035
:10A380006561A5616570A560257027E0A068022859
:10A3900007D2616942EA012161616178114461700B
:10A3A00010E0042807D2A16942EA0121A161617885
:10A3B0001144617006E0052804D261788A4204BF26
:10A3C00006212170401CA06008E0D4E9050101F0DD
:10A3D0002DFC002804BF0120A0702570002070BD56
:10A3E00010B56D4C13F0070F07D003F007000428D9
:10A3F00004BF2078062822D02BE0A068022807D2CC
:10A40000616942EA0121616161781144617013E080
:10A410006349091808D261490968014401F8022C0E
:10A4200061781144617007E05E49091804D26178CF
:10A430008A4204BF06212170401CA06009E05A49ED
:10A44000606901F015FC002804BF0120A070002005
:10A450002070002010BD03F0070CBCF1010F00D0EC
:10A46000BEE74D4900204861487088600870704719
:10A4700030B403F007050024DFF81CC1012D07D01C
:10A4800013F0070F0DD0022D3CD0042D54D06FE0F7
:10A49000CCF81440CCF81840CCF808408CF80040B8
:10A4A00066E0DCF8080002280BD2DCF8141042EA5F
:10A4B0000121CCF814109CF8011011448CF8011003
:10A4C00019E0042817D2DCF81810032842EA012109
:10A4D000CCF818109CF801301A448CF801200AD1ED
:10A4E00006228CF80020DCF81420114304BF4FF43E
:10A4F000C471CCF818102D49401CCCF82810CCF8A9
:10A50000080035E0DCF80820042A28BF10460AD2EB
:10A51000C2F10303DCF82850DB0025FA03F30370D3
:10A52000501CCCF80800042803D10120CCF80840C6
:10A53000087030BC012070479CF80000062815D137
:10A54000DCF8140000224102DCF818004302104637
:10A55000B2EB930F06D251F8045B401C2A44B0EBD7
:10A56000930FF8D3CCF828208CF80040CCF80840A2
:10A5700030BC002070474FF443300168880A4242E3
:10A5800011EB822218BF401C404201EB8000C01C2E
:10A5900020F003007047000050850010841902006D
:10A5A000FEFDFFFFFDFDFFFFD4AC0010EFBEADDEF2
:10A5B000FE48002202704270827002714271C270C5
:10A5C000DFF8ECC3114601EB410300200CEB430321
:10A5D0001A54401C0628FBD3491C2029F3D370478A
:10A5E00011F060BE2DE9F04115460E460746F8F71A
:10A5F0005DFF00F008040820F8F753FF2A463146B3
:10A60000384611F04FFE05462046F8F745FF28462C
:10A61000BDE8F081E54880787047E44840787047AD
:10A62000E24900204870704710B50024F6F76FFC2F
:10A6300010F0040F13D0FBF7E9F905280FD1F6F756
:10A64000A5FC60B1024600239921072005F084FD96
:10A650000120FAF713F9022001F03AFB0124204609
:10A6600010BDD2490820887170472DE9F0410026BD
:10A67000F7F7A5FC044610F00F056DD02846F7F754
:10A68000A1FC012D1FD0FBF7C7F944EA00640023A9
:10A6900022460321072005F05FFD14F0050F14BFCB
:10A6A00000200120F5F75EFE14F0060F54D00126BD
:10A6B000FBF7ACF9054606F093FA0746022D3AD0AF
:10A6C000052D09D048E0FBF7A1F9B8498A799042F5
:10A6D00018BF8871D7D1E7E714F0020F13D0F6F74F
:10A6E000A3F800281CBF0020F6F7AAF80120FAF70B
:10A6F000C5F80120F6F7B0F80020FAF7D3F80120EA
:10A7000001F008FB1AE00FF0E4FE007810F0080FEB
:10A710000AD0F6F789F800281CBF0020F6F790F859
:10A720000120FAF7ABF802E00120FAF7BBF83C2071
:10A73000F6F727FC02E00120FAF7A0F801F0DFFAB3
:10A74000002818BF01F0E2FA022F05D0022D4FF0C9
:10A75000020004D001F0BCFA3046BDE8F08106F0FA
:10A76000E0FAF9E72DE9F84F0026F9F728FBFBF7A7
:10A770004DF9022804D101F035FF002818BF012649
:10A78000FBF744F905281BD1FAF792F8C0B101F0A4
:10A79000B3FA5A2814D3F6F747F800281CBF002054
:10A7A000F6F74EF801F0BCFA002818BF012001F0BE
:10A7B000BAFA0120FAF762F80020FAF773F80126D6
:10A7C000FFF753FF002818BF0126F6F7A0FB10F093
:10A7D000040F13D0FBF71AF905280FD1F6F7D6FBB3
:10A7E00060B1024600239921072005F0B5FC012045
:10A7F000FAF744F8022001F06BFA0126DFF8AC9179
:10A8000099F80200002800F08682D9F808006D4609
:10A810004FF0FF34002740B1D9F808200023012170
:10A82000084605F099FCC9F80870F8F73FFE00F0FB
:10A83000080A0820F8F735FE99F80300DFF870B130
:10A8400000B399F8050000EB4001401CC0B20BEBCF
:10A85000410189F80500202828BF89F8057099F87A
:10A860000300401E89F803004C7891F80080002016
:10A87000002C05DD0A1892782A54401C8442F9DC29
:10A880000F704F705046F8F707FE002CC0F233826D
:10A8900008F0FF000024272880F0EA81DFE800F0BC
:10A8A000B325F41D28371444F349B38A90D1F295A7
:10A8B000AFB9F1F0EFEEEDFAEBEAE9B3E8E7E6E580
:10A8C000E4B3E3E2E1E0B4009DF80000AC280CBF83
:10A8D00001200220FBF753F907E09DF8001001204A
:10A8E000FBF7A9F8012089F80100012400F0C0B9A4
:10A8F0009DF80310009861F31F6002F059FB0121DD
:10A900000320FBF798F8012089F80100EDE7BDF876
:10A91000000040BA06F04AF902210320FBF78BF849
:10A92000012089F80100E0E79DF801109DF8000082
:10A93000ADE04FF0010A89F801A099F8000088BB4A
:10A94000F7F732FB70B39DF8005089F800A0FBF7D1
:10A950005DF8012808BF002515F0040F18BFFCF7AB
:10A960005BFD15F0020F07D0FF210F20FBF782FFE0
:10A97000FAF7A8F845F0010515F0010F10D0FBF724
:10A9800045F8022802D106F02BF948B1FBF73EF852
:10A99000052802D101F0A7F910B10020FAF757F805
:10A9A00089F8007089F8017000F062B9888500109C
:10A9B000D4AE00109DF80000401E01F047FC94E763
:10A9C0009DF8000006F0D0F98FE79DF8000010F028
:10A9D0000F0F0BD0012001F078FE9DF80000102130
:10A9E00000F00F0001F045FE00F042B9002001F038
:10A9F0006CFE9DF80000002100F00F00F2E79DF8CA
:10AA0000000001F068FE33E19DF8000006F0C0F997
:10AA10002EE19DF8000010B1012808D028E10020A7
:10AA20000EF0E4FF00200EF075FC002006E001208F
:10AA30000EF0DCFF03200EF06DFC01200EF085FC13
:10AA400016E19DF8000000B3FAF7E0FF022818BFF6
:10AA5000012406F06EF901460220FAF7ECFF07E147
:10AA6000FDE001E1F4E0EEE0CFE0C9E0D2E0BAE0E1
:10AA700070E028E022E01CE00CE09AE08BE084E04B
:10AA80006BE05CE031E042E0B6E000210620FAF73E
:10AA9000D2FF2AE79DF80000002818BF012006F029
:10AAA00031F99DF80000002818BF012001F006F9D7
:10AAB000DEE09DF8000006F011F9D9E0BDF80000D5
:10AAC00006F0DDF911E79DF8000020B1012840D023
:10AAD000022805D0CCE04FF44330F8F7DBF8C7E0AC
:10AAE00002F010F800210420D1E7F8F7DFFC00F0B5
:10AAF00008040820F8F7D5FC99F80300002808BFDF
:10AB000089F802702046F8F7C7FC0121BEE79DF8DE
:10AB10000000062805D2DFE800F004070A0C030F46
:10AB2000B3E702210846B2E702210520AFE7002182
:10AB300003E000210420AAE704210320A7E79DF8F1
:10AB40000300009A002360F31F626221072005F0D2
:10AB500003FB8DE0FAF7D1F9C7E69DF800009DF8F8
:10AB60000110000140EA11100AF048FC9DF80110A4
:10AB70009DF8020001F00F0140EA01200AF044FCB8
:10AB80009DF803000AF04CFC2AE0BDF8000040BA32
:10AB90000AF021FC6CE09DF800000AF059FC9DF8D9
:10ABA00001000AF068FCBDF8020040BA0AF076FC29
:10ABB0005EE09DF800000AF086FC9DF801009DF81B
:10ABC0000210000140EA11100AF08FFC9DF80210FB
:10ABD0009DF8030001F00F0140EA01200AF079FC22
:10ABE0000AF095FC44E09DF800000CF0E1F99DF8B6
:10ABF000000000287FF479AE0020F9F73FFE74E6EC
:10AC00009DF8000006F0DCF96FE69DF8000006F004
:10AC1000DFF96AE60CF0C3F99DF8004006F0A1F9EF
:10AC2000012C0AD0022C08BF40F0805005D0042C23
:10AC300014BF082C40F0005001D106F0E7F8204680
:10AC40000CF0A8F951E69DF800000FF05DF80FE058
:10AC50009DF800000CF095F905F0F8FF08E09DF86C
:10AC6000000000F065F903E09DF8000011F01FFB03
:10AC70000CB101263FE0D9F808006D464FF0FF34D3
:10AC800040B1D9F8082000230121084605F064FAF4
:10AC9000C9F80870F8F70AFC00F0080A0820F8F76D
:10ACA00000FC99F8030000B399F8050000EB40019F
:10ACB000401CC0B20BEB410189F80500202828BFD9
:10ACC00089F8057099F80300401E89F803004C7854
:10ACD00091F800800020002C05DD0A1892782A5493
:10ACE000401C8442F9DC0F704F705046F8F7D4FBDB
:10ACF000002CBFF6CDADF8F7D9FB00F00804082012
:10AD0000F8F7CFFB99F80300002808BF89F8027014
:10AD10002046F8F7C1FB002E14BF01200020BDE83B
:10AD2000F88F000002460020022928BF70473AB180
:10AD3000012A0AD0022A04BFFE4800EBC100704776
:10AD400040F2DB104843FC4904E001EB4100C0EB5A
:10AD50004110FA4901EB8000704770B5F8F7A6FB87
:10AD600000F008060820F8F79CFBF54D00246878F1
:10AD7000FF2806D240F6D861EF4811F0FDF9AC701B
:10AD8000EC70A879FF2805D2E821EC4811F0F4F91D
:10AD9000EC712C72E87AFF280AD2EA49C1F8C04364
:10ADA000C1F8C443C1F8C843C1F8CC432C736C73D9
:10ADB0003046BDE87040F8F76FBBDFF88CC300FB8E
:10ADC00001F31CEB030C88BF7047DD4BDA61C3E96C
:10ADD00005017047DFF868C30028DCF8143018BF9D
:10ADE0000360D7480029806918BF0860002A1CBF8B
:10ADF000DCF81C10116058437047D14801210171E3
:10AE0000007840F2DB1180F001004843CA4901EBB1
:10AE100080007047CA488278002132B1C27822B9D6
:10AE2000027882F001020270817001717047C4499A
:10AE30001E284A78487008BF002003D01F2808BF8A
:10AE4000012000D1087010467047F0B4BC4E96F84F
:10AE500000C040F2DB140CFB04FCB74C756904EB3A
:10AE60008C0C03FB05F40CEB440C8D4234BF2C46D8
:10AE70000C46B669F31A934238BF1A460026002AD8
:10AE80009CBFF0BC70470023002C06D930F813702B
:10AE90002CF813705B1C9C42F8D8761C0CEB450C0C
:10AEA00000EB41009642EED3F0BC70472DE9F04133
:10AEB000A34F14468C4601467A7806981D468A426E
:10AEC00018BFBDE8F0810121F970012802D00228E5
:10AED00024D029E0387840F2DB11484396497E6956
:10AEE00001EB8001A64234BF32462246B869A8422F
:10AEF00038BF05460023002D16D90020002A06D9A8
:10AF00001CF8007021F81070401C8242F8D85B1CBD
:10AF100001EB4601A444AB42EFD305E000232A46EF
:10AF200021466046FFF791FFBDE8F04100F0D7BC35
:10AF3000834A01281146D073497808BF242004D0E1
:10AF4000002806BF2429FF207047507070477C48B6
:10AF5000C07B704770B4DFF8F4C1DCF800C0DCF8E7
:10AF600018C01CF0040F1ABF012424EA0C060CF0D0
:10AF7000010605680C68002E1CBF1B1B5C1E1CF024
:10AF8000020F1CBF521B551E1CF0040F19BF04609A
:10AF90000D6005600C6070BC7047002808BF7047EA
:10AFA00067496B4B4A786B491B78002A097818BFB0
:10AFB000022A05D0042A18BF092A01D0012244E739
:10AFC000654A1278012A84BF644A1378012200F08E
:10AFD000A0BC2DE9F04FDFF868918BB0012189F812
:10AFE00003105F495C4C5D4E0D785949DFF848B15C
:10AFF0000F7899F8011012292FD00CDC04291CD0ED
:10B0000004DC002918BF02290DD116E0092914D04B
:10B01000112922D007E013291FD0212918BF222986
:10B020007ED024297DD0002800F0358100233A46C7
:10B030002946FFF70AFF00F02EB92178012902D92D
:10B04000484937780D78002800F0258100233A46DA
:10B05000294600F05EFC00F01EB9F6F79CFEF6F7FC
:10B06000D5FD0090002818BFF7F72AF820780128AE
:10B0700088BF3778F6F7A0FF10F0040F18BF7F1CC9
:10B08000DFF8E48099F80100A0F1110699F80000BA
:10B0900040F2DB114143D9F814000BEB8104A842C4
:10B0A00038BF0546D9F81800B84238BF0746F7F749
:10B0B00050F801900020F7F76FFB4FF0000A002FC7
:10B0C00057DD4FF00009002DC4BF0AEB4A0000EB2A
:10B0D0000A1B28DD019810F90900262824BF00204A
:10B0E00024F8190018D200F0010108EB413100EBFF
:10B0F000D07001EB8B01401051F820104FF0FF3061
:10B10000A6B3012E08BFC8B204D0022E04BF084661
:10B11000F7F748FB24F8190009F10109A94501E0F6
:10B1200034E03BE0D6DB06480AF1010A406904EB53
:10B1300040041CE054BF001094AF00106CBE00101F
:10B140009485001094BB00104AFCFFFF7886001025
:10B150001085001016850010118500101385001051
:10B160000F850010128500100080003007E0BA45FE
:10B17000A7DB0098002818BFF6F7A5FF8BE011F4B5
:10B18000803FC1F3072018BF4042C3E700287DD0AD
:10B190000023BA1C2946FFF758FE7CE000287AD02D
:10B1A0000646FE480068007E10F0040F07BF2C46DC
:10B1B000BA463C46AA46A2084FEA9A000590A4EB7C
:10B1C0009401069000926008491ECDE901104FEAF3
:10B1D0005A000790AAEB9A00401E08900990CDE90A
:10B1E00003215346224605A96846FFF7B3FE53469E
:10B1F000224605AF06A9E84601A8FFF7ABFE534675
:10B20000224607F1080108F10800FFF7A3FE5346A4
:10B21000224607F10C0108F10C00FFF79BFE534694
:10B22000224607F1100108F11000FFF793FE99F88C
:10B23000000040F2DB11414300220BEB81009146FC
:10B2400020F8129058F82210A1F1010C491C614518
:10B250001ED357F822104B1E491C99420FD303FBF3
:10B2600005C136F9114030F912108C42C8BF20F8E0
:10B27000124057F822105B1C491C9942EFD258F833
:10B2800022100CF1010C491C614500E003E0E0D202
:10B29000521C052AD4D30BB0BDE8F04F00F01FBB01
:10B2A000BF4801214172407980F0010000EB40016C
:10B2B000C1EB4010BB4901EB80007047B848C27930
:10B2C000002132B1027A22B9427982F00102427140
:10B2D000C17141727047B2491E288A79887108BFCE
:10B2E000002003D01F2808BF012000D1487110465C
:10B2F0007047AB48407980F0010000EB4001C1EBA2
:10B300004010A84901EB800070472DE9F04FA64995
:10B3100085B0012291F80080A44991F80090A049DD
:10B320000A7289799F4C11291CBF1229132936D022
:10B33000F8B19B49497901EB4102C2EB411104EBA1
:10B340008102002119EB080C18BF944C11D023681E
:10B35000B9F1000F5B8A03BF30F811500B4422F89B
:10B36000135030F8113018BF22F81130491C8C45A9
:10B37000EDD8F8F79BF800F008050820F8F791F8E9
:10B38000874C607A002818BF01217CD0E1712846E3
:10B39000F8F782F80020207205B0BDE8F08FF6F7CC
:10B3A000FAFCF6F733FC0190002818BFF6F788FE88
:10B3B0007B488179A1F11105016A0091407900EB88
:10B3C0004001C1EB401004EB8006F5F7ECFD784F2F
:10B3D00078494FF0110A002804BF8B46012004D0A1
:10B3E000BB4650460F464FF0010AF7F7D5F9F6F77E
:10B3F000AEFE00240390B9F1000F28D900984C212B
:10B400004843029003980057262824BF002026F8BE
:10B41000140019D200F001010BEB413200EBD070A7
:10B420000299401001EB8000002D11584FF0FF30C1
:10B4300049D0012D08BFC8B204D0022D04BF084670
:10B44000F7F7B0F926F81400641C4C45DAD306EB84
:10B4500049065046F7F7A0F9F6F77BFE002482462E
:10B46000B8F1000F29D900984C2100FB01F94FF0E9
:10B47000000B1AF90400262828BF26F814B019D2A8
:10B4800000F0010100E02CE000EBD070401007EB71
:10B49000413109EB800009584FF0FF30D5B1012D43
:10B4A00008BFC8B204D0022D04BF0846F7F77AF9E6
:10B4B00026F81400641C4445DBD30198002818BF0B
:10B4C000F6F701FE55E711F4803FC1F3072018BFDE
:10B4D0004042B7E711F4803FC1F3072018BF404254
:10B4E000E6E7607980F00100607100214EE72C48AA
:10B4F00001218173807A304980F0010001EBC000A6
:10B5000070472748027B002132B1427B22B9827A00
:10B5100082F00102827201738173704720491E28F4
:10B52000CA7AC87208BF002003D01F2808BF0120B4
:10B5300000D18872104670471948807A1E4980F001
:10B54000010001EBC00070472DE9F04F144987B0AE
:10B5500001224A73C97A184D184C11291CBF1229AF
:10B5600013293FD0A8B10E49897A237805EBC1028F
:10B5700094F801C0002113EB0C0F0AD030F8113001
:10B5800022F81130237894F801C0491C63448B429F
:10B59000F4D8F7F78BFF00F0080611E0788600106A
:10B5A000948500106CBE00101485001015850010E5
:10B5B000B09D0030189D003054BF0010178500105A
:10B5C0000820F7F76EFFF54CA07B002500281CBF74
:10B5D000012121737CD03046F7F75EFF657307B019
:10B5E000BDE8F08FF6F7D7FBF6F710FB04900028C4
:10B5F00018BFF6F765FDEA4805902078617800EB02
:10B600000108E649C87A8A7AA0F11109086AC9696D
:10B6100005EBC20B414538BF884602210291122139
:10B620000391002500EB40012E4601EB001A02AC0D
:10B6300054F82500F5F787F900284DD054F8250077
:10B64000F7F7AAF854F825000021F6F739F800902A
:10B6500054F825000121F6F733F8019005EB450079
:10B66000059900EB0510002401EBC0072EE0E01760
:10B6700004EBD060421120F01F005DF82210221A66
:10B6800001209040014220D004F0010007EB40303F
:10B6900004EBD47100EB8A00491000EB810141F604
:10B6A0004860B9F1000F09584FF0FF301DD0B9F1D3
:10B6B000010F08BFC8B205D0B9F1020F04BF084698
:10B6C000F7F770F82BF81600761C641C464500E06E
:10B6D00012E0B8BF262CCADB6D1C022DA7DB049834
:10B6E000002818BFF6F7EFFC53E711F4803FC1F3D1
:10B6F000072018BF4042E5E7A07A80F00100A07261
:10B70000257368E770B50D46A4490122CA70A54AA1
:10B7100049781678A44A212914781EBF22292329A2
:10B7200070BD002818BF002D11D0002322463146DD
:10B73000FFF78BFB631C012221462846FFF785FBA0
:10B7400005EB4400A31C01223146FFF77EFBBDE858
:10B75000704000F0C4B870B5904D0446687868B980
:10B76000E06858B191490978012994BF8E49904900
:10B770000B7890490122097800F0CBF8E87A11287B
:10B7800004BF0020FFF7E0FEE87A122804BF002083
:10B79000FFF7DAFEE87A132804BF0020FFF7D4FE93
:10B7A0006878002804BFA068FFF713FC68781128A8
:10B7B00004BF0020FFF70DFC6878122804BF0020AA
:10B7C000FFF707FC6878132804BF0020FFF701FC8F
:10B7D000206920B1A979002908BFFFF796FDA87953
:10B7E000112804BF0020FFF790FDA879122804BF9C
:10B7F0000020FFF78AFDA879132818BF70BD00202C
:10B80000BDE8704081E52DE9F74F804665480D465B
:10B81000002690F800A064486049344690F80090F3
:10B82000BAFBF5F000FB09F70120C870087C097825
:10B83000DFF884B188420ED0584A40F2DB11484309
:10B840000BEB8001107840F2DB1250430BEB8000D1
:10B85000920010F09BFC0298002888BFDFF83CB1F2
:10B860002DD99BF811C00022BCFBF9F009FB10C1D7
:10B8700001FB0AF100FB0510002D12D938F8143035
:10B880009BF8001040F2DB1E01FB0EFE4A49641CCF
:10B8900001EB8E0100EB020E521C21F81E30954286
:10B8A000ECD80CF10100C0B28BF81100B84224BFF3
:10B8B00000208BF81100761C02988642D1D33749BC
:10B8C000487C401EC0B2487487429CBF781E4874B2
:10B8D0000878087403B0BDE8F04FAFF3008070B58E
:10B8E000F7F7E4FD00F008060820F7F7DAFD2B4C27
:10B8F00020790025002801BF207880F00100207009
:10B90000A5701CBF0120A0703046F7F7C5FDE5709B
:10B9100070BD2DE9F047994616460D460446F6F7E8
:10B920001DFC5FEA000C1CD01C49087840F2DB12B9
:10B930005043214AD1F8148002EB800009FB08F241
:10B9400000EB4200454594BF2F4647468969A1EB6D
:10B950000901B14238BF0E460021002E09D8BDE8CA
:10B96000F0874B46324629462046BDE8F047FFF7B0
:10B970006CBA0023002F08D91CF9032034F81220D8
:10B9800020F813205B1C9F42F6D8491C00EB4800AE
:10B9900004EB4504B142ECD3BDE8F0879485001078
:10B9A000008000300F8500101085001011850010F8
:10B9B000138500101685001094AF0010634900280D
:10B9C00014BF0020012008707047604800780028EC
:10B9D0000CBF01200020704701205C49487070476F
:10B9E0005A4800214170017800291ABF4068002898
:10B9F00070474FF04020416921F0010141617047DB
:10BA00005248017829B14FF040214A6942F00102C1
:10BA10004A61002141608160C160016170474B480B
:10BA2000017829B14FF040214A6942F001024A6190
:10BA3000002141608160C1600161704770B50446BA
:10BA4000F7F734FD00F008050820F7F72AFD3F4A14
:10BA50003F490023D06801EBC001401CD060B0F525
:10BA6000807F28BFD3602078087060784870A07805
:10BA70008870E078C8702079087160794871A07981
:10BA80008871E079C8711069B0F5807F3CBF401CB7
:10BA9000106116D31D20087001204870207888702E
:10BAA0006078C870A0780871E07848712079887152
:10BAB0006079C8719068401C9060B0F5807F28BFA5
:10BAC0009360506840F001005060107838B15078B1
:10BAD00028B94FF04020416921F001014161284619
:10BAE000F7F7DAFC012070BD00B50178427883B029
:10BAF000890141EA82018DF80010418809098DF819
:10BB00000110818809098DF80210817801F00F0277
:10BB1000017962F31F118DF80310017A8DF804107A
:10BB2000417A8DF805108179C27901F03F0102F068
:10BB30000C0241EA02118DF80610C07980018DF8DF
:10BB400007006846FFF77AFF03B000BDB885001014
:10BB500064BF0010002818BF2D482E498863704725
:10BB60002C48806B2A4988420CBF01200020704776
:10BB700028487047284B4FF0000C1D681B1F1C689D
:10BB8000244B19605A602549D963DD6215F0804F56
:10BB900022D0210C5985210A83F8291083F82840E6
:10BBA000598D19B15A8D012141EA024C93F829109F
:10BBB00039B193F82910022242EA014C1849096868
:10BBC000196393F8281039B193F82810032242EA38
:10BBD000014C1449096859634FF04021C1F878C0FD
:10BBE0008269CA67B0E834109A60DC601D61C3F8EE
:10BBF00014C090E815109861DA611C62C3F824C083
:10BC0000986B034A904204BF07480867FEE70000AC
:10BC1000504D5544005F01102CED00E0544C41465E
:10BC200038ED00E034ED00E0AD2007B070B50E4611
:10BC30000446F9F7EBFE042811D1A4F5A0704828BA
:10BC40000DD2A019A0F24110482808D265020024A4
:10BC5000002E04D92846F7F71DF8012801D000204E
:10BC600070BD641C05F50075B442F3D3012070BDAE
:10BC700070B50D460446F9F7C9FE04280AD1A4F5AB
:10BC8000A070482806D260022946F7F7A5F80128D7
:10BC900008BF70BD002070BD10B5074CFEF762FDF7
:10BCA000012808BF10BD206800F0F4FF002818BF6D
:10BCB000F9F704FFF2E7000078860010FE4A00283A
:10BCC000916814BF41F0010021F0010090607047BD
:10BCD000F94B99680A0E120721F07F4142EA006091
:10BCE000084398607047F4488068C0F30360704769
:10BCF000F1488068000F7047EF48C0687047EE4811
:10BD000080697047EC49012088617047EA4900204A
:10BD100088617047002818BF0120E74948707047C4
:10BD2000E54840787047002818BF0120E249887034
:10BD30007047E148807870472DE9F041AEB00027A8
:10BD40000DF0F9FF0646A02102A810F015FA002414
:10BD500025464FF00308305D10F0800F18D0601CAE
:10BD60008DF8A9008DF8AF508DF8A880ADF8AC50D3
:10BD70008DF8B050ADF8AA508DF8AE508DF8B15096
:10BD80008DF8B450355501272AA902A8F4F7D8FB3D
:10BD9000601CC4B20A2CDED3012F06D1102302AAE4
:10BDA0000621012000950EF0C1FB0DF048FE2EB0DB
:10BDB000BDE8F0812DE9F04FDFF8009387B0D9F8A6
:10BDC0000000B0F90E11B0F90C0110F039FAF4F7D7
:10BDD00086FC3C20F5F7D5F80120F8F74FFD002050
:10BDE000F6F77EF90DF081FF042000F047F9F8F72F
:10BDF00043FD09F053FCF9F709FE05285ED1DFF891
:10BE0000B8824FF0000A4FF0402BD8F80800C8F86D
:10BE10000CA0C8F810A0C0F30365C8F814A0D9F8A6
:10BE20000000A900D0F8F80020FA01F101F00F0499
:10BE3000C0F30327C0F30336BC420FD10F2E0DD041
:10BE400004F0D5FF20B10BF0AAF8082818BF34463B
:10BE5000D8F81C00A04218BFC8F81C404FF4805608
:10BE6000BC4205D104F0B9FF002808BF4FF40066BA
:10BE70003046F9F70BFF2946052004F0FBF9002DA9
:10BE80007DD0022D30D0042D7AD0D8F808000A2DAC
:10BE90004FEA106120F07F404FEA017118BF41F076
:10BEA00000710843C8F80800FEF75CFC012805D0C3
:10BEB0000DF0C5FDF9F7AAFD0528A6D0F8F7DDFCC1
:10BEC0000DF018FF4FF48050F9F7E0FEF9F79EFDF2
:10BED000022818BF00207DD0F4F750FC07B00020E6
:10BEE000BDE8F04FF4F7B8BC25460D240AF0E5FF95
:10BEF000002818BF0C2421462846F9F7D7FE002851
:10BF0000D2D010F0D9F910F0DCF9F8F761FC040098
:10BF100071D1F5F7C3FA6A48F5F7C3FE0120F5F7CA
:10BF2000B3FEF7F7E5FA6748F7F79BFBF7F782FBF5
:10BF3000F7F7ABFBD9F800104000B1F80621B0FBD1
:10BF4000F2F0401CC0F34F00A8F8040091F808116B
:10BF500088F8001059B1F7F798FBD9F800104000A5
:10BF6000B1F80411B0FBF1F0401CC0F34F00F7F73B
:10BF7000FDFA5548CBF81800F5F70DFF01E060E039
:10BF800063E0F6F781F898F8000048B1401E10F021
:10BF9000FF0088F8000004BFB8F80400F7F7E6FADD
:10BFA000D8F80800C0F3036529460520F4F796F990
:10BFB000FEF7D8FB012807D0D8F80800C0F30360CB
:10BFC000A84208BF002C1DD0F6F7A4FA3F48CBF8D2
:10BFD000180000E03DE0F7F701FBF7F736FB002023
:10BFE000F7F73FFBF7F78FFAF5F7D5FEF5F710FEF9
:10BFF0000020F5F756FE10F064F910F067F9F9F734
:10C00000D8FF51E76846F6F729FA70B16846FFF79E
:10C01000A2FB0198F7F721FF684610F05CF904468F
:10C02000F6F778FAF9F760FDC2E7D9F80000406E3C
:10C0300010F0704F02D0F9F741FDB9E7F9F75BFD59
:10C04000B6E7204610F04CF92EE7204605F09BF8A5
:10C050002AE7F4F7EFFB10B9F4F7E6FB38B100205C
:10C06000F4F7EEFB0020F4F7E8FB012034E70120B1
:10C07000F4F7E6FB0020F4F781FB2FE770B50F49DA
:10C0800080000968D1F8F81021FA00F000F00F04E0
:10C09000C1F30326C1F30335B4421BD10F2D19D0D0
:10C0A00004F0A5FE20B10AF07AFF082818BF2C463C
:10C0B0000148C169A1420BE0CC85001078860010D0
:10C0C0001F460010933E001007005FA000005FA015
:10C0D00018BFC4614FF48055B44205D104F07DFE11
:10C0E000002808BF4FF400652846F9F7CFFD204629
:10C0F00070BD00007047002808BF704780220146CD
:10C10000014810F034B8704764C700107047082821
:10C110003CBFFE49087070470020FC4988604860B9
:10C12000FB48006890F88100082838BF0870704705
:10C130000020F64948607047F4480078704770B5B1
:10C14000F34D0024286890F86C0010F0020F0BD01B
:10C15000F9F75CFC022807D1EC482968007801EB6C
:10C160008000B0F8840084B2204670BD70B5E84D00
:10C170004FF48054286890F86C0010F0020F0DD036
:10C18000F9F744FC022809D1E0482968007801EB5E
:10C190008000D0F88400000CC0F31304204670BD6A
:10C1A000DA488078002818BF012070472DE9F04157
:10C1B000F9F72CFC022803D104F012FD022803D069
:10C1C0004FF48050BDE8F0814FF480552E4604F0C6
:10C1D000C8FDDFF83C830446CC4FD8F8000090F847
:10C1E0006C1011F0010F0CD0B0F87600B968404225
:10C1F000814206DC2CB10020641EB860204604F0A9
:10C20000B3FDD8F8001091F86C0010F0040F18BFBF
:10C21000002C0AD0B1F87C00621E9040B1F87E205C
:10C22000824238BF1046C0F31306D1F8A40010F0C4
:10C23000020F1CBFB978002902D0000CC0F313050F
:10C24000B54298BF35462846BDE8F0812DE9F04F4C
:10C25000DFF8BCA287B0DAF8001091F86C2012F079
:10C26000020F0DD0A94A91F88090DFF8A8B2177894
:10C27000002809DB484503D2B84218BF064643D11F
:10C2800007B00020BDE8F08F3E464FF0FF38F5F7CD
:10C29000BFFCF6F7ECFA0025B9F1000F34D9DAF853
:10C2A0000000002400EB8500B0F8840081B2204635
:10C2B000F5F713F9F5F7E8FE6846F6F7CFF800282A
:10C2C00066D0029878B1014693489BF80020007828
:10C2D0005043421E07D331F9020B0028B8BF404239
:10C2E0000444521EF7D2F6F715F9F5F791FC002336
:10C2F00022469221072003F02FFFA04584BF2E463F
:10C30000A0466D1C4D45CAD3B74244D0082E3CBF51
:10C310007E490E70DAF80000B0F8821039B300EBF5
:10C32000870200EB8600B2F88420B0F8840092B255
:10C3300080B2801A484340F30F34F7F703FE774B7F
:10C340009BF80020002193F800C002FB0CF2002AA9
:10C350000DD930F81120224420F811209BF800203C
:10C3600093F800C0491C02FB0CF28A42F1D84FF44A
:10C37000800004F036FEDAF80000002300EB8600AF
:10C380008021B0F8840082B2072003F0E5FE09E0C6
:10C39000F9F794FB90E704F0E4FC03283CBF401C51
:10C3A00004F0E2FC012007B0BDE8F08F584857497F
:10C3B0000068B0F87600424288688242BCBF401EE6
:10C3C000886070472DE9F04F93B093460E460446BF
:10C3D0004FF0000A04F0C5FCDFF834814B4F050034
:10C3E000D14610D10FF081FFD8F80010B1F87810C5
:10C3F000884208D30120C7F8089004F0B5FC13B0B8
:10C400000120BDE8F08F002E1FDDB8680028B8BFFE
:10C41000C7F8089007DBD8F80010B1F8741088420C
:10C42000BCBF401CB860D8F80000B968B0F8740010
:10C43000884215DC032D13D2681CC7F8089004F05D
:10C4400093FC13B00120BDE8F08F09D1D8F80000AB
:10C45000B0F876004142B8688842C4BF401EB86058
:10C46000B87850B1D8F8000090F8A40010F0040F8C
:10C470001EBF002013B0BDE8F08FD8F80000B0F95F
:10C4800072108C420EDD796821447960B0F86E003C
:10C49000884210DC4FF0FF30C7F80490FFF7D6FE5B
:10C4A000824608E07868002805DD002CD4BF012111
:10C4B0002146401A7860DFF8689099F80000072854
:10C4C0003BD1184859460078420068460FF05EFE9E
:10C4D000ADF80040ADF80260ADF804503889ADF811
:10C4E0000600B888ADF80800D8F80000B0F872105F
:10C4F000ADF80A10B0F87410ADF80C10B0F86E106A
:10C50000ADF80E10B0F876000EE00000588600106E
:10C51000788600100F85001013850010108500101C
:10C520009585001016850010ADF8100099F80000F0
:10C53000072804BF6846FEF730FD504613B0BDE83B
:10C54000F08F3F4810B50068D0F8A40010F4807F49
:10C5500006D0C0F30330012101FA00F0F6F70BFD1D
:10C56000384900204870887010BD70B5354D0024E2
:10C57000A878002814BF01260026687828B904F09E
:10C58000FFFB002808BF002100D001218E4227D0E8
:10C590000A1C18BF0122AA7029480068D0F8A430EC
:10C5A00013F0040F0ED021B1C3F30310082808D2F2
:10C5B00006E00021A960696090F88100082800D297
:10C5C0002870012413F0020F18BF0124002A18BF9D
:10C5D000012200238221072003F0BEFDF3F7A8FE0D
:10C5E000204670BD164900200968D1F8A41011F446
:10C5F000807F08BF7047DFF84CC09CF80120131CF7
:10C6000018BF012330B4104CC1F30332E46B012591
:10C6100005FA02F2224011F4007F01D00AB102E0D3
:10C620000AB1002100E001218B4204BF30BC7047F9
:10C63000081C18BF01208CF8010030BC95E70000F1
:10C64000788600105886001000100040F848C07925
:10C65000704710F5167FA8BF70470120F449C871D4
:10C660007047F3490020C8717047F14890F9010004
:10C6700070472DE9F041EE4F04460E4697F9015000
:10C68000A54219D07C70F9F7C1F902280FD1B4F195
:10C69000FF3F0CD03E70B5F1FF3F01D1012C06D118
:10C6A00044EA062200236421072003F055FD787830
:10C6B000002804BF0020F871F9F7A8F905281CBF6D
:10C6C000B4F1FF3FBC70BDE8F081D949C870704734
:10C6D000D748C0787047024600F00F0011210228A9
:10C6E000A8BF7047D24B1209002818715A7108BFB1
:10C6F0000021BEE7CE4840797047CD4800797047A9
:10C7000010B50446F8F722FD0146C94A2046012922
:10C7100082BF0021917110BD9179142905D8491C5F
:10C72000C9B29171142938BF10BD002010BD10B4DA
:10C730000446002003460246002913D934F912C0EA
:10C74000BCF1140F13DC0CF1140CBCF1280F84BFE6
:10C750005B1C9BB2521CD2B28A42EFD300281CBF92
:10C7600010BC7047B3EB510F9CBF10BC7047012049
:10C7700010BC70472DE9F0470F4680460AF081FB58
:10C7800004460AF082FB064600250AF052FB814669
:10C790000020002E8CBFD8F80880BDE8F08700FB91
:10C7A00004F1002208EB4101002C27D931F91230A5
:10C7B00013F1320F1EDA4FF0000A53465246002C96
:10C7C00012D931F912C0BCF1140F17DC0CF1140CA2
:10C7D000BCF1280F84BF5B1C9BB2521CD2B2A24298
:10C7E000EFD3BAF1000F09D1B3EB540F9CBF691C12
:10C7F000CDB203E0521CD2B2A242D7D3401CC0B289
:10C80000B042CCD3042D38BFBDE8F0870220387089
:10C81000012089F8AD05BDE8F0872DE9F0410D460E
:10C8200006460AF02EFB80460027322404F0CDFB9A
:10C83000022803D004F0C9FB012800D1142416B348
:10C840000022A8F1010000281DDD36F91230002B6E
:10C85000B8BF5B429BB2A34211D90227B3EBC40F0E
:10C8600088BF032009D8B3EB840F88BF022004D807
:10C87000B3EB440F8CBF01200020287003E0511C53
:10C88000CAB28242E1DB3846BDE8F0812DE9F04FC3
:10C8900083B09A46164683468DF8001000250AF0AC
:10C8A000C8FA02900AF0D7FADFF88491044600270C
:10C8B00099F901004FF00208B0F1FF3F04BF99F869
:10C8C0000200012808D1F9F7A1F8052804D08DF855
:10C8D0000080012537606AE09DF8000050EA0A00F8
:10C8E00047D1207B90B194F8460000281CBF8DF8FA
:10C8F0000080022524D194F8B005012819BF94F8CE
:10C90000B20501288DF80080032519D08DF8047038
:10C9100001A9DBF81000FFF780FF8DF8000028B1B7
:10C920009DF8041001F00F0141F0A00540B93068F6
:10C930004049091804DA207B002818BF8DF80080D0
:10C940009DF8000050EA0A0004BF94F84B0000284C
:10C950000FD1F8F7FBFB8246F8F7FEFBBAF1000FA8
:10C9600018BF10F1640F04DA69465846FFF702FF5A
:10C9700004259DF800A0BAF1000F18D094F8B00576
:10C98000012814D1F8F7E2FB012888BF89F8067066
:10C990000BD899F80600142805D8401CC0B289F8B5
:10C9A0000600142801D34FF0000A8DF800A004F00F
:10C9B00000FA40B104F0FBF928B99DF80000002806
:10C9C00018BF8DF8007099F80300012802BF9DF888
:10C9D000000000288DF800800298007E012808BF22
:10C9E0008DF8007005F039F901280AD18DF8008022
:10C9F000306841F28831884203D90BF02AFE8DF865
:10CA0000007004F0D1F9012808BF8DF8007099F882
:10CA10000500012810D09DF80000B8B1294601207A
:10CA2000FFF727FE9DF8000003B0BDE8F08F00007F
:10CA30006486001048F4FFFF99F8040010F0FF0F1F
:10CA400014BF8DF800808DF80070E7D100210846F2
:10CA5000E6E700007B48007870477A48406800F5B8
:10CA6000407070477748406800F58070704770B537
:10CA7000744C4FF42030744A60600168914204BFE6
:10CA80004168B1F5087F3BD18168B1F5E04F37D8F7
:10CA90006E4AC568954223D04FF0000C03466246AB
:10CAA000BCEB910F0AD253F8046B521C86EA0C0CB3
:10CAB000B2EB910FF7D3BCF1000F21D1026A7AB12A
:10CAC0004FF0000C03466246BCEB910F06D253F8C0
:10CAD000046B521CB444B2EB910FF8D365450FD1EF
:10CAE000012500F5807000F0D5F848B1606800F5C8
:10CAF000407000F0DEF800281EBF2570012070BDD8
:10CB0000002070BD4F49002008704FF42030F6F728
:10CB1000C1B84C48017841B140684B4A0168914224
:10CB200002BF4168B1F5087F704700207047454B50
:10CB30005B6803F580731844F6F7A2B9414B5B6854
:10CB400003F540731844F6F79BB93E484068006906
:10CB500070473C4949680A6982429CBF002070477F
:10CB6000C0EBC00001EBC00000F580607047354AA3
:10CB7000526802EB80035B6A1A44354B53F820C0BD
:10CB8000403333F810000CEB0003401E5B1E23EA19
:10CB9000000000FB012070472A498860704729483F
:10CBA000806870472DE9F00F264B0022DFF8A08047
:10CBB000D3E90145012708F140069146831893F90E
:10CBC00028C0BCF1000F18DB07FA02F32B4214D087
:10CBD000D3B204EB830A58F823B036F81330DAF8EE
:10CBE00024A09B445B1EABF1010BA2442BEA030380
:10CBF00003FB0CA341F8223001E041F82290521CC3
:10CC0000102ADBD3BDE8F00F70470029B8BF70478A
:10CC100030B494460B4A0F4C526802EB80035B6AB7
:10CC200013440B4A52F8202034F810001418401E08
:10CC3000641E24EA000001FB003030BC6146F6F7B8
:10CC40001FB900006C86001054465053EFBEADDE95
:10CC500088190200C819020010B5FFF708FFA8B133
:10CC6000FFF7FBFE0146D02217480FF080FAFFF7CE
:10CC7000F9FE164C01464FF4E27220680FF077FA85
:10CC80002068406DBDE8104003F0F6BF0220F8F7C1
:10CC900076FFE2E758B10E4A0168914207D1406839
:10CCA00020F00F00B0F51C7F04BF0120704700206A
:10CCB000704730B1006820F00F00702804BF0120D9
:10CCC00070470020704700006C3A01107886001011
:10CCD00041505352AD4810B5806810F0020F15D086
:10CCE000F4F794FF90B1F4F753FF0402F8F78EFEC7
:10CCF00044EA0044F8F790FE44EA00604EF2AF01C7
:10CD000008434FF04021C867012010BD002010BD2E
:10CD100010B572B60120F5F7FBFEF6F775FDF6F7D4
:10CD20009FFD4FF0FF30F6F7BCFB994880234FF48E
:10CD30000052002152F821C040F821C0491CB1EB3B
:10CD4000930FF7D3F6F7BFFBF6F7FEFFF7F720F8E0
:10CD50009048F7F739F80120F6F7F7FFF5F732FFBB
:10CD60001E20F6F7E8FFF6F797FDF6F70FF9F6F74E
:10CD700093FFF6F7D7FDF6F7B7FBF6F783F9F4F76D
:10CD80005AFFFFF769FFF6F736FBF6F701FBFDF7F1
:10CD90000FFCFAF77FFCFEF742FE62B6F8F77CFF65
:10CDA0007D4C206890F8640000F00F00F5F7D4FD8A
:10CDB0002068018BC1F30722418A008AFDF7FDFF3D
:10CDC0002068806E000C03F0C4F974480CF014FE67
:10CDD0002068B0F90C010CF086FFF3F762FAFFF758
:10CDE00095F9F7F70DF8F9F775F9FFF783F90FF0F3
:10CDF00081FA206890F8200010F0010F04BF002194
:10CE0000032003D003F095FF01460220F8F713FE3C
:10CE10004FF040242069002300F0700219460220E0
:10CE200003F09AF9206910F0200F17D0226F002329
:10CE30000521072003F090F9626F002305210720E8
:10CE400003F08AF9A26F00230521072003F084F97B
:10CE5000E26F00230521072003F07EF9FFF771FB45
:10CE60000020206710BD02244D4DFDF77BFC0128FA
:10CE700006D0F8F7CBFD032802D103F028FA58B307
:10CE8000002D05DC03F055FF01460220F8F7D3FD25
:10CE9000DFF814914FF00108424FDFF810A14FF076
:10CEA0004026A9F1030BF8F7B1FD0546F8F7B4FDEC
:10CEB0000146284603F0DEF9F8F7AEFD01462846A4
:10CEC000F3F70CFAFDF7CDFB072D5BD2DFE805F099
:10CED0005A1D08272A192D006D1E002DC5DCD1E72B
:10CEE000387850B9FAF742FA38B900231A462021A7
:10CEF000072003F031F987F8008004F02EFC0224AB
:10CF0000D1E7FEF757FF0524CDE7FAF77FF9F8F7E9
:10CF10007DFD012804BF2046F8F78AFDC3E703F032
:10CF2000DBFDC0E7FEF7B8FEBDE7C6F81890F6F7E0
:10CF3000DFFAF6F77FFBF6F7A8FB4000AAFB00102C
:10CF40004009401C4008F6F711FBFDF70BFC0128D7
:10CF50000CD1F8F75BFD062808D0F6F73FFBF6F793
:10CF600074FBF6F7D0FAC6F818B09CE7F8F751FD55
:10CF70000546F8F7B9FD15B1F8F7BDFDE5E7F8F797
:10CF80009DFDE2E70220F8F7FAFD8CE70080004003
:10CF900000FA001085EC0000788600106C3A011051
:10CFA000FF7002007C86001003005FA0CDCCCCCCCB
:10CFB000FE4908607047FE4808210068428A038ADB
:10CFC000008B02FB0311C0F3072001EB4000704708
:10CFD000411E022984BF002070470822F4480068DF
:10CFE000438AB0F810C0008B03FB0C22C0F307206B
:10CFF00002EB4000484300F53C3070472DE9F04F0C
:10D00000ADF20C4D04460125F8F7FDFC8146401EAB
:10D0100002287DD894F8217094F8206004F150081B
:10D020004846FFF7D5FFE34A30B10168914204BF9B
:10D030004068CDE9001002D00020CDE90020DB4897
:10D04000D0F800E0DA481EF4807F006814BFB0F921
:10D050002E21B0F9CE20934614BFB0F92C01B0F9BF
:10D06000CC008246002307FB06FCBCF1000F0ED962
:10D0700038F913105945D8BF8A4505DC8142C8BF2D
:10D0800008469142B8BF0A465B1C9C45F0D8104444
:10D0900000EBD07042100021BCF1000F88BF6B463E
:10D0A00014D938F91100801A7F28C8BF7F2005DC09
:10D0B00010F1800FB8BF6FF07F0000DA002503EB9E
:10D0C000010A491C8AF808008C45EAD894F8220025
:10D0D00094F82310431802A807FB0601B81907FBB0
:10D0E000060004EB400000F1500C1EF0100F4FF052
:10D0F000000011D0002B1DD91CF8104001F8104081
:10D100003CF8104001EB4006240A7470401C00E01B
:10D1100037E08342F0D80DE0002B88BF4FF0FF0CC2
:10D1200008D901F810C001EB4004401C84F801C08C
:10D130008342F6D88DF804509DF80500FF283CBFC7
:10D14000401C8DF80500ADF806206C464846FFF7F8
:10D150003FFF002804BF0DF20C4DBDE8F08F0823FF
:10D1600093490A68518AB2F810C001FB0C33118B45
:10D17000C1F3072103EB41022146F5F781FE0128A7
:10D1800000D000200DF20C4DBDE8F08F2DE9F00F1E
:10D19000DFF81C820023DFF81CA2D8F8001001265B
:10D1A0004FF0FF090A8BB1F812C0098AC2F30722B7
:10D1B0000CFB01F7A6F1010CBCF1020F88BF4FF088
:10D1C000000C10D8D8F8001008244D8AB1F810B01F
:10D1D000098B05FB0B44C1F3072104EB410101FB63
:10D1E0000CF101F53C3CBCF1000F19D0DCF800104B
:10D1F000514515D19CF8051091B10021002A1CD988
:10D2000007EB4104644403EB410594F809B000F8CE
:10D2100005B00544247A491C6C708A42F0D80CE0B1
:10D220000021002A09D903EB410C491C00F80C909D
:10D2300084448A428CF80190F5D8711CCEB203EB7D
:10D240004203032EB6D9BDE8F00F18467047574980
:10D2500048607047554810B44068002808BF4FF434
:10D260004030554A016891421CD14168B1F5007FB8
:10D2700018D3836800228446B3F5056F88BF4FF446
:10D2800005630021B1EB930F24BF10BC70475CF81D
:10D290002140491C2244B1EB930FF8D3002A04BF6C
:10D2A00010BC7047002010BC704770B505460020C8
:10D2B000E860D5F808C001212C460346BCF5056F8F
:10D2C00088BF4FF4056C0022B2EB9C0F06D254F8D5
:10D2D0002200521C0344B2EB9C0FF8D35842E86082
:10D2E0003248007810F0800F0AD12046FFF786FE02
:10D2F0004FF440304FF405622946F5F7C1FD014671
:10D3000001290CBF0120002070BDFF2270B500254F
:10D31000044605614FF4006150300EF05AFFA584B9
:10D32000E584E562A56265632563E563A5636564DD
:10D330002564E5640120A56470BD2DE9F0414FF43A
:10D34000403104461C4E0868B04218D14868B0F518
:10D35000007F14D38A6800230D46B2F5056F94BF91
:10D3600094464FF4056C0020B0EB9C0F30D255F87A
:10D370002070401C3B44B0EB9C0FF8D343B3FF221A
:10D380004FF4056120460EF024FF4FF40870C4E905
:10D3900000604FF40560A0600020E06084F8200089
:10D3A00084F8210084F8220008E000008086001044
:10D3B000788600104654525953454C4684F8230051
:10D3C00020616061A061E0612046FFF79EFF07E0F9
:10D3D000B2F5056F88BF4FF4056220460EF0C7FE18
:10D3E0000120BDE8F08170B402684FF4087151600B
:10D3F000016801F1500291F821C091F820300CFB36
:10D4000003F102EB41010022BCF1000F08D900EB4F
:10D410004204521CB4F8EA4021F8024B9445F6D875
:10D420000022002B08D900EB4204521CB4F8124130
:10D4300021F8024B9342F6D80468002294F8224067
:10D44000002C0BD900EB4204521CB4F8BE4321F867
:10D45000024B046894F822409442F3D804680022F6
:10D4600094F82340002C0BD900EB4204521CB4F872
:10D47000CE4321F8024B046894F823409442F3D839
:10D480000022BCF1000F08D900EB4204521CB4F892
:10D49000704021F8024B9445F6D80022002B08D9A1
:10D4A00000EB4204521CB4F8984021F8024B93421E
:10D4B000F6D8B0F8E62021F8022BB0F8E82021F8E1
:10D4C000022BB0F8E42021F8022B00240022BCF14A
:10D4D000000F0ED904EB440505EB041500EB8505A0
:10D4E00005EB4206521CB6F85E6121F8026B6245FC
:10D4F000F6D30022002B0ED904EB440505EB0415EE
:10D5000000EB850505EB4206521CB6F88E6221F849
:10D51000026B9A42F6D3641C042CD7D30023D0F8B4
:10D5200000C000229CF822C0BCF1000F88BF00EBB5
:10D53000031C0BD90CEB4204521CB4F8DE4321F857
:10D54000024B046894F822409442F3D8D0F800C00B
:10D5500000229CF823C0BCF1000F88BF00EB031C25
:10D560000BD90CEB4204521CB4F8FE4321F8024BD9
:10D57000046894F823409442F3D85B1C022BCED36A
:10D58000B0F8DE2321F8022B0368002293F8223042
:10D59000002B0FD9036893F82230134400EB4303A8
:10D5A000521CB3F8BE3321F8023B036893F82230D3
:10D5B0009342EFD80368002293F82330002B9CBFDE
:10D5C00070BC7047036893F82330134400EB4303A7
:10D5D000521CB3F8CE3321F8023B036893F8233092
:10D5E0009342EFD870BC70472DE9F74F88B0002503
:10D5F0000A992C462E460968049101F150030999B5
:10D60000002984BFFE49D1F800801CD900220028DF
:10D6100088BFB8F9CE700DD933F9021B0029B4BF09
:10D62000C1F1000C8C46BC45BCBF0D44641C521CAF
:10D630008242F1D30999761C8E42E7D3002CC8BFF1
:10D6400095FBF4FA08DC4908414301EB50020499C8
:10D6500001EB4201B1F950A000210291019104991E
:10D660005031009100210391099900296DD9E449B5
:10D67000009E069609684FF0000B4FF00109B1F9C2
:10D68000C0E0D1F8B4105F46C1F30741D846CDF8E9
:10D6900014B00791002829D9B6F900204FF0000CEA
:10D6A00006999344634600280DD9B1F90040A51AA4
:10D6B00048BF151B7545B8BF0CF1010C01EB4901C2
:10D6C0005B1C8342F1D307998C4503D305997F1CDA
:10D6D0001144059108F1010806EB49068045DBD3AA
:10D6E000002FC4BF059991FBF7F101DC9BFBF0F122
:10D6F000039B0A9A09B202EB4302A2F87010C04AD7
:10D700001268B2F9BA30AAEB030399420ADDB2F902
:10D71000B82052448A4205DD019A114401910299D0
:10D72000491C02910099099A01EB4001009103996B
:10D73000491C039191429AD30299002905DDDDE944
:10D74000011291FBF2F1019102E05146CDF804A0E3
:10D750000A9AA2F8E610002102910391049950312F
:10D76000009100210491002868D9A549009F0697DF
:10D7700009684FF0000B099EB1F9BCE0D1F8B41074
:10D78000D846090ED946CDF814B00791002E2BD9F2
:10D79000B7F900204FF0000C069993446346002E21
:10D7A0000DD9B1F90040A51A48BF151B7545B8BF82
:10D7B0000CF1010C01EB40015B1CB342F1D3079962
:10D7C0008C4504D3059908F101081144059109F12C
:10D7D000010907EB4007B145DAD3B8F1000FC4BF28
:10D7E000059991FBF8F101DC9BFBF6F1049B0A9A89
:10D7F00009B202EB4302A2F89810814A1268B2F90A
:10D80000BA30AAEB030399420ADDB2F9B8205244B8
:10D810008A4205DD039A114403910299491C029141
:10D820000099891C00910499491C049181429CD360
:10D8300002980028C4BF039991FBF0FA0A98A0F857
:10D84000E8A001980A99504400B200EBD070401053
:10D85000A1F8E4000BB0BDE8F08F2DE9F04F89B0DE
:10D860000646A1F12000146815460F4600902029B5
:10D870003DBF0120B840401E4FF0FF30049038BF3C
:10D88000002006D300984FF0010101FA00F0A0F14A
:10D8900001000390202E3DBF0120B040401E4FF0FC
:10D8A000FF3038BF002107D3A6F120024FF001015D
:10D8B00001FA02F1A1F10101C7F120020592202F26
:10D8C00032BF20FA02F2009A00FA02F2B940114384
:10D8D000B840CDE90110206920F4FE60206149487C
:10D8E000006810F0010F00F0AE8110F4807F06D0C8
:10D8F0002A463946304601F099FF00F08FB910F4FE
:10D90000007F00F01F8100202B682862E861A86179
:10D9100001466861002F4BD9701EA7F1010B0690DC
:10D920000020002E41D901F01F024FF0010C0CFA2B
:10D9300002FE4FEA511C05EB8C0201FB060C03EBC7
:10D940004C0C0029BCF9508018BF59450CD1002857
:10D950001CBFDDF818C0604506D1DFF8A4C0DCF8B4
:10D9600000C0BCF936C105E0DFF894C0DCF800C0A7
:10D97000BCF934C1E04515DDD2F81C904FF0010C24
:10D9800049EA0E08C2F81C804FEA501805EB880AD5
:10D9900000F01F09DAF814800CFA09FC48EA0C0CB4
:10D9A000CAF814C0401CB042C7D3491CB942B7D30F
:10D9B000DFF84CE0DEF8000090F83801002800F0B5
:10D9C0002D810020002E84BFB91E06915CD931182C
:10D9D00003EB4101069AB1F950800121012A50D987
:10D9E00000F01F028C460CFA02F20792420905EB86
:10D9F000820C4A1C02FB060203EB420204E0000018
:10DA00007886001080860010B2F95020002AC8BF26
:10DA1000B8F1000F30DDB2EB080948BFA8EB0209EE
:10DA20004245C8BF9046C2464FF4484809FB08F932
:10DA300099FBFAF8DEF8009008F2FF184FEA582830
:10DA400099F83891C14517DA4FEA511805EB880B60
:10DA500001F01F0A4FF00108DBF81C9008FA0AF8E1
:10DA600049EA0808CBF81C80DCF81490DDF81C802B
:10DA700049EA0808CCF814809046069A491C91425D
:10DA8000B7D3401CB042A2D30020002F84BFB11EE8
:10DA9000069156D900FB06F103EB4101069AB1F954
:10DAA00052800121012A49D900F01F028C460CFA4C
:10DAB00002FE4FEA501C05EB8C0C00FB061203EB38
:10DAC0004202B2F95220002AC8BFB8F1000F30DD7F
:10DAD000B2EB080948BFA8EB02094245C8BF90460F
:10DAE000C2464FF4484809FB08F999FBFAF8DFF8F9
:10DAF000649408F2FF184FEA5828D9F8009099F872
:10DB00003891C14515DADCF81CA04FF001084AEA4B
:10DB10000E09CCF81C904FEA511905EB890B01F066
:10DB20001F0ADBF8149008FA0AF849EA0808CBF84B
:10DB300014809046069A491C9142BED3401CB842BC
:10DB4000A8D36BE02A463946304601F056FD002046
:10DB5000A8616861002E84BFFE4A01231ED905EB2F
:10DB60004001B1F998100029B8BF494209B2D2F872
:10DB700000C0BCF9CCC08C450DDD4FEA501C05EB54
:10DB80008C0100F01F08D1F814C003FA08F84CEA21
:10DB9000080CC1F814C0401CB042E0D30020012E94
:10DBA0003CD0DFF8B0A3A6F101084FF0010905EB66
:10DBB0004001B1F99A30B1F99820991A48BFD11AA9
:10DBC00009B2DAF800C0BCF9C4C08C4523DAB5F953
:10DBD000E810B2EB010C48BFA1EB020C0FFA8CFC71
:10DBE0005A1A48BFCA1A11B28C4509DB420905EB23
:10DBF000820100F01F034A6909FA03F31A4309E09E
:10DC0000421C530905EB830102F01F024B6909FA1C
:10DC100002F21A434A61401C4045C8D36969E86969
:10DC2000B94008432063A969286AB9400843606382
:10DC30006A69202F39BF059922FA01F1009902FA89
:10DC400001F108436063C4480068079010F0040FB6
:10DC500000F0CB81002129630846E962002F84BFD0
:10DC6000DFF8F0C24FF001081BD9DCF8003005EBFB
:10DC70004002B2F95E21B3F9D890914503DCB3F9C3
:10DC8000DA3093420ADA430905EB830200F01F09F8
:10DC9000D36A08FA09F943EA0903D362401CB8427F
:10DCA000E3D3A96200206962002E84BFDFF8A4C21A
:10DCB0004FF001081BD9DCF8003005EB4002B2F947
:10DCC0008E22B3F9D890914503DCB3F9DA30934250
:10DCD0000ADA430905EB830200F01F09536A08FAC8
:10DCE00009F943EA09035362401CB042E3D32964B3
:10DCF0000020E963002F84BFDFF858C24FF001080D
:10DD00001BD9DCF8003005EB4002B2F9AA21B3F9C7
:10DD1000DC90914503DCB3F9DE3093420ADA430923
:10DD200005EB830200F01F09D36B08FA09F943EAF7
:10DD30000903D363401CB842E3D3A963002069639D
:10DD4000002E84BFDFF80CC24FF001081BD9DCF8AD
:10DD5000003005EB4002B2F9DA22B3F9DC909145CC
:10DD600003DCB3F9DE3093420ADA430905EB8302A0
:10DD700000F01F09536B08FA09F943EA09035363DA
:10DD8000401CB042E3D300202865E864A8646864BE
:10DD9000002F84BF6F4B4FF0010C1AD91A6805EBA6
:10DDA0004001B1F9F611B2F9E080884503DCB2F91F
:10DDB000E2208A420ADA420905EB820100F01F08DC
:10DDC000CA6C0CFA08F842EA0802CA64401CB8425D
:10DDD000E4D30020002E84BF5E4B4FF0010C1AD913
:10DDE0001A6805EB4001B1F92613B2F9E0808845C5
:10DDF00003DCB2F9E2208A420ADA420905EB820129
:10DE000000F01F084A6C0CFA08F842EA08024A645B
:10DE1000401CB042E4D3696AE86AB94040EA0109AB
:10DE2000C4F83890A96A286BB9400843E0636A6A6D
:10DE3000202F39BF059922FA01F1009902FA01F168
:10DE400041EA0008C4F83C80696BE86B01FA07F10D
:10DE500040EA01022264A96B286C01FA07F140EA4A
:10DE6000010060646B6B39BF059923FA01F10099D9
:10DE700003FA01F141EA000161646B6CE86C03FA9A
:10DE800007F340EA0300A0640690AB6C286D03FA28
:10DE900007F340EA0300E064D5F844C039BF059BAE
:10DEA0002CFA03F3009B0CFA03F343EA0000E0644E
:10DEB000059032EA090521EA080C49EA05002564C3
:10DEC000009048EA0C0A07EB0601C4F844C008BFFA
:10DED000BCF1000F4BD000231A461846002988BF1A
:10DEE000012644D94FEA501B04EB8B0B00F01F0EA8
:10DEF000DBF840B006FA0EFE1BEA0E0F03D0874295
:10DF000094BF521C5B1C401C8142EBD8012B12D1E8
:10DF10000498284040EA0900A06303980CEA000036
:10DF200040EA0800E063049825EA000020640398B2
:10DF30002CEA00006064012A19D1226C0298A36BBC
:10DF400010401843A063606C019BD4F83CC00340B0
:10DF500004E00000788600108086001043EA0C037D
:10DF6000E363029B9A432264019A90436064009A9F
:10DF7000069830EA0202A264009840EA020C059872
:10DF800020EA0A004AEA0005E06408BF002821D020
:10DF900000231A461846002988BF012617D94FEAE0
:10DFA000501804EB880800F01F09D8F8488006FADA
:10DFB00009F918EA090F03D0874294BF521C5B1C71
:10DFC000401C8142EBD8002B18BF002A02D1002050
:10DFD000A064E064079810F0010F06D0206B20EADF
:10DFE0000C002063606BA8436063206B02990842B9
:10DFF00003D1626B01990A4203D0216941F01001FB
:10E0000021610499084203D1616B0398014203D056
:10E01000206940F020002061A06B0299084203D1E2
:10E02000E26B01990A4203D0216941F0400121616C
:10E030000499084203D1E16B0398014203D020699F
:10E0400040F080002061206C0299084203D1626C8C
:10E0500001990A4203D0216941F480712161049938
:10E06000084203D1616C0398014203D0206940F457
:10E0700000702061A06C002804BFE06C002803D071
:10E08000206940F48060206109B00120BDE8F08F74
:10E090002DE9F04FC7B090460D460446F3F7B8FDA2
:10E0A000F2F781FF112100284FF0010014BFCDE9E4
:10E0B0000410CDE90401CDE93C54F4F748F80022FE
:10E0C000002D88BF23A904D9835C8B54521C954230
:10E0D000FAD8F4F73EF80021002C88BF23AA07D90C
:10E0E000435C02EB010C491C8CF826308C42F7D8BB
:10E0F000F3F762FF4390FE48007810F0200F66D0DF
:10E10000F2F751FFFB49FC4A00280CBFCDE9002182
:10E11000CDE9001208F1EA00029028300025EA4615
:10E120000DF108090DF1F00B039004A85BF82560D0
:10E1300050F82500F4F730FB0024002E1ED905EB23
:10E14000450000EB051023A901EB400738572628AE
:10E1500028BF00200BD2C10700EBD070890C401003
:10E1600001EB80005AF825104058F4F71BFB59F8D2
:10E17000251021F81400641CB442E7D36D1C022D55
:10E18000D3D3DE4C25781D2D21D100210A4606AEC1
:10E190005BF822C00020BCF1000F88BF59F8223084
:10E1A00007D933F8107026F81170401C491C8445BB
:10E1B000F7D8521C022AEBD31D2D08D13046FDF7AB
:10E1C000A4F820781D2804BF06A8FDF79EF8C84DC6
:10E1D000287810F00C0F00F01483F2F7E4FEC84921
:10E1E000C84A00280CBFCDE90E21CDE90E12C64861
:10E1F000F3F7B9FD0120F3F760F91D900120F3F763
:10E20000B9F91B900120F3F77BFC17900220F3F77C
:10E2100077FC15900498F3F7E2F91E900598F3F750
:10E22000DEF91C900498F3F75DFA1A900598F3F75D
:10E2300059FA18900498F3F787FA16900598F3F7AF
:10E2400083FA14900498F2F7A8FB12900598F2F75D
:10E25000A4FB10903EA906A840AACDE900010292B5
:10E260000AAB08AA0CA90498F3F76FFB07AA00925F
:10E2700041A93FA8CDE901010BAB09AA0DA9059859
:10E28000F3F763FB0498F3F7FFFB42900498F3F76E
:10E29000FBFB9E4C03902068B0F8E4100120F3F7DC
:10E2A0001CF900210120F3F713FC00210220F3F7F1
:10E2B0000FFC206890F8E6100498F3F7A2F92068A4
:10E2C00090F8E6100598F3F79CF900210498F3F70D
:10E2D00022FA00210598F3F71EFA00210498F3F7BB
:10E2E0004CFA00210598F3F748FA01210498F2F757
:10E2F0003CFB01210598F2F738FB2068B0F8E810E4
:10E300000498F3F76FFB2068B0F8E8100598F3F76E
:10E3100069FB00210120F3F708FC1990744800788C
:10E3200010F0040F00F05A81784F0224012638685B
:10E33000B0F8EC10CDE90014029690F8EB3090F8AC
:10E34000EA200B210498F3F7C0FA3868B0F8EC1013
:10E35000CDE90014029690F8EB3090F8EA200B21FA
:10E360000598F3F7B2FA00210120F3F7DEFB36A897
:10E3700001F02CF93A9900223CAD002055F822C05A
:10E38000BCF1000F0ED902EB420303EB021308EBC2
:10E39000031331F8029B03EB400A401CAAF85E917C
:10E3A0008445F6D8521C022AE7D30498F2F7CBFA38
:10E3B00044900598F2F7C7FA119000210498F3F7FA
:10E3C0007FF9469001210498F3F77AF91390002120
:10E3D0000598F3F775F9229001210598F3F770F984
:10E3E0004A4F209002243868B0F8EE10CDE90014AE
:10E3F000029690F8EB3090F8EA200B210498F3F79E
:10E4000064FA3868B0F8EE10CDE90014029690F87E
:10E41000EB3090F8EA200B210598F3F756FA002428
:10E420000DF1100B00210120F3F77FFB0021049870
:10E43000F2F771FA00210598F2F76DFA5BF8240003
:10E440000121F2F768FA3CA8002550F824900EA8A4
:10E45000B9F1000F50F82400019047D904EB4400B3
:10E4600000EB041023A901EB400108EB001A009116
:10E4700000980022114647571046F3F764FB202FFF
:10E4800006DB0026A7F12001012000FA01F703E0D6
:10E49000012000FA07F600275BF82400324600212D
:10E4A000F3F7FCF85BF824003A460121F3F7F6F89D
:10E4B000FA43F1430920F3F746FB36AEF3F7E4FDE8
:10E4C000FCF750F9012806D03046F3F7C7FF0028C3
:10E4D0007ED0F4F71FF8F3F79BFB019800880AEB56
:10E4E00045016D1CA1F8AA014D45C1D300220FE0E2
:10E4F00080860010B09D0030189D00309A85001075
:10E50000CC0E0030CC09003001000E0078860010DF
:10E5100011461046F3F717FB641C022C82D3449972
:10E520000498F2F7F8F911990598F2F7F4F9002137
:10E53000469A0498F3F7B2F80121139A0498F3F776
:10E54000ADF80021229A0598F3F7A8F80121209A46
:10E550000598F3F7A3F8FF4E022501243068B0F8C0
:10E56000F010CDE90015029490F8EB3090F8EA2015
:10E570000B210498F3F7A9F93068B0F8F010CDE951
:10E580000015029490F8EB3090F8EA200B210598E2
:10E59000F3F79BF901210846F3F7C7FA36A801F013
:10E5A00015F83A9900223CAC002054F822C0BCF186
:10E5B000000F10D902EB420303EB021308EB031325
:10E5C00031F8025B03EB4006401CA6F8F65100E070
:10E5D00056E08445F4D8521C022AE5D3DE48007880
:10E5E00010F0080F7ED0DB4D022601242868B0F819
:10E5F000F210CDE90016029490F8EB3090F8EA2082
:10E600000B210498F3F761F92868B0F8F210CDE90E
:10E610000016029490F8EB3090F8EA200B21059850
:10E62000F3F753F900210B463CAE002056F821C009
:10E63000BCF1000F0CD901EB410202EB011208EB17
:10E64000021202EB4004401CA4F842328445F8D880
:10E65000491C0229E9D32868002490F82401B4EB6E
:10E66000400F7ADA286890F82401A042D4BF012133
:10E6700000210120F3F759FA36AEF3F705FD02E069
:10E68000F7F71CFA1CE7FCF76DF8012805D03046B7
:10E69000F3F7E4FE38B3F3F73DFFF3F7B9FA3A992D
:10E6A0004FF000090DF1F00E00225EF829601046CF
:10E6B000002E05D931F91030401C1A448642F9D891
:10E6C000B2FBF6F2701E3AD009EB490303EB0913D3
:10E6D00008EB031A31F9103001EB400C3CF9027CD5
:10E6E000DB1B01E039E01FE048BF5B4231F91070ED
:10E6F000BF1A31F910704CBFD71BBF1A3CF902BCCE
:10E700003CF902CCBBEB020B4CBFA2EB0C0CACEB0C
:10E71000020C67450AEB400C09DDBCF94272BB42B2
:10E72000C8BFACF8423208E0F7F7C8F9ABE7BCF96C
:10E7300040729F42B8BFACF84032401ECAD109F1C6
:10E74000010901EB4601B9F1020FADD32868641C41
:10E7500090F82401B4EB400F84DB01201D99F2F7FF
:10E76000BCFE01201B99F2F710FF01201799F3F767
:10E77000AFF902201599F3F7ABF91E990498F2F757
:10E7800040FF1C990598F2F73CFF1A990498F2F79C
:10E79000C2FF18990598F2F7BEFF16990498F2F790
:10E7A000ECFF14990598F2F7E8FF12990498F2F734
:10E7B000DCF810990598F2F7D8F83E990698409A37
:10E7C000CDE9000102920A9B089A0C990498F3F78C
:10E7D0007CF8419A07983F990292CDE900010B9B82
:10E7E000099A0D990598F3F770F842990498F3F790
:10E7F000F9F803990598F3F7F5F801201999F3F75B
:10E8000094F94398F3F7AFFA47B0BDE8F08F2DE9DC
:10E81000F04FBDB091460D460446F3F7F9F90222D8
:10E820003A9212223B92CDE91045F3F7C5FB1890BE
:10E8300049484FF00107007810F0210F72D0474887
:10E8400000904748019000213A98F2F739FF049070
:10E8500001213A98F2F734FF059000213B98F2F736
:10E860002FFF069001213B98F2F72AFF0025079021
:10E8700010A850F825B03AA850F82500F3F78CFFFF
:10E88000002404A8264609EB051A00EBC50818E089
:10E89000600904F01F0158F8200007FA01F108424E
:10E8A0000ED0E007800C610800EB81015DF82500C7
:10E8B0004058F3F777FF0AEB4601761CA1F8BE0338
:10E8C000641C5E4538BF262CE2D36D1C022DCFD3CD
:10E8D000244C26781D2E25D100210A4608AD0DF1C5
:10E8E0004008002058F822C0BCF1000F88BF09EB97
:10E8F000021309D903EB400A401CBAF8BEA325F85D
:10E9000011A0491C8445F5D8521C022AE9D31D2EBA
:10E9100008D12846FCF718FE20781D2804BF08A857
:10E92000FCF712FE0C48007810F0010F00F0D080C8
:10E930003A98F2F732F838903B98F2F72EF8369082
:10E9400014AA0AA916A80292CDE900010CAB0EAADE
:10E9500012A909E07886001080860010489E0030D9
:10E96000E09E00309F8500103A98F2F7EEFF17AA5C
:10E97000009215A80BA9CDE901100DAB0FAA13A9A0
:10E980003B98F2F7E2FFFA48F3F7EDF90021022095
:10E99000F3F7CBF8039001213A98F1F7E6FF012154
:10E9A0003B98F1F7E2FF16980224CDE900040297A4
:10E9B0000C9B0E9A12993A98F2F787FF1798CDE9B7
:10E9C000000402970D9B0F9A13993B98F2F77DFF75
:10E9D0000220F8F7B9FC199000210220F8F7A7FCF3
:10E9E000FF210F20F7F746FFF3F712F9E1480890EF
:10E9F000E148099000213A98F2F762FE0490012163
:10EA00003A98F2F75DFE059000213B98F2F758FE28
:10EA1000069001213B98F2F753FE0025079010A8BD
:10EA200050F825B03AA850F82500F3F7B5FE0024B9
:10EA300004A8264609EB051A00EBC50819E0600991
:10EA400004F01F0158F8200007FA01F108420FD026
:10EA5000E007800C610800EB810108A850F8250050
:10EA60004058F3F79FFE0AEB4601761CA1F8C40359
:10EA7000641C5E4538BF262CE1D36D1C022DCED31D
:10EA800038993A98F1F771FF36993B98F1F76DFF95
:10EA9000149A16980A990292CDE900010C9B0E9ADD
:10EAA00012993A98F2F711FF159A0B991798CDE938
:10EAB000000102920D9B0F9A13993B98F2F705FF04
:10EAC00002200399F3F731F802201999F8F72FFC87
:10EAD000AA48007810F0040F00F02282A948A84E3E
:10EAE000CDE90860A848F3F73EF90220F2F7E5FC0B
:10EAF00025900220F2F73EFD23900120F3F700F865
:10EB000036900220F2F7FCFF19903A98F2F767FD71
:10EB100030903B98F2F763FD2E903A98F2F7E2FDC1
:10EB20002C903B98F2F7DEFD2A903A98F2F70CFE13
:10EB300028903B98F2F708FE26903A98F1F72DFFBF
:10EB400024903B98F1F729FF22900AA90EA80CAA5D
:10EB5000CDE90001029216AB14AA12A93A98F2F775
:10EB6000F4FE0FAA00920DA90BA8CDE9010117AB85
:10EB700015AA13A93B98F2F7E8FE3A98F2F784FF3A
:10EB800020903B98F2F780FF804D03902868B0F802
:10EB9000E4100220F2F7A1FC00210120F2F798FF17
:10EBA00000210220F2F794FF286890F8E6103A98C6
:10EBB000F2F727FD286890F8E6103B98F2F721FD60
:10EBC00000213A98F2F7A7FD00213B98F2F7A3FD48
:10EBD00000213A98F2F7D1FD00213B98F2F7CDFDE4
:10EBE00001213A98F1F7C1FE01213B98F1F7BDFEF2
:10EBF0002868B0F8E8103A98F2F7F4FE2868B0F800
:10EC0000E8103B98F2F7EEFE00210220F2F78DFFAC
:10EC1000219028684FF00208B0F8EC10CDE90018F8
:10EC2000029790F8EB3090F8EA200B213A98F2F72F
:10EC30004CFE2868B0F8EC10CDE90018029790F867
:10EC4000EB3090F8EA200B213B98F2F73EFE0121D1
:10EC50000220F2F76AFF002211460220F2F71EFDA1
:10EC6000102201210220F2F719FD01210220F1F703
:10EC700052FE1AA800F0AAFC1F99002210AC002036
:10EC800054F822C0BCF1000F88BF09EB421308D929
:10EC900031F802AB03EB400B401CABF8DEA384451C
:10ECA000F6D8521C022AEAD33088A9F8DE030021E4
:10ECB0000220F1F730FE3A98F1F745FE34903B9888
:10ECC000F1F741FE329000213A98F2F7F9FC0490F6
:10ECD00001213A98F2F7F4FC059000213B98F2F7F5
:10ECE000EFFC069001213B98F2F7EAFC07902868B8
:10ECF000B0F8EE10CDE90018029790F8EB3090F8DC
:10ED0000EA200B213A98F2F7E0FD2868B0F8EE10FF
:10ED1000CDE90018029790F8EB3090F8EA200B212B
:10ED20003B98F2F7D2FD00250DF1E80B00210220FF
:10ED3000F2F7FBFE00213A98F1F7EDFD00213B9838
:10ED4000F1F7E9FD5BF825000121F1F7E4FD10A8DA
:10ED5000002450F82500029008A8264650F825A067
:10ED600004A800EBC500019009EB4510009057E0A6
:10ED700020000200489E0030E09E00308086001097
:10ED80004C1800304C1D0030200012007886001016
:10ED9000019861094FF0010850F8210004F01F01AB
:10EDA00008FA01F108423AD0002211461046F2F763
:10EDB000CAFE202C23BF0027A4F1200008FA00F887
:10EDC00008FA04F738BF4FF000085BF825003A4610
:10EDD0000021F2F763FC5BF8250042460121F2F7BF
:10EDE0005DFC6FEA0802F9430920F2F7ACFE1AAFA6
:10EDF000F3F74AF9FBF7B6FC012806D03846F3F7DB
:10EE00002DFB00287DD0F3F785FBF2F701FFBAF860
:10EE10000010009800EB4600761CA0F8EE13641C6E
:10EE20000298864238BF262CB2D3002211461046E3
:10EE3000F2F789FE6D1C022DFFF478AF34993A98F1
:10EE4000F1F769FD32993B98F1F765FD0021049ACD
:10EE50003A98F2F723FC0121059A3A98F2F71EFC42
:10EE60000021069A3B98F2F719FC0121079A3B987A
:10EE7000F2F714FC02202599F2F72FFB02202399C8
:10EE8000F2F783FB01203699F2F722FE022019994E
:10EE9000F2F71EFE30993A98F2F7B3FB2E993B98A1
:10EEA000F2F7AFFB2C993A98F2F735FC2A993B9888
:10EEB000F2F731FC28993A98F2F75FFC26993B98D3
:10EEC000F2F75BFC24993A98F1F74FFD22993B98B1
:10EED000F1F74BFD0A990E980C9ACDE900010292C8
:10EEE000169B149A12993A98F2F7EFFC0B990F9827
:10EEF000CDE900010D9A0292179B159A13993B9840
:10EF000000E013E0F2F7E1FC20993A98F2F76AFD8D
:10EF100003993B98F2F766FD02202199F2F705FE6E
:10EF20001898F2F720FF3DB0BDE8F08FF6F7C6FD68
:10EF300060E72DE9F04FADF2344D1D20FBF777FF70
:10EF400006461D20FCF7C7F9CDF820041D20FCF76C
:10EF5000E5FAFF4D07464FF44070D5F8008030EADF
:10EF6000080004BF0DF2344DBDE8F08F4FF484610A
:10EF700068466C680DF000F918F4804F00941CBFCF
:10EF80002046FEF7C2F96A46009890F8203090F8C3
:10EF900021C050300CFB03F100EB41000021BCF11B
:10EFA000000F08D902EB410930F8028B491CA9F87F
:10EFB000EA808C45F6D80021002B08D902EB4109E4
:10EFC00030F8028B491CA9F812818B42F6D8D2F88E
:10EFD0000080002198F82280B8F1000F0CD902EBD4
:10EFE000410930F8028BA9F8BE83D2F80080491C91
:10EFF00098F822808845F2D8D2F80080002198F84D
:10F000002380B8F1000F0CD902EB410930F8028BD4
:10F01000A9F8CE83D2F80080491C98F8238088454F
:10F02000F2D80021BCF1000F08D902EB410930F8F9
:10F03000028B491CA9F870808C45F6D80021002B62
:10F0400008D902EB410930F8028B491CA9F89880D5
:10F050008B42F6D830F8021BA2F8E61030F8021BFB
:10F06000A2F8E81030F8021BA2F8E4104FF00008F4
:10F070000021BCF1000F0ED908EB480909EB081973
:10F0800002EB890909EB410B30F802AB491CABF8E4
:10F090005EA16145F6D30021002B0ED908EB48098B
:10F0A00009EB081902EB890909EB410B30F802ABB7
:10F0B000491CABF88EA29942F6D308F10108B8F1C9
:10F0C000040FD5D34FF00008D2F80090002199F832
:10F0D0002290B9F1000F88BF02EB08190CD909EB97
:10F0E000410B30F802ABABF8DEA3D2F800A0491C0C
:10F0F0009AF822A08A45F2D8D2F80090002199F817
:10F100002390B9F1000F88BF02EB08190CD909EB65
:10F11000410B30F802ABABF8FEA3D2F800A0491CBB
:10F120009AF823A08A45F2D808F10108B8F1020F35
:10F13000CAD361461846FEF757FA28684FF001080F
:10F1400010F4004F03D1694600F02BFE8046304694
:10F15000FBF76DFEDDF82004FCF7BDF83846FCF740
:10F16000DDF994F82000CDF8280494F82100CDF8BA
:10F170002C04B8F1000F1FBFDDF828040028DDF8CB
:10F180002C0400287DD072480068CDF8300410F0BF
:10F19000020F00F01781009DDDF82C74DDF82824A3
:10F1A00028696E4620F00F00286147F6FF706FEA6D
:10F1B0000009CDF82004002005F1500804900390C8
:10F1C000029082460190002F51D90AFB02F04FF0C5
:10F1D000010C38F9101000208B465B46CDF8240452
:10F1E000012A1BD90AFB02C038F910009842C8BF97
:10F1F00003468842B8BF0146B0EB0B0E48BFABEBED
:10F20000000E0FFA8EFBDDF824E4F345C8BFCDF8FD
:10F2100024B483460CF1010C9445E3D34B45C8BF9D
:10F220009946DDF820048142B8BFCDF82014581A61
:10F2300048BFC81A01B247480068B0F9C0308B42D5
:10F2400005DBB0F9C210DDF8240488420BDD4FEA7B
:10F250005A1006EB80000AF01F0C0121C36801FA66
:10F260000CF11943C1600AF1010ABA45ADD34FF060
:10F27000000A002A51D938F91A00002183465B465A
:10F2800000E09FE14FF0010CCDF82414012F1BD9B1
:10F290000CFB02A138F911109942C8BF0B468142FC
:10F2A000B8BF0846B1EB0B0E48BFABEB010E0FFA2F
:10F2B0008EFBDDF824E4F345C8BFCDF824B48B46BB
:10F2C0000CF1010CBC45E3D34B45C8BF9946DDF8B2
:10F2D00020148842B8BFCDF82004191A48BFC11ABB
:10F2E00009B21C480068B0F9BC308B4205DBB0F9AC
:10F2F000BE10DDF8240488420BDD4FEA5A1006EBFD
:10F3000080000AF01F0C0121436801FA0CF1194337
:10F3100041600AF1010A9245ADD3F068002804BFAC
:10F320003069002803D0286940F00800286170681F
:10F33000002804BFB068002803D0286940F004000A
:10F3400028617168F068B9400843A862B16803E0B9
:10F3500080860010788600103069B9400843E86262
:10F360007168202F39BFC7F12002D140A7F12002D8
:10F3700091400843E862DDF82004A884A5F82690AF
:10F38000B6F9E410B9EB010048BFA1EB0900FD4953
:10F390000968B1F9B820904203DD286940F0020005
:10F3A0002861B6F9E420DDF82004101A44BFDDF826
:10F3B0002004801AB1F9BA10884203DD286940F0B0
:10F3C00001002861DDF83004EF4D10F0050F06D084
:10F3D0006A46DDF82C14DDF82804FEF73EFAD5F86D
:10F3E000009019F0080F7DD0009ADDF82C34DDF87C
:10F3F00028A411694FF0000B21F4C0511161684637
:10F40000CDF860B05946CDF85CB0002B84BFDFF872
:10F4100074E301261AD9DEF8007000EB410CBCF948
:10F4200042C2B7F9267167450DDA4FEA511C00EB6D
:10F430008C0C01F01F08DCF85C7006FA08F847EA4B
:10F440000807CCF85C70491C9942E4D3C0F858B066
:10F450000021C0F854B0BAF1000F84BFC94E012793
:10F460001AD9D6F8008000EB410CBCF972C3B8F988
:10F470002681E0450DDA4FEA511800EB880C01F0C7
:10F480001F0BDCF8548007FA0BFB48EA0B08CCF89A
:10F490005480491C5145E4D3916BD0F85CC041EADB
:10F4A0000C01D0F854C00CFA03FC41EA0C01916342
:10F4B000D16BD0F860C041EA0C01D0F858C00CFA0A
:10F4C00003FC41EA0C0CC2F83CC0416D202B39BF53
:10F4D000C3F12003D940203B994041EA0C01D1639C
:10F4E000416D00E012E0002904BF816D002903D0C6
:10F4F000116941F400611161C16D002904BF006E02
:10F50000002803D0106940F48050106119F0100FEA
:10F5100018BF19F0050F06D094F8231094F82200B4
:10F520006A4600F0ECFA287810F0400F0FD16069BD
:10F53000401C60612069002814BFE069A06900F1E7
:10F54000010014BFE061A0616846FDF74CFF002098
:10F550000346E060A0682146B0F5056F88BF4FF410
:10F5600005600022B2EB900F06D251F82260521CC7
:10F570003344B2EB900FF8D35942E160287810F091
:10F58000800F09D12046FDF739FD4FF440304FF48C
:10F5900005622146F3F774FC41208DF82004207C9D
:10F5A0008DF82104607C8DF82204A07C8DF8230462
:10F5B000E07C8DF82404002305220DF584610720EA
:10F5C00000F0FAFD0DF2344DBDE8F08F70B5054640
:10F5D0000024F2F759FDFBF7C5F8012806D02846AC
:10F5E000F2F73CFF30B1F2F795FF0124F2F710FB80
:10F5F000204670BDF6F762FAEDE72DE9F74F84B0CB
:10F600004FF00008C2F82080C2F81C80059B5D4EB8
:10F6100001274146002B1ED902EB4103B3F970309C
:10F62000002BB8BF5B421BB2D6F800C0BCF9CCC0FF
:10F630009C450CDD4B0902EB830301F01F04D3F85A
:10F640001CC007FA04F44CEA040CC3F81CC0059B68
:10F65000491C9942E0D30021012B1CBF059BA3F15B
:10F66000010940D002EB4103B3F97240B3F970C015
:10F67000B4EB0C0348BFACEB04031BB23568B5F91F
:10F68000C6509D422CDAB2F9E630BCEB030548BF08
:10F69000A3EB0C052DB2B4EB030C48BFA3EB040C99
:10F6A0000FFA8CF39D420DDB4B0902EB830301F053
:10F6B0001F04D3F81CC007FA04F44CEA040CC3F886
:10F6C0001CC00DE04B1C4FEA531C02EB8C0C03F0EA
:10F6D0001F03DCF81C4007FA03F32343CCF81C306B
:10F6E000491C4945BED3316891F8CA30002B7DD002
:10F6F00091F8CB1014688B4288BF19460023DDF8BF
:10F7000014C0BCF1000F84BF491C00916ED94FF0AA
:10F71000010EDDF800C04FF000090121CA46BCF11E
:10F72000010F57D9DFF85CC003FB0005DCF800C00F
:10F73000CDF80CC0BCF9CEC002950EFB00050195BA
:10F7400003FB001504EB4505B5F95080B8F1000F37
:10F75000B4BFC8F100054546AC453BDB0EFB0015C8
:10F7600004EB4505B5F95070002FB4BF7D423D460E
:10F77000AC452FDB029D6D1A04EB4505B5F94E60D3
:10F78000002E03E07886001080860010B4BF75421A
:10F790003546AC451EDB019D6D1A04EB4505B5F9F8
:10F7A0004E50002DB4BFC5F1000BAB46E34511DC54
:10F7B000A7EB0808039FB7F9C8704745B8BF09F120
:10F7C0000109AD1BBD42C8BF0AF1010A491C009DD9
:10F7D000A942B5D3BAEB090148BFA9EB0A01DFF88A
:10F7E0009CC4DCF800C09CF8CAC000E01AE0614587
:10F7F0000DDB590902EB810103F01F064FF0010CEC
:10F80000CD690CFA06FC45EA0C0CC1F81CC0059940
:10F810005B1C8B4206D2002B18BFA3F1010E7FF4B4
:10F8200078AF74E707B00120BDE8F08F2DE9F04F05
:10F83000002387B016681362D3619361536100930C
:10F84000019302939C4603934B1EDFF8349447F6D2
:10F85000FF77A0F10108049300294ED90023002866
:10F8600047D90CF01F04012505FA04F406944FEA69
:10F870005C1402EB840A0CFB003406EB4404B4F97C
:10F880005040FE4D2D68B5F92EB1A34503DBB5F907
:10F890002C51A54216DDDAF81CB0069D03F01F0EB0
:10F8A0004BEA0505CAF81C505D0902EB8505059574
:10F8B000D5F814B0012505FA0EF54BEA050B059DA8
:10F8C000C5F814B0BCF1000F1CBF049DAC4503D1BA
:10F8D000002B18BF434509D04C45C4BFA146CDE914
:10F8E000023CBC42BCBF2746CDE9003C5B1C8342C6
:10F8F000C1D30CF1010C8C45B0D3E04C2368B3F8B4
:10F900000A31002B1CBFA9EB070C9C4534DD039B7F
:10F91000DDF80CC05B0902EB83030CF01F07DD6907
:10F920004FF0010C0CFA07F73D43DD61019B019D8F
:10F930005B0902EB830305F01F05DF690CFA05F58F
:10F940003D43DD61029B029D5B0902EB830305F0F1
:10F950001F055F690CFA05F53D435D61009B009D45
:10F960005B0902EB830305F01F055F690CFA05FCD8
:10F9700047EA0C0CC3F814C0C04B1B6893F839312C
:10F98000002B7DD00025002858D98B1E4FF0010B8D
:10F99000009306EB4503B3F95040002301294AD0F8
:10F9A00005F01F0C0BFA0CFA4FEA551C02EB8C0702
:10F9B00003F1010C0CFB005C06EB4C0CBCF950C0D5
:10F9C000BCF1000FC8BF002C2FDDBCEB040948BF01
:10F9D000A4EB0C09A445C8BF64464FF4484E09FB8C
:10F9E0000EF999FBF4F404F2FF144FEA5429002BAA
:10F9F0001CBF009CA342A14C24680CBF94F8254175
:10FA000094F83941A14510DD5C0902EB840403F050
:10FA10001F0ED4F81C900BFA0EFE49EA0E09C4F82A
:10FA20001C907C6944EA0A047C616446DDF810C0DD
:10FA30005B1C6345BCD36D1C8542AAD300250029FD
:10FA400059D9831E4FF0010B009305FB00F306EB21
:10FA50004303B3F950400023B8F1000F48D905F033
:10FA60001F0C0BFA0CFA4FEA551C02EB8C0705FB36
:10FA7000003C06EB4C0CBCF952C0BCF1000F00E09E
:10FA800039E0C8BF002C2FDDBCEB040948BFA4EB54
:10FA90000C09A445C8BF64464FF4484E09FB0EF953
:10FAA00099FBF4F404F2FF144FEA5429002B1CBF15
:10FAB000009CA342714C24680CBF94F8254194F833
:10FAC0003941A14510DDFC6903F01F0E44EA0A0428
:10FAD000FC615C0902EB84040BFA0EFED4F814906E
:10FAE00049EA0E09C4F814905B1C64464345BED332
:10FAF0006D1C8D42A9D307B00120BDE8F08F2DE920
:10FB0000F04F83B00023D2F800C053669366D366EB
:10FB10005C4B4FF0010B1B68029313F0010F574B26
:10FB20001B684DD0DCF81040002524F48034CCF85C
:10FB300010402F46EE46CDE900015EF827A00024D4
:10FB4000BAF1000F88BF02EB071915D909EB44067B
:10FB5000B3F9D480B6F9BE63B04503DCB3F9D680FF
:10FB6000B04505DA566E0BFA05F846EA0806566601
:10FB7000641C6D1CA245E9D87F1C022FDDD3DDE992
:10FB800000452C4400250BFA04FA5EF82560002499
:10FB9000002E88BF02EB05190FD9371909EB47076B
:10FBA000B3F93A81B7F9BE73B84503DA576E47EA3D
:10FBB0000A075766641CA642EFD86D1C022DE4D3D9
:10FBC000029C14F0040F58D0DCF81040002524F4F7
:10FBD000C024CCF810402F46EE46CDE900015EF877
:10FBE00027A00024BAF1000F88BF02EB471915D9EE
:10FBF00009EB4406B3F9D880B6F9DE63B04503DCFF
:10FC0000B3F9DA80B04505DA966E0BFA05F846EAE4
:10FC100008069666641C6D1CA245E9D87F1C022F5D
:10FC2000DDD3DDE900452544B2F9DE43B3F9D86000
:10FC3000A64203DCB3F9DA60A64204DA946E0BFA4A
:10FC400005F52543956600252F46CDE900015EF8B0
:10FC500027A00024BAF1000F88BF02EB47191DD975
:10FC600009EB4406B3F9DC80B6F9EE63B04503DC7A
:10FC7000B3F9DE80B0450DDA06E031E07886001099
:10FC80000080FFFF80860010D66E0BFA05F846EA6A
:10FC90000806D666641C6D1CA245E1D87F1C022FA5
:10FCA000D5D34418D2E91A5030EA050343EA0506D1
:10FCB000D36612D000210846002C0ED90BFA00F7AB
:10FCC0003B4218BF491C401CA042F7D3012904D174
:10FCD00045EA030090660020D066506EB04350663F
:10FCE0009CF820009CF821100844516ED1B1DCF83A
:10FCF000101041F48031CCF81010536EDCF8301045
:10FD000083401943CCF83010516E202827BFA0F152
:10FD100020039940C0F12003D940DCF83430194366
:10FD2000CCF83410916ED1B1DCF8101041F40031F0
:10FD3000CCF81010936EDCF8381083401943CCF8DF
:10FD40003810916E202827BFA0F120039940C0F100
:10FD50002003D940DCF83C301943CCF83C10D16E7C
:10FD6000D9B1DCF8101041F48021CCF81010D36E1A
:10FD7000DCF8401083401943CCF84010D16E2028A5
:10FD800027BF203801FA00F0C0F1200021FA00F06E
:10FD9000DCF844100843CCF8440003B00120BDE86F
:10FDA000F08F2DE9F04FDFF88093044687B0D9F843
:10FDB00000008A46002590F8B40000F00F0600F01D
:10FDC0008CFA01280AD00F213046F5F76FFF012881
:10FDD00013D0002000F07EFA00F0A1B900210846FF
:10FDE000F1F7E4FFF1F793F850B1D048D0F84013A1
:10FDF00041F48031C0F8401302E0012000F06AFABB
:10FE0000CB480778CB480678002E18BF002F00F0AB
:10FE10008481DAF80050002085F8207085F8216090
:10FE200085F8220085F82300F2F7F5FCF2F7C4F814
:10FE30000090002014F0030F18BF4FF4817014F0ED
:10FE4000200F1CBF40F20121084314F0100F06D010
:10FE5000B949097811F0210F18BF40F484600028D7
:10FE60007DD00099084014F4407F18BF40F4202052
:10FE7000F1F779FF0020F7F767FA60F30F08002128
:10FE80000846F7F754FA0120F7F75EFA60F31F48C7
:10FE900000210120F7F74BFA0220F7F755FA60F33B
:10FEA0000F0B00210220F7F742FA0020F1F705FBC3
:10FEB00006900020F1F75EFB05900020F1F78FFB24
:10FEC00004900020F1F70EFC03900020F1F73CFCB9
:10FED0000290F1F782FD14F4807F01902DD0D9F8C3
:10FEE0000000B0F8281100291CBF0020F1F7F5FA36
:10FEF000D9F8000090F82A1100291CBF0020F1F762
:10FF000080FBD9F8000090F82B0110F00F0F05D0FE
:10FF100000F00F00411E0020F1F7FDFBD9F80000B2
:10FF200090F82B0110F0F00F3CD04FF0FF3101EBB7
:10FF300010110020F1F721FC34E014F4007F31D0DF
:10FF4000D9F80000B0F8301100291CBF0020F1F7EB
:10FF5000C4FAD9F8000090F83211002900E050E00E
:10FF60001CBF0020F1F74DFBD9F8000090F83301D9
:10FF700010F00F0F05D000F00F00411E0020F1F728
:10FF8000CAFBD9F8000090F8330110F0F00F06D04A
:10FF90004FF0FF3101EB10110020F1F7EEFB0020D4
:10FFA000F1F711FDFF210F20F6F764FCF1F730FEA9
:10FFB00000200699F1F791FA00200599F1F7E5FA8A
:10FFC00000200499F1F71DFB00200399F1F7A3FB32
:10FFD00000200299F1F7D1FB0198F1F7F4FC0FFA38
:10FFE00088F10020F7F7A3F94FEA28410120F7F73D
:10FFF0009EF90FFA8BF10220F7F799F90098F1F7C3
:020000021000EC
:10000000B2FE14F0100F09D04C495246087885F81A
:100010002200497885F82310FEF7F9FB14F02C0F25
:1000200004D0524631463846FEF732F814F0030F3A
:1000300072D0CDF800A0DAF800A0B0460AF1500561
:10004000F2F787F88346F1F7E3FD3B4C208810F484
:10005000407F03D00020F1F7C2FA019036480068D3
:1000600010F4807F05D0D9F8000090F82A1159B11A
:1000700007E010F4007F07D0D9F8000090F83211A3
:1000800011B10020F1F7BDFA0020F2F785FB002640
:10009000B8F1000F23D906EB4600002400EB061947
:1000A00016E01BF90400262811D2C107890C00EBC9
:1000B000D07001EB8901401001EB800000F140504D
:1000C00000F500400068F2F76DFB25F8020B641C98
:1000D000BC4238BF262CE4D3761C4645DBD31648F9
:1000E000008810F4407F03D000200199F1F789FACD
:1000F000134C20781D280AD10AF15000FAF769FF45
:1001000020781D2804BF0AF15000FAF762FF41462B
:100110003846009AFDF768FA0125F1F70EFF07B09F
:100120002846BDE8F08F000078860010005000409F
:100130000F850010108500108086001017850010B4
:100140009585001070474FF0FF3070475D4840685C
:1001500070475C494860704710B582B007280BD1E2
:100160004FEA111C012404FA0CFC564C64681CEA8A
:10017000040F04BF02B010BD9B0100F00F0043EA62
:10018000800040F001008DF800008DF801108DF81E
:100190000220100A8DF80300100C8DF80400100ED8
:1001A0008DF8050000208DF806008DF807006846E0
:1001B0000BF0D8FF02B010BD10B582B007280DD1EA
:1001C00091F800C001244FEA1C1C04FA0CFC3D4CC1
:1001D00064681CEA040F04BF02B010BD9B0100F06C
:1001E0000F0043EA800040F001008DF80000072A6C
:1001F00088BF072200206B46002A09D911F800C0E9
:100200001C18401C84F801C09042F7D3072805D27F
:1002100000211A18401C51700728FAD318460BF019
:10022000A1FF02B010BD10B59B0100F00F0082B01D
:1002300043EA800040F002008DF80000072A88BFE2
:10024000072200206B46002A09D911F800C01C18AB
:10025000401C84F801C09042F7D3072805D2002142
:100260001A18401C51700728FAD318460BF07AFF71
:1002700002B010BD70B5134E40EA01250228348843
:10028000224618BF052803D1002918BF022900D132
:100290002C46A24209D051B17088002344EA0042A2
:1002A00090210720FFF758FF3480758070BDF3F769
:1002B000ECF944EA0042002390210720FFF74CFFAD
:1002C000F2E7000088860010FD4908707047FC487E
:1002D00000787047FA4948707047F948407870478D
:1002E00010B5F848F64C86B000686178B0F8580050
:1002F0000429C0F3032008D0F349F5F7D7FC0128FF
:100300001CBF002060700FD044E000210846F1F7C8
:100310004DFDF0F7FCFD88B1EC48D0F8401341F4F6
:100320008031C0F8401309E00420607005210020EE
:10033000F1F7D3F800210846F1F751FAFF210F2019
:10034000F6F798FA0BF0B8FF0BF0BBFF0020F4F7BC
:10035000E8FAF0F7DCFD10F0010F04BF0120F1F71F
:100360009DF8F1F73DFEFAF7FDF901280CD068463B
:10037000F2F774F828B16846FBF7EDF9F2F7CAF81E
:10038000F1E7F5F79BFBEEE7F1F742FC0BF099FF85
:100390000BF09CFFF1F7D1FD06B010BD2DE9F04F39
:1003A000C848C74DADF6641D00686978836D0229A1
:1003B000C3F303201AD06A6812F4007F1EBFC3F390
:1003C00003310F29084612F0800F1EBFC3F303113B
:1003D0000F29084602F00701F5F768FC012814BF51
:1003E00000200220687040F071830DE00021084673
:1003F000F1F7DCFCF0F78BFD30B1B448D0F84013D6
:1004000041F48031C0F84013F1F7D6FDCDF81C0956
:10041000287910F0100F18BFF2F7DCF9287910F0E6
:10042000080F03D1FF210F20F6F724FAA84800781F
:10043000CDF83C09A7480078CDF84009A6480478D3
:10044000A6480078CDF83809A54890F8009090F8B3
:100450000180DDF8400900281CBFDDF83C090028B8
:1004600016D00BF029FF0BF02CFF0020F4F759FAFF
:100470000020F4F779FA0020F4F78AFA904800791E
:1004800010F0100F0CD00120F4F7E1FA01200BE07E
:10049000DDF83809002818BF002CE2D100F016BBA7
:1004A0000020F4F7D4FA0020F4F7D1FAF0F72FFD8A
:1004B00010F0010F04BF0120F0F7F0FFF1F790FDFD
:1004C0001E20FAF7B4FC00210846FAF72BFCCDF801
:1004D0004C0901210020FAF725FCDDF84029DDF860
:1004E0003C198346002001FB02FABAF1000F84BFD9
:1004F00047F6FF73DA4308D9DDF84C1921F81020CC
:100500002BF81030401C8245F6D81E20FAF7E3FE87
:1005100000210120FAF706FC064601210846FAF7F9
:1005200001FC0546DDF83819002067181CBF47F6A6
:10053000FF72D14306D026F8101025F81020401C79
:100540008742F8D81E20FAF7E9FF00210220FAF7C7
:10055000E9FBCDF8480901210220FAF7E3FBCDF8C9
:100560004409002019EB08091CBF47F6FF73D94363
:100570000AD0DDF8482922F81010DDF8442922F8C5
:100580001030401C8145F4D84D484FF00008408899
:10059000002840F2A381DDF83819781C491ECDF8F7
:1005A0005C19DDF8381940082144491ECDF850196E
:1005B00009F101014908CDF85819CDF85409FAF7A5
:1005C000D1F8012800F08A810DF51260F1F746FF9D
:1005D000002800F07C81DDF82409F3F73EFCDDF80B
:1005E0002809002853D00BF08AFE044634480079CD
:1005F00010F0100F0AD02046DDF828190BF084FE09
:100600000190A04208BFDDF8284910E00020002337
:100610000090019002901A461946DDF828090BF067
:1006200078FE01902648007910F0200F0BD1F3F7E7
:1006300089FCDDF84029009201462046DDF83C396E
:10064000019A0BF0E4FD1E48808810F4804F1EBF15
:1006500001980028F3F7B7FC002C1CBF0020BAF16A
:10066000000F14D9DDF84C2934F9101032F910209C
:100670008A42BCBFDDF84C2922F810103BF910204B
:100680008A42C8BF2BF81010401C8245EAD8DDF81A
:100690001C0910F0010F1CBFDDF8300900287BD0C9
:1006A0000BF0A1FD04460648007910F0400F19D068
:1006B00000221146DDF830090BF030FE20E000008A
:1006C000908600107886001004000A000050004058
:1006D0000F8500101085001014850010158500107E
:1006E00017850010F3F7F7FB02220092014620461F
:1006F000DDF85439DDF830290BF089FDDDF83009DB
:10070000FE49898811F4005F1CBF0028F3F7EDFB58
:10071000002C41D0F948426812F4806F33D0DDF8E4
:1007200038190020012911D004EB400134F910C020
:10073000B1F90230B3EB0C0148BFACEB030124F874
:100740001010DDF85C19401C8842EDD34FF0000E0C
:1007500024F810E0DDF85019401C884211D204EB57
:10076000400134F910C0B1F90230B3EB0C0148BFBD
:10077000ACEB030124F81010DDF85019401C814245
:10078000EDD824F810E00020002F12D934F9101011
:1007900036F910308B4200E041E0B8BF26F8101067
:1007A00035F910308B42C8BF25F81010401C874225
:1007B000ECD812F4806F32D0D14A08F10100A2FBCC
:1007C00000318908494201EB8101C14227D1A2FBD6
:1007D00008108008A2FB00210909494201EB8101B0
:1007E00000EB810000EB4001C1EB401103A800EBDE
:1007F00081010020002F84BF47F6FF736FEA030CCE
:100800000DD936F8102035F81040121B21F81020B1
:1008100026F810C025F81030401C8742F1D8DDF8CA
:100820001C0910F0200F1CBFDDF83409002849D046
:100830000BF079FD0446B148808810F4807F13D016
:10084000F3F72FFB0146022000902046DDF85839CF
:10085000DDF834290BF0DBFCDDF83409A749898881
:1008600011F4805F0FD109E00021DDF834090BF0AD
:10087000ABFCB8F1040F38BF0024EFE718B1F3F771
:1008800012FBF3F709FB002C1CBF0020B9F1000F8D
:1008900018D9DDF8482934F9101032F910208A42AD
:1008A000BCBFDDF8482922F81010DDF8442932F9E0
:1008B00010208A42C4BFDDF8442922F81010401CE1
:1008C0008145E6D8F1F726FE08F1010801E0F5F7C9
:1008D000F5F88A4840888045FFF471AEF1F798F941
:1008E0000BF0EFFC0BF0F2FC844C6088804578D371
:1008F000DDF81C0910F0020F2AD000224FF6FF731A
:100900001046BAF1000F10D9DDF84C193BF910C0B0
:1009100031F91010A1EB0C019142C8BF0A4699426F
:10092000B8BF0B46401C8245EED842208DF800002F
:10093000100A8DF801008DF80220180A8DF80300C6
:100940008DF804300023052269460720FFF734FCA8
:10095000DDF81C0910F0010F7DD0A08810F4806F25
:1009600051D06748A0FB08108308142B88BF1423BC
:100970004FF0000844464146002F84BF981E009067
:1009800055D94FF0000CDFF87CA147F6FF7B62469B
:10099000002B12D902EB4200C0EB421E03A800EB71
:1009A0008E0030F9110084445045C8BF8246584536
:1009B000B8BF8346521C9A42ECD3002B04BF0020E0
:1009C00026F811000ED09CFBF3F026F81100022B44
:1009D00008D9ACEB0A00A0EB0B02009892FBF0F0F8
:1009E00001E06AE0002025F8110036F91100A0426C
:1009F000C8BF044635F911004045C8BF8046491CB0
:100A00008F42BED813E000244FF6FF782046002F17
:100A10000DD936F9101035F91020891AA142C8BF36
:100A20000C464145B8BF8846401C8742F1D8432058
:100A30008DF80000200A8DF801008DF802404FEA81
:100A400018208DF803008DF80480002305226946E4
:100A50000720FFF7B1FBDDF81C0910F0200F2CD0A8
:100A600000224FF6FF731046B9F1000F12D9DDF8DE
:100A7000481931F910C0DDF8441931F91010ACEB08
:100A800001019142C8BF0A469942B8BF0B46401CBB
:100A90008145ECD844208DF80000100A8DF8010043
:100AA0008DF80220180A8DF803008DF80430002319
:100AB000052269460720FFF77FFBFF20FAF7B7F909
:100AC000FF20FAF708FCFF20FAF728FDF1F735FAC6
:100AD0000DF6641DBDE8F08F30B5ADF6540D4FF046
:100AE000FF30FCF759F8054C00206070F1F729FB46
:100AF000F1F7FCFA0546FF2206E0000090860010A0
:100B0000CDCCCCCC0080FFFF4FF4056168460BF0E4
:100B100060FB6846FCF711FC6846FCF798FBF9F7A8
:100B200021FE012803D1F4F771FF032827D1207893
:100B300010F0010F07D0FEF7FCF9207820F001003B
:100B40002070F9F76DFD207810F0020F07D0FFF745
:100B500025FC207820F002002070F9F761FD207854
:100B600010F0040F07D0FFF7BBFB207820F0040043
:100B70002070F9F755FDF4F749FF03280BD000204A
:100B8000FCF765FB2846F1F7ABFA0120F1F7D9FA3B
:100B90000DF6540D30BDF4F791FFC0E705494860EC
:100BA00000204870704703484068704701494880FA
:100BB0007047000090860010FD4908707047FC489F
:100BC00000787047FA49C8717047F948C079704792
:100BD000F748C06AB0F5B47F2CBF012000207047F1
:100BE000F34840787047F249002280B1012818BFCD
:100BF0007047487802280CD0042818BFC86A06D06D
:100C0000B0F5B47F84BF4FF4B470C8627047CA6255
:100C10007047C86A401CC862F2E7E648007870472F
:100C2000E348C07910F0010F18BF704710B50020DD
:100C3000E0490870F4F7B9FFBDE810400020F3F771
:100C40008DBEDC488088C0F300207047D94910B5BC
:100C500089880020C1F3002151B106F095F964287C
:100C60000FBF4FF0C040012101FA00F040F080407A
:100C7000BDE8104006F08BB9CE4A10B581B2516084
:100C8000CB4AC0F30743C0F3036013625070907007
:100C90000020C1F30021506251B106F075F96428BB
:100CA0000FBF4FF0C040012101FA00F040F080403A
:100CB000BDE8104006F06BB9BD4840797047BD4AA9
:100CC0000028516814BF41F0020021F0020050607A
:100CD0007047B8480079C0F340007047B54A10F03B
:100CE000010F506814BF40F0020020F00200506075
:100CF0007047B04900200979C1F34001002918BFAD
:100D0000012070470028AB4A516814BF41F0010030
:100D100021F0010050607047A648007900F0010002
:100D20007047A3494A788A7048707047A048807815
:100D30007047A1480068406DC0F30360704701210F
:100D400081409B48026A1140016270470121814045
:100D50009748026A22EA0101016270479448006ADA
:100D600070479348406A7047914910B54C6A486291
:100D70000246002381210720FFF7EEF9204610BD2F
:100D80008C488088C0F380207047894880797047FC
:100D900002283CBF8649886220B1012818BF7047ED
:100DA00008F0E6BA08F092BA8148806A7047FBF70B
:100DB000F7B910B5FBF7F4F97D49096B884214BF08
:100DC0000120002010BD7B480079C0F380007047EF
:100DD00078480079C0F3C000704776488088C0F337
:100DE0004020704773480079C0F3C01070477148C5
:100DF0008088C0F3403070476E488088C0F3C020C0
:100E000070476C488088C0F30030704770B5694EF9
:100E10000446C0F340707568C5F34031884205D080
:100E200014F0005F04BF0120F3F728FD14F0805F89
:100E300014BF45F4806025F4806014F0005F14BF97
:100E400040F4005020F400507060FBF78EFB5B48CC
:100E500090F86C00C00802F0AFFDBDE87040EFF7FD
:100E600067BA54484168002011F4806F18BF4FF0F2
:100E7000805011F4005F18BF40F00050704770B50B
:100E80004C49044610F0040F4D68284614BF40F446
:100E9000807020F4807014F0080F14BF40F40070CC
:100EA00020F4007014F0100F14BF40F4006020F420
:100EB000006014F0400F14BF40F4805020F48050C4
:100EC00014F0200F14BF40F0800020F08000486034
:100ED0000021C0F3002050B106F056F864280FBF7F
:100EE0004FF0C041012101FA00F040F08041084676
:100EF00006F04DF8C4F38000C5F30021884220D0ED
:100F000005F0DBFF06460120F3F7B8FC16F4817FFD
:100F10000CBF01200020F1F7E3F816F0020F04D017
:100F2000022008F0F7F9002009E016F4807018BFDD
:100F3000012008F0EFF9214890F86C00C00802F099
:100F40003BFDC4F3C000C5F34021884208BF70BD1B
:100F50000120F3F793FC04F00800BDE8704008F0AE
:100F600089B914484168002011F0040F18BF01200E
:100F700011F0080F18BF40F0020011F4807F18BF75
:100F800040F0040011F4007F18BF40F0080011F495
:100F9000006F18BF40F0100011F4805F18BF40F0E0
:100FA000400011F0800F18BF40F020007047000093
:100FB00098860010003D0110788600106C3A0110F0
:100FC00003283CBFFE49C8617047FD48007F704759
:100FD000FB4908737047FA48007B7047F848C06BBC
:100FE0007047F7494A6B10434863704770B5F44E39
:100FF000706B40F0007400207063F248456815F093
:10100000040F18BF44F0010415F0080F18BF44F096
:10101000020415F4807F18BF44F0040415F4007F27
:1010200018BF44F00804FBF7BBF8002818BF44F0D1
:10103000805415F4006F18BF44F0100415F0800FB1
:1010400018BF44F0200415F4805F18BF44F040043A
:1010500015F4005F18BF44F00054716A44EA01407F
:10106000002918BF40F0806070BDD5498863704783
:10107000D34890F8380000F001007047D04890F84D
:101080003800C0F340007047CD4890F83800C0F3F6
:1010900080007047002818BF0120C9498872704736
:1010A00070B5002486B02646F4F7B0FCC649052882
:1010B00008680CBF90F8F80090F8580000F00F0591
:1010C0002846FBF746FD002818BF406A10F0010FC4
:1010D00014BF0220042040F400312846F4F7E6FD56
:1010E000002804BF06B070BD0120F0F7D7F9F0F773
:1010F000CBFFF9F737FB012838D06846F1F7AEF996
:1011000000282FD00198F2F7A8FE0298B8B1014646
:10111000AE480BF00DF9AD4A904209D0AC4AAD4B48
:10112000014612781B7852005A43A8480BF02EF85B
:10113000A9480078492804BFA448F9F74AFF049851
:1011400048B1A648A6490078097808444200A54855
:1011500004990BF01BF89A4901208872F1F7DAF92B
:10116000012603E0F4F7AAFC002CC2D0F0F750FDF2
:10117000F4F71FFF06B0304670BD9148807A002812
:1011800018BF012070472DE9F04F4FF0000A87B0DB
:1011900006460F24D146F4F739FC0546F4F73CFC2B
:1011A000DFF81CB20690052D07D1FAF7A8FD00283C
:1011B00004BF00208BF80A0002D09BF80A0058B93F
:1011C000F4F767FD07464FF48050F4F75FFDFFF733
:1011D00067FF3846F4F75AFD052D0CBFDFF808828B
:1011E000DFF8088205F069FE002818BF0E242146AA
:1011F0003046F4F75BFD002804BF07B0BDE8F08F70
:101200000BF05AF80BF05DF8F3F7E2FA04007DD129
:101210000126EFF77CFE07460020F0F73FF9304645
:10122000F0F7F7FE6648022D866408BFF6F731F93D
:10123000F2F72EFAA6F1010BF9F794FA01280AD079
:10124000F4F7E4FBA84206D1F4F7E6FB06998842DE
:1012500008BF002C12D0F0F7DBFC5A488088C0F39E
:10126000402000281CBF012008F004F8544E17F05D
:10127000010F757834D0012C27D031E06846F1F7A2
:10128000EDF8F8B117F0010F03D00120F2F74CFC94
:1012900082466846FAF75FFA0198F2F7DEFD684683
:1012A000C0470446F1F736F9002CC5D116B90198AC
:1012B0005845C1D1F0F7AAFC002804BF3046F0F72A
:1012C000A8FEB9E7F4F7EFFBB6E70120F2F72CFC34
:1012D000504505D2AAEB00010120F2F735FC81460A
:1012E000F2F7FDF917F0010F29D0012C27D1B9F140
:1012F000000F24D0F0F70EF80446EFF719FE00EBCC
:10130000800004EB40004844002100E017E044F274
:101310000902904284BFA0F580400938002D08BF23
:1013200043F6390103D0022D08BF41F6F901884286
:1013300005D2091A0120F2F736FC012070720AF07A
:10134000C5FFF4F736FE07B0BDE8F08F2DE9F14F89
:1013500088B000270197049707970697F4F756FB84
:1013600002901B48B946CDF8149004781948DFF86C
:1013700068B0C84606789BF8000004FB06FA4628C9
:1013800004BF0898F9F725FE0898089900EB4A0071
:101390000AF0CEFF03909BF800004B2804BF03988F
:1013A000F9F717FE0898234600EB8A0500960749CF
:1013B0002846039A0AF02BFF9BF80000492817E003
:1013C00098860010003D01107886001080FA001009
:1013D0000F850010108500109585001015850010F0
:1013E0001485001070000110DD3B001095410010C5
:1013F00004BFFE48F9F7EDFDFD4800784C2804BF16
:101400002846F9F7E6FD0298052830D12888698832
:1014100005EB4402084435F814105288DFF8D4B3C1
:10142000114400229BF80D3000B209B2012B13D1F8
:10143000BBF816301B1A1BB2ABF818309E46BBF82F
:101440001230CB1A0FFA83FCABF814C0BEF11E0F9A
:10145000C4BFBCF11E0F0122ABF816000120ABF88F
:1014600012108BF80D00002A18BFFAF74FFC05EB9D
:101470004A0293464FF0000C002E25D90020611E31
:1014800013D005EB410E35F811303EF802ECA3EB1A
:101490000E031BB2002BB8BF5B421BB222F8113007
:1014A0008342C8BF1846491EEBD1029902297DD05C
:1014B000108005EB440502EB44024845C8BF814655
:1014C0000CF1010CB445D9D3CA48B0F90E00009014
:1014D0008145A4BF012701970BEB4A034FF0000C95
:1014E000002E25D90021601E022812D90BEB4002E4
:1014F0003BF8105032F802EC32F8042C75442A44C0
:1015000012B223F810208A42C8BF1146401E02289A
:10151000ECD800201980588098800BEB440B03EB2B
:1015200044034145C8BF88460CF1010CB445D9D3EA
:10153000B04AB2F910108845A4BF01270497002FC4
:1015400014BF106D506D00F1010014BF106550659F
:10155000A7480078FF2849D0089B0AEB8A0023F8A7
:101560001070DDF820C0019B0CEB40056B800498E7
:10157000A8800698E88007982881106DC31700EBB3
:1015800013536FF30B03C01A6881506DC31700EB40
:1015900013536FF30B03C01AA881A5F80E90A5F89A
:1015A0001080059868820098A88200E022E0E98215
:1015B000108B2883908A6883FAF7A1FBA883022501
:1015C00006EB86000899002F00F1010322460095E2
:1015D0000CBF4E204D20F9F769FC06EB8600431C3A
:1015E0002246009547200899F9F760FC09B0384673
:1015F000BDE8F08F02EB440131F9023C142BB9BF76
:1016000031F9041C14290127019751E77A487047E2
:101610002DE9F84F834677487A490025B0F90E80C6
:1016200077480978754C00782E46AA464718F0F797
:10163000C3FC00907448A4F174090078492804BFE1
:101640004846F9F762FE0020002F09D93BF8101038
:1016500039F81020891A24F81010401C8742F5D858
:10166000DFF8A49199F800004C2804BF2046F9F750
:101670004CFE009810F4007FA7F1010012D0002862
:101680001CBF5C49B1F9103026D034F91010002984
:10169000B4BF4A420A469A42BCBF0D44761C401E63
:1016A000F3D119E000281CBF5249B1F9103013D012
:1016B00004EB400234F8101032F8022C891A09B2F7
:1016C00024F810100029B4BF4A420A469A42BCBF0F
:1016D0000D44761C401EEBD1002EC8BF95FBF6F5DD
:1016E0002EB2268099F800004F2804BF2046F9F753
:1016F0000CFE0025781E0ED034F81010891B09B29C
:1017000024F810100029B8BF494209B28D42B8BF71
:101710000D46401EF0D1258005F0CFFB10F4817FEF
:1017200018BF4FF00508454506DD99F800004FF059
:10173000010A4D2807D103E099F800004E2802D194
:101740002046F9F7E2FD99F80000472804BF20463B
:10175000F9F7DBFD5046BDE8F88F2DE9F04F87B073
:10176000FAF7DAFC294D2868B0F93610B0F93400E0
:101770000AF066FD0120F3F781F805F09EFB10F4F6
:10178000817F14BF00200120F0F7AAFC194C94F8C7
:10179000200010F0100F06D0042000F074F90F287C
:1017A00018BFF3F769F8FF2020720021481EFAF7EE
:1017B00060FF06F0FBFAF5F78DFE03F06FFF05F012
:1017C00032FBF4F723F9022840F033810948002165
:1017D00090F80190016441640C484FEA8901006867
:1017E000806D20FA01F101F00F0411E080FA001081
:1017F000958500109886001070000110E40001101B
:1018000015850010148500109A8500107886001048
:10181000C0F303260027C0F3031AC0F30335C0F357
:10182000035BB4423ED1C648BBF10F0FD0F85880DD
:1018300015D005F042FB10F4817F0DD00F2D0AD09A
:10184000C0488088C0F3403028B105F0A8FB0828C4
:1018500018BF2C4600D15C46A04518BF0127B442F2
:101860000ED10F2D0CD0B7488088C0F3403020B186
:1018700005F095FB082818BF2C46A04518BF012786
:10188000B44207D1BAF10F0F04D0F4F7A1F9002840
:1018900018BF5446A0451EBF002F0020F2F7EEFFF0
:1018A000A748846549460220FEF7E4FCB9F1050F1C
:1018B0007DD2DFE809F0AA030303AE00DFF88082DF
:1018C00025460F2498F8017005F0F7FA002818BF94
:1018D0000E2421462846F4F7E9F9002867D00AF0DB
:1018E000EBFC0AF0EEFCF2F773FF060051D198F81A
:1018F000000000281CBF0001EFF720FD9248F0F720
:10190000D0F90024F0F758FB0690EFF700FB10F039
:10191000010F0FD0EFF7BCFD02280BD398F8090098
:1019200040B1069840F40030F0F71DFA0124F0F7BA
:10193000ABFB01E0F0F754FB4FF0000988F8099089
:1019400088F80390F2F7B9FFF3F733FD05F065FB74
:1019500060B105F024FB082808D005F0AEFA10F4B9
:10196000817F0CBF79487A48F3F7E8FBDFF8E4A100
:10197000DFF8E4B14FF0E025F8F7F4FE012808D0D5
:10198000F4F744F8022802BF98F80100B842002E8C
:1019900011D00020F0F785F9F2F796F90AF091FCE2
:1019A0000AF094FCF4F705FB6FF07E4000E033E0B2
:1019B000F3F7C4FB30E06846F0F750FDD8B12CB126
:1019C000641E0698F0F7CFF9F0F70AFB6846F9F7BE
:1019D000C2FE0198F2F741FA68460AF0AEFC0646EC
:1019E0009AF8000020B1A869CBF80000C5F8109063
:1019F000F0F790FDC0E7286910F0010F02D0F4F76E
:101A000052F8B9E7F4F75AF8B6E720460AF068FC4E
:101A100002E02046FFF7B7FBF8F7A4FE012803D148
:101A2000F3F7F4FF022804D1F3F7F0FF02283FF4A4
:101A3000CDAE08F004F8F2F720FFFAF76DFBF3F7EC
:101A4000E5FF05281CBF07B0BDE8F08FEEF7ADFE3F
:101A500058B10020EEF7F4FE0120EEF78FFE07B03C
:101A60000020BDE8F04FEEF7E8BE0120EEF7E8FEFB
:101A700007B00020BDE8F04FEEF780BE4A000146F7
:101A800036480AF083BB2DE9F05F35498000002716
:101A90000968896D21FA00F000F00F04C1F30326F4
:101AA000C1F30319C1F30335C1F3035AB4421CBF98
:101AB0002046BDE8F09F2248DFF888B0BAF10F0F4A
:101AC000D0F8588015D005F0F8F910F4817F0DD0CA
:101AD0000F2D0AD0BBF80400C0F3403028B105F048
:101AE0005EFA082818BF2C4600D15446A04518BFFE
:101AF0000127B4420ED10F2D0CD0BBF80400C0F367
:101B0000403020B105F04BFA082818BF2C46A045FC
:101B100018BF0127B44207D1B9F10F0F04D0F4F771
:101B200057F8002818BF4C46A0451EBF002F0020C4
:101B3000F2F7A4FE024884652046BDE8F09F00004D
:101B400098860010003D0110B3490010BAFDFE0157
:101B5000F2FFFE013B840010A08400107000011011
:101B6000788600103A4A30B4146894F86CC01CF0BF
:101B7000040F1ABF012222EA0C050CF00105B0F98E
:101B80000030B1F900201DB1E58AAA1A521E12B226
:101B90001CF0020F03D0A48AE31A5B1E1BB21CF0D8
:101BA000040F19BF02800B8003800A8030BC70478D
:101BB0004FF6FF71A0F86C10A0F86E10A0F870102E
:101BC000A0F8721070472DE9F05F16468A468346EA
:101BD00005F037F9074605F02CF9002500F1CF098B
:101BE000002E8CBF4FF6FF78BDE8F09F05EBC500D7
:101BF00000EB051007EBC00494F8B40010F0010FDF
:101C00000DD0A4F86C80A4F86E80A4F87080A4F8BD
