:100000005446495300010000BCDA020032EA0F6A8C
:1000100017490222191212194E395930174903078C
:10002000191212194E3959001749021119121219D1
:100030004E395930030000000000000000000000AD
:100040005446435300200000A8990200000000001D
:100050000080011001210000252100002519020067
:10006000292100002B2100002D2100003D2100004E
:100070003D2100003D2100003D2100002F21000016
:10008000312100003D21000033210000B96E000045
:1000900083720000372100003D210000E557001069
:1000A00037210000CB4F0000CF4F0000B37100009C
:1000B00037210000F76A0000F9610000D34F00000B
:1000C000B16800003721000037210000295D0000E1
:1000D0000000000000000000000000000000000020
:1000E0000000000000000000000000000000000010
:1000F0000000000000000000000000000000000000
:1001000000000000000000000000000000000000EF
:1001100000000000000000000000000000000000DF
:1001200000000000000000000000000000000000CF
:1001300000000000000000000000000000000000BF
:1001400000000000000000000000000000000000AF
:1001500000F003F800F020F8FEE70D480168890878
:100160008900002001C101C101C101C17047000027
:100170003C610010FEE7FEE7FEE7FEE7FEE7FEE774
:10018000FEE7FEE7FEE703480047FEE7FEE7000064
:10019000202100003D21000000F002F800F068F886
:1001A0000AA090E8000C82448344AAF10107DA45D2
:1001B00001D100F05DF8AFF2090EBAE80F0013F0BC
:1001C000010F18BFFB1A43F001031847E034020087
:1001D000403502000A444FF0000C10F8013B13F0C8
:1001E000070408BF10F8014B1D1108BF10F8015B90
:1001F000641E05D010F8016B641E01F8016BF9D183
:1002000013F0080F1EBF10F8014BAD1C0C1B09D1D9
:100210006D1E58BF01F801CBFAD505E014F8016B4B
:1002200001F8016B6D1EF9D59142D6D370470000DD
:10023000103A24BF78C878C1FAD8520724BF30C812
:1002400030C144BF04680C607047000000230024E4
:1002500000250026103A28BF78C1FBD8520728BFD6
:1002600030C148BF0B6070471FB51FBD10B510BD32
:10027000DFF80CD0FFF7F8FF07F066FA1FF06CFB11
:100280000080011003B4FFF7F1FF03BC1FF06CFB0B
:1002900008B5002103200B460A4600911DF06CFEB4
:1002A00008BD38B5F94D0024AC81EC812C821DF0DD
:1002B0003AFE2862FF206872F54823462246046011
:1002C000446004720120A872AC612C706C70032031
:1002D000214600941DF050FE012038BD38B5EB4D8D
:1002E00002286C7A22460DD0052810D0A24208BF01
:1002F00038BD002003460246214600901DF03CFE1A
:100300006C7238BD022914BF01240224EEE70229D1
:1003100014BF64246524E9E738B513460A464FF054
:10032000010C00240146604600941DF025FE38BDF6
:1003300038B500240EF09EFC002818BF012413F0ED
:100340004EFE002818BF0224D0484178A14208BFC1
:1003500038BD4470032000230146224600931DF05F
:100360000BFE38BDC9498A78824208BF704708B57C
:1003700002008A704FF003004FF0020118BF012203
:10038000002300931DF0F8FD08BD38B502004FF0C2
:1003900003004FF0040C18BF012200240B466146F5
:1003A00000941DF0E9FD38BDB8490120C8707047C0
:1003B000B648C0787047B5490020C87070472DE92D
:1003C000F04104460127002503F00700AF4E8846A0
:1003D000012804BF0020308246D0022844D1308A50
:1003E00004280BD2002818BFF06902D11DF08EFF3F
:1003F000F06110F8011B2170F0612EE0062808D290
:100400001DF086FF318AC1F10501C900C840207086
:1004100023E0082808D21DF07FFF318AC1F10701CF
:10042000C900C840207018E00C2808D21DF07BFDE0
:10043000318AC1F10B01C900C84020700DE00E28BF
:1004400008D21DF072FD318AC1F10D01C900C8400A
:10045000207002E0FF2020700027308A401C80B20C
:1004600030820E2828BF012588F800503846BDE8A4
:10047000F08130B403F007000024DFF810C2012837
:1004800003D013F0070F07D01FE0ACF80C40ACF816
:100490000E40ACF8104018E07C4BBCF810009B8973
:1004A000022805D2120242EA1322ACF80C2009E01D
:1004B00003449D1EB5F5806F04DADCF820502B4410
:1004C00003F8022C401CACF810000C7030BC00206B
:1004D0007047F0B40746002003F007046B4D064652
:1004E000012C04BF2E826E6125D0DFF8A0C1022C42
:1004F000BCF80EC003D013F0070F0DD01BE02A8A02
:100500000CEB0203B3F5806F15D2286AC05C38701B
:10051000501C288201200EE0120242EA1C22EA81CD
:100520006B69012B05D1B2F5806F24BF40F2FF3219
:10053000EA815A1C6A610E70F0BC704738B503F04E
:10054000070000240D4601280AD1504821460B46D9
:1005500004828481C48102200A4600941DF00CFDAF
:100560002C70002038BD30B50C004AA183B009685A
:100570004FF00002029108BF03250AD0217802AB98
:100580005D5C002D18BF022D41D0012D7DD0032DC3
:100590000DD10F2101700321417042808280C28001
:1005A000028142818281817B21F001018173002DD2
:1005B0001EBF012D03B030BD07F0DAF805281CBFBF
:1005C00003B030BD0EF0B3F8042804BF03B030BD53
:1005D000002D0CBFC020C1208DF8000060788DF880
:1005E000010060880123000A8DF80200A0788DF8D0
:1005F0000300A0880622000A8DF8040020798DF8F7
:1006000005006946072012F0E5FA03B030BD6178B5
:1006100000EB011202F8101C617800EB011101F8E7
:100620000F5C6278618800EB021222F80E1C62787F
:10063000A18800EB021222F80C1C6278A17900EB71
:10064000021222F80A1C6278217A00EB021222F8C8
:10065000081C6278617A00EB021222F8061C6278AC
:10066000217B00EB021222F8041CE1790529617854
:1006700000EB011010F8021C0EBF41F0010121F047
:10068000010100F8021C92D138E005E0008400105E
:10069000BC88001003000201617800EB011303F82D
:1006A000101C6378012100EB031303F80F1C63781F
:1006B000618800EB031323F80E1C6378A18800EB1C
:1006C000031323F80C1C617800EB011121F80A2CAC
:1006D000617800EB011121F8082C617800EB011121
:1006E00021F8062C617800EB011121F8042C6178C7
:1006F00000EB011010F8021C21F0010100F8021CAF
:1007000055E76449002008717047624800797047D6
:1007100060490120087170475F4A1154704710B555
:1007200082B001788DF8001041788DF80110817841
:100730008DF80210C1788DF8031001798DF804103E
:1007400041798DF8051080798DF8060000248DF828
:1007500007401AF083F9002804BF9DF800004A28DA
:1007600006D19DF801104B48002918BF047004D031
:1007700068461FF00FF902B010BD012101708169B8
:10078000491C8161F4E770474249002818BF0120E5
:10079000887270473F48807A70473E48407970477A
:1007A00008B5002814BF012200223A4801214271F5
:1007B0000320002A18BF0122002300931DF0DCFB58
:1007C00008BD3448407970473249887170473148D4
:1007D0008079002818BF01207047014600200729B2
:1007E00004BF2E487047082908BF2D48704710B431
:1007F0004FF0000C072808BFDFF8A0C003D008287E
:1008000008BFDFF89CC04FF0000093B1002A9CBFE6
:1008100010BC70473CF9103031F91040234403EB11
:10082000D3735B102CF81030401C8242F2D810BCFD
:100830007047002A9CBF10BC704731F810302CF86C
:100840001030401C8242F8D810BC70471148007824
:10085000002818BF012070470E48806970470D4975
:1008600088617047002818BF01200A49C871704785
:100870000848C079002818BF01207047002818BF19
:1008800001200449087270470248007A002818BF06
:100890000120704700840010BC880010E68800101A
:1008A000C68800107047FE48D0F8500300F00100E1
:1008B000704770B5FA4D04000AD002F0E7FA38B973
:1008C000D5F8500310F0010F1CBF0020A86005D11F
:1008D0000120A860002C08BF00200FD004F0A8FB66
:1008E00000281CBFD5F8500310F0010F05D004F00C
:1008F00099FB002818BF04F0A7FB0120286270BDF7
:10090000E748006A002818BF01207047C00000F1C6
:10091000804000F5A04041637047C00000F1804076
:1009200000F5A040006B00F4807070471021C000FB
:1009300000F1804000F5A0404163704730B4820967
:10094000D84B00F00F0000EB400053F822404FF46A
:10095000847505EB8015D1F800C044F805C053F844
:1009600022204FF4867303EB80104968115030BC8D
:1009700070478209CB4850F82200D0F8402161F33B
:100980000D22C0F840217047C649800951F8200067
:10099000D0F84001C0F305207047C149D1F840218B
:1009A00060F31742C1F840217047BD48D0F84001BC
:1009B000C0F3074070474FF4A072C0F3011302EB7D
:1009C0008312DFF8E0C200F00F03800903EB43035A
:1009D0005CF82000002900EB8310815814BF41F01F
:1009E000010121F0010181507047AE4A810952F89E
:1009F000212000F00F0101EB410102EB8111C0F356
:100A000001104FF4A07202EB8010085800F00100B2
:100A10007047A44A810952F82110D1F8E01100F082
:100A20000F00012201F0070102FA00F0084018BF90
:100A3000012070474FF4A072C0F3011302EB831240
:100A4000DFF860C200F00F03800903EB43035CF89A
:100A50002000002900EB8310815814BF41F00201EF
:100A600021F00201815070478E4A810952F82120FD
:100A700000F00F0101EB410102EB8111C0F3011005
:100A80004FF4A07202EB80100858C0F3400070478A
:100A90008109854A01EB410102EBC10100F00F021F
:100AA00001EBC201C0F3011051F8200070477E49EC
:100AB00082091CD00122B2EB901F18BF70477B48FF
:100AC0000068C0F30800886179480268C2F30842F0
:100AD0000A620068C0F30800486276480268C2F300
:100AE00008428A620068C0F30800C86270476C4818
:100AF000D0F82421C2F308020A60D0F8E421C2F33E
:100B000008428A60D0F8E421C2F30802CA60D0F833
:100B1000A422C2F308420A61D0F8A402C0F308007C
:100B2000486170472DE9F0030122830900F00F01AD
:100B3000C0F3011CC0F3011622EA0C0C00290BBF04
:100B400002254D1E00224FEA0C124FF0080404EB60
:100B5000CC04554F03EB430C07EBCC0C0CEBC10161
:100B6000DFF8408151F826604FF4587C58F8231084
:100B70000CEBC50551F805C000F00F001CF0010F8B
:100B800000EB40004FF4927C0CEB801C40F2FF170E
:100B900029D04348D0F844034FF032090005000D36
:100BA00006FB09F60EBF0120B6FBF0F0401CFF2843
:100BB00088BFFF204E594FF0FF0909FA04F9C0B26F
:100BC00026EA0906A0403043485158F8230050F85F
:100BD0000C3007FA02F123EA0102114340F80C102D
:100BE000BDE8F003704751F80C0007FA02F3984390
:100BF000C6F3080303FA02F2104341F80C00BDE803
:100C0000F003704710B50020FFF78CFF0120FFF7BD
:100C100089FF1120FFF786FF0220FFF783FF1220D4
:100C2000FFF780FF4020FFF77DFF4120FFF77AFFAD
:100C30005120FFF777FF4220FFF774FFBDE8104017
:100C400052206FE72DE9F04707464FEA9016154806
:100C50000D0050F826404FF000002062C4F840011B
:100C6000C4F80002C4F84002C4F8C002C4F800038B
:100C700008BFBDE8F0872868206068686060616828
:100C80000120002908BF60600B490860A868A060C7
:100C9000E868E0602869A0616869E061E8690DE0E2
:100CA00000500040245102000889001024590040DF
:100CB000E4590040A45A0040045800406062286A89
:100CC000E06221206063E063686A2064A86A60646F
:100CD000E86AA064286BE064686B2066A86BA06675
:100CE000E86B6067286CA067686CE067A86CC4F864
:100CF0008000E86CC4F88400286DC4F88800686D32
:100D0000C4F88C00A86DC4F89000E86DC4F8A40085
:100D1000286EC4F8A800686EC4F8AC00A86EC4F8C9
:100D2000B000E86EC4F8B400286FC4F8B800686F6B
:100D3000C4F8BC004FF0FF30C4F8E400A86FC4F85A
:100D4000F000E86FC4F8F400D5F88000C4F8FC00A7
:100D50004FF4107205F1840104F580701EF01FFE3F
:100D6000D5F8C40220F48030C4F84003D5F8C80296
:100D7000C4F84C03D5F8CC02C4F85003D5F8D0021F
:100D8000C4F85403D5F8D402C4F85803D5F8D802EF
:100D9000C4F85C03002005EBC002D2F8DC3204EB9F
:100DA000C001C1F86033D2F8E022C1F86423401CCE
:100DB0000328F0DBD5F8F402C4F87803D5F8F8027C
:100DC000C4F87C03D5F8FC02C4F80004D5F800038D
:100DD000C4F80404D5F80403C4F80804D5F80803DB
:100DE000C4F80C04D5F80C03C4F810040022002148
:100DF00004EBC20805EBC20000EB8103D3F81093AB
:100E000008EB810CCCF83094D3F83893CCF8589494
:100E1000D3F86033CCF88034491C0229ECDB05EBB5
:100E20008200D0F8883304EB8201C1F8A834D0F8EE
:100E30009C33C1F8BC34D0F8B003C1F8D004521CC4
:100E4000052AD4DB002E14BFFD48FE48006830F0B0
:100E5000FF0105D1D4F8901060F30301C4F890109D
:100E6000D4F8500320F00100C4F85003D4F8600314
:100E700020F00100C4F86003D4F8680320F00100FA
:100E8000C4F86803D4F8700320F00100C4F87003BC
:100E90003846BDE8F0470AE6EB4800787047EA4874
:100EA00040787047E84988707047E7488078704715
:100EB000E649D1F8542360F30902C1F8542370477E
:100EC000E248D0F85403C0F309007047DE49486097
:100ED0007047DD4840687047DB4988607047DA48F2
:100EE00080687047D948D0F8440340F21512C0F327
:100EF0000B0153003C20A1F2151CBCF1000F4CBFAC
:100F0000521A6246A1F22A2CBCF1000F4CBF591AAA
:100F1000A1F22A219142B8BF1E207047CA49C86079
:100F200070472DE9F05F04460027384614F4803FEF
:100F300018BF012014F4003F18BF40F0040014F45F
:100F4000802F18BF40F0020014F4002F18BF40F0AB
:100F5000100014F4001F18BF40F0400014F4800F7C
:100F600018BF40F0080014F4000F18BF40F0200034
:100F7000DFF8D482DFF8D49298F8021010EA010565
:100F8000D9F8400320F48030C9F8400336D0D8F8AF
:100F90000C60D9F84803002740F00100C9F8480365
:100FA000D9F8480320F00100C9F84803D9F84003F4
:100FB00040F48030C9F840034FF0630ADFF890B284
:100FC00016E004F07CF95046D9F8481311F0010FEF
:100FD0000AD0D9F844030005000D1CBFBBFBF0F09C
:100FE000C8F80800012703E0011EA0F10100EBDCB6
:100FF000301EA6F1010601DD002FE2D0D9F8500322
:1010000020F00100C9F85003D9F8600320F0010076
:10101000C9F86003D9F8680320F00100C9F8680333
:10102000D9F8700320F00100C9F8700389480168FD
:1010300021F00101016088490A6822F001020A607A
:10104000864A136823F0010313604FF0010A00265B
:10105000EFB315F0010F05D0D9F8503343F0010379
:10106000C9F8503315F0040F05D0D9F8703343F0A8
:101070000103C9F8703315F0020F05D0D9F86033B9
:1010800043F00103C9F8603315F0100F05D0D9F80B
:10109000683343F00103C9F8683315F0400F03D0FB
:1010A000136843F00103136015F0080F03D00268C2
:1010B00042F00102026015F0200F03D0086840F0F2
:1010C0000100086088F8015088F800A000E006E000
:1010D000D9F8400340F48030C9F8400320E088F894
:1010E0000160ADB1022088F80000D9F8400340F457
:1010F0008030C9F84003D9F8480340F00100C9F82E
:101100004803D9F8480320F00100C9F8480307E074
:10111000D9F8400320F48030C9F8400388F8006013
:10112000D9F8400114F0010F20F00D0018BF40F075
:10113000010014F0040F18BF40F0040014F0020F77
:1011400018BF40F00800C9F84001D9F8000214F0B7
:10115000100F14BF40F0010020F00100C9F8000298
:10116000D9F8400214F0200F14BF40F0010020F025
:101170000100C9F84002D9F8C00214F0400F14BFB2
:1011800040F0010020F00100C9F8C002D9F80003C6
:1011900014F0800F14BF40F0010020F00100C9F8E6
:1011A00000032F4D14F4805F286814BF40F0010045
:1011B00020F0010028602B4F14F4005F386814BF42
:1011C00040F0010020F001003860DFF89C8014F44A
:1011D000804FD8F8000014BF40F0010020F001005B
:1011E000C8F80000DFF884B014F4004FDBF800000A
:1011F00014BF40F0010020F00100CBF800001C49B2
:10120000086814F4807F20F00D0018BF40F0010042
:1012100014F4806F18BF40F0040014F4007F18BF6E
:1012200040F0080008600020FFF77CFC0120FFF779
:1012300079FC1120FFF776FC0220FFF773FC19E020
:10124000F0FE0400E0FE0400248400100050004082
:1012500080F0FA02605B0040685B0040705B004019
:10126000005A0040405A0040C05A0040005B004015
:10127000405900401220FFF755FC4020FFF752FC78
:101280004120FFF74FFC5120FFF74CFC4220FFF7B5
:1012900049FC5220FFF746FC286810F0010F06BFFA
:1012A000386810F0010F022257D0D9F8000210F070
:1012B000010F06BFD9F8400210F0010F012359D0E9
:1012C000FD49501E0860FD490AFA02F0086003EB70
:1012D0004300800100F1804101F5A041D1F800C137
:1012E00002EB4200800100F1804000F5A040C0F810
:1012F00000C9D1F818C1C0F818C9D1F824C1C0F884
:1013000024C9D1F840C1C0F840C9D1F844C1C0F8DF
:1013100044C9C0F85069C0F85469D1F880C1C0F818
:1013200080C9D1F88411C0F88419C0F89069C0F858
:101330009469D80000F1804000F5A040D0F85833FF
:10134000D10001F1804101F5A041C1F8583BD0F82E
:101350005C03C1F85C0BBDE8F09FD8F8000010F00A
:10136000010F06BFDBF8000010F0010F01229CD135
:10137000BDE8F09FD9F8C00210F0010F06BFD9F800
:10138000000310F0010F02239AD1BDE8F09F2DE970
:10139000F04F840900F00F0343EA8411C84D4FEA6F
:1013A000911CC1F3011855F82C6003EB430C06EBBC
:1013B0008C174FF4A07606EB8818024657F8087091
:1013C000002017F0010F10D141F010018F09C1F377
:1013D000011155F8277006EB811107EB8C1779582E
:1013E00011F0010F08BFBDE8F08F55F82410CF6948
:1013F00007F0080801EB8C17D7F80011DFF8C4A23A
:1014000004EB440C0AEBCC0C1FFA81F902F00F0537
:10141000002103EB43060CEBC505C2F3011A43EAB6
:10142000011242EA8412DFF898C2C2F3811B5CF811
:101430002BC0C2F3011B4FF4A0720CEB861C02EB15
:101440008B125CF8022012F0010F1AD007EB811CFE
:1014500055F82A20DCF844B1B8F1000FCBF3080BA3
:101460000EBF4FF0000CDCF844C1CCF3023C02EBA1
:10147000C20E0EEB021200EB42000BFA0CF202FB62
:101480000900491C0229CAD3BDE8F08F2DE9F041BB
:101490008509AA018A489309002450F82300D0F84E
:1014A000401111F0010F34D0864E03EB430306EBDD
:1014B000C30302F00F0603EBC603C2F3011211F0DF
:1014C000040F53F82220D0F8003101F0080C9EB22E
:1014D000D0F84431C3F3080318BFC1F30744C76908
:1014E000C1F3052117F0080F1ABFD0F84401C0F36B
:1014F00002300020BCF1000F18BF491C03FA00F0B5
:1015000001FB004002EBC201704301EB021100EB52
:101510004104012040EA8510FFF739FF064602200A
:1015200040EA8510FFF733FFA1190844BDE8F081B8
:1015300010B50020FFF7AAFF4FF47A7148434CF230
:101540005031B0FBF1F010BD5F484068C0F30C00B3
:10155000704770B504460020FFF798FF054640200D
:10156000FFF794FF35B3584BB0B141F288310844CE
:10157000A84211D9421B186800F01F0104FB01F0BA
:1015800000EBC00C0CEB0010B2EB400F04D9322082
:101590004843B2FBF0F0441CB4F5005F28BF41F6AD
:1015A000FF7402D2002C08BF0124586864F30C00B9
:1015B000586070BDB4F5005F28BF41F6FF7402D2D9
:1015C000002C08BF01244148016864F30C0101604C
:1015D00070BD2DE9F0413C4F0646386810F01F05FC
:1015E00008BF01250020FFF751FFDFF8E480044623
:1015F000002E18BF002C3FD0364900204A68002A30
:1016000008BF01223309B3FBF2F1D7F850C31CF035
:10161000010F1BD0B3EB420F1DD32F49B1FBF2F3E7
:10162000B6FBF2F10A09B3FBF4F1102928BF0F2130
:101630008A4298BF114639B1012984BF01FB143099
:10164000B0FBF1F007D908E0012109E0B8FBF6F2A0
:10165000A24288BF101B0029F6D0102988BF0F2195
:10166000D7F85C2361F30302C7F85C233221694396
:10167000B0FBF1F0FFF76DFF7868C0F30C00684332
:1016800000EBC00101EB001004EB4000B8FBF0F0F0
:10169000BDE8F08170B50C4D0024D5F8500310F072
:1016A000010F1BD00B48D5F85C13406801F00F0107
:1016B0004843040127E0000024580040E05900405E
:1016C00024510200088900100050004004580040D6
:1016D0000008AF2F2484001080F0FA020020FFF7EA
:1016E000D5FE02462868696800F01F00C1F30C01AE
:1016F000414301EBC10000EB011012EB40001CBFA5
:10170000FE49B1FBF0F4204670BD002818BF01204F
:10171000FB49D1F85C2360F30302C1F85C237047F6
:10172000F748D0F85C0300F00F0070478109F54AD4
:1017300000F00F0000EB400052F821104FF48072CF
:1017400002EB80100858F04980B2B1FBF0F0401C69
:10175000400870472DE9F041EA4B8209DFF8A8C341
:1017600053F8223000F00F0731B1BCFBF1F1491CF6
:101770004A08B2F5004F01D347F6FF72BCFBF2F105
:10178000491C4D08D3F880104FEA520C01F00704B1
:10179000D3F88010DB4B4FEA9018C1F3031600F02A
:1017A0000F0153F8283001EB410103EB81112FB3F6
:1017B000D1F80431F61C74439BB2A2EB4404D1F877
:1017C000006124F0010462F30F06C1F80061D1F852
:1017D00000216CF31F42C1F80021D1F8042163F30A
:1017E0000F02C1F80421D1F8182164F30F02C1F8E7
:1017F000182101F08FF82846BDE8F081F61CACF105
:101800000E037443A3EB4404D9E78109BD4A00F0F9
:101810000F0000EB400052F821104FF4807202EBF1
:1018200080100858000C7047830910F00F02B5486B
:1018300050F8230002EB420300EB8313D3F800C1FE
:1018400061F31F4CC3F800C118BF7047D0F8802067
:1018500002F00703D0F88020C2F30312D21C5A43CF
:101860000E39A1EB4202D0F8043122F0010261F3FB
:101870000F03C0F80431D0F8181162F30F01C0F85B
:10188000181170479F4A810952F8212000F00F017A
:1018900001EB410102EB8111C0F301104FF4A27280
:1018A00002EB80100858C0F308007047F0B4954B65
:1018B000840900F00F0C53F824300CEB4C0503EBBB
:1018C0008516C0F30112D6F81C5106EB82164D1B8B
:1018D000D6F8447161F30807C6F844714CEA021166
:1018E00041EA841101F00F02C1F3011101EB420141
:1018F000864A03F5C07352F821104A08C90753F805
:1019000022C0C90E40F2FF148C402CEA040CAD1E1C
:10191000C5F3080404FA01F14CEA010143F822106E
:10192000F0BC00F0F7BF830900F00F01C0F3011213
:10193000744850F82300C36901EB410100EB8110AA
:1019400013F0100FD0F8281100EB8210C9B2D0F8B4
:101950004401C0F3080008BF0021401A0004000C35
:1019600008BF0120704703091B0203EB810101F14D
:10197000405101F500310007C00E0B6802FA00F07B
:101980001843086070470209120202EB810101F15D
:10199000405101F5003100070968C00E21FA00F03E
:1019A00000F00300704770B4DFF858C1820900F0FE
:1019B0000F035CF8225003EB4303C0F301104FF414
:1019C000A87605EB831506EB80160C68AC515CF825
:1019D0002220496802EB83124FF4AA7303EB8010B4
:1019E000115070BC704730B4DFF818C1820900F0A4
:1019F0000F035CF8224003EB4303C0F301104FF4E4
:101A0000A87504EB831405EB801564590C605CF831
:101A1000222002EB83124FF4AA7303EB80101058BC
:101A2000486030BC7047374910B4820983B051F820
:101A3000222000F00F0101EB410102EB8111C0F304
:101A400001104FF4A87202EB80128A5800924FF4F2
:101A5000AA7202EB801008580190002001466A46E5
:101A600001234FEA511C01F01F0452F82CC003FA65
:101A700004F41CEA040F18BF401C491C2629F0D3AB
:101A800003B010BC704730B4002210F00F0F06D026
:101A900000F00F02C0F3011303EB4202521E194B78
:101AA00080094FF4866553F8204005EBC205D1F854
:101AB00000C044F805C053F8200040F2344303EB63
:101AC000C2024968815030BC704710B4002210F047
:101AD0000F0F06D000F00F02C0F3011303EB420218
:101AE000521E084B80094FF4866453F820C004EB63
:101AF000C2045CF804C0C1F800C009E00008AF2FC0
:101B00000050004024510200A08601002C51020028
:101B100053F8200040F2344303EBC202805848607F
:101B200010BC7047FE48C06870470022FD49830919
:101B300051F82310CB6913F0080F0ED000F00F02FC
:101B400002EB420201EB8211C0F301104FF4A272CA
:101B500002EB80100858C0F3023210467047DFF8DD
:101B6000C4C310B482095CF82230DC6944F0080474
:101B7000DC615CF8223000F00F0202EB420203EB62
:101B80008212C0F301134FF4A27000EB83101358BC
:101B900061F30E33135010BC70470022E1498309F2
:101BA00051F82310CB6913F0080F0ED000F00F028C
:101BB00002EB420201EB8211C0F301104FF4A47258
:101BC00002EB80100858C0F3024210467047D54A15
:101BD000830952F8233000F00F0202EB420203EBBC
:101BE0008212C0F301134FF4A47000EB831013585A
:101BF00061F3124313507047042988BF70472DE9E1
:101C0000F0030027DFF81C83840958F82430DA69D0
:101C1000C0F3011C12F0080F4FF4A27202EB8C1CEF
:101C200000F00F0202EB420205D003EB821555F8DB
:101C30000C50C5F30237DD69002615F0080F4FF48C
:101C4000A475C0F3011005EB801504D003EB8210DE
:101C50004059C0F30246C91B7018042803DD081A56
:101C6000011D042003E00028BCBF014400207E18B1
:101C7000D96941F00801D96158F8241001EB8211AB
:101C800051F80C3066F30E3341F80C3058F824103C
:101C900001EB82114A5960F312424A51BDE8F00348
:101CA0007047A04A8009002952F82000816914BFBA
:101CB00041F0080121F008018161704799498009CC
:101CC00051F820008069C0F3C0007047954A800930
:101CD000002952F82000816914BF41F0020121F06F
:101CE0000201816170478F49800951F820008069A5
:101CF000C0F3400070478B4B820953F8223000F04C
:101D00000F0202EB420203EB8212C0F301104FF408
:101D1000A67303EB801011507047824A810952F874
:101D2000212000F00F0101EB410102EB8111C0F312
:101D300001104FF4A67202EB801008587047784AE1
:101D400010B4D2F8400110F0010F0BD0D2F84C01C2
:101D5000D2F844110028C1F302311EBF0029C0434C
:101D6000C2F84C010123002003EB43018C0104EB7A
:101D7000801101F1804101F5A041D1F8402112F01C
:101D8000010F0CD0D1F84C21D1F844C1002ACCF37A
:101D9000023C1EBFBCF1000FD243C1F84C21401CD5
:101DA0000228E4D35B1C032BDDD310BC7047002258
:101DB0005C49830951F82310CB6913F0080F0ED04A
:101DC00000F00F0202EB420201EB8211C0F301109E
:101DD0004FF4A47202EB80100858C0F30052104672
:101DE0007047012070472DE9F04F82B0022ADDE9EB
:101DF0000B49DDF8348026BF921E4FEA520C4FF09B
:101E0000000C022B26BF9A1E53080023464AA2FB51
:101E100004421709B8F1000F14BF012200220192F9
:101E2000B9F1020F16BF5FEA09024FF0010B4FF044
:101E3000000B82093B4C00F00F0606EB460554F8F8
:101E400022404FF4B27E04EB851AC0F301140EEB6E
:101E5000841ECDF800A05AF80EA061F35C6A6BF303
:101E6000186A05D167F3174A63F3CA1A6CF3C60AF6
:101E7000019969F3420A61F3000A0099DFF8A4901E
:101E800041F80EA059F822204FF4B471C0F3011AA2
:101E900001EB8A1102EB8512B8F1000F555814BFFF
:101EA00045F0800525F0800555500125B5EB901FC4
:101EB0001CBF02B0BDE8F08F04EB46001B4951F88F
:101EC0002020183111F8208006EB4600800100EB3D
:101ED000841000F1804000F5A040D0F8504914492A
:101EE000FF26A1FB02914908A1EB81094A44D200D7
:101EF0009640FFB297404FEA8802002003F00F039C
:101F000093400CF00F0C4FF00F090CFA02FC09FA89
:101F100002F24FEA810805FA00F121422DD009E0D2
:101F20000050004024510200CDCCCCCC44510200E2
:101F3000ABAAAAAA08EBC00101F1804101F5A041BA
:101F4000D1F8809C29EA060949EA0709C1F8809C72
:101F5000810001F1804101F5A041D1F8A89C29EA56
:101F6000020949EA0309C1F8A89CD1F8BC9C29EAF6
:101F7000020949EA0C09C1F8BC9C401C0528CAD3D7
:101F800002B0BDE8F08F2DE9F04F84B0DDE90EA876
:101F9000DDF834C0B8F1000F14BF0124002402940E
:101FA000BAF1020F16BF5FEA0A044FF0010B4FF0BF
:101FB000000B8409FA4D00F00F0707EB470655F8B0
:101FC00024504FF4B27E05EB8619C0F301150EEBD9
:101FD000851ECDE9009E59F80E9061F35C696BF3A4
:101FE00018697CD002996AF3420961F30009DDE9BE
:101FF000001BDFF8ACA341F80B904FF4B4715AF812
:102000002440C0F3011901EB891104EB8614B8F1E7
:10201000000F665814BF46F0800626F08006665012
:102020000126B6EB901F1CBF04B0BDE8F08F05EB96
:102030004700DC49DC4C51F8201054F8204007EBF5
:102040004700800100EB851000F1804000F5A040C2
:10205000D0F85009D54DFF26A5FB01756D08A5EBFD
:10206000850739444FEAC109009006FA09FE0020AD
:102070000F21A400A1404FEA850B012505FA00F6C7
:10208000009D2E4241D01568022D26BFAD1E6D0861
:102090000025121D1E68022E26BFB61E76080026D9
:1020A0005CF8048BC24FA7FB08874FEA07580BEB7D
:1020B000C00707F1804707F5A047D7F880AC4FEA83
:1020C00018682AEA0E0A08FA09F84AEA0808C7F85E
:1020D000808C870007F1804707F5A04700E01AE0F1
:1020E000D7F8A88C06F00F0628EA0108A64048EAAF
:1020F0000606C7F8A86CD7F8BC6C05F00F058E4330
:10210000A5403543C7F8BC5C1B1D401C0528B4D353
:1021100004B0BDE8F08F1168022926BF891E490866
:102120000021D3F800B0BBF1020F26BFABF1020BC8
:102130004FEA5B0B4FF0000BCDF80CB0DFF870B23C
:10214000DCF800E0ABFB0EEB4FEA1B1B6BF317490F
:10215000DDF80CB06BF3CA1961F3C60942E72DE94B
:10216000F00F8F4D84094FF4B27955F8244000F0F8
:102170000F0505EB450604EB8614C0F3011609EBC9
:102180008619DDE9098754F80940DDF820C0C4F359
:10219000436BC4F3410904F0010A002918BFC1F8D8
:1021A00000B0B8F1000F18BFC8F80090002F18BF9A
:1021B000C7F800A081094FF001085BD0B8EB901F71
:1021C0001CBFBDE8F00F704706EB45007549764C23
:1021D00051F8201054F820B005EB4500800100EBC9
:1021E000861000F1804000F5A040D0F850A96F4C57
:1021F0000020A4FB015464084FEA8409A4EB840482
:102200002144CF004FEA8B0508FA00F111EA0A0FCA
:102210002AD009EBC00101F1804101F5A041D1F8BC
:10222000801CF940840004F1804404F5A044C9B244
:10223000D4F8A86CD4F8BC4CEE4006F00F06EC4085
:1022400004F00F041AB16400A41C42F8044B1BB143
:102250007400A41C43F8044BBCF1000F04D001EB44
:10226000810189004CF8041B401C0528CCD3BDE833
:10227000F00F7047C4F30740C4F3C311C4F3C304A1
:1022800012B16400A41C146013B14900891C1960C8
:10229000BCF1000F04BFBDE8F00F704700EB8000F9
:1022A0008000CCF80000BDE8F00F70473C4A800980
:1022B000002952F82000C16914BF41F0200121F02B
:1022C0002001C16170473649800951F82000C0697A
:1022D000C0F34010704730B490B000224FF48045F6
:1022E000EC466C1001E0082A05D2531C03EB830373
:1022F000B5FBF3F304E0D31F03EB8303B4FBF3F369
:102300005B1A48BF5B424CF82230521C102AEAD3B9
:102310000023009C01215CF82120A242BCBF14468E
:102320000B46491C1029F6D300F00F0202EB4201C4
:102330004FEA8111C0F3011C01EB8C1101F18041C6
:10234000840901F5A04135D00124B4EB901F1EBFD4
:1023500010B030BC70470CEB4200D1F850C9124AA3
:1023600012F820200F25910000208D4003F00F026D
:102370008A4004FA00F111EA0C0F0AD0810001F141
:10238000804101F5A041D1F8D03CAB431343C1F8E3
:10239000D03C401C0528ECD310B030BC7047000086
:1023A00024510200445102005C510200ABAAAAAAC7
:1023B000CDCCCCCCD1F8680163F30300C1F868013F
:1023C000EAE781091CBF0020704700F00F0101EB14
:1023D00041018901C0F3011001EB801000F1804040
:1023E00000F5A040D0F8680100F00F00082834BFC5
:1023F000401CC01F00EB800034BF4FF480414FF4FD
:102400000051B1FBF0F070472DE9F0074FF00109E2
:1024100091B0B9EB901F1EBF11B0BDE8F007704737
:1024200000F00F02C0F3011000EB420302EB420286
:10243000920102EB8010DFF83CC500F1804000F50E
:10244000A0405CF82330D0F850A90F204FEA830851
:102450004FF0000C4FF480466C4600FA08F709FA7A
:102460000CF010EA0A0F36D051F8043B00204FF46C
:10247000005501E0082805D2421C02EB8202B6FB9F
:10248000F2F204E0C21F02EB8202B5FBF2F2D21AB2
:1024900048BF524244F82020401C1028EAD30025AF
:1024A000009B012054F820209A42BCBF13460546E9
:1024B000401C1028F6D34FEA8C0000F1804000F554
:1024C000A040D0F8D02C05F00F03BA4303FA08F36C
:1024D0001A43C0F8D02C0CF1010CBCF1050FBED38F
:1024E00011B0BDE8F007704770B40124B4EB901F41
:1024F0001CBF70BC704700F00F02C0F3011000EB6E
:10250000420302EB42029201DFF868C402EB801042
:1025100000F1804000F5A0405CF82330D0F850C9AD
:1025200000209B004FF480456E1004FA00F212EA7E
:102530000C0F16D0820002F1804202F5A042D2F8C0
:10254000D02CDA4002F00F02082A34BF521CD21FEE
:1025500002EB820234BFB5FBF2F2B6FBF2F241F8B5
:10256000042B401C0528E0D370BC704700F00F021C
:10257000C0F3011303EB4202FE4B8009A3F1380CB8
:1025800053F822205CF8200001230029D0F8101411
:1025900003FA02F214BF11439143C0F810147047BC
:1025A00000F00F01C0F3011303EB4101F14B0022D6
:1025B000800913F82110383B53F82000D0F810049C
:1025C000012303FA01F1084218BF012210467047A7
:1025D00070B410F0300F14BF012300238609DFF818
:1025E00098C300F00F024FEA90104FF49A7502EB77
:1025F00042025CF820004FF0010405EB821214D077
:1026000085584FEA430C5B420CEB43039B1C04FAD6
:1026100003F35B1E03FA0CF4194025EA040401FAE3
:102620000CF12143815070BC70470029815804FA95
:1026300003F31ABF194381509943F3D070BC70471C
:1026400030B410F0300118BF012184094FEA901313
:10265000C94D00F00F0000EB40004FF49A7202EBFE
:10266000801255F823004FF0010C0CD0825848001E
:10267000C240494200EB4100801C0CFA00F0401EB1
:1026800030BC1040704780580CFA01F1084018BF68
:10269000012030BC7047B84B800953F820C0CCF8FB
:1026A000741053F820C01168CCF8781053F820004B
:1026B0005168C1677047B1490028D1F8AC0014BF18
:1026C00040F0020020F00200C1F8AC007047AB49B6
:1026D0000028D1F8AC0014BF40F0010020F0010048
:1026E000C1F8AC007047A548D0F8E000A4490968DB
:1026F00008437047A149C1F8E400A2490860704747
:102700009E48D0F89800A049096840EA4100704707
:1027100070B44FEA0075860900F00F044FEAD565E2
:10272000C0F30110A5F1020502F0010C05444FEAC7
:102730008C334FEA520012D001EB41017CB305EB20
:102740004502D20002EB8C3202EB810101EB8000EA
:1027500000F1405000F5C030406A70BC704701EB9A
:10276000410202EB01117CB198226A4302EB8C32E8
:1027700002EB810101EB800000F1405000F5803058
:10278000D0F88C0E70BC704703EB810101EB800028
:1027900000F1405000F58030006870BC7047FFE7E2
:1027A00003EB810101EB800000F1405000F5C030E7
:1027B000006870BC7047F0B44FEA0076870900F0FB
:1027C0000F044FEAD666C0F30110A6F1020602F02C
:1027D000010C06444FEA8C354FEA520012D001EB4F
:1027E00041017CB306EB4602D20002EB8C3202EBD5
:1027F000810101EB800000F1405000F5C0304362E0
:10280000F0BC704701EB410202EB01117CB1982250
:10281000724302EB8C3202EB810101EB800000F18C
:10282000405000F58030C0F88C3EF0BC704705EB9E
:10283000810101EB800000F1405000F58030036021
:10284000F0BC7047FFE705EB810101EB800000F170
:10285000405000F5C0300360F0BC7047830900F0C1
:102860000F02C0F301100CD0002A08BF474805D062
:10287000012A17D000280CBF4548464800EB81309C
:102880007047002A08BF4FF04050F7D0012A04D00B
:1028900000280CBF40484148F0E7002814BF4048DA
:1028A0004048EBE7002814BF3F484048E6E710B433
:1028B0004FEA007C840900F00F034FEADC6CC0F3A0
:1028C0000110ACF1020C604410D0002B08BF384856
:1028D0001CD000EB4000C00000EB813002EB420155
:1028E00000EB8100334910BC08447047002B08BF3F
:1028F00031480BD09823584300EB813002EB420162
:1029000001EB021100EB81002C49ECE710BC00EB5D
:10291000813070472DE9F0074FEA901C00F00F045A
:10292000154804EB440150F82C0000F5C07300EB8F
:102930008110D0F800014FF47A7280B2B2FBF0F14E
:1029400000FB1120002818BF01200D181C4F00208B
:1029500040F2FF1644EA001141EA8C1101F00F0227
:10296000C1F3011101EB420157F821104A08C907D0
:10297000C90E27E05C5102002451020000500040C3
:10298000E0580040E4580040985800400080003073
:10299000E4810030248300304C1800304C1D00309E
:1029A000CC0E0030CC09003064810030248000302F
:1029B0000080013024800130000001308C0E013095
:1029C0002C51020053F8228003EB820228FA01F80E
:1029D000D2F80CA0A8EB050906FA01F8C9F308091A
:1029E0002AEA080A09FA01F14AEA0109C2F80C9038
:1029F000D2F8189029EA080848EA01019161401CC0
:102A00000228A7D3BDE8F00770470000FDF778BFA4
:102A100010B5FDF775FF012818BF10BD0020FDF7A8
:102A200048FF21210020FDF771FF2121BDE8104062
:102A30000120FDF76BBF10B5FDF734FFFDF760FF18
:102A400001280AD10020FDF734FF21210020FDF7E5
:102A50005DFF21210120FDF759FF0121052001F033
:102A600022FE0121052001F01EFEF7490020887199
:102A700010BD10B54FF4066001F06BFEBDE81040CC
:102A80004FF4066001F056BEEF4A01461079002867
:102A900018BF0120002918BF0121117100215171B7
:102AA0007047E94A916A906208467047E6490020FB
:102AB000C870887048707047E3490020C8708870FB
:102AC0004870704710B5044601468422DF481CF068
:102AD00066FF04F18401BDE810408422DC481CF04C
:102AE0005EBF70B50007C00E0D46801E00EB4001B2
:102AF00001EB0014D7484FF4987200EBC40029464C
:102B00001CF04DFFD44805F5987100EBC400BDE8FA
:102B100070404FF498721CF042BFDFF840C348B1D8
:102B20004A424FF4806300EB810103EB820260466E
:102B30001CF035BF4FF4806160461CF035BF2DE9B5
:102B4000F04105460020FDF71FFFC54FDFF8148355
:102B50000446EDB14C2004FB00F2164629463846E7
:102B60001CF01DFF324605F5BE6140461CF017FF04
:102B700004EB440000EB041407EB84004C211CF030
:102B800013FF08EB8400BDE8F0414C211CF00CBFA2
:102B90004C21401C41430C4638461CF005FF2146A1
:102BA0004046BDE8F0411CF0FFBE10B5A64C2062C7
:102BB000FEF7B7F9FEF770F9A169A269C1F3072121
:102BC0006FF30F02A261A369C2B243EA0222A261BB
:102BD000022803D1A26942F00102A26181421ABF18
:102BE000E269002A10BD012918BF0021012818BF81
:102BF0000020814208BF10BDBDE8104010474FF0D3
:102C00004020816941F002018161016941F00301C5
:102C1000016100F0FCBF2DE9F0414FF04022054674
:102C200090690C4640F002019161106940F0030088
:102C3000106100F0ECFF0027002C7CD00020FDF795
:102C400038FE00202168FDF7FDFF40206168FDF798
:102C5000F9FF2846FFF7A9FF0020FDF7C6FE012671
:102C6000002832D0A068FFF76AFF7C48636953B13F
:102C7000E1694FF4806C4A420CEB820203EB810164
:102C80001CF08DFE1AE0784D4FF480611CF08CFE34
:102C90000020295600290EDB0A09120202EB8002ED
:102CA00002F1405202F500320907C90E136806FA14
:102CB00001F119431160401C2628EAD36B48A16931
:102CC00069B14FF400721CF06AFEE068A0B3012005
:102CD000FDF78BFEDFF87C815F4E28B108E04FF4F2
:102CE00000711CF061FEF0E71120FDF77EFE68B177
:102CF000E56840464FF4987229461CF050FE304675
:102D00004FF4987205F598711CF049FE0220FDF70A
:102D10006CFE18B91220FDF768FE68B1E5685448EA
:102D20004FF4987229461CF03AFE52484FF49872BC
:102D300005F5987101E017E001E01CF030FE41203C
:102D4000FDF753FE18B95120FDF74FFE60B124691D
:102D500054B1842221463D481CF021FE842204F116
:102D600084013B481CF01BFE3748C77087704770D2
:102D7000876201790021017147714FF4066001F00B
:102D8000E8FCBDE8F0414FF4066001F0D3BC10B59B
:102D90000020FDF78EFD00F02AFF2B48406B002835
:102DA00008BF10BD4FF04020016921F0030101610F
:102DB000816921F00201816110BD4FF4066001F0CC
:102DC000BEBC10B54FF4066001F0B9FCFDF798FDEC
:102DD00001280AD10020FDF76CFD21210020FDF71C
:102DE00095FD21210120FDF791FD2348D0F84013E6
:102DF00021F48031C0F840130020FDF75AFD00F0A7
:102E0000F6FE1148406B002808BF10BD4FF040206F
:102E1000016921F003010161816921F002018161F1
:102E200010BD10B501F090FC10F0600018BF01203B
:102E300010BD054AD169D061084670470248006A52
:102E40007047014880697047348400100080013069
:102E500000C001308C0E01308C4E01300000023079
:102E6000000001300040013038890010004002307D
:102E7000BC0F0130BC4F01300050004072B6F94920
:102E80008A6922EA0000886162B67047F5480078D6
:102E9000002818BF0120704770B5FDF731FD0028EC
:102EA00018BF70BD0024EF4DEC70AC706C70212128
:102EB0002046FDF72BFD21210120FDF727FD2C7079
:102EC000BDE870400120FDF7F4BC70B50446FDF785
:102ED00017FD002818BF70BD0021E24DE970A970F0
:102EE000697021210020FDF711FD21210120FDF74E
:102EF0000DFD022C3CBF0120FDF718FD01202870BC
:102F00006C62BDE87040FDF7D4BC10B5FDF7F8FC6D
:102F1000002818BF10BD0020D24CE070A070607077
:102F20002121FDF7F3FC21210120FDF7EFFC012019
:102F3000FDF7FCFC012020706062BDE81040FDF749
:102F4000B8BC0020FDF7B5BC10B5C64C0020A07081
:102F500060702121FDF7DAFC21210120FDF7D6FC6C
:102F6000207800281CBF0120FDF7E0FC0120BDE80F
:102F70001040FDF79EBCBB49C8627047B948C06AA3
:102F80007047B84908637047B648006B704770B522
:102F9000B44C0546E06A421CE262216B39B1B2FBD7
:102FA000F1F001FB1020002808BFFEF7C8FE2078D2
:102FB00050B1606A10B1606A401E6062606A0028A9
:102FC00004BF0020FDF775FC20212846FDF79EFC7C
:102FD000A16A00291CBF28468847FDF75DFF02282B
:102FE00015D1A148D0F8481311F0010F0FD0D0F837
:102FF000481341F00101C0F84813D0F8481321F0FC
:103000000101C0F84813A06940F00200A061974890
:10301000016841F02001016070BD0020B7E7012088
:10302000B5E710B5FFF75FFB0446FFF763FB904879
:10303000044208BF10BD8B48816941F004018161E1
:103040000E2101EAD43104F001020A43816962F3DE
:103050001F4181618548016841F02001016010BD78
:10306000002818BF01207F49486370478148704796
:10307000814870477B48806B70477A48C179427AB3
:10308000914214BFC06B006C70477648006C70476B
:103090002DE9F04F0025DFF8DC918DB009F14C04EB
:1030A000AC466F1E09F8057004F805C06D1C262D8E
:1030B000F8DB0025002805DD565D09F805606D1C6C
:1030C000A842F9DC00220126CDF804C06D46CDF8F7
:1030D00000C0002821DD19F902B0BBF1000F19DB97
:1030E000BBF1140FA8BFABF1140B04DABBF10A0F4C
:1030F000A8BF0BF1120BBBF1260F0BD24FEA5B18E6
:103100000BF01F0B55F828A006FA0BFB4AEA0B0A36
:1031100045F828A0521C8242DDDB002292460DF1C8
:1031200008084FEA521B02F01F0E55F82BB006FAA2
:103130000EFE1BEA0E0F1ABF08F802A00AF1010AE0
:1031400008F80270521C262AEBDB4FF0000A002818
:1031500016DD19F90A20002A0EDB142AA8BF143A3A
:1031600002DA0A2AA8BF1232262A3ABF18F8022029
:1031700004F80A2004F80A700AF1010A8245E8DB23
:10318000DFF8E09000220028C9F838C009DD14F902
:1031900002A0924502D0C9F8384002E0521C824297
:1031A000F5DB364A0020A2F17204A2F1260A275468
:1031B0000AF800C002F800C0401C2628F7DB0020F7
:1031C000002906DD13F800B004F800B0401C81426D
:1031D000F8DC0020CDF804C0CDF800C0002913DDD4
:1031E0002356002B0DDB262B0BD24FEA531B03F08B
:1031F0001F0355F82BE006FA03F34EEA030345F8E4
:103200002B30401C8842EBDB002003464FEA501B6A
:1032100000F01F0E55F82BB006FA0EFE1BEA0E0F3B
:103220001ABF08F800305B1C08F80070401C262804
:10323000ECDB002000290ADD2356002B04DB262BC3
:103240003CBF18F803301354401C8842F4DB0020C4
:10325000C9F840C0002916DD1356834210D0C9F8C2
:10326000402010E034840010005000408C84001096
:1032700001000700388900105E890010D089001015
:10328000401C8842E8DB11F0010F18BF252015D043
:10329000420900F01F0355F8222006FA03F31A42F0
:1032A0000AD1420900F01F0055F8223006FA00F05A
:1032B000184345F8220001E0401EE9D500200246EF
:1032C000430900F01F0B55F8233006FA0BFB13EAF5
:1032D0000B0F1ABF08F80020521C08F80070401CA1
:1032E0002628EDDB002000290BDD2256002A05DB15
:1032F000262A3CBF18F802200AF80020401C884209
:10330000F3DB0020C9F83CC00029DCBF0DB0BDE8EC
:10331000F08F1AF90020824204D0C9F83CA00DB009
:10332000BDE8F08F401C8842F3DB0DB0BDE8F08FA4
:10333000FE487047FE48406C70472DE9F001FB4C99
:10334000002282B0551E04F1050CA5540CF8025061
:10335000521C052AF9DB00228B5CA354521C052A5F
:10336000FADB00230127194600280AD96256002AF1
:1033700004DB052A3CBF07FA02F21343491C8142D1
:10338000F4D300210A466E4607FA01F818EA030F43
:103390001ABF7254521C7554491C0529F4DB0021D4
:1033A00000280AD96256002A04DB052A3CBFB25C19
:1033B0000CF80120491C8142F4D3DD4B0021002888
:1033C00059649EBF02B0BDE8F00170471CF90120AE
:1033D0008A4205D0C3F844C002B0BDE8F00170478E
:1033E000491C8142F2D302B0BDE8F001704740F2BF
:1033F000DB114843CF4901EB80007047CE49C0EB59
:10340000001001EBC0007047DFF824C3012B8CF8DB
:1034100007008CF8081003D9401C20F00100114669
:103420008CF809008CF80A1000FB01F24FF6FF71CE
:1034300001EA4202ACF8122001EA4000ACF81400A4
:103440007047BB48807A7047B948407A7047B84A9D
:10345000D07211737047B648007B7047B448C07A89
:103460007047B64A107051707047B449085C704795
:103470002DE9F047DFF8B892044699F804000028D7
:1034800004BF99F801001CF094FA99F80300002891
:1034900034D04FF00008D9F820004746464645464C
:1034A00010F0070F1CBFDFF88C8210F0020F05D060
:1034B000B9F812109F4A21F001018F1810F0F00F97
:1034C00018BF9D4E10F4774F18BF9D4DD9F82C00B2
:1034D0002060FDF7E4FC10F0010F06D0FEF720F9A4
:1034E000022828BF99F8020000D20020E760C4E952
:1034F0000108C4E904650120BDE8F08799F80400DB
:1035000000281CBF99F80500002819D099F803007D
:10351000B0B904F02DF904460BF009F9052C08BFE9
:1035200002280DD1002089F80500D9F848000128AB
:1035300006D199F805200023212107200FF01AFB5E
:103540000020BDE8F0877A480021C17041717047C2
:1035500070B505460020FDF717FA4C2100FB01F27B
:103560001446784928461CF01AFA224605F5BE6032
:10357000BDE8704074491CF012BAF0B583B0002069
:10358000FDF702FA044669460020FEF72CFA0022F5
:10359000002C2AD96E464FF0010C4FF6F07502EB65
:1035A0004200002100EB02104B0901F01F0756F802
:1035B00023300CFA07F73B4211D0CB075B0C03EB2F
:1035C00080034F0803EB870303F1405303F5803377
:1035D0001B889BB2AB4202D903B00020F0BD491C4E
:1035E0002629E1D3521CA242D9D303B00120F0BD59
:1035F00070B50007C00E0D46801E00EB400101EBC8
:10360000001452484FF4987200EBC40128461CF095
:10361000C6F94F484FF4987200EBC40105F5987055
:10362000BDE870401CF0BBB92DE9F04F074600071C
:10363000C00E83B0801E002527F03F0BE9464FF0F7
:1036400001084FF6F0760290384665F31F1040EA05
:103650000B0000F0FF0A5046FDF7C7F900283DD0E7
:103660005046FEF762FA08FA00F4022C88BF0224E2
:1036700069465046FEF7B7F90022002C2ED9029871
:103680009821284400FB01FA02EB4200002100EBE4
:10369000021C480901F01F0359F8200008FA03F33F
:1036A000184215D001F001000AEB803000EB8C00CD
:1036B0004B0800EB830000F1405000F58030B0F87B
:1036C0008C0E80B2B04203D903B00020BDE8F08F69
:1036D000491C2629DDD3521CA242D5D36D1C022DD4
:1036E000B2D303B00120BDE8F08F10B504468422A8
:1036F00018491CF054F904F18400BDE810408422FC
:1037000015491CF04CB92DE9F04F83B00020029010
:103710004020FDF76AF9E9464FF001084FF6F077CF
:10372000F0B34020FDF730F9044617E08084001024
:10373000348400109C2101100829011041840010DC
:10374000F829011000000130004001308C0E0130DA
:103750008C4E01300080013000C0013069464020AD
:10376000FEF741F90022002C22D9002102EB420C85
:10377000480959F8203001F01F0008FA00F0034210
:1037800010D0C807400C00EB8C004B0800EB830006
:1037900000F1405000F5C030008880B2B84200E02F
:1037A00006E056D8491C0529E2D3521CA242DCD3BC
:1037B00001267000A0F1020B002546EA0510C0B2F8
:1037C00040F0400A5046FDF710F9C8B35046FEF7E6
:1037D000ACF908FA00F4022C88BF0224694650466E
:1037E000FEF701F90021002C2AD90BEB050000EBB4
:1037F00040004FEAC00A01EB4102002002EB011C2D
:10380000420900F01F0359F8222008FA03F31A4274
:1038100010D000F001020AEB823202EB8C02430866
:1038200002EB830202F1405202F5C032928C92B256
:10383000BA420ED8401C0528E2D3491CA142DAD373
:103840006D1C022DB9D3701CC6B2022EB1D9012055
:103850000290029803B0BDE8F08F2DE9F0410026F8
:103860008E4D00280C4645D000F00F01C0F301102A
:1038700001290EBF00210229BDE8F081022828BFDE
:10388000BDE8F0810F18FDF73BF85FEA00081CBFA8
:103890000020FDF70EF800239820474303EB430078
:1038A000002200EB031C02F0010007EB80305108FE
:1038B00000EB8C0000EB810000F1405000F58030FF
:1038C000521CC0F88C4E262AEDD35B1C022BE5D38C
:1038D000B8F1000F08BFBDE8F081AE706E70212115
:1038E0000020FDF713F821210120FDF70FF82878BB
:1038F000A0B330E0FDF704F807001CBF0020FCF780
:10390000D8FF002303EB4300002200EB0310D10794
:10391000490C4FEA520C01EB800101EB8C0C0CF1CD
:10392000405C0CF5803C521CCCF80040262AEED3BB
:103930005B1C312BE6D3002F08BFBDE8F081AE70D1
:103940006E7021210020FCF7E1FF21210120FCF70E
:10395000DDFF287810B10120FCF7E8FFBDE8F04159
:103960000120FCF7A6BF10B5FDF7DDFF4B4908822B
:1039700010BD4A4B10B4E02101EA102C1B8AC1B2E1
:10398000C0F30422994288BF194664246143B1FB05
:10399000F3F102EBC20303EB021201EB82014FF4DD
:1039A0007A723F4B0CFB02F2A3FB02329208521CCC
:1039B000520810F4803F08BF494210F4003F14BF82
:1039C0008818881A00B210BC704710B5354C4FF4F7
:1039D000806135481BF0E8FF0020012321560029B3
:1039E00010DB0A09120202EB800202F1405202F5DA
:1039F00000320907C90ED2F800C003FA01F14CEAFF
:103A000001011160401C2628E8D310BD10B5254CDB
:103A10004FF4806124481BF0C7FF0020012321568A
:103A2000002910DB0A09120202EB800202F1405267
:103A300002F500320907C90ED2F800C003FA01F1FD
:103A40004CEA01011160401C2628E8D341F2EC0148
:103A500016481BF0A9FFBDE8104041F2EC011448E4
:103A60001BF0A2BF0D4810B5006A12490840FFF7CD
:103A70009CF84FF480610C481BF096FF40F68C6177
:103A80000A481BF091FF40F68C6109481BF08CFF3F
:103A9000BDE810400020FDF75CBD0000348400103C
:103AA000ABAAAAAA38890010000002300000013039
:103AB000004001300100FF0082B04FF4FA62009034
:103AC00013E000BF00BF00BF00BF00BF00BF00BFCA
:103AD00000BF00BF00BF00BF00BF00BF00BF00BFEE
:103AE00000BF0198411E0191EBD20098411E009148
:103AF00028BF0192F5D202B070472DE9F0410027AE
:103B0000594D0126002808BF2E701FD001282F70A4
:103B100018BF6F701AD04FF04028D8F8100040F04E
:103B20000400C8F810002978504C002914BF49F649
:103B300008304F48E06014BF4E484FF0BB70A060A3
:103B40004D48006830F0FF0206D101E06E70E2E7F8
:103B5000E26860F30302E26089B1A06840F01800F7
:103B6000A0600120FFF7A8FFA06840F48050A0608B
:103B70000120FFF7A1FFA06840F40070A0600120C1
:103B8000FFF79AFF687870B1E06840F02000E060CD
:103B9000A06820F40070A0600120FFF78DFFE068AE
:103BA00040F01000E060D4F8B00040F00100C4F82C
:103BB000B0000120FFF780FFE6674FF4E06020616E
:103BC000C4F888702878002818BFC4F89460E068AA
:103BD00020F03000E060A06820F49050A060D8F899
:103BE000100020F00400C8F81000BDE8F0811F4864
:103BF000C16821F03001C160816821F49051816079
:103C00004FF04020016921F00401016170474FF03D
:103C10004020016941F004010161134913480A7809
:103C20003AB1826842F018028260826842F490528F
:103C30008260497819B1C16841F03001C160D0F8A3
:103C4000B01041F00101C0F8B01070470B49C0F34B
:103C5000080041EA002005490864704703494FF015
:103C600020400864704700008A8400100060004013
:103C700005F4010020009B00D0FE0400130000A00A
:103C80004FF040200021016302224263826B02F068
:103C90003C0242F001028263026922F003020261E7
:103CA000026A22F001020262424A136843F00103F1
:103CB00013603C2282612822C2613F4801603F4874
:103CC00001603F4850F88C2F42F4805202603D4A18
:103CD000481E10603C480160704710B501F0E7FADB
:103CE00039480468002C08BF30BFFAD000210160B9
:103CF00001F0E1FA204610BD10B501F0D8FA324BC0
:103D000000204FF0402101221C6824B1186001F00E
:103D1000D2FA204610BD72B6D1F838C00CF03C0C77
:103D2000C1F838C00A6320BF0863D1F838C00CF06E
:103D30003C0C4CF0010CC1F838C062B6BFF36F8F79
:103D4000BFF34F8FE0E710B504460F2000F0E6FC0C
:103D50000F2000F0CBFC1D490A6842EA040008600D
:103D600010BD1A490A6822EA000008607047164A26
:103D7000516850600846704770B51448006814498F
:103D80000968114D00EA0104696800291CBF20463A
:103D9000884714F0100F05D0094850F88C1F41F4E3
:103DA0008051016007480460286840F400402860A2
:103DB00070BD00000048004024480040104800400A
:103DC00000300040144800408C8400101C48004023
:103DD00018480040704770470022B2EBD10F26D23E
:103DE0000368B3F1FF3F04BF4368B3F1FF3F17D14E
:103DF0008368B3F1FF3F04BFC368B3F1FF3F0FD146
:103E00000369B3F1FF3F04BF4369B3F1FF3F07D13B
:103E10008369B3F1FF3F04BFC369B3F1FF3F01D032
:103E2000002070472030521CB2EBD10FD8D30120B4
:103E3000704710B40023B3EBD20F30D2D0F800C0DB
:103E40000C68A44522D1D0F804C04C68A4451DD10B
:103E5000D0F808C08C68A44518D1D0F80CC0CC6844
:103E6000A44513D1D0F810C00C69A4450ED1D0F8E8
:103E700014C04C69A44509D1D0F818C08C69A44578
:103E800004D1D0F81CC0CC69A44502D010BC0020DD
:103E90007047203020315B1CB3EBD20FCED310BC67
:103EA000012070472DE9F041054601F008FA002095
:103EB00021264FF4825784464FF4E0221660C5F85D
:103EC00000C0116841F004011160116811F0040F85
:103ED000FBD1176080232C460021D4F80080B8F174
:103EE000FF3F04BFD4F80480B8F1FF3F1DD1D4F8E0
:103EF0000880B8F1FF3F04BFD4F80C80B8F1FF3F51
:103F000013D1D4F81080B8F1FF3F04BFD4F8148067
:103F1000B8F1FF3F09D1D4F81880B8F1FF3F04BFD2
:103F2000D4F81C80B8F1FF3F08D0C2F800C0401C94
:103F3000C0B20828C2D30220BDE8F081491C203459
:103F4000B1EBD30FC9D3C2F800C00120BDE8F081A6
:103F50002DE9F041054601F0B2F90020092684461A
:103F60004FF4E0231E60C5F800C0196841F0040159
:103F70001960196811F0040FFBD12C464FF48062D0
:103F800000212768B7F1FF3F04BF6768B7F1FF3F23
:103F900017D1A768B7F1FF3F04BFE768B7F1FF3F4C
:103FA0000FD12769B7F1FF3F04BF6769B7F1FF3F42
:103FB00007D1A769B7F1FF3F04BFE769B7F1FF3F3A
:103FC00008D0C3F800C0401CC0B20328CAD30220E6
:103FD000BDE8F081491C2034B1EBD20FD1D3C3F836
:103FE00000C00120BDE8F0812DE9F05F88468146E0
:103FF00004274FF07F0A4FF0020B4FF4E02601F048
:104000005EF94946424653464FF0060CC6F800B0EA
:1040100052F8040B41F8040BC6F800C0306810F0E9
:10402000040FFBD15B1EF1D2002030604C464546A8
:104030001F20D4E900C3D4E90221D5F800E0E64509
:1040400004BFD5F804C09C4505D1AB68934204BFBA
:10405000EA688A4208D07F1E03D34846FFF722FF52
:10406000CDE70220BDE8F09F10341035401EE0D2AD
:104070000120BDE8F09F70B50D46044601F01FF920
:104080004FF40072214628461BF089FC012070BDC8
:104090002DE9F0410546C005ADF5007D14460E46FC
:1040A000C00D25D0A8466FF308086F4601F007F948
:1040B0004FF40072414638461BF071FCC5F308000E
:1040C000C0F50077A74288BF274668443A46314684
:1040D0001BF074FC4046FFF7E5FE022844D0694619
:1040E0004046FFF781FF022843D03D443E44E41B95
:1040F000B4F5007F19D34FF40072314668461BF0C7
:104100005DFC2846FFF7CEFE02282DD069462846E2
:10411000FFF76AFF02282CD0A4F5007405F500759E
:1041200006F50076B4F5007FE5D2C4B16F4601F024
:10413000C6F84FF40072294638461BF030FC224680
:10414000314668461BF03AFC2846FFF7ABFE0228D2
:104150000AD069462846FFF747FF022809D00DF527
:10416000007D0120BDE8F0810DF5007D0A20BDE84D
:10417000F0810DF5007D0B20BDE8F08130B4304DAD
:104180002A68002101244FF0030C04FA01F30342D2
:1041900004D04B000CFA03F39A431A43491C0C2930
:1041A000F3DB2A6030BC7047F0B4254D2A6800214B
:1041B00001244FF0030C022604FA01F3034206D057
:1041C0004B000CFA03F7BA4306FA03F31A43491CEF
:1041D0000C29F1DB2A60F0BC70472DE9F0010022C8
:1041E0000125184C0F2605FA02F3034217D0D31706
:1041F00002EB537C4FEAEC0304EB83031F682CF0C3
:10420000070CA2EB0C0C4FEA8C0C06FA0CF827EA10
:10421000080701FA0CFC47EA0C0CC3F800C0521C5A
:104220000C2AE0DB06498A6A22EA00008862BDE8BF
:10423000F001704702498A6A1043886270477047EC
:104240000010004020100040704772B64FF0402030
:10425000816941F040018161C16941F04001C16162
:1042600062B6016A41F00101016270474FF04020DF
:10427000016A21F00101016272B6C16921F04001B9
:10428000C161816921F04001816162B6704710B55A
:1042900072B64FF04024A06940F04000A061E06990
:1042A00040F04000E06162B6206A40F00100206208
:1042B000D54843F63F71C160002181638164C0F835
:1042C000D01003210A2000F0EEF90A2000F00EFAC7
:1042D000206A20F00100206272B6E06920F0400000
:1042E000E061A06920F04000A06162B610BDC64A3E
:1042F00010605160484390607047C34A106051603D
:10430000484310F0010F18BF401C90607047BE4931
:10431000C1F8D0007047BC49002818BF012088644C
:104320007047B9498863C86840F00200C8607047A8
:10433000DFF8D4C2CCF82000CCF82410CCF8282028
:10434000CCF82C300120CCF83000DCF8340010F030
:10435000010F05D020BFDCF8340010F0010FF9D1B7
:1043600010F0020018BF4FF0FF307047A648C16838
:1043700021F00201C1607047A348C16841F001010A
:10438000C1607047A04B186259629A62012018649C
:10439000586C10F0010F04D020BF586C10F0010FC2
:1043A000FAD110F0060018BF4FF0FF307047964862
:1043B000C16821F00101C16070479348C16841F0B4
:1043C0000401C1607047904A818911670168516298
:1043D000416891628168D16201211165516D11F0CE
:1043E000010F04D020BF516D11F0010FFAD1536FAE
:1043F0000361936F1B148382936FC3F30523C382FE
:10440000936F03F03F030383D36F1B144383D36F76
:10441000C3F305238383D36F03F03F03C383D2F831
:104420008030C3F309430384D2F88020C2F3090229
:10443000428411F0020018BF4FF0FF3070477248FD
:10444000C16821F00401C16070476F48C16841F044
:104450000401C1607047027C017B02F03F0241EA27
:104460000241694A916501685162416891628168BF
:10447000D16201211165516D11F0010F04D020BFEF
:10448000516D11F0010FFAD1D36D8382D36D1B0CE6
:10449000C382136E0383136E1B0C4383536E83839B
:1044A000526EC2F30E42C28311F0020018BF4FF0E9
:1044B000FF3070475448C16821F00401C160704763
:1044C0005148C16841F00801C1607047DFF838C148
:1044D000CCF89820CCF82000CCF82430CCF8281068
:1044E0000120CCF89000DCF8940010F0010F05D00A
:1044F00020BFDCF8940010F0010FF9D110F0060095
:1045000018BF4FF0FF3070473F48C16821F00801E5
:10451000C160704701684FEA31423B49C1F8BC2095
:104520004068C1F8C000C86840F02000C86070470B
:1045300001684FEA31423449C1F8BC208088C1F893
:10454000C000C86840F02000C86070472E4B186259
:104550005A6299620120C3F8B400D3F8B80010F091
:10456000010F05D020BFD3F8B80010F0010FF9D12A
:1045700010F0060018BF4FF0FF307047224A10625B
:1045800051620120C2F8B000D2F8B80010F0010F5B
:1045900005D020BFD2F8B80010F0010FF9D110F00B
:1045A000060018BF4FF0FF3070471748C16821F070
:1045B0002001C16070471448C16841F01001C1601A
:1045C0007047A3F1050C104BC3F8A8C018625A62DB
:1045D00099620120C3F8A000D3F8A40010F0010FE5
:1045E00005D020BFD3F8A40010F0010FF9D110F0CE
:1045F000060018BF4FF0FF3070470348C16821F034
:104600001001C1607047000000900040234810B5C1
:10461000022140F8501F012101611021416241F245
:104620000601416100218161042181639021416380
:10463000416B41F001014163C16B21F40021C16371
:10464000C16B41F40051C163C16B21F00101C16331
:10465000C16B41F00101C1634FF4817101610161DE
:10466000032000F043F80021032000F01CF8002094
:1046700010BD10B5032000F045F808484FF48071D4
:104680000166002101661021816702214165002039
:1046900010BD034900200870704700000030004042
:1046A00094840010704700F00303DA004FF0FF0C11
:1046B0000CFA02F24FF0050C0CEBC30301FA03F302
:1046C00000F00C0101F1E021002807DAD1F8140D07
:1046D00090431A401043C1F8140D7047D1F80004FC
:1046E00090431A401043C1F80004704700F01F01C6
:1046F000012202FA01F14009800000F1E020C0F837
:104700000011704700F01F01012202FA01F1400977
:10471000800000F1E020C0F88011704700F01F0118
:10472000012202FA01F14009800000F1E020C0F806
:10473000801270474FF0E021C1F8000170474FF040
:10474000E021C1F8800170474FF0E020D0F800016F
:1047500070474FF0E021C1F88002704708480068B8
:104760007047074A1168106008467047044A12688B
:1047700000F1100352F8230042F8231070470000A4
:1047800008ED00E002210C20FFF78DBF72B64FF05C
:104790004020816941F480518161C16941F48051B7
:1047A000C16162B6704772B64FF04020816921F452
:1047B00080518161C16921F48051C16162B6704745
:1047C000AA4881B0016F11F4007FFBD1816E11F016
:1047D000010F1CBFD0F88410009104D0D0F88410D1
:1047E000009A9142FAD0016F11F4007F04BF4CF29D
:1047F0007101016642F24131816601B070479B4907
:1048000081B04FF40D528A660A6FCA66012898BFBC
:10481000012005D9401EB0F5803F28BF4FF6FF703C
:1048200082B24FF05C5040EA022048664FF01140DF
:10483000C1F88000086F10F4007FFBD1886E10F083
:10484000010F1CBFD1F88400009004D0D1F884007F
:10485000009A9042FAD0086F10F4007F04BF4CF227
:104860007100086642F24130886601B070477F48A7
:1048700081B0016F11F4007FFBD1816E11F0010F47
:104880001CBFD0F88410009104D0D0F88410009A96
:104890009142FAD04FF40D51816601B070474FF04C
:1048A0004020806910F4805008BF70476F48806EC8
:1048B00000F0010070476D48406EC0F30F20704754
:1048C0006A48D0F88400704710B50C20FFF726FF27
:1048D0000C20FFF70BFF65490220486710BD6349B4
:1048E00010B5032088670C20FFF70CFFBDE81040CF
:1048F0000C20FFF713BF5E4A11681060084670472E
:104900005A4810B5016FC16659480068002818BFA1
:1049100080475848016841F48051016010BD5448F7
:104920004068704710B572B64FF04020816941F47D
:1049300080518161C16941F48051C16162B6032037
:104940004A4988670C20FFF7DDFE0C20FFF7E6FEE2
:1049500000F03CF9484B0420C3F888004FF6FF7084
:10496000C3F88C0072B66033FFF749FF4FF4007054
:10497000186062B610BDF8B572B63C48016F11F40C
:10498000007FFBD1816E11F0010F1CBFD0F88410A5
:10499000009104D0D0F88410009A9142FAD04FF4DC
:1049A0000D51816634494FF400320A6662B6D1F87F
:1049B00004124FF04025002946D02D4C4FF6FF73CE
:1049C000591AA1602A6BD5F834C002F00F020CF01E
:1049D0000F0C6244121D01FA02F2A2F54341DFF806
:1049E0009CC0513961452FD2D0F88400191AE1607A
:1049F000B1F5803F28D2224B4FF0000CA1FB0307FA
:104A00000CFB037301FB0C3163461AF0DCFF401C06
:104A100040082061B0F57A7F38BF4FF47A70194BA7
:104A20009968002908BF98605A681A609968C3E9B4
:104A300001108A4215D9824205D9814201D96160AB
:104A400002E0606000E0626000F0D0F872B6A86931
:104A500020F48050A861E86920F48050E86162B6D3
:104A6000F8BD8242EFD88142EBD8E8E700C00040B1
:104A7000988400108C84001000A000404F62250034
:104A800000E1F505F88900104FF04020816941F000
:104A9000040181610C48016841F404710160001F48
:104AA000016821F004010160016841F0100101601A
:104AB0007047064908607047BFF34F8F05490448A7
:104AC0000860BFF34F8FFEE714ED00E008ED00E053
:104AD0000400FA050CED00E04FF04020816941F040
:104AE000040181610B48016841F0010101600B493B
:104AF0000948C1F8C40070470948006842F27001D3
:104B00000840704708480749016008498160002152
:104B1000C1607047144C004001005FA0006000407D
:104B200000440040A0800A0000100040508A590054
:104B3000022824BF00207047DC4B53F8202043F8A4
:104B400020101046704770B5D94C206FD74D10F02B
:104B5000010F05D00120E0662868002818BF8047B3
:104B6000206F10F0020F08BF70BD0220E066686879
:104B7000002808BF70BDBDE87040004710B572B690
:104B80004FF04020816941F080018161C16941F0AD
:104B90008001C16162B60222C5490A6501230B6624
:104BA0000323CB664A6572B6816921F08001816179
:104BB000C16921F08001C16162B60920FFF796FD4D
:104BC0000221BDE810400920FFF76DBD72B64FF01D
:104BD0004020816941F080018161C16941F080011B
:104BE000C16162B60220B24908657047B04902202F
:104BF000486572B64FF04020816921F080018161E3
:104C0000C16921F08001C16162B670474FF0402058
:104C10008069C0F3C0107047A548016F11F4007F90
:104C200014BF4FF440714FF480710166704710B5A6
:104C30009F4CE06F10F0020F4FF0010018BF0320EF
:104C4000606700F06DF94FF040210A6B496B02F08C
:104C50000F02D04001F00F01C8400521B0FBF1F078
:104C60004FF405710009C4F880109249A1FB0010AF
:104C70004009C4F88400206F10F4007F14BF4FF483
:104C800040704FF48070206610BD8948016F11F4A8
:104C9000807F14BF4FF440714FF40071016670477C
:104CA000834B30B4DA6F12F0010F14BF03220222DB
:104CB0005A6700EB4005C5EBC010C1EBC0004FF4D4
:104CC000FA744C43C0EB001000EB40007A4904EB4F
:104CD000C000A1FB00104FF0402100220C6B4FF0F0
:104CE000020CC008496B04F00F0401F00F012144CD
:104CF000C8400521B0FBF1F0B0F5803F05D3511C51
:104D00004008CAB2B0F5803FF9D242EA0C2141F026
:104D10001001C3F88810C3F88C00186F10F4807F5E
:104D200014BF4FF440704FF40070186630BC7047E9
:104D30005F48016F11F4003F14BF4FF440314FF44E
:104D40008031016670475A48016F11F4803F14BFEB
:104D50004FF440314FF40031016670475448006F02
:104D6000C0F3002070475248006FC0F340207047E6
:104D70004FF040218969C1F3C011002904BF002010
:104D800070474B4900280CBFD1F80002D1F804024B
:104D900070474FF040239A69C2F3C012002A04BF43
:104DA00000207047424A00280CBFD2F88000D2F899
:104DB0008800C0F30A200CBFD2F88020D2F88820E7
:104DC00002F00F02D3F830C05B6B0CF00F0C03F055
:104DD0000F0363441A449140012202EB4000484310
:104DE0003449A1FB001000097047344901200870C4
:104DF000704770B432224FF0402351431A6BD3F8FE
:104E000034C002F00F020CF00F0C6244121DD140AE
:104E100008BF012104D0B1F5803F28BF4FF6FF71D4
:104E20009A69C2F3C012002A1CBF70BC704772B6E8
:104E30009A6942F080029A61DA6942F08002DA618E
:104E400062B602241A4A1465250415664FF0040C54
:104E5000C2F888C0C2F88C10DFF864C0C2F86CC019
:104E60005467184902283CBF104E46F82010002114
:104E7000124801704FF400711166017819B920BF12
:104E800001780029FBD01566C2F878C0C2F86CC062
:104E9000546572B6986920F080009861D86920F056
:104EA0008000D86162B670BC70470000B08400100A
:104EB00000A000401F85EB51CDCCCCCCAC840010C1
:104EC000020002029B6D00004FF0E021002088618B
:104ED000086127494860704710B54FF0E0246061D1
:104EE0000020A0610221401EFFF7DDFB07202061AA
:104EF000BDE8104009F090BA10B509F091FA4FF0F2
:104F0000E0210020086110BD10B509F089FA4FF0CA
:104F1000E0210020086116480188491C018010BD6D
:104F20001348806870472DE9F041114C0027054671
:104F30002780A0684FF47A71B0FBF1F04FF0E026C3
:104F4000401E7061B7610221C81EFFF7ACFB07204D
:104F5000306109F061FA2188A942FCD309F060FAB6
:104F60003761BDE8F08103494843014988607047D3
:104F7000B884001040420F004FF04020816921F4B6
:104F800000518161C16921F40051C1617047A84994
:104F90000A78824218BF062828BF7047A54AA64B48
:104FA00052F830C0C3F808C002EBC0025268DA60A1
:104FB000087070474FF04020816941F400518161D1
:104FC000C16941F40051C161704710B5012107204A
:104FD000FFF769FB4FF04020816941F40051816186
:104FE000C16941F40051C161934A002111609349A4
:104FF0005160DFF83CC200219CF800303BB10CF15D
:1050000010031C6894605B68D3608CF800108C49B6
:105010001161816921F400518161C16921F400515C
:10502000C16110BD824840687047834880697047FD
:105030004FF04020806910F4005008BF70477E4850
:10504000006900F0010070474FF04020806910F4C3
:10505000005F04D0784B186910F0010F01D10020D7
:10506000704710B472494FF6FE7000248A684AB146
:105070009A69D1F808C0624504D08C604C6010BCBD
:105080000120704700BF00BF00BF00BF00BF00BFCE
:1050900000BF00BF00BF00BF00BF00BF00BF00BF18
:1050A00000BF00BF00BF00BF00BF00BF00BF00BF08
:1050B00000BF00BF401E0028D8DC8C604C6010BCD4
:1050C000002070475A498860704759488068704787
:1050D0005948016941F001010161554901204860C9
:1050E00070475548016921F00101016150490020D4
:1050F000486070470021002808BF4FF0006103D0CE
:10510000022808BF4FF080614B48026922F04062DC
:1051100011430161704748490120096901F040616C
:10512000B1F1806F04BF02207047B1F1006F08BF7A
:10513000002070474048406970473D4800787047FC
:105140004FF04020806910F4005F38D03A4A10696F
:1051500010F0010F33D03648406801282FD09069F5
:105160006FF07F43984238BF00EB400C27D2516963
:10517000B1EB9C0F01D30120704700BF00BF00BFFF
:1051800000BF00BF00BF00BF00BF00BF00BF00BF27
:1051900000BF00BF00BF00BF00BF00BF00BF00BF17
:1051A00000BF00BF00BF00BF00BF00BF00BF00BF07
:1051B00000BF00BF00BF00BF00BF9842D7D3002090
:1051C000704710B50720FFF7A9FA0720FFF78EFAFE
:1051D0001948016941F01001016110BD164810B570
:1051E000016921F0100101610720FFF78BFABDE88A
:1051F00010400720FFF792BA0D4AD168D0600846E8
:10520000704738B50C4CE069E061094910F0020FB5
:105210001CBFA2698A60C96800291CBF00018847B9
:10522000E06900900748016841F08001016038BDE5
:10523000C4840010D484001000D00040D0121300A9
:10524000660F00158C840010704770B505464FF44A
:105250000D500406A0660320E066264860664CF206
:10526000710020662448C4F8800042F24630A066EF
:1052700002210020FFF717FA0020FFF737FA002D70
:1052800008BF70BDA06E42F241310843A06670BDF8
:10529000012110B5880781674FF40D518166002008
:1052A000FFF730FABDE810400020FFF737BA0120C1
:1052B00081074867704701208107886770474CF273
:1052C00071008107086670470C4A11681060084633
:1052D00070470A4808B5006818B18047002818BF11
:1052E00008BD4CF2710188070166016FC166006F4D
:1052F000009008BD075E5F3700AF2F910485001056
:10530000FE49002088717047FC488079704770B56D
:10531000FA4D00244FF4E4612C70AC70F8481AF098
:1053200043FB4FF4E461F7481AF03EFBEC60EC708D
:105330004C21F5481AF038FB4C21F4481AF034FBA4
:105340002C717421F2481AF02FFB7421F1481AF0E5
:105350002BFBF1482C616C71C0F8E042C0F8E442CC
:10536000C0F8E842C0F8EC42C0F8F042C0F8F4429D
:10537000C0F8F842C0F8FC42C0F80043C0F804434B
:10538000C0F80843C0F80C43C0F81043C0F81443F9
:10539000C0F81843C0F81C43C0F82043C0F82443A9
:1053A000C0F82843C0F82C43C0F83043C0F8344359
:1053B000C0F83843C0F83C436C6170BDCF48C0783A
:1053C000002818BF01207047CC484079002818BF3A
:1053D00001207047C9480079002818BF0120704794
:1053E000C6488078002818BF012070470021CA48AD
:1053F000C0F82013C0F82413C0F82813C0F82C13E9
:10540000C0F83013C0F83413C0F83813C0F83C1398
:105410007047C248704770B5C14A05461078517848
:105420004218520014462946BC481AF0C7FA2246D0
:105430002946BC481AF0C2FAB0480121417181796D
:1054400041F00801817170BDAC4840697047B048B7
:10545000704770B5B44DB54E044601462A78307891
:10546000AB4B1044420018461AF0A8FA2A7830785C
:10547000A84B10444200214618461AF09FFA9F4854
:1054800001210171817941F00401817170BD9B4856
:10549000006970479A4870472DE9F041974F804660
:1054A0003878002814BFA248A248057814BFA24843
:1054B000A248047805FB04F6FEF7C7FE21462846FD
:1054C000FEF715FF8E4943468E4A0846FEF730FF29
:1054D000FEF7CCFE720041468A481AF06FFA0120AE
:1054E000B870B87940F00100B8710120BDE8F081D2
:1054F0002DE9F047814D044601462878DFF800C2C7
:10550000DFF82C82DFF82C928B4E8C4F002815BFD1
:1055100098F8002099F8002033783B7802FB03F0DC
:105520004FEA400260461AF049FA2878DFF8D4C101
:105530002146002815BF98F8002099F800203378FC
:105540003B7802FB03F04FEA400260461AF036FA5D
:105550000120A870A87940F00100A871BDE8F0878B
:105560006648C068704770B5754C0546014622789C
:10557000654852001AF022FA227829465200634800
:105580001AF01CFA5D480121C170817941F00201D5
:10559000817170BD2DE9F04FADF26C7DDFF85C914B
:1055A0000120CDF84C0799F80200CDF8480799F88A
:1055B0000300CDF8440799F80400CDF8400799F8A6
:1055C0000500CDF83C0702F0D3F88046FDF71EFA3F
:1055D000CDF86407FDF75AFCCDF86007FBF7B4FF80
:1055E000CDF85C07FBF75BFC0446FBF755FC064671
:1055F000FDF70EFAFCF74EF808300009CDF8500719
:1056000099F801000025002804BF0420C9F81C00F7
:1056100014D002F0C5F80746B8F1020F18D009F00F
:10562000BDF902280CBF09200720C9F81C00062F6D
:1056300004BF0220C9F81C0089F80150FBF72FFCB9
:1056400010F0010F10D002F0DEF93C2806D00BE07C
:1056500015F004FA1E21C9F81C10E8E7FFF7E8FC72
:10566000002818BFFFF76CFD4FF0010B022E13D17D
:10567000B8F1020F05D0B8F1050F08BF052007D01B
:105680000AE0DDF850074FF47A71484390FBF1F0DF
:10569000C9F81C0089F801B0D9F81C000428BCBF67
:1056A0000420C9F81C0099F80100B9F81C10000288
:1056B00040EA014040F001020023912107200DF053
:1056C00059FA14F0010F51D1B8F1020F4ED0002059
:1056D000FBF73FFFFDF719FC1AF07AF900202F467F
:1056E000CDF8380707F03FFE012845D00DF5E460FE
:1056F000FDF7BEFE002800F0C88223E008850010F8
:10570000302A0110048A0010649F0010B09F00101E
:1057100050310110FC9F0010049E0010E4A0001006
:105720005485001004A1001051850010528500100E
:105730004F8500104C850010508500104D850010DD
:10574000538500100DF5E46008F03EFCD9F81C000C
:10575000C01E8542CABF874201240024DDF82C0701
:10576000002849D0DDF8440758B145E0FDF794FB27
:105770000020CDF84C07AFE70120CDF8380700F046
:105780006EBA6846DDF82C171AF027F98246ACB1DC
:10579000FB4E514630784200FA481AF00FF9307843
:1057A00051464200F8481AF009F989F803B099F80F
:1057B000060040F0020089F806001DE0FEF745FDF6
:1057C000EF4E01213078FEF792FDEF4A5346A2F1E9
:1057D0004C010846FEF7ACFDFEF748FD3078514617
:1057E0004200E9481AF0EAF889F803B099F806008F
:1057F00040F0020089F80600DDF8280700287CD078
:10580000DDF84807002878D199F80000DDF828670E
:10581000F0BBD9F80CA0BAF1000F24D0DB48007817
:10582000CDF85807DA480078CDF85407FEF70DFD9B
:10583000DDF85417DDF85807FEF75FFD3146524694
:105840000846FEF79FFDFEF711FDD24800780228BA
:1058500004BF504607F0E0FFCE480078092804BF97
:10586000304607F0D9FFCC480078012816D9DFF878
:1058700024A39AF80000042804BF304607F0CCFFA8
:10588000314668461AF0AEF806469AF8000000E085
:1058900004E0052804BF304607F0BEFF74B3BF48DC
:1058A00099F800203146002A0CBFBD4AB74A127849
:1058B00014BFB74BBB4B1B7802FB03F24FEA42020B
:1058C0001AF07CF899F80000B74B3146002814BF55
:1058D000AE48B348007814BFAD4AB24A127800FB14
:1058E00002F04FEA400218461AF068F889F802B050
:1058F00099F8060040F0010001E03BE002E089F881
:10590000060030E0CDF8546799F80000002814BF75
:105910009E48A34890F800A014BF9D48A14806786F
:105920000AFB06F0CDF85807FEF78FFC31465046CB
:10593000FEF7DDFC99499C4A0846DDF85437FEF72E
:10594000F7FCFEF793FCDDF85807DDF8541742002A
:1059500095481AF033F889F802B099F8060040F03B
:10596000010089F806008B480078032804BF8B48A3
:1059700007F052FFDDF8300700287CD0DDF8400743
:10598000002878D199F80000DDF8306748BBD9F8D5
:1059900010A0BAF1000F24D0844801788448007820
:1059A0000844401C4008019002200090FEF74DFC86
:1059B000DDE90010FEF7A1FC314652460846FEF72D
:1059C000E1FCFEF753FC7B480078022804BF5046F8
:1059D00008F0C1F877480078092804BF304608F07D
:1059E000BAF8FCB17448714ADFF8C4A131461378A3
:1059F0009AF800201A44520019F0E0FF6B489AF818
:105A000000206E4B0078314610444200184619F0D1
:105A1000D5FF89F804B099F8060040F0040089F831
:105A2000060021E06148B2460178614800780E180E
:105A3000FEF70BFC701C40080221FEF758FC5E4983
:105A400053465E4A0846FEF773FCFEF70FFC7200F1
:105A500051465A4819F0B2FF89F804B099F8060087
:105A600040F0040089F8060052480078032804BF7B
:105A7000514808F070F8DDF8340700287ED0DDF8D2
:105A80003C0730B1B8F1020F18BFB8F1050F76D05E
:105A9000D8E099F80000DDF8346740BBD9F814A0CD
:105AA000BAF1000F23D04648017840780844401CE2
:105AB0004008019002200090FEF7C7FBDDE90010CE
:105AC000FEF71BFC314652460846FEF75BFCFEF72C
:105AD000CDFB3C480078022804BF504608F07DF911
:105AE00038480078092804BF304608F076F9344871
:105AF00001784078A4B10844440022463146324837
:105B000019F05CFF22463146304819F057FF89F8FA
:105B100005B099F8060040F0080089F806001DE07D
:105B20000C18FEF792FB601C40080221FEF7DFFB19
:105B3000264A3346A2F120010846FEF7F9FBFEF79C
:105B400095FB62003146214819F038FF89F805B00D
:105B500099F8060040F0080089F806001948007816
:105B6000032804BF184808F038F919F040FF184816
:105B70000021C0F82013C0F824132BE062E038E0C5
:105B800053850010649F0010B09F00104F850010D7
:105B900050850010DD8500104E850010302A011060
:105BA0004C8500104D850010048A001051850010AE
:105BB00052850010E285001050310110FC9F00104A
:105BC00054850010E7850010E4A0001004A1001027
:105BD000049E0010C0F82813C0F82C13C0F830132E
:105BE000C0F83413C0F83813C0F83C1301F02EF994
:105BF00028E00021DDF8340719F0FEFEDDF850073B
:105C0000782828BF15F0010F1CD0FB4C207A58B122
:105C10000820FAF7E2FDF94A1378527899184A00F9
:105C200001460820FAF778FBE07958B10720FAF727
:105C3000D4FDF24A01460720137852781A445200E4
:105C4000FAF76AFBFDF77FFCD9F81C006D1C7F1C7E
:105C50008542A8BF874211DBD9F8180070B1FCF764
:105C6000D7FEDDF85C07FBF774FCDDF8640788B14C
:105C7000DDF8600760B1FDF748F90BE0DDF84C078F
:105C8000002818BFFDF741F92CE501F0D7FD29E503
:105C9000FDF702F9DDF83807002804BF0420C9F831
:105CA0001C000FD0DDF8480789F80200DDF8440732
:105CB00089F80300DDF8400789F80400DDF83C07A7
:105CC00089F80500DDF83807B9F81C10000240EA31
:105CD00001420023912107200CF04CFFDDF838072A
:105CE0000DF26C7DBDE8F08F10B50024FDF7A6F82D
:105CF000C34910F0070F0AD08A78002A08BF012490
:105D000010F0020F03D0CA78002A08BF012410F057
:105D1000F00F03D00A79002A08BF012410F4774F4E
:105D200003D04879002808BF01240020002C08BFB8
:105D300010BD00200870BDE810402BE438B50546C2
:105D400040F20F3414F08AFE48B101F011FD022830
:105D500003D001F00DFD052801D140F20E3421469B
:105D6000284601F09AFE012804D1FFF7BDFF0090FC
:105D700002F08BF8A248817800291CBF0179002924
:105D800006D0417900291FBFC0780028012038BD06
:105D9000002038BDD2E7704770B5994C0025064603
:105DA000A570E5702571FAF763FD002818BF6571CD
:105DB000002E1CBF01206070BDE870400EF032B8AC
:105DC000002818BF01208E49C87170478C48C079DF
:105DD0007047002818BF0120894908727047884819
:105DE000007A704710B54FF4E461864819F0DCFD85
:105DF000BDE810404FF4E461834819F0D5BD8348F5
:105E000070478348017883480078484341007F48C1
:105E100019F0CABD70B506467D4804787D480578FE
:105E2000FEF713FA29462046FEF767FA754A31460F
:105E30007648FEF7A7FAFEF719FA77480078152892
:105E400018BF70BD7148BDE8704007F0E5BC002880
:105E500018BF01206A498870704710B5684C002847
:105E600004BFE06010BDDFF8B4C16D490B786D4927
:105E70000A7801465A435200604619F09FFD674870
:105E8000E06010BD10B54C21674819F08DFDBDE8EC
:105E900010404C21654819F087BD634870470028C1
:105EA00018BF01205649C870704710B5742160486A
:105EB00019F07AFDBDE8104074215E4819F074BDF8
:105EC000002818BF01204E490871704710B54C4C8E
:105ED000002804BF206110BD74220146564819F005
:105EE0006DFD5548206110BD54480021C0F8E012F6
:105EF000C0F8E412C0F8E812C0F8EC12C0F8F012D2
:105F0000C0F8F412C0F8F812C0F8FC12C0F8001380
:105F1000C0F80413C0F80813C0F80C13C0F810132D
:105F2000C0F81413C0F81813C0F81C13C0F82013DD
:105F3000C0F82413C0F82813C0F82C13C0F830138D
:105F4000C0F83413C0F83813C0F83C137047002869
:105F500018BF01202A494871704710B5284C002805
:105F600004BF606110BD25490A78497811444A0090
:105F70000146334819F022FD3148606110BD3148B7
:105F800070471E4A01462F48137852781A4452002F
:105F900019F014BD30B44FF0000C029C634304BFF1
:105FA00030BC704732F91C4051F82C502C4440F85A
:105FB0002C400CF1010C6345F4D830BC7047002B29
:105FC00008BF704710B4DDF804C0BCF1000F4FF0FB
:105FD000000C39D0002A9CBF10BC704751F82C40EF
:105FE00004EB5304B4FBF3F420F81C400CF1010C57
:105FF0006245F3D810BC7047BC880010548500106F
:1060000008850010302A0110048A00102491001025
:106010004C8500104D850010DD850010449800105F
:106020004F85001050850010649F0010B09F001035
:1060300050310110FC9F001070A00010049E001051
:1060400044A1001024A10010002A9CBF10BC70477E
:1060500051F82C4094FBF3F420F81C400CF1010C97
:106060006245F5D810BC704770B5FF4D0026044658
:10607000AE70EE702E71FAF7FBFB002818BF6E7140
:106080000DF0D0FE002C14BF012000202870BDE8C8
:106090007040FFF77FBA2DE9F04F99B04FF4E461FB
:1060A000F24819F081FC7421F14819F07DFCF149A6
:1060B0000020C1F84003C1F84403C1F84803C1F807
:1060C0004C03C1F85003C1F85403C1F85803C1F898
:1060D0005C0300900190029003900490059006905C
:1060E0000790089009900A900B900C900D900E90DC
:1060F0000F90FCF7A3FE0446FCF788FC1890FCF711
:10610000C5FE1790FBF720FA1690FCF781FCFAF712
:10611000C6FE10F0010F0BD001F075FC3C2807D132
:10612000FEF786FF20B10420FEF731FFFFF708F8E5
:106130000020FBF70EFAFCF7E8FE0026354607F0D4
:1061400012F9012876D010A8FDF792F9002870D036
:1061500010A807F039FF14F0070F1CD0C648DFF86D
:106160000CB3DDF8489090F80080C448DA46077810
:10617000FEF76BF80120FEF7CEF839464046FEF7F1
:10618000BCF8524649465846FEF7FCF80020FEF798
:10619000C2F8FEF76BF814F0F00F21D0B848DFF822
:1061A000D0A24FF002090178B6485746DDF850B04A
:1061B00000780844401C4FEA5008FEF746F80120DA
:1061C000FEF7A9F849464046FEF797F83A46594681
:1061D0005046FEF7D7F80020FEF79DF8FEF746F888
:1061E00014F4774F1CD0A8496B46022791F800C0E1
:1061F0004978159A6144491C4FEA510C0021184610
:106200005FEA4C0818BF0CFB07FC09D032F911708B
:1062100050F82180474443F82170491C8C45F5D83B
:10622000FDF791F9761C102E05D2FCF76EFE86E77D
:1062300000E00FE001250520FEF7A9FEFCF7E8FBD2
:106240001698FBF786F9189848B1179828B1FCF70B
:106250005CFE04E001F0F2FA71E7FCF71DFE002D90
:1062600055D1814E14F0070F18D083487F4B017829
:1062700082489C46007801FB00F210200021002A91
:106280000AD93CF9118008EB5008B8FBF0F723F865
:106290001170491C8A42F4D87448F06014F0F00F71
:1062A00019D07748DFF8C8C101787648634600788E
:1062B0000A184FF010004FF000010AD033F9118096
:1062C00008EB5008B8FBF0F72CF81170491C8A4213
:1062D000F4D86748306114F4774F18D06A48DFF873
:1062E000ACC16B46017840780A184FF010014FF0AE
:1062F00000000AD053F8204004EB5104B4FBF1F441
:106300002CF81040401C8242F4D86048706119B0EB
:106310002846BDE8F08F012070474FF47B3070476E
:106320004FF47B3000687047034600205A6A2C2ADD
:1063300088BF2C220021B1EB920F28BF704753F881
:1063400021C0491C6044B1EB920FF8D3704701683B
:10635000A1F53B42BB3A13D1016AB1F5807F0FD959
:10636000436A2C2B88BF2C230021B1EB930F09D259
:1063700050F821C0491C6244B1EB930FF8D30AB125
:1063800000207047012070474FF47B310A68A2F566
:106390003B43BB3B0AD0052849D03EDC012844D012
:1063A00002281CBF0328042841D03EE0CB7B0022FA
:1063B000012B08BF0122052804BFC87A704710DCF2
:1063C000012804BF08797047022804BF087A704783
:1063D000032804BF487A7047042804BF887A7047AE
:1063E00023E0142808D015280BD016280FD0172822
:1063F00004BF1846704718E0002A1CBF087B70478E
:1064000003E0002A1CBF487B70472D207047002AFC
:106410001CBF887B704728207047142818BF152898
:10642000F3D01628F7D0172801D0FF20704700209E
:1064300070472DE9F047ADF5007D00244FF4007161
:10644000684619F0B1FAFF20A04660F307082D2036
:10645000254660F3070560F30F254FF47B374BF6B5
:10646000BB36282014E00000088500104498001076
:1064700070A00010049E00104F8500105085001081
:1064800051850010528500105485001044A1001061
:1064900060F3174564F31F6540F201194FF02C0AB1
:1064A000FF224FF40071684619F0ABFACDE90245BE
:1064B000049405940694CDE90749CDE909A4CDE9F2
:1064C00000683846FDF7EEFC69463846FDF78CFD5E
:1064D000012818BF00200DF5007DBDE8F0872DE9EB
:1064E000F047ADF50C7D894605461F4690464FF0B6
:1064F000000A4FF400716846949E19F055FA4FF067
:10650000000CCDF800C24FF47B34CDF804C2CDF8B6
:1065100008C2CDF80CC2CDF810C2CDF814C2CDF827
:1065200018C2CDF81CC2CDF820C2CDF824C2CDF8D7
:1065300028C22068A0F53B41BB3906D0FFF779FFA0
:106540000DF50C7D5046BDE8F087D4E901120DF53C
:10655000007AE3688AE80F0004F110010DF5047A6F
:106560000FC98AE80F00D4E90801A26A8A92CDE92E
:10657000880185988DF808928DF80982401C8DF865
:106580000A728DF804528DF80B628590002D19BFA8
:10659000581C87908698401C08BF869080AB8998CD
:1065A0000021CDF828C22C2894BF02462C220020BE
:1065B000B0EB920F06D253F820C0401C6144B0EB00
:1065C000920FF8D348428A90FF224FF40071684638
:1065D00019F017FA80AC94E80F008DE80F0084AC36
:1065E00094E80F0004AC84E80F00DDE988018A9A82
:1065F0004FF47B34CDE908010A922046FDF752FCA6
:1066000069462046FDF7F0FC012818BF00200DF573
:106610000C7DBDE8F0872DE9F041ADF50C7D0F460E
:10662000804616464FF40071684619F0BDF9002403
:1066300080944FF47B3581948294839484948594E0
:1066400086948794889489948A942868A0F53B411D
:10665000BB3917D1286AB0F5807F13D9686A2946FB
:10666000A4462C2888BF2C200023B3EB900F11D216
:1066700051F823205B1C9444B3EB900FF8D3BCF18A
:10668000000F07D0FFF7D5FE002804BF0DF50C7DE5
:10669000BDE8F0810FCD0DF5007C8CE80F000FCD2B
:1066A0000DF5047C8CE80F00D5E90001CDE98801E7
:1066B0008DF80C828DF80D728DF80E6201208DF828
:1066C0000F028998002180AB8A942C2894BF02463F
:1066D0002C220020B0EB920F06D253F820C0401CB1
:1066E0006144B0EB920FF8D348428A90FF224FF4F6
:1066F0000071684619F085F980AC94E80F008DE8C8
:106700000F0084AC94E80F0004AC84E80F00DDE9CE
:1067100088018A9A4FF47B34CDE908010A92204619
:10672000FDF7C0FB69462046FDF75EFC012818BF57
:1067300000200DF50C7DBDE8F0812DE9F04F884D6E
:10674000002783B06C423E461720FFF71DFE4FF432
:106750007B3284461068A0F53B41BB3916D1106AE4
:10676000B0F5807F12D9536A2C2B88BF2C230020D0
:10677000B0EB930F80F0EC8052F82080401C414435
:10678000B0EB930FF8D3002900F0E280FFF751FE41
:10679000002804BF03B0BDE8F08F1420FFF7F4FD1C
:1067A00002901520FFF7F0FD01901620FFF7ECFD99
:1067B00040B200901620FFF7E7FD40424FFA80F804
:1067C000FCF73CFBDFF89CB1824600208BF802000E
:1067D0008BF803008BF80400FAF74AF800281CBF76
:1067E00000208BF805000DF01DFB00208BF8000049
:1067F000FEF7D0FE1AF0F00F05D019F007F90128C6
:1068000008BF47F001071AF0070F7BD05648002653
:10681000574B90F800C05548B14601780029C8BFD1
:10682000ACF1010A1EDD0022BAF1000F16DD02F103
:10683000010B02FB01900BFB019B33F8100033F8B6
:106840001BB0A0EB0B0000B20028B8BF404200B262
:10685000B042C8BF86B2521C5245E8DB09F10109BB
:106860008945E0DB0198864288BF47F002074FF078
:106870000009CA46BCF1000FC8BFA1F1010B1CDD25
:106880000020BBF1000F14DD0AFB010233F812E017
:1068900003EB42025288AEEB020212B2002AB8BFEA
:1068A000524212B24A45C8BF1FFA82F9401C5845ED
:1068B000EADB0AF1010AE245E2DB0298814588BF82
:1068C00047F004074FF0000ABCF1000F13DD00226F
:1068D00000290CDD0AFB012033F91000A842C8BFD3
:1068E0000546A042B8BF0446521C8A42F2DB0AF1B8
:1068F000010AE245EBDB0098A84201DBA04501DD7F
:1069000047F00807B9F1FF0F88BF4FF0FF09FF2ECE
:1069100088BFFF267F2DC8BF7F2504DC15F1800FBF
:10692000B8BF6FF07F057F2CC8BF7F2404DC14F153
:10693000800FB8BF6FF07F04E0B20090EBB2F2B20C
:1069400009F0FF013846FFF7CAFD03B0BDE8F08F3C
:10695000BCF1000F18BFBCF1010F3FF41EAF15E7EB
:10696000F1D8FFFF088500104D8500104C85001000
:10697000302A0110FE4800787047FD484078704783
:10698000FB48002181710171017241727047F84921
:1069900020F07E4088617047F54880697047F44870
:1069A00040897047F24880897047F148B0F90E007D
:1069B00070472DE9F74F8EB000250195029503959C
:1069C000049517460C460595069507950895099573
:1069D000052A16BF062F1E26142614F03FF810F4C1
:1069E000817F18BF0F26324601A90E9819F013F8BF
:1069F000059800B22080BDF826106182BDF81E10F7
:106A00006181BDF82010A181BDF82210E181BDF89F
:106A100024102182BDF81810A180BDF81A10E18061
:106A2000BDF81C1021810028B8BF25808DF82850A2
:106A3000D048D14900788DF82A008DF8295009787E
:106A40008DF82B107142ADF83000ADF82E1080B2E9
:106A5000ADF80000ADF82C60DDE90A2321460E9860
:106A600000F007FC052F11D0E582A5822583A088C0
:106A7000002804BF4FF40040A0806089002804BFB4
:106A800047F6FF70608111B0BDE8F08FFEF702FDA0
:106A9000002118F0C5FF002800F0ED80DDE90A3084
:106AA000C3F30722DDF830900E991E0EADF80050AA
:106AB000ADF83450904696426BD903F0FF0C1FFAA4
:106AC00089FE02FB0ECA1FFA8AF7BDF8005031F9A1
:106AD0001770BDF834C00FFA80FB5F45C4BF6D1C52
:106AE000ADB24FEA204B5F45BCBF0CF1010C1FFA61
:106AF0008CFCADF800500AF10107BFB2ADF834C00C
:106B000031F917700FFA80FA5745C4BF6D1CADB24A
:106B10004FEA204A5745BCBF0CF1010C1FFA8CFC10
:106B2000ADF80050C3F3074702FB0E7AAAF1020743
:106B3000BFB2ADF834C031F917700FFA80FB5F4572
:106B4000C4BF6D1CADB24FEA204B5F45BCBF0CF11A
:106B5000010C1FFA8CFCADF80050AAF10107BFB27E
:106B6000ADF834C031F917700FFA80FA5745C4BF39
:106B70006D1CADB24FEA204A5745BCBF0CF1010C69
:106B80001FFA8CFCADF80050521CADF834C0964290
:106B900093D8DAB2C3F3074B934566D91FFA89F548
:106BA00008FB05239FB2BDF800C031F91770BDF88E
:106BB00034300FFA80FA5745C4BF0CF1010C1FFAAC
:106BC0008CFC4FEA204A5745BCBF5B1C9BB2ADF81A
:106BD00000C008F1010707FB0527BFB2ADF834304C
:106BE00031F917700FFA80FA5745C4BF0CF1010C48
:106BF0001FFA8CFC4FEA204A5745BCBF5B1C9BB276
:106C0000ADF800C0B71E07FB0527BFB2ADF83430A2
:106C100031F917700FFA80FA5745C4BF0CF1010C17
:106C20001FFA8CFC4FEA204A5745BCBF5B1C9BB245
:106C3000ADF800C0771E07FB0525ADB2ADF83430C6
:106C400031F9155007B2BD42C4BF0CF1010C1FFA57
:106C50008CFC0714BD42BCBF5B1C9BB2ADF800C0EE
:106C6000521CADF83430934598D8BDF83400E0821A
:106C7000BDF80000A082B4F90210B4F90000DDF8FC
:106C800030800A9E0E9D4FF0000C81422CD158B3EB
:106C9000C6F30720421C300EA0F10209914520D90D
:106CA000F0B2C6F30741CF1E401C874216D91FFA27
:106CB00088F102FB01018BB235F9131005EB430398
:106CC000B3F902A0B1EB0A0348BFAAEB010319B262
:106CD0006145C8BF8C46401C8742E8D8521C91458C
:106CE000DED8A4F818C0C2E62083C0E6084318BF67
:106CF00070471F48816911F0807F08BF70470021ED
:106D000011701821418270472DE9FF5F1948002753
:106D1000DDF83CA005780E98119E8B46B9463C469E
:106D2000504533D006FB050E10983BF91EC006FBFC
:106D300005093BF91900BCEB000148BFA0EB0C01B1
:106D400006FB05A83BF91840B4EB000C48BFA0EBCC
:106D5000040C01EB0C0004B232F91EC032F9190028
:106D6000BCEB000148BFA0EB0C0132F918C005E0F4
:106D7000288500104C8500104D850010BCEB0002EA
:106D800048BFA0EB0C0288180FFA80F9012B37D00E
:106D90004FF0010818F049FEFE49002C0A7807DD83
:106DA000109906FB05113BF911101431282909D857
:106DB0000099B1F914103C2904DC0099B1F91610BE
:106DC0003C2926DD0E9902EB0A0C11448C4520D992
:106DD000129B139D13442A448B421CBF8D1A15F13C
:106DE000020F30F9115000EB4106B6F90260A5EB35
:106DF000060508D01E353C2D08D94FF0000808E0E4
:106E0000A1450CDD0AE00A35142DF6D8491C8C4545
:106E1000E2D8A14503DDB8F1000F00D0012704B08E
:106E20003846BDE8F09F70470021018041804FF453
:106E300000428280C1800181521E42818181C181D4
:106E4000018241828182C18201837047D249002040
:106E50008882D249086048608860C8607047CF481F
:106E60000021016141618161C16101624162816210
:106E7000C1627047CA487047CA4A0146C848137879
:106E800052781A44520018F099BD2DE9F04389B0A8
:106E90000C460546FFF773F80246C1480021A0F1F1
:106EA0001003002C88BF4FF0010C0AD95E5C2EB98C
:106EB00035F911603C2EA8BF03F801C0491CA1425E
:106EC000F4D3B54EB6F81480B8F1000F09D1002103
:106ED000002C06D935F811C020F811C0491C8C428D
:106EE000F8D80021EC46002C0AD935F8117030F89A
:106EF0001190A7EB09072CF81170491C8C42F4D8AB
:106F0000B8F11E0F24BF0021002C11D9585C0028B5
:106F10001CBF3CF9110010F1140F06DD142804DC2D
:106F200032F81170384422F81100491CA142EDD307
:106F30001046FFF726F8B08A42F2107188423ABF35
:106F4000401CB082B18297482946027840781044AC
:106F50004200934818F032FD09B0BDE8F0838E4836
:106F60008078002818BF0120704710B54FF4E46105
:106F70008D4818F019FD88490020887010BD2DE952
:106F8000F04F85B0DFF810B2DDE90E654FF0000874
:106F90008BF80080994692460F4604468BF8018094
:106FA0000CF051FF002851D100F0E2FB052872D00F
:106FB000CDE90065109804907C480A261E250078CB
:106FC0000290744800780390BBF910003228BBF897
:106FD0000A0004DA002808BF142605D100E018B919
:106FE0009BF80300012818D10CF068FFA8B901989C
:106FF000012812D00098012803D1BBF80C00C82842
:107000000BD8BBF80C00002804BFBBF80A0000280E
:1070100003D00CF0CBFF012809D113F0B3F998B1DC
:1070200013F0CCFD80B113F08BFD08280CD00CF0D0
:10703000F6FE01280BD0DDE902120020891811D0DC
:1070400037F91020AA4209DD8BF809804CE004983A
:107050000526012814BF3C254125ECE7401C80B2E1
:107060008142EDD8DBF8180010F4803F3CD09BF84B
:107070000900401CC0B28BF80900B04234D910207E
:10708000ABF8120001208BF807004FF0FF348BF8AB
:10709000098029E0FFE70CF0C2FE012824D10A276D
:1070A000002E2BDC012D29D0DBF8180010F4003F56
:1070B0001AD09BF80800401C8BF8080013F07EFDE6
:1070C00020B113F03DFD082818BF05279BF80800E4
:1070D000B84209D91120ABF8120001208BF8070043
:1070E0004FF0FF348BF8088013F0B8FC10F4807F69
:1070F00028D000F03DFB022803D023E08BF8088065
:10710000F2E7012718F096FC064613F08FFC0546BF
:1071100013F088FC024600210020002D08D900FB56
:10712000021336F913300F2B0CDB401CA842F6D3A8
:1071300047B1491C0129EFD927B101204FF0FF3495
:107140008BF807000FF09DFE032822D1CDF80080B8
:10715000CDF80480BBF81200ADF80000ADF8024095
:107160009BF80610BDF80400A92261F303009BF808
:10717000041061F307109BF8071061F309209BF8D6
:10718000051061F38B20ADF80400062168460FF06E
:107190008AFE0DE0528500102885001064A10010C1
:1071A00074A100105485001094A1001051850010A6
:1071B000B4F1FF3F29D0002C07BF9BF80500012840
:1071C00005B0BDE8F08F8BF8058001208BF800003A
:1071D0004FF4E461FE4818F0E7FB8BF8028000F002
:1071E000CDFA042833D0BAF1000F1CBF5046FEF789
:1071F0007FF9B9F1000F04BF05B0BDE8F08F484634
:1072000005B0BDE8F04FFEF724B99BF80700012850
:107210001CBF05B0BDE8F08F5046FEF7FBFD8BF8B4
:10722000078001208BF801004FF4E461E84818F072
:10723000BBFB8BF80280BAF1000F1CBF5046FEF773
:1072400057F9B9F1000FDAD105B0BDE8F08FBAF106
:10725000000F1CBF5046FEF71FF9B9F1000F04BF25
:1072600005B0BDE8F08F484605B0BDE8F04F18F016
:10727000E6BB2DE9F8070023DDF820C0C2F30724A0
:10728000ADF80030160E2546D3B21FFA8CFCC2F3BF
:107290000747A64259D904FB0C381FFA88F230F987
:1072A000129000EB4202B2F902A0B9EB0A0248BF09
:1072B000AAEB090212B2BDF900909145B8BFADF832
:1072C000002008F1010292B230F9129000EB420264
:1072D000B2F90280B9EB080248BFA8EB090212B26A
:1072E000BDF900809045B8BFADF8002004FB0C78D4
:1072F000A8F1030292B230F9129000EB4202B2F907
:1073000002A0B9EB0A0248BFAAEB090212B2BDF90A
:1073100000909145B8BFADF80020A8F1020292B2EA
:1073200030F9128000EB4202B2F90290B8EB090288
:1073300048BFA9EB080212B2BDF900809045B8BF62
:10734000ADF80020641CA642A5D8A7F10108984515
:1073500059D96F1CB41E761E05FB0C3292B230F95F
:10736000129000EB4202B2F902A0B9EB0A0248BF48
:10737000AAEB090212B2BDF900909145B8BFADF871
:10738000002007FB0C3292B230F9129000EB42025F
:10739000B2F902A0B9EB0A0248BFAAEB090212B285
:1073A000BDF900909145B8BFADF8002004FB0C3248
:1073B00092B230F9129000EB4202B2F902A0B9EB9E
:1073C0000A0248BFAAEB090212B2BDF9009091452A
:1073D000B8BFADF8002006FB0C3292B230F9129023
:1073E00000EB4202B2F902A0B9EB0A0248BFAAEBD5
:1073F000090212B2BDF900909145B8BFADF8002066
:107400005B1C9845A8D8BDF800004880BDE8F80787
:1074100070472DE9FF4FADF24C7D1C461646814664
:107420004FF01E0ADDF8948712F0ACFF012808BF68
:107430004FF03C0A13F012FB10F4817F08D0B4F92E
:10744000141001234846DDF8802718F0FDFA05E006
:1074500001224846DDF88017FFF7ABFA5D4F0024A4
:107460002546FC70FEF716F80094019402940394EC
:10747000049405940694079414226946089418F01D
:10748000CAFABDF91A0010F1140FB8BF012551480E
:10749000524FC5708078504D98B30CF0C0FC012855
:1074A0002FD012F06FFF01282BD12B783878CDF830
:1074B0003047CDF84447CDF82447CDF82847CDF8DC
:1074C0002C470090424ACDF83447CDF83847CDF8E4
:1074D0003C47CDF84047494601A818F0BAFA1422B3
:1074E0000DF2247101A818F096FABDF93807142896
:1074F00004DCBDF93E0710F1140F00DA012488F80E
:10750000004013F0ABFA10F4817F0ED1DDF8800754
:10751000B0F91200002808DC0CF081FC012804D02E
:107520002C48C078012840F0CE8013F097FA10F470
:10753000817F7CD047F6FF7003903878DDF8844770
:1075400001902F784FF000094D4613F087FA10F4A0
:10755000817F0CBFD0464FF00F0813F07FFA10F474
:10756000817F14BF6FF00E00CAF10000029013F08B
:1075700075FA10F4807F19BF4FF0010B4FF0220C09
:107580004FF0000BBC46002000900398804574DA51
:10759000DDE9002000286ED9ACF1010005900198CA
:1075A000401E0490ACF1020003905846E34538BFFA
:1075B00013B25CD202FB070A1FFA8AF136F91110E6
:1075C0000029B4BFC1F1000E8E46C64523DD07E099
:1075D00094A10010288500104C8500104D850010E6
:1075E00041450BDDB4F904E0714502DDA180E08086
:1075F000238109F101010FFA81F90CE0DDF808E0BF
:107600008E4508DDB4F90AE08E4502DD6181A08176
:10761000E381691C0DB20599884225D206EB4A0127
:1076200036F91AE0B1F902A0BEEB0A0100E040E031
:1076300048BFAAEB0E0109B2DDF800A052451CBFFD
:10764000DDF810A0524505D058451CBFDDF80CA050
:10765000504504D1B4F902A08A45B8BF6180B4F99D
:1076600000A08A45B8BF2180401C6045A2D3019884
:10767000521C824299D318E0FFE7DDE9000100299E
:1076800013D95B46E3450CD200FB073189B236F9CA
:10769000112002998A42BCBF691C0DB25B1C634574
:1076A000F2D30199401C8842EBD3A4F81090658274
:1076B00005E006223046DDF88417FFF77AF9DDF899
:1076C0008C1701200870DDF88407B0F9100000283D
:1076D00009DCDDF88407B0F91200002803DC194842
:1076E000C078012819D113F0B9F910F4817F09D0BD
:1076F000052347F6FF71DDF88827DDF8500718F0FD
:10770000A3F906E00522DDF88817DDF85007FFF73A
:1077100050F9DDF8901701200870DDF88007418AE4
:1077200008484181DDF88017098A8181DDF88017DA
:107730004989C181DDF88017898801820DF25C7D5D
:10774000BDE8F08F2885001010B50CF071F90CF031
:1077500059FA002010BD0000FD49C8707047FC4870
:10776000C0787047FA4908717047F9480079704746
:10777000F74800787047F64880787047F4480078FA
:10778000022805D005281CBF0020704706F0CFBF97
:107790000CF028BBEE4908707047ED4948707047FF
:1077A000EB484078704770B5E94E044682B03078B7
:1077B0000D46A0421ED00022612100928DF80010DB
:1077C0008DF801408DF8025001928DF803000228D7
:1077D0001FD0052814BF002006F0A9FF8DF8040073
:1077E00013F0BAF98DF80500072200236946104608
:1077F0000BF0F0F93078844218BF7070B570072C28
:1078000024BF02B070BDDFE804F016070B13160F9B
:1078100016000CF0E7FAE1E7284600F045FB0AE025
:1078200028460CF080FB06E0284606F075FF02E0D3
:1078300028460BF05BFA347002B070BDC5490020D9
:107840000968B1F8641011F4807F08BF7047FCF735
:1078500044BAC04900200968B1F8641011F4807F6F
:1078600008BF7047FCF748BABA4900200968B1F868
:10787000641011F4007F08BF704718F0EFB8B449E6
:10788000487900281CBF401E4871704770B5B24847
:107890000068AF4C10F0130F0FD010F0100F05D090
:1078A000AE4951F88C2F42F480520A60AC4908600E
:1078B0006079002804BF012060714FF0402080698A
:1078C000A44D10F0020F296806D1A648006810F0F8
:1078D000010F01D0607940B1B1F86410002011F4BB
:1078E000807F18BFFCF708FA07E0B1F864100020A9
:1078F00011F4806F18BF18F0B6F89B49084208BF12
:1079000070BD2968496E090C617170BD10B572B601
:10791000FDF7BEFCBDE81040FDF7CEB810B501285C
:1079200002D0022805D007E04FF47F30FCF7BAFA06
:1079300002E08F498D48086072B6FDF7A9FCBDE8EA
:107940001040FDF7B9B8824900288A7918BF012094
:107950008871C0B2824208BF70470022002818BF59
:1079600001220023012102200BF004B9784880791C
:10797000002818BF012070477548C07970472DE96D
:10798000F041734D00281CBF0020E87104D1E87954
:10799000002818BFBDE8F081764E37683020FCF72C
:1079A00003FC06213020FCF718FCF06A40F03000A0
:1079B000F062714C4FF07F0811E0FDF780FCF06A37
:1079C00010F0100F03D0E87940F07E00E871F06A03
:1079D00010F0200F03D0E87940F00100E871201E7C
:1079E000A4F1010403DDE87938EA0000E5D1302094
:1079F000FCF720FC3760BDE8F0815548806970478E
:107A000053484069704752484069002818BFC07AFF
:107A100070474F49C86170474D48C06970474C492D
:107A2000086270474A48006A7047494948620146FF
:107A3000484801290068008BC0F3072002D04F4955
:107A4000FBF77BBC4E49FBF778BC4148406A704766
:107A500010B5404C226802F5C073118A508A02F5B5
:107A6000A072FBF715FB20684549008BBDE810406C
:107A7000C0F30720FBF761BC10B507F0E0FB00285E
:107A800018BFC07A10BD10B507F0D9FB00280CBF95
:107A90004FF0FF3090F9240010BD2DE9F04F2C4F2E
:107AA0009BB00D46B86107F0CAFB7861002800F072
:107AB000BD8090F800C087F808C04178797283785B
:107AC00004460CF10100BB7200F0FE00F872E2788F
:107AD0003A73207978736079B87307F11006A0794A
:107AE0003070002070702078F8736046FBF78CFCD3
:107AF000B97B787BFBF7ABFC71783078FBF7B1FC96
:107B00006946204607F0B9FBE089FE6900281CBFE2
:107B10007043060B0E48B4F81290D0F820A0B9F1CB
:107B2000000F08BF4FF48059B4F81680B8F1000F69
:107B300008BF4FF48058678B002F08BF4FF4805761
:107B4000002015F0040F18BF052015F0080F19E0EC
:107B500044850010A88600101848004000300040FE
:107B600014480040144C004008001300AD2007B03A
:107B7000304C004000100040803801007451020079
:107B80007951020018BF40F0020015F0020F18BF33
:107B900040F0F00015F0010F18BF40F4774015F4E5
:107BA000807F18BF40F4803015F4007F18BF40F488
:107BB0007E00E16901EA0005009810900598129096
:107BC00007981390099811900A98149001981590AD
:107BD000A07A17900398169010A92846FBF71BF877
:107BE00015F0070F61D007F014F818B10146002016
:107BF000F9F7B0FD07F024F87043060B07F040F8E2
:107C00000AFB00F0000B4030C2090A20012101FAF2
:107C100000F3134201D1401EF9D5A0F1050A207BE3
:107C2000002818BFA0F1010B11D10CE09C4800689E
:107C3000B0F8640010F4807F18BFFCF75DF80020F6
:107C40001BB0BDE8F08F0020F9F76FFF8346607B23
:107C5000002814BF401EF9F7A0FF0BEB0A0105290D
:107C600005DDAAEB010101F1050A052104E0002967
:107C7000BCBFAAEB010A00218244BAF1050F05DD61
:107C8000AAF10500C6404FF0050A07E0BAF1000F5F
:107C900004DACAF1000086404FF0000A0020F9F72C
:107CA0005EFF51460020F9F792FF15F0F00F43D028
:107CB000207C70B115F0100F03D0411E0120F9F7A0
:107CC0004EFF15F0400F04D0207C411E0220F9F732
:107CD00046FF207D70B115F0200F03D0411E11200A
:107CE000F9F73DFF15F0800F04D0207D411E1220D2
:107CF000F9F735FF607C70B115F0100F03D0411E0D
:107D00000120F9F764FF15F0400F04D0607C411E9C
:107D10000220F9F75CFF607D70B115F0200F03D0F1
:107D2000411E1120F9F753FF15F0800F04D0607D3C
:107D3000411E1220F9F74BFF15F4774F78D0207EC3
:107D4000F0B115F4805F03D0411E4120F9F707FF21
:107D500015F4005F04D0207E411E5120F9F7FFFE8C
:107D600015F4804F04D0207E411E4220F9F7F7FE23
:107D700015F4004F04D0207E411E5220F9F7EFFE8B
:107D8000607EF0B115F4805F03D0411E4120F9F709
:107D90001EFF15F4005F04D0607E411E5120F9F7EC
:107DA00016FF15F4804F04D0607E411E4220F9F783
:107DB0000EFF15F4004F04D0607E411E5220F9F7EB
:107DC00006FFFBF7B5FA0246002019900123189030
:107DD0001156052906D2DDF860C003FA01F14CEA1C
:107DE00001011891401C0528F2DB15F4807F03D0B7
:107DF00018A94020F9F7D7FD15F4805F03D018A922
:107E00004120F9F7D0FD15F4005F03D018A95120E7
:107E1000F9F7C9FD15F4804F03D018A94220F9F7EE
:107E2000C2FD15F4004F03D018A95220F9F7BBFD8D
:107E3000E07A00281CBF0001F9F7CBFB029806F09E
:107E4000C4FE049838B1844616483346427A017A13
:107E5000604617F00DFE3B4642464946304617F055
:107E60000CFE0698FDF7F9FF0898FEF72FF807F0CB
:107E700001FA10F4006F1CBF0B98FEF76EF80CF0BF
:107E8000E9F81BB00120BDE8F08F10B5FAF799FFB3
:107E900006F0A3FE034900204861012010BD000048
:107EA000A886001044850010FD4908707047FC4802
:107EB00000787047FB4810B4FB4A0168914218D122
:107EC0004168B1F5987F14D80022D0F808C0034665
:107ED0001146B2EB9C0F24BF10BC704753F82140F1
:107EE000491C2244B1EB9C0FF8D3002A04BF10BCFC
:107EF0007047002010BC7047EA48FBF7D3BF2DE95C
:107F0000F041ADF5007D044607F079F940B1816993
:107F10002162C16961624169A162C068E06205E0F5
:107F20004FF0FF30E062A062606220623C250020DA
:107F3000C4E90250DC4F4FF49876C4E9007622463B
:107F400001462B4652F820C0401C6144B0EB930F11
:107F5000F8D3C1F10008FF224FF400716846C4F85D
:107F60000C8017F04EFDCDF80C800097CDE901652F
:107F700010340DF110080FCC88E80F000FCC0DF174
:107F8000200888E80F00D4E90001A268C54CCDE9BB
:107F90000C010E922046FBF785FF69462046FCF750
:107FA00023F8012818BF00200DF5007DBDE8F08101
:107FB000BB490120087070472DE9F04116460F4675
:107FC00005461024FFF71CFD15F0070F18BF062407
:107FD00008D115F0F00F18BF082403D115F4774F1E
:107FE00018BF0B243A46102C28BFBDE8F081002AA8
:107FF00008BFBDE8F0812044334690F920102046A8
:10800000BDE8F04107F061B9F0B5ADF6E43D0446D6
:10801000FFF7F6FC054614F0070F0CD06F46052657
:108020003846FBF795FA95F925104FF43E633A462A
:10803000304607F04AF914F0F00F13D007276E46C8
:10804000FAF7FCFE10F0300F0CBF02200120694649
:10805000FBF7CEFA95F927104FF4187332463846DD
:1080600007F033F914F4774F04BF0DF6E43DF0BD8B
:108070000A246E463046FBF738FB95F92A104FF478
:1080800084733246204607F020F90DF6E43DF0BD3A
:108090002DE9F34F89B000200690087803904868D6
:1080A0000490886805900D7B487B0190887B8A8AC4
:1080B000D1E9088BC0F5807602EA00070998B1F98A
:1080C0001090B1F912A0896910F0010F07914FF0DB
:1080D000000044D000900198002840F2D78000981A
:1080E000012101FA00F20798104018BF0120002476
:1080F0000290610904A804F01F0250F82110012029
:108100009040014200F0B7803BF9020B0299A0EBCE
:108110000A0000290CBFA9EB000509EB000538F99E
:10812000020BA0EB0A0014BF4844A9EB0000002D8D
:10813000B4BF694229460028B8BF4042884278D976
:10814000224600990398FAF7E3FA0246C0F30420A6
:10815000D1B212F4803F6FD0002D6FDB70E0F9F7E1
:1081600040FE009001980321684301EB400020F09D
:1081700003024146584617F021FC0098F9F731FEFA
:1081800001984FF0000B002852D90121079801FAFD
:108190000BF2104018BF012000250290690904A8C5
:1081A00005F01F0250F8211001209040014237D005
:1081B00038F9020B0299A0EB0A0000290CBFA9EBC9
:1081C000000409EB00042A4659460398FAF7A0FA7E
:1081D000C0F30421C2B210F4803F02D0002C02DBB5
:1081E00003E0002C01DD941B00E09419BC4205DD86
:1081F0001F293ABF0024491C3C4606E0002C04DA43
:108200000029C6BF3C46491E002400F4783040EAED
:10821000012040EA04032A4659460398FAF7CBFAAC
:108220006D1C262DBAD301980BF1010B8345ACD3FD
:108230002CE020E000E001E0002D01DD8D1900E0E0
:108240008D1BBD4205DD1F283ABF0025401C3D4661
:1082500006E0002D04DA0028C6BF3D46401E00257A
:1082600002F4783141EA002040EA050322460099F1
:108270000398FAF7A0FA641C262CFFF43AAF009892
:108280000199401C00908842FFF429AF0998032807
:1082900026BF0120069006980BB0BDE8F08F0000C5
:1082A0006C85001000EE0300544352462DE9F04F58
:1082B0008BB0002205920A7800924A6802928A687E
:1082C00003924D7B8A7B0492B1F91080B1F91220A0
:1082D00007920C6A8A690892898A049AC0F1080A8E
:1082E00001EA020600283BD0BAF1000F7ADB4FF01A
:1082F000000B002D77D9012000FA0AF00690AAF1B0
:108300000100012101FA00F009900121089801FA09
:108310000BF2104018BF012000270190790902A834
:1083200007F01F0250F821100120904001427DD03B
:1083300034F9021B0798081A019900290CBFA8EB11
:10834000000908EB00093A4659460098FAF7E0F9A7
:10835000034610F4803F72D0B9F1000F74DA71E077
:108360004FF0000B002D3ED90121089801FA0BF2C5
:10837000104018BF012000270190790902A807F0DA
:108380001F0250F821100120904001424BD034F9D7
:10839000021B0798081A019900290CBFA8EB0009D5
:1083A00008EB00093A4659460098FAF7B1F9FE4938
:1083B000014011F4803F17D0B9F1000F29DA11F410
:1083C000F8511CBFA1F5807141F4803121D110F426
:1083D000604F1ED0A0F500504FF4D05110F4003F74
:1083E00017D014E04AE042E0B9F1000F11DD11F4BA
:1083F000F85118BFA1F580710BD110F4604F08D06F
:10840000A0F500504FF4D05110F4003F01D04FF4CC
:108410008D3100F43830084340F080033A46594625
:108420000098FAF7C8F97F1C262F02E016E006E054
:108430000AE0A2D30BF1010BAB4595D317E0B9F1DC
:10844000000F01DD06988343BAF1000FC4BF0998FD
:1084500003433A4659460098FAF7ADF97F1C262F98
:10846000FFF45CAF0BF1010BAB45FFF44EAFBAF17B
:10847000000FC2BF05980BB0BDE8F08F0027002D9C
:108480002ED904980DF1080A4FF0010BC0F5807940
:1084900040F480780024600904F01F015AF820009D
:1084A0000BFA01F1084215D0224639460098FAF736
:1084B0002FF9C1B201EB590101EA0801B14288BFAD
:1084C000314620F0FF0040EA010322463946009879
:1084D000FAF771F9641C262CDDD37F1CAF42D9D387
:1084E000012005900BB0BDE8F08F2DE9F04F89B069
:1084F000002204920A7800924A6802928A680392E3
:108500004A7B0192B1F91060B1F912B00C6A896925
:10851000C0F105080591002837D0B8F1000F70DBD5
:108520004FF00009002A6BD908F10800012101FA77
:1085300000FA401E01FA00F006900121059801FAA8
:1085400009F2104018BF012000250790690902A810
:1085500005F01F0250F821100120904001425FD029
:1085600034F9020B0799A0EB0B0000290CBF371A56
:1085700037182A4649460098FAF7CAF8034610F415
:10858000803F3FD0002F41DA3EE00027002A4FD93C
:108590000120059900FA07F20A4214BF4FF0010AC0
:1085A0004FF0000A0025690902A805F01F0250F8E3
:1085B00021100120904001421BD034F9020BBAF186
:1085C000000FA0EB0B000CBFA6EB000906EB0009A7
:1085D0002A4639460098FAF79BF8B9F1000FC8BF50
:1085E00040F4803040F480532A4639460098FAF728
:1085F000E2F86D1C262DD6D301987F1C8742C7D385
:1086000016E01AE0002F01DD23EA0A03B8F1000F9B
:10861000C4BF069803432A4649460098FAF7CBF8A8
:108620006D1C262D92D3019809F10109814584D34F
:10863000B8F1000F04BF01200490049809B0BDE810
:10864000F08F2DE9F04F89B0002204920A78009251
:108650004A6802928A6803924A7B0192B1F91060DB
:10866000B1F912B00C6A8969059150498969421AB9
:10867000C2F10308814277D83DD101984FF000073D
:10868000002871D90120059900FA07F20A4214BFA7
:108690004FF0010A4FF0000A0025690902A805F011
:1086A0001F0250F821100120904001421BD034F9E4
:1086B000020BBAF1000FA0EB0B000CBFA6EB0009F8
:1086C00006EB00092A4639460098FAF721F8B9F175
:1086D000000FC8BF40F4003040F400432A4639463A
:1086E0000098FAF768F86D1C262DD6D301987F1CE8
:1086F0008742C7D34FE0B8F1000F51DB01984FF02C
:108700000009002847D908F10D00012101FA00FAFB
:10871000401E01FA00F006900121059801FA09F2C5
:10872000104018BF012000250790690902A805F034
:108730001F0250F8211001209040014223D034F94B
:10874000020B0799A0EB0B0000290CBF371A371852
:108750002A4649460098F9F7DBFF034610F4003F2C
:1087600003D0002F05DA02E015E0002F01DD23EA37
:108770000A03B8F1000FC4BF069803432A464946CE
:108780000098FAF718F86D1C262DCED3019809F140
:1087900001098145C0D3B8F1000F04BF0120049046
:1087A000049809B0BDE8F08F001F01006C8500102F
:1087B0002DE9F14FADF5547D0020C090BF9072B609
:1087C000FAF73CFB0646FCF721FA48B1FCF7C6FA7B
:1087D000C090FCF7ADFAFCF7C6FABF90FCF7B3FA0D
:1087E000FAF70DFAFAF712F9C690FAF74FFBC590AF
:1087F000FAF70EF9FAF7C8FBBC900020FAF7C1FBB4
:108800000120F9F78AFACE901120F9F786FACD9077
:108810000220F9F782FAD0901220F9F77EFACF9071
:108820004120F9F77AFACA905120F9F776FAC990FF
:108830004220F9F772FACC905220F9F76EFACB90F9
:10884000FCF72DF8C490FCF712F84FF49350FBF7A7
:1088500080FF62B60020F9F731FAC39001210020B1
:10886000F9F71FFA4020F9F729FAC19001214020B9
:10887000F9F717FA0020F9F736FA0021C2900846F6
:10888000F9F724FA0120F9F7ACFAD1900020FAF7B1
:1088900008F9C8900020FAF7F7F8C790F8F754FEE7
:1088A000D2900020F8F755FE0020044678A941F840
:1088B0002040401C0C28F9D316F0070F4FF001059B
:1088C0000AD040F68C61FE48789517F06DF840F6B6
:1088D0008C61FC4817F068F816F0F00F47D00120C3
:1088E000F8F783F838B19821F74817F05DF8982128
:1088F000F64817F059F81120F8F777F838B19821B1
:10890000F34817F051F89821F24817F04DF802207B
:10891000F8F76BF838B19821EF4817F045F898212F
:10892000EE4817F041F81220F8F75FF838B19821B7
:10893000EB4817F039F89821EA4817F035F801208C
:10894000F8F753F8002818BF7A951120F8F74DF87A
:10895000002818BF7B950220F8F747F8002818BFB9
:108960007C951220F8F741F8002818BF7D9516F481
:10897000774F7DD0DC4E6021304617F015F8DB4F85
:108980006021384617F010F84020F8F72EF898B11B
:10899000D748046044608460C460046144618461B9
:1089A000C4610462D348046044608460C4600461AC
:1089B00044618461C46104624120F8F716F858B13B
:1089C00034607460B460F460346174613C607C60F5
:1089D000BC60FC603C617C615120F8F706F868B12E
:1089E000C548046044608460C46004614461C34855
:1089F000046044608460C460046144614220F7F70D
:108A0000F4FF68B1BE48046044608460C4600461DF
:108A10004461BC48046044608460C4600461446193
:108A20005220F7F7E2FF68B1B74804604460846001
:108A3000C46004614461B548046044608460C460FB
:108A4000046144614020F7F7D0FF002818BF7E95ED
:108A50004120F7F7CAFF002818BF80955120F7F78B
:108A6000C4FF002818BF81954220F7F7BEFF00E041
:108A700008E0002818BF82955220F7F7B6FF0028BB
:108A800018BF83954FF04059DFF884A2DFF8848245
:108A90007898FF2658B320468DF8004001A9F8F7D2
:108AA000A2FF9DF80000F8F7BEFF8DF80C009DF8BE
:108AB0000000F7F769FF8DF80D009DF80000F9F749
:108AC00076F900280CBF4FF0FF31002106918DF898
:108AD0000E60B8F80200ADF81000ADF812409DF835
:108AE0000000F8F720FFCDE9089AADF81400799856
:108AF0006F4640B307F12C018DF828402046F8F767
:108B000072FF9DF82800F8F78EFF8DF834008DF87D
:108B1000355010948DF83660B8F80200ADF8380082
:108B2000ADF83A409DF82800F8F7FDFEADF83C009E
:108B30009DF80C009DF80D10484309EB40010AEB2D
:108B40004000CDE912107A984FF4806A4FF0020984
:108B50004FF0AA3BF0B38DF8505007F1540128466E
:108B6000F8F741FF9DF85000F8F75DFF8DF85C00C5
:108B70009DF85000F8F7D9FF05FA00F08DF85D0078
:108B80009DF85000F9F7C9F81A908DF85E60B8F8B2
:108B90000400ADF86000ADF862A09DF85000F8F751
:108BA000C2FEADF864005C481C905C481D909DF8C6
:108BB0005D00022809D99DF85C10801E48431C996D
:108BC00001EB40001C908DF85D901A9810B19DF853
:108BD000500000E005E04FF0AA31F9F78CF8CDF82D
:108BE00068B07B98F0B3112007F17C018DF8780014
:108BF000F8F7F9FE9DF87800F8F715FF8DF8840076
:108C00009DF87800F8F791FF05FA00F08DF88500DF
:108C10009DF87800F9F781F824908DF88660B8F80F
:108C20000400ADF88800ADF88AA09DF87800F8F748
:108C30007AFEADF88C003A4826903A4827909DF885
:108C40008500022809D99DF88410801E4843269982
:108C500001EB400026908DF88590249810B19DF886
:108C6000780000E005E04FF0AA31F9F744F8CDF8BC
:108C700090B07C9810B307F1A40148468DF8A090FD
:108C8000F8F7B1FE9DF8A000F8F7CDFE8DF8AC0026
:108C90009DF8A000F8F749FF05FA00F08DF8AD0047
:108CA0009DF8A000F9F739F82E908DF8AE60B8F86D
:108CB0000400ADF8B000ADF8B2A035E056E0000019
:108CC00000000130004001308C0E01308C4E01302C
:108CD000240F0130244F0130BC0F0130BC4F013054
:108CE00054100130545001302480013024C0013030
:108CF0000080013000C001303C8001303CC00130B8
:108D00005480013054C001306C8001306CC001309F
:108D1000004000306C850010CC090030CC49003098
:108D2000CC0E0030CC4E00309DF8A000F8F7FBFDD3
:108D3000ADF8B400FE483090FE4831909DF8AD008B
:108D4000022809D99DF8AC10801E4843309901EBE8
:108D5000400030908DF8AD902E9838B19DF8A0006D
:108D60004FF0AA31F8F7C7FFCDF8B8B07D98E0B35F
:108D7000122007F1CC018DF8C800F8F734FE9DF8F9
:108D8000C800F8F750FE8DF8D4009DF8C800F8F739
:108D9000CCFE05FA00F08DF8D5009DF8C800F8F774
:108DA000BCFF38908DF8D660B8F80400ADF8D80054
:108DB000ADF8DAA09DF8C800F8F7B5FDADF8DC0015
:108DC000DD483A90DD483B909DF8D500022809D94E
:108DD0009DF8D410801E48433A9901EB40003A9028
:108DE0008DF8D590389800B100E007E09DF8C800F4
:108DF0004FF0AA31F8F77FFFCDF8E0B07E9870B35E
:108E0000402007F1F4018DF8F000F8F7ECFD9DF833
:108E1000F000F8F708FE8DF8FC009DF8F000F7F779
:108E2000B3FD8DF8FD009DF8F000F8F7C0FF0028B5
:108E30000CBF4FF0FF30002042908DF8FE60B8F874
:108E40000600ADF80001ADF802419DF8F000F8F71A
:108E50006AFDADF80401BA484490BA4845907F983D
:108E600050B3402007F58E718DF81801F8F7BBFD5F
:108E70009DF81801F8F7D7FD8DF824018DF82551DC
:108E80004C948DF82661B8F80600ADF82801ADF8CD
:108E90002A419DF81801F8F746FDADF82C019DF820
:108EA000FC009DF8FD104843A54901EB40014E919F
:108EB000A44901EB40004F908098E0B3412007F5B2
:108EC000A2718DF84001F8F78EFD9DF84001F8F78A
:108ED000AAFD8DF84C019DF84001F8F726FE05FA31
:108EE00000F08DF84D019DF84001F8F716FF5690FF
:108EF0008DF84E61B8F80600ADF85001ADF852A1FA
:108F00009DF84001F8F70FFDADF854018E485890D8
:108F10008E4859909DF84D01022809D99DF84C11B1
:108F2000801E4843589901EB400058908DF84D91B0
:108F3000569800B100E007E09DF840014FF0AA31DB
:108F4000F8F7D9FECDF858B18198E0B3512007F574
:108F5000B6718DF86801F8F746FD9DF86801F8F7DD
:108F600062FD8DF874019DF86801F8F7DEFD05FAE1
:108F700000F08DF875019DF86801F8F7CEFE60905D
:108F80008DF87661B8F80600ADF87801ADF87AA1F1
:108F90009DF86801F8F7C7FCADF87C016C48629059
:108FA0006C4863909DF87501022809D99DF87411E9
:108FB000801E4843629901EB400062908DF87591E4
:108FC000609800B100E007E09DF868014FF0AA3119
:108FD000F8F791FECDF880B18298E0B3422007F512
:108FE000CA718DF89001F8F7FEFC9DF89001F8F732
:108FF0001AFD8DF89C019DF89001F8F796FD05FA91
:1090000000F08DF89D019DF89001F8F786FE6A90BA
:109010008DF89E61B8F80600ADF8A001ADF8A2A1E8
:109020009DF89001F8F77FFCADF8A4014A486C90D8
:109030004A486D909DF89D01022809D99DF89C1120
:10904000801E48436C9901EB40006C908DF89D9117
:109050006A9800B100E007E09DF890014FF0AA3156
:10906000F8F749FECDF8A8B18398E0B3522007F590
:10907000DE718DF8B801F8F7B6FC9DF8B801F8F785
:10908000D2FC8DF8C4019DF8B801F8F74EFD05FA41
:1090900000F08DF8C5019DF8B801F8F73EFE749018
:1090A0008DF8C661B8F80600ADF8C801ADF8CAA1E0
:1090B0009DF8B801F8F737FCADF8CC012848769058
:1090C000284877909DF8C501022809D99DF8C41158
:1090D000801E4843769901EB400076908DF8C5914B
:1090E000749800B100E007E09DF8B8014FF0AA3194
:1090F000F8F701FECDF8D0B1F7F7D1FE10F0010F6F
:109100000BD0FEF780FC3C2807D1FBF791FF20B184
:109110000420FBF73CFFFCF713F8F9F7F6FE4FF0DD
:109120000008C346C2464646C14604F01CF91BE08F
:109130004C1800304C5800304C1D00304C5D003055
:109140000080003000C000302480003024C0003097
:109150006481003064C10030E4810030E4C100303B
:109160002483003024C30030012874D0BBF1800F69
:1091700071D8AAA8FAF77CF900286DD0AAA804F043
:1091800023FFBC98002818BF00273BD078A850F8D0
:109190002700A0B307EB8701684600EBC1042078E5
:1091A00010F00F0F2BD0F8F7B8FD10F0010F26D0FC
:1091B000216A257B01F0030000EB8502D21C22F01E
:1091C000030221F00301CDE9BD1284A90C1884A883
:1091D000BD9916F0F3FB0020002D0BD9411934F88E
:1091E000102034F8113024F81030401C24F81120DD
:1091F0008542F3D884A9BE9ABD9816F0DFFB7F1C88
:109200000C2FC3D31AF1010A7DD04FF0000A50464B
:10921000B0AD01270BF1010B45F82070401C0C2864
:10922000FAD3052E17D2DFE806F003182B3E5100C3
:10923000002478A850F8240048B104EB8401684663
:1092400000EBC1014846FFF7FCF945F82400641C17
:109250000C2CEED33CE06CE065E0002478A850F8DC
:10926000240048B104EB8401684600EBC101484684
:10927000FFF73BF945F82400641C0C2CEED327E0E3
:10928000002478A850F8240048B104EB8401684613
:1092900000EBC1014846FFF709F845F82400641CBB
:1092A0000C2CEED314E0002478A850F8240048B128
:1092B00004EB8401684600EBC1014846FEF7E8FE76
:1092C00045F82400641C0C2CEED301E04FF001089B
:1092D0000121002055F82020B2B1401C0C28F9D300
:1092E00091B11F2E0DD2761CD49807FA06F10142D7
:1092F00007D1761C042E04D8D49807FA06F101424F
:10930000F7D04FF0000901E009F10109FAF71BF964
:10931000B8F1000F0DD1BC98002818BFF8F70FFD69
:10932000F9F7F3FD01E7FEF794FAB8F1000F3FF407
:10933000FCAEFAF708F9F9F76BFB0520FBF727FEFF
:109340000120CE99F8F7D7FC1120CD99F8F7D3FC7E
:109350000220D099F8F7CFFC1220CF99F8F7CBFC78
:109360004120CA99F8F7C7FC5120C999F8F7C3FC06
:109370004220CC99F8F7BFFC5220CB99F8F7BBFC00
:10938000BC98F9F7FEFD0020C299F8F79FFC002079
:10939000C399F8F786FC4020C199F8F782FCD19870
:1093A000F8F71FFDC898F9F77CFBC798F9F76CFB35
:1093B000D298F8F7CEF8C69830B1C59810B1F9F741
:1093C000A4FD01E0F9F768FDFBF720FC48B1C09867
:1093D000002818BFFBF720FCBF98002818BFFBF738
:1093E00054FCC498002818BFFBF7EAF9B8F1000F45
:1093F0000CBF012000200DF5557DBDE8F08F2DE953
:10940000F84F074600200E460546DFF88894DFF83F
:10941000888400909BE0284605F011FF00287CD04E
:10942000008900EA070424F0CC0030F47C4074D0BA
:1094300040F20F312846FEF730FB00286DD0F9F7D7
:10944000FDFC009900297FD1F9F7AFFB1F20FFF742
:10945000AFF90090F9F7DCFA0098002874D1AEB1AA
:1094600014F0010F1CBF0720FEF7CEFD14F0100F03
:109470001CBFF020FEF7C8FD14F4807F1CBF4FF422
:109480007740FEF7C1FD009800285DD124F0DD0093
:1094900030F47D4007D0FCF7FEFD0090F9F7B8FAF4
:1094A0000098002850D1002E4ED014F0020F16D094
:1094B000FCF756F88346F94899F8001000784843BD
:1094C0004FEA400AFEF79CFA4FF0060C5FEA0B02E7
:1094D00005D090F926105346604605F0F6FE14F0CC
:1094E000200F16D0FBF7D3FF8346ED480178ED48F7
:1094F000007808444FEA400AFEF782FA4FF0080C61
:109500005FEA0B0205D090F928105346604605F03B
:10951000DCFE14F4007F17D001E017E014E0FBF745
:1095200093FF044698F8000098F8011008444FEAA9
:10953000400AFEF765FA01460B20220004D091F99B
:109540002B10534605F0C1FEFEF79FFC6D1C05F085
:1095500072FEA842009803D900283FF45CAF04E0F3
:10956000002804BF0120BDE8F88F0020BDE8F88F77
:1095700070B5CD4D1646D5F844231205120D1DD0F9
:1095800000281CBFC1F30800FAF760FBD5F84803B8
:1095900040F00100C5F84803D5F8480320F0010069
:1095A000C5F848030022341E23DDD5F8481340F2E5
:1095B000A91011F0010F08D1401E01D2002070BD8A
:1095C000D5F8481311F0010FF6D0D5F84403C0F3D5
:1095D0000B000244D5F8480340F00100C5F84803E9
:1095E000D5F8480320F00100C5F84803641E002C9C
:1095F000DBDC1001B0FBF6F080B270BDF0B5AB4F14
:1096000091B001243D78F9F7FAFAA748D0F8401351
:1096100041F48031C0F840134FF48B5000F0FEF954
:109620007861F9F7B4FBFEF7A3F801287BD1A048D5
:109630000068B0F93610B0F9340016F023FA15F0CE
:10964000020F4FF0000644D001A800F0AAF90698D6
:109650002146401C069040F23330FFF7D0FE01282F
:1096600003D1FCF758FE012813D008980023401CB2
:109670000890502005901A462121072009F07AFA17
:1096800000231A461946FE200096FCF728FF01A881
:109690003EE015F0080F14BFA220A12005907869C4
:1096A00058B18448006CC0F30820ADF83C009DF828
:1096B0003E00401C8DF83E0006E0ADF83C609DF891
:1096C0003F00401C8DF83F007E610798401C0790CA
:1096D000DDE715F0100F1DD0B868032824BF002463
:1096E000BE6005D2684600F05CF90C98401C0C90F6
:1096F00021464FF44070FFF782FE08B1C4B106E086
:10970000002301222121072009F034FA14B1684610
:10971000FEF7F5FB0020FCF73FFB00232A46402123
:10972000072009F027FA11B0BDE8F04003F01ABB9A
:1097300005F0A0FD20F4406005F099FDEAE75B4AE2
:10974000012804BFD1807047022804BF9180704770
:10975000042808BF51807047014600200129534A60
:1097600004BFB2F906007047022904BFB2F9040031
:109770007047042908BFB2F90200704770B501268E
:10978000FEF798FB20B10069A12818BFA22801D0DC
:10979000002070BD002405F04EFD002842D920466F
:1097A00005F04DFD00281EBF058925F0CC0030F4E2
:1097B0007C4032D040F20F312046FEF76EF960B3A4
:1097C00015F0010F0AD0F9F7D8FE38B944F48072C9
:1097D00000232021072009F0CDF9002615F0100FF5
:1097E0000BD00120F9F720FF38B944F48052002350
:1097F0002021072009F0BEF9002615F4807F0AD049
:10980000F9F781FF38B944F4803200232021072082
:1098100009F0B0F90026FEF738FB641C05F00BFDDB
:10982000A042BCD8304670BD002070470020704771
:109830001E48C068704770B506460024FDF78FFFCC
:10984000D0BB1A4D2869B8B3B6F9020046F67811B4
:109850008142A4BF47F23051C84202DB0020A86019
:1098600070BDA968491CA960032926D3C0F307214C
:1098700044EA014141EA006200236821072009F01F
:1098800079F910210120FDF78EFFE868401CE8609F
:10989000012070BD4F8500105485001050850010C8
:1098A0005185001052850010005000406C8500105A
:1098B000A886001000600040FFE70020E9E77E482E
:1098C000407870477C4900204870704710B50021EF
:1098D00005220846FFF74CFE77490022A0B1A0F50B
:1098E000885059380E280FD94878401CC0B24870AB
:1098F0000A280AD94A704FF48B5000F08FF80028DC
:109900001CBF012010BD00E04A70002010BD10B542
:10991000FEF7D0FA18B3694A016891421FD1416835
:10992000B1F5987F1BD80022D0F808C00346114635
:10993000B2EB9C0F07D253F82140491C2244B1EBF3
:109940009C0FF8D35AB9188F00281CBFA0F57F418F
:10995000B1F1FF0103D0FAF779F9012010BD002021
:1099600010BD10B5FEF7A6FAB8B1544A016891428D
:1099700013D14168B1F5987F0FD80022D0F808C004
:1099800003461146B2EB9C0F09D253F82140491C03
:109990002244B1EB9C0FF8D30AB1002010BD188F00
:1099A00010BD10B50446FEF785FA98B1B0E80E1068
:1099B000A4E80E10B0E80E10A4E80E10B0E80E10E7
:1099C000A4E80E1070E80C12806B44F83019C4E95A
:1099D0000D201EE0FF223C21204616F012F83748E9
:1099E00020604FF4987060603C200021C4E90201BF
:1099F0005020C4E90401481EE062A062A1616062D7
:109A0000C4E9071021636163218784F83A1084F860
:109A10003B102B48FAF746FA012010BD2DE9F0471C
:109A2000040032D02748006C4FF00008C0F3082A29
:109A300040F2FF17C146464608EB070000EBD07026
:109A40004510A9B264220120FFF792FDB0B1A042F7
:109A500088BF6F1E38BF05F101081BD1A9461FFA48
:109A600089F14FF064024FF00100FFF781FDA0F58E
:109A70008850B0289CBF0120BDE8F087BAF1000FE4
:109A800015D05046FAF7E2F813E0FAF7E7F80120AC
:109A9000BDE8F087011B48BF211A321B48BFA21B3B
:109AA0009142BCBFA9460646B845C5DDD7E7FAF7DF
:109AB000D5F80020BDE8F0876C850010544352466D
:109AC00000EE03000060004070470020704710B5B2
:109AD00003F00700042808BFFDF718FF002010BDA1
:109AE00010B403F007020024FA4BDFF8ECC3012A9C
:109AF00002D0022A17D013E005208CF80000F748A6
:109B0000CCF80C4000681A68532111701A6845217E
:109B100051701A68010A91701968C8701868047148
:109B200010BC002070479CF80020052A14D1DCF8F6
:109B30000C20052A28BF104605D21B689B5C0370C9
:109B4000501CCCF80C00052806D10120CCF80C40A4
:109B5000087003208CF8000010BC012070472DE92C
:109B6000F04103F0070201260025DA4CDA4B012A06
:109B700002D0022A39D035E005201870D748DD60C0
:109B8000006821684FF0AC0881F800802268010A63
:109B900051702168887005F0D3FAD14F78B13868D8
:109BA00005F0CAFB58B1386890F8200010F0020F99
:109BB00005D0206880F801802168432088702068E3
:109BC000C6702068057105F0BBFA40B1386805F031
:109BD000B3FB20B138682168007E487102E021683B
:109BE000FF2048710020BDE8F0811A78052A12D1C3
:109BF000DA68062A28BF104607D2D4F800C01CF83D
:109C000002C080F800C0501CD860062803D1DD6077
:109C10000E70032018700120BDE8F08103F00702E8
:109C2000022A1CBF00207047202202700120087009
:109C300070472DE9F041A84F0D46064613F0070F77
:109C400004D003F00700022808D004E012F0040F4B
:109C50001CBF0020B8700020BDE8F08103F07CF844
:109C6000002814BF0124002403F079F8002814BF51
:109C70000222002242EA0403B878002814BF04221A
:109C8000002242EA0300307001202870BDE8F08114
:109C900070B503F0070C00268F4C8E4DBCF1010F00
:109CA0000AD0204613F0070F00780DD0BCF1040F46
:109CB00008BF062818D029E0E660286806702868E2
:109CC00046700520207021E005281FD1E068022899
:109CD00003D22B681A54401CE060022816D10120E0
:109CE000E6600870062010E02868007855280BD13F
:109CF00028684078AC2818BFBC2805D12868012204
:109D0000411C062003F00EF803202070002070BDD7
:109D100070B503F0070200256E4C6F4B012A02D08C
:109D2000022A24D021E005201870DD6002F0C6FF71
:109D300041F6E8710144B0F5783F10D8CA78086858
:109D400062F31F60674A904208BF002007D10A18DB
:109D5000236812791A54401C1428F8D305E0002017
:109D600021680D54401C1428FAD3002070BD1A78C5
:109D7000052A13D1DA68142A28BF104607D2D4F86E
:109D800000C01CF802C080F800C0501CD860142825
:109D900004D10120DD60087003201870012070BD1F
:109DA00070B503F0070200254A4C4B4B012A02D044
:109DB000022A3FD03CE005201870DD6002F07EFFF3
:109DC00041F6E8710144B0F5783F2BD8CA780868AD
:109DD00062F31F60434A904224D12268087C1070CD
:109DE0002268487C50702268887C90702068CA7C09
:109DF000C27020680A7A02712268487A507122681B
:109E0000887A90712268C87AD0712268087D1072B1
:109E10002268487D50722268887D9072C87D2168D2
:109E2000C87205E0002021680D54401C0C28FAD3AC
:109E3000002070BD1A78052A13D1DA680C2A28BFD1
:109E4000104607D2D4F800C01CF802C080F800C049
:109E5000501CD8600C2804D10120DD60087003205C
:109E60001870012070BD70B503F007020025194C71
:109E7000194E012A02D0022A41D03EE005F0BFF976
:109E800090B3D0E906212368C0681A70D4F800C0E6
:109E9000130A8CF80130D4F800C0130C120E8CF8A1
:109EA00002302368DA702268117123680A0A5A7135
:109EB00023680A0C090E9A712268D1712168087210
:109EC0002268010A51722268010C9172010E206809
:109ED000C1720FE08051020090850010044C0040D8
:109EE000A886001034CD12ABFFE721680D54401C4A
:109EF0000C28FAD305203070F560002070BD327850
:109F0000052A10D1F2680C2A28BF104604D2236813
:109F10009B5C0370501CF0600C2804D10120F5609C
:109F2000087003203070012070BD70B503F0070287
:109F30000024F94DF94B012A02D0022A3ED03BE021
:109F4000052018700026DC6002F0B8FE00F5005114
:109F5000B0F5783F98BF11F0030F27D1F04A086899
:109F6000904204BF0022104620D151F82030401CFE
:109F70001A440728F9D302B1C6B128680A7C0270D6
:109F80002A68487C50702A68887C90702A68C87C4F
:109F9000D0702A68087D10712A68487D50712A683F
:109FA000887D9071C87D2968C87105E00020296806
:109FB0000C54401C0828FAD3002070BD1A78052ADA
:109FC00013D1DA68082A28BF104607D2D5F800C096
:109FD0001CF802C080F800C0501CD860082804D1CA
:109FE0000120DC60087003201870012070BD2DE98D
:109FF000F04103F0070C0027C84E4FF00508BCF1F4
:10A00000010F0DD013F0070F0FD03246BCF1020F35
:10A01000127810D0BCF1040F08BF062A26D058E0F1
:10A0200086F800807770F76053E07270BD48F06288
:10A03000062030704DE0052A15D1F268042A28BFA9
:10A04000104609D2C2F10303D6F82CC0DB002CFA6B
:10A0500003F30370501CF060042804D10120F76062
:10A060000870032030700120BDE8F0817078012570
:10A07000002410F0010F11D002F020FEB0F5783F5F
:10A0800023D86A030021B1EB900F07D252F8043BAA
:10A09000491C1C44B1EB900FF8D3B5B1707810F0A7
:10A0A000020F0ED005F0ABF878B182680021B1EB59
:10A0B000920F06D250F8043B491C1C44B1EB920F9E
:10A0C000F8D3002D18BFF46200D1F762777086F8DC
:10A0D00000800020BDE8F081F0B503F0070C0026F9
:10A0E0008D4D8E4C83B0BCF1010F0ED013F0070FD5
:10A0F0001DD0224603271278BCF1020F26D0BCF1F6
:10A10000040F08BF062A36D03CE002AA01A968461F
:10A1100003F078FA052020702968019808702968F2
:10A1200000984870296802988870E6602AE0E06824
:10A13000032803D229680A54401CE060022821D376
:10A1400006212170032808BFE6601BE0052A0FD115
:10A15000E268032A28BF104604D22B689B5C037078
:10A16000501CE060032803D10120E66008702770CE
:10A1700003B00120F0BD286882780178407803F0B0
:10A1800034FA277003B00020F0BD08B503F00700D3
:10A1900001280AD104F0D4FF38B101208DF8000065
:10A1A000024669460D2002F0BDFD002008BD08B53D
:10A1B00003F0070001280AD104F0C2FF38B10020E3
:10A1C0008DF80000012269460D2002F0ABFD002051
:10A1D00008BD08B503F00700012809D104F0B0FF5D
:10A1E00030B103208DF800000122694602F09AFD8B
:10A1F000002008BD0020704708B503F007000128C3
:10A200000AD104F09DFF38B10B208DF80000012227
:10A210006946032002F086FD002008BD1FB513F03B
:10A22000070F0ED104F08CFF58B19DF80800F028FC
:10A230000AD004F085FF20B1012202A9092002F012
:10A2400071FD04B0002010BDFDF756FEF9E708B51A
:10A2500003F0070001280AD104F072FF38B1102082
:10A260008DF8000001226946032002F05BFD00200A
:10A2700008BD70B503F00700274C284D012808D011
:10A2800013F0070F12D0042804BF2878062816D030
:10A290001FE00020E860216808702168487021688C
:10A2A00088702168C8700520287012E0E8680428CA
:10A2B0000FD221680A54401CE860062008E004F030
:10A2C0003FFF30B104221046216802F02BFD03202D
:10A2D0002870002070BD10B503F00700012804D1DC
:10A2E00004F0ADF80D4900200871002010BD10B534
:10A2F00003F0070C094CBCF1010F06D013F0070F57
:10A3000012D0BCF1020F21D01EE00020E06008F066
:10A3100028FCE06118E000008051020090850010E8
:10A3200054464953EFBEADDEE068002804BF10027A
:10A33000E06106D0012804D1E0691043E06108F033
:10A340000FFCE068401CE060002010BDE26812B124
:10A35000012A04D007E0A18B090A017003E0237FE2
:10A36000037001200870501CE060012010BD10B582
:10A3700003F0070CFE4CBCF1010F06D013F0070FE1
:10A3800009D0BCF1020F18D015E00020E06008F001
:10A39000EBFBE0610FE0E068002804BF1002E06121
:10A3A00006D0012804D1E0691043E06108F0DFFB2A
:10A3B000E068401CE060002010BDE26812B1012A94
:10A3C00004D007E0A18B090A017003E0237F03702A
:10A3D00001200870501CE060012010BD70B503F032
:10A3E000070CE34D0E460446BCF1010F06D013F0F6
:10A3F000070F07D0BCF1020F18D015E00020E8606D
:10A40000286111E0E868002804BF1002E86108D064
:10A41000012806D1E869104381B2E861E88810F0AC
:10A4200032FBE868401CE860002070BD2869022803
:10A430000ED2E88810F02BFB2B6982B2002B04BFF0
:10A44000100A207004D0012B02D12270012030703C
:10A450002869401C2861012070BD10B403F0070C6E
:10A46000C34CBCF1010F08BF00200BD013F0070F45
:10A4700003D0BCF1020F09D005E0E068002808BF56
:10A48000E280401CE06010BC00207047E2681AB90E
:10A49000A379037001200870501CE06010BC0120FB
:10A4A00070472DE9F047064603F00700B04F894694
:10A4B000012808BF002039D0DFF8B882AE4D13F074
:10A4C000070F02D0022835D031E0F868002808BF15
:10A4D0007A7029D0012804BF1002F86124D0022824
:10A4E00022D1F8691043F8617E7884B204F028FE26
:10A4F000D0B1062E18D2DFE806F00306090C1014BE
:10A50000A8F80E4010E0A8F80C400DE028688486FA
:10A510000AE02868A0F80C4106E02868A0F850403E
:10A5200002E02868A0F85240F868401CF86000205B
:10A53000BDE8F087386902282CD297F801A00024E2
:10A5400004F0FEFDD8B1BAF1060F18D2DFE80AF028
:10A550000306090C1014B8F80E4010E0B8F80C40CF
:10A560000DE02868848E0AE02868B0F80C4106E007
:10A570002868B0F8504002E02868B0F852403869C6
:10A58000002804BF200A307004D0012802D13470A2
:10A5900089F800003869401C38610120BDE8F08767
:10A5A0002DE9F0411C4617460E46054604F0C8FD4D
:10A5B00068B114F0070F04D004F00700022809D096
:10A5C00005E0002F14BF012000200CF071FE0020D8
:10A5D000BDE8F081674890F86C00C0082870012041
:10A5E0003070BDE8F0812DE9F0411C4615460F465C
:10A5F000064613F0070F08D104F0A2FD28B1022D82
:10A600003CBF28460AF07DFC03E004F00700022866
:10A6100002D00020BDE8F0810AF06CFC307001200F
:10A620003870BDE8F08170B503F007020026534C86
:10A630004F4D012A02D0022A15D012E009F093FCF6
:10A6400021680870FDF794F82168487004F0DEFA7C
:10A6500021688870FDF792F82168C870052028707D
:10A66000EE60002070BD2A78052A10D1EA68042A1D
:10A6700028BF104604D223689B5C0370501CE8601E
:10A68000042804D10120EE60087003202870012006
:10A6900070BD70B503F00702384C0025344E012A16
:10A6A00002D0022A54D051E0FDF704FC002836D035
:10A6B0004169FF292CBFFF21C9B22268117081694D
:10A6C000FF2934BFC9B2FF2122685170C169FF2937
:10A6D00034BFC9B2FF21226891702268017CD17019
:10A6E000226890F820101171018C2268090A5171BA
:10A6F000016A2268090C9171016A2268090ED17100
:10A70000016BFF2934BFC9B2FF2122681172406B6F
:10A71000FF2834BFC0B2FF202168487215E02068CE
:10A720000570206845702068857021685020C870C9
:10A730002168FF20087121684871216888712168AB
:10A74000C8712068057220684572F560002070BDF0
:10A75000F2680A2A28BF104604D223689B5C037063
:10A76000501CF0600A2802D10120F560087007E053
:10A7700090850010A4390110A886001080510200B5
:10A78000012070BD03F00702FE4B4FF0000C012AC0
:10A7900008BFC3F80CC001D0022A01D000207047C6
:10A7A000DA68022A3DBF80F800C0501CD86010460D
:10A7B000022803D10120C3F80CC0087001207047A3
:10A7C0002DE9F047064603F00700EE4F8A464FF0AA
:10A7D0000008012808BFC7F80C8001D0022802D069
:10A7E0000020BDE8F087F868A0BB0024254602F0F1
:10A7F00065FA014600F5005018384FF400524FF04A
:10A800004009B1F5783F20D890F803C003686CF395
:10A810001F63DFF874C3634517D1091FB4EB910FB1
:10A8200006D252F8043B641C5D40B4EB910FF8D3A0
:10A83000C17D406961F31F60A84206D104F080FC2D
:10A84000012804BF8020307001D086F80090F8689D
:10A85000401CF860012803D1C7F80C808AF800007A
:10A860000120BDE8F0872DE9F04103F00702002642
:10A87000C64CC44D012A02D0022A56D052E0C44828
:10A8800000680520287004F05BFC002849D0C14F07
:10A89000386804F051FD002843D010F0D7F8804606
:10A8A00010F0D8F839680A7E12F0040F11D0C98A66
:10A8B0002268090A117039682268897D51703968E7
:10A8C0002268898A090A917039682268097DD170E5
:10A8D00010E0898A2268090A117039682268097DA6
:10A8E000517039682268C98A090A917039682268EA
:10A8F000897DD17022684FEA18211171216881F891
:10A9000005802268010A91712168C871386822683F
:10A91000817C11722268017C5172008B2168000ACF
:10A920008872EE600020BDE8F0812A78052A10D1F7
:10A93000EA680B2A28BF104604D223689B5C037088
:10A94000501CE8600B2804D10120EE600870032041
:10A9500028700120BDE8F0812DE9F04703F00702DF
:10A9600000268A4D874B012A02D0022A5DD059E089
:10A97000052018700024DE6002F0A0F900F50053F5
:10A98000B0F5783F98BF13F0030F45D1824A19689C
:10A99000914204BF0022114608D153F821C0491C3E
:10A9A00062440729F9D3002A08BF01249F7C93F849
:10A9B000138084B341F6E8710144B0F5783F07D8BD
:10A9C000CA78086862F31F606F4A904208BF01248A
:10A9D00091F8129091F813A0002C08BF002014D019
:10A9E00004F00DFC2968806981F80090296881F8DD
:10A9F00001A02A68010C000E91702968C8702868AF
:10AA00000771286880F805800CE029680E54401C06
:10AA10000628FAD306E0FFE7002029680E54401C00
:10AA20000628FAD30020BDE8F0871A78052A13D14A
:10AA3000DA68072A28BF104607D2D5F800C01CF8EC
:10AA400002C080F800C0501CD860072804D1012043
:10AA5000DE600870032018700120BDE8F08710B593
:10AA600003F0070C474CBCF1010F06D013F0070FA1
:10AA70000AD0BCF1020F1AD017E00020E06020617C
:10AA800010F064F8E06110E0E068002804BF1002F4
:10AA9000E06107D0012805D1E0691043E06180B290
:10AAA00010F051F8E068401CE060002010BD226901
:10AAB000022A0BD212B1012A04D007E0A18B090AA5
:10AAC000017003E0237F037001200870501C206197
:10AAD000012010BD70B503F007010026294D044682
:10AAE000012908BF2E6301D0022901D0002070BDCA
:10AAF000286B002804BF294814F0C9FF296B0829D6
:10AB000028BF267002D22548405C2070481C28636C
:10AB1000012070BD2DE9F04103F007010026194D19
:10AB20000746012908BF2E6301D0022902D0002068
:10AB3000BDE8F08195F8300000F007042879204343
:10AB400004D1164814F0A3FF01202871052C28BF5A
:10AB50002E711248005D3870286B401C286301205C
:10AB6000BDE8F08170B5044603F007000D460228E9
:10AB70001CBF002070BD14F08FFF207001202870D2
:10AB800070BD00009085001034CD12AB80510200E2
:10AB9000044C0040A886001054464953C485001058
:10ABA00070B503F007020025F84C012A02D0022AF2
:10ABB00012D00FE005202070002211461046E560FB
:10ABC00002F020FD4FF6FF7101EA4000606102F0E3
:10ABD0002CFDA062002070BD2278052A17D1D4F880
:10ABE00014C0E268624528BF104607D212F0010F78
:10ABF0001CBF637803700CD0501CE060604506D128
:10AC00000120E56008700320207002F01BFD012088
:10AC100070BDA66A22F00103F35A1E0A0670637023
:10AC2000EAE770B503F007020025D84C012A02D0EC
:10AC3000022A11D00EE0D64805220068B0F91210A1
:10AC4000B0F91000227008444000E560606102F035
:10AC50004DFFA062002070BD2278052A17D1D4F8DC
:10AC600014C0E268624528BF104607D212F0010FF7
:10AC70001CBF637803700CD0501CE060604506D1A7
:10AC80000120E56008700320207002F03DFF0120E4
:10AC900070BDA66A22F00103F35A1E0A06706370A3
:10ACA000EAE7F8B503F007020025B84C012A02D004
:10ACB000022A14D011E000216A460846009502F0ED
:10ACC000A1FC05202070E56000984FF6FF7101EAB5
:10ACD0004000606103F048F8A0620020F8BD2278CF
:10ACE000052A17D1D4F814C0E268624528BF10467F
:10ACF00007D212F0010F1CBF637803700CD0501CF8
:10AD0000E060604506D10120E560087003202070F6
:10AD100003F040F80120F8BDA66A22F00103F35ABF
:10AD20001E0A06706370EAE770B50D46044613F01C
:10AD3000070F04D003F00700022805D002E01046F8
:10AD4000FCF710FD002070BDFCF70FFD2070012006
:10AD5000287070BD70B503F0070203258B4C012AE3
:10AD600002D0022A17D014E004F00FFB0646FCF7CD
:10AD7000FCFC0146304604F0ECFD206200281ABFBE
:10AD8000052020702570304604F0CCFD6062002064
:10AD9000E060002070BD2278052A0BD1236AE268AA
:10ADA0009B5C0370501CE060626A904202D30120F9
:10ADB00008702570012070BD70B503F00702754B57
:10ADC0000325724C012A02D0022A0DD00AE018682D
:10ADD00004F0DFFB606200281ABF05202070257098
:10ADE0000020E060002070BD2278052A0BD11B688E
:10ADF000E2689B5C0370501CE060626A904202D380
:10AE0000012008702570012070BD70B503F00702A5
:10AE1000604B03255D4C012A02D0022A0DD00AE0C6
:10AE2000186814F03EFE606200281ABF05202070EA
:10AE300025700020E060002070BD2278052A0BD12B
:10AE40001B68E2689B5C0370501CE060626A904281
:10AE500002D3012008702570012070BD7FB51C460B
:10AE60000E46054613F0070F08D104F069F928B122
:10AE7000012202A9252001F055FF03E004F007009C
:10AE8000022802D004B0002070BD02F083FC2870BC
:10AE90000120307004B070BD2DE9F04103F00702CD
:10AEA00000273A4E88460546012A02D0022A0BD0D6
:10AEB00007E0052030700A20F760706102F0B5FBF2
:10AEC000B0620020BDE8F0813078052819D1F26821
:10AED0007069824228BF104608D212F0010F1CBFD1
:10AEE0007078287010D0F068401CF060716988425A
:10AEF00007D10120F76088F800000320307002F0CD
:10AF0000A1FB0120BDE8F081002402F043FC0128F0
:10AF100004D1F068B16A20F001000C5A200A2870B0
:10AF20007470E0E770B50D46044613F0070F04D0C7
:10AF300003F00700022805D002E0104604F022FAD0
:10AF4000002070BD04F021FA20700120287070BD2F
:10AF50007FB51C460E46054613F0070F08D104F0D6
:10AF6000EFF828B1012202A91F2001F0DBFE03E067
:10AF700004F00700022802D004B0002070BD09F0E0
:10AF800031F928700120307004B070BD9085001038
:10AF9000A8860010805102007FB51C460E4605466B
:10AFA00013F0070F08D104F0CBF828B1012202A951
:10AFB000202001F0B7FE03E004F00700022802D0D1
:10AFC00004B0002070BD09F013F928700120307022
:10AFD00004B070BD7FB51C460E46054613F0070F42
:10AFE00008D104F0ADF828B1012202A90C2001F02B
:10AFF00099FE03E004F00700022802D004B000200C
:10B0000070BD08F0B0FF28700120307004B070BD32
:10B010007FB51C460E46054613F0070F08D104F015
:10B020008FF828B1012202A90F2001F07BFE03E076
:10B0300004F00700022802D004B0002070BD0FF019
:10B04000A1F900F00F0040F01000287001203070CE
:10B0500004B070BD2DE9F04103F0070CFA4D0E4627
:10B060000746BCF1010F07D0F84C13F0070F07D0CB
:10B07000BCF1020F1BD017E00020E860286113E04C
:10B08000E86804283CBF21680A54032809D12068D5
:10B0900021680068C97800BA20F0FF000843FBF778
:10B0A00076FCE868401CE8600020BDE8F081286973
:10B0B00070B9FBF771FC216820F07E42100E087019
:10B0C0002168100C48702168100A88702068C270CE
:10B0D0002A69042A06D22068032A805C387004BFDB
:10B0E00001203070501C28610120BDE8F0817FB53F
:10B0F0001C460D46064613F0070F08D104F020F851
:10B1000028B1012202A9102001F00CFE03E004F096
:10B110000700022802D004B0002070BD0FF036F9FD
:10B1200000F00F040FF02EF964F31F1030700120AF
:10B13000287004B070BD70B5044603F007000D46DA
:10B1400002281CBF002070BD08F030FC00F00F008A
:10B1500020700120287070BD10B503F00702BA4CB2
:10B16000012A02D0022A0DD00AE004F05CFC002182
:10B17000206200281ABF4FF4056060626162E160DE
:10B18000002010BD636AE2689A4228BF104607D2C9
:10B19000D4F820C01CF802C080F800C0501CE06049
:10B1A000984204BF01200870012010BD10B4DFF8E0
:10B1B000A0C213F0070F04D003F00702022A13D035
:10B1C0000FE0012A04BFDCF8000040F0010006D0C7
:10B1D000002A04BFDCF8000020F0010001D1CCF807
:10B1E000000010BC00207047DCF80030002213F093
:10B1F000010F18BF0122974BD3F804C0964B1B6870
:10B20000B3F8A430C3F30334012303FA04F41CEAB3
:10B21000040F18BF42F0020202700B7010BC012034
:10B22000704770B514460E46054613F0070F04D05C
:10B2300003F0070002280ED00BE0002C14BF012001
:10B24000002003F0DBF824B18248016821F440516A
:10B250000160002070BD03F0D8F8002814BF01225F
:10B2600000222A700120307070BD2DE9F04103F0FA
:10B27000070C754C0F468046BCF1010F12D0754E7D
:10B2800013F0070F4FF0030510D02046BCF1020F5A
:10B29000027826D0BCF1040F02BFE0680128062A1C
:10B2A00033D036E005202070002018E0E06810B1AF
:10B2B000012804D011E06270062020700DE0716852
:10B2C000607800EA020319437160716820EA0202A3
:10B2D00091437160F8F752FF2570E068401CE06010
:10B2E00017E0E068012808BF062A03D16078F8F764
:10B2F0005BFF2570706888F8000001203870E068F6
:10B30000401CE0600120BDE8F0816078F8F74CFF58
:10B3100025700020BDE8F08170B5044603F00700F9
:10B320000D4602281CBF002070BDFCF71FFB002843
:10B3300014BF0122002222700120287070BD70B558
:10B340000D46044613F0070F04D003F0070002284F
:10B3500005D002E0104608F037FD002070BD08F06F
:10B3600036FD20700120287070BD70B50D46044672
:10B3700013F0070F04D003F00700022805D002E005
:10B380001046F5F78FFD002070BDF5F78EFD20709B
:10B390000120287070BD70B503F00702DFF8A8C067
:10B3A0000C460546012A08BF05200DD013F0070FF3
:10B3B00008BF062008D0022A09D0042A04BF9CF83E
:10B3C0000000062809D00EE08CF800000BE0FCF726
:10B3D000D3FA28700120207070BD03208CF8000083
:10B3E0000120FCF7CCFA002070BD70B503F0070215
:10B3F000154D0E460446012A04BF0020E86001D026
:10B40000022A01D0002070BD10F071F9EA68002A0C
:10B4100004BF000A207004D0012A02D1207001204C
:10B420003070501CE860012070BD03F0070210B4BA
:10B43000054B012A04BF0020D86001D0022A0DD09C
:10B44000002010BC70470000908500108051020061
:10B45000144C004000100040A8860010DA68022A50
:10B460000CD24FF0010C002A08BF80F800C005D0B4
:10B47000012A03D13624047081F800C0501CD86022
:10B480000120DEE770B5044603F007000D460228F0
:10B4900007D013F0070F04BF1046FCF75DF900203A
:10B4A00070BDFCF75CF920700120287070BD70B58C
:10B4B000044603F00700FF4D0E46012804BF00209C
:10B4C000E86014D013F0070F02D0022811D00EE06C
:10B4D000E868F94904283CBF0B681A54401CE8602E
:10B4E000042804D104220968132001F01BFC002069
:10B4F00070BD0DF0DDFAEA68002A04BF000E20706E
:10B500000FD0012A08BF000C06D0022A08BF000A8B
:10B5100002D0032A02D004E0207002E02070012053
:10B520003070501CE860012070BD70B503F0070C4E
:10B53000E04D0E460446BCF1010F04BF0020E86058
:10B5400015D013F0070F03D0BCF1020F11D00EE09D
:10B55000E868D94902283CBF0B681A54401CE860CF
:10B56000022804D102220968142001F0DBFB00202C
:10B5700070BD0DF069FAEA68002A04BF000A207065
:10B5800004D0012A02D1207001203070501CE860E4
:10B59000012070BD70B5044603F00700C54D0E468E
:10B5A000012804BF0020E86014D013F0070F02D078
:10B5B000022811D00EE0E868BF4904283CBF0B68A0
:10B5C0001A54401CE860042804D10422096815209C
:10B5D00001F0A8FB002070BD0DF0A5FAEA68002A72
:10B5E00004BF000E20700FD0012A08BF000C06D047
:10B5F000022A08BF000A02D0032A02D004E0207009
:10B6000002E0207001203070501CE860012070BD05
:10B6100070B5044603F00700A64D0E46012804BF8E
:10B620000020E86037D013F0070F02D0022834D092
:10B6300031E0E868A04C002804BF21680A70216846
:10B640000978012901D039B11BE0002818BF04286E
:10B650003CBF21680A5414E00DF080FA216800090B
:10B6600048700DF06FFAC0F303260DF077FA2168E9
:10B6700046EA001088700DF065FA2168C870032052
:10B68000E860E868401CE860042804D10422162021
:10B69000216801F047FB002070BD0DF06BFAEA68ED
:10B6A000002A04BF000E20700FD0012A08BF000C32
:10B6B00006D0022A08BF000A02D0032A02D004E002
:10B6C000207002E0207001203070501CE8600120E2
:10B6D00070BD10B503F00702764C012A02D0022A91
:10B6E00027D024E004F09FF90023002804BF236240
:10B6F00063621BD000F1500121624168B1F5887F7F
:10B7000090F820100CD390F8212001EB020C01FBE3
:10B7100002C190F8222090F823001044084404E06D
:10B7200090F822000A1801FB00206062E36000200C
:10B7300010BD636AE2689A4228BF104607D2D4F867
:10B7400020C01CF802C080F800C0501CE060984285
:10B7500004BF01200870012010BD03F00702012A78
:10B7600002D0022A05D002E052490020C860002021
:10B770007047012202700A701046704710B513F02E
:10B78000070F04D003F00702022A05D002E010469A
:10B7900001F065FF002010BD484A127802700120B8
:10B7A000087010BD10B513F0070F04D003F00702A6
:10B7B000022A05D002E0104602F0B3F9002010BDC5
:10B7C0003F4A127802700120087010BD10B513F0C6
:10B7D000070F04D003F00702022A05D002E010464A
:10B7E00002F0E5FA002010BD364A127802700120FE
:10B7F000087010BD1FB513F0070F07D103F0A0FCB0
:10B8000020B1012202A90B2001F08CFA04B0002023
:10B8100010BD70B503F00700264C1546012804BF83
:10B820000020E06024D013F0070F21D103F088FC42
:10B83000F0B1E068204E03283CBF31680D54401C35
:10B84000E060032814D1F7F7DAF93068B0F80100A6
:10B8500045BAF7F7DBF8040018BFF7F772FB30685A
:10B8600029460078F5F776FF002C18BFF7F76CFB38
:10B87000002070BD70B503F007000E4D144601287E
:10B8800004BF0020E8602BD013F0070F28D103F08D
:10B8900057FC28B3E868084E02283CBF31680C54B6
:10B8A000401CE86002281BD1F7F7A9F9F7F7AEF8BA
:10B8B000040009E09085001080510200DD85001031
:10B8C000E2850010E785001018BFF7F73AFB3068F3
:10B8D00041780078F5F7EAFF002C18BFF7F734FB42
:10B8E000002070BD7FB51C460E46054613F0070FBD
:10B8F00008D103F025FC28B1012202A9172001F08C
:10B9000011FA03E004F00700022802D004B000207E
:10B9100070BD08F003FB002814BF012200222A702A
:10B920000120307004B070BD7FB51C460E46054640
:10B9300013F0070F08D103F003FC28B1012202A97C
:10B94000182001F0EFF903E004F00700022802D00C
:10B9500004B0002070BD08F0CEFA287001203070CD
:10B9600004B070BD2DE9F04103F0070CFE4C0E460B
:10B970000746BCF1010F07D0FC4D13F0070F07D0AD
:10B98000BCF1020F19D015E00020E060206111E049
:10B99000E06803283CBF29680A54401CE060032883
:10B9A00008D12868B0F8010040BA01B228680078D0
:10B9B000FDF7C5FE0020BDE8F0812269022A12D2FF
:10B9C00042B928680078FDF7C7FE2A68010A51705D
:10B9D00029688870286822691044012A40783870E4
:10B9E00004BF012030702069401C20610120BDE8A7
:10B9F000F08110B503F00700DB49012808BF0020E3
:10BA00000CD013F0070FD94B02D0042808D018E04F
:10BA1000C86804283CBF1B681A54401CC86010E06A
:10BA2000C86804280DD3186819684078897800041C
:10BA300040EA01201968C978014318680078F7F7CF
:10BA40000CFF002010BD7FB51C460E46054613F0C6
:10BA5000070F08D103F074FB28B1012202A92820A6
:10BA600001F060F903E004F00700022802D004B0FE
:10BA7000002070BD02F092FF28700120307004B0E9
:10BA800070BD10B503F00702B74C012A02D0022A9C
:10BA900007D004E00020E060F8F741FFE0610020FB
:10BAA00010BDE268042A07D2C2F10303D4F81CC017
:10BAB000DB002CFA03F30370501CE060042804BF81
:10BAC00001200870012010BD10B503F00700012807
:10BAD00007D103F035FB20B1002211461C2001F0F4
:10BAE00021F9002010BD2DE9F04103F007059E4E1D
:10BAF000174688460446012D04BF0020F0601BD085
:10BB000013F0070F16D103F01BFB98B1F068974BA9
:10BB100003283CBF19680F54401CF06003280BD168
:10BB2000186890F9022090F9011090F90000FAF7D6
:10BB300072FD01E0022D02D00020BDE8F081F06826
:10BB400030B1012809D002280CD003280FD015E00D
:10BB50001420FAF719FC207010E01520FAF714FCF5
:10BB600020700BE01620FAF70FFC207006E017207B
:10BB7000FAF70AFC2070012088F80000F068401CE9
:10BB8000F0600120BDE8F08170B50D46044613F069
:10BB9000070F04D003F00700022805D002E0724925
:10BBA0000020C860002070BD0120FAF7EDFB207076
:10BBB0000120287070BD70B503F0070C00266B4C97
:10BBC000694DBCF1010F06D013F0070F0CD0BCF18A
:10BBD000020F1FD01CE008F0D0FAEE602168087058
:10BBE0002168000A487013E0E868022803D221683F
:10BBF0000A54401CE86002280AD1EE6020680078F0
:10BC000010F0010F04D002221920216801F08AF8F7
:10BC1000002070BDEA68022A28BF104604D22368BB
:10BC20009B5C0370501CE860022804D10120EE6088
:10BC3000087003202870012070BD7FB51C460E4699
:10BC4000054613F0070F08D103F07AFA28B1012254
:10BC500002A9232001F066F803E004F0070002289F
:10BC600002D004B0002070BD0EF05FFF28700120EC
:10BC7000307004B070BD7FB51C460E46054613F00B
:10BC8000070F08D103F05CFA28B1012202A91E2097
:10BC900001F048F803E004F00700022802D004B0E5
:10BCA000002070BD0EF04CFF28700120307004B0F1
:10BCB00070BD7FB51C460E46054613F0070F08D130
:10BCC00003F03EFA28B1012202A9222001F02AF84D
:10BCD00003E004F00700022802D004B0002070BD89
:10BCE00011F074FD28700120307004B070BD7FB574
:10BCF0001C460E46054613F0070F11D103F020FA3B
:10BD000070B10EF029FF01469DF8080081420BD06A
:10BD10000EF01FFF012202A91D2001F003F803E02D
:10BD200004F00700022802D004B0002070BD0EF01D
:10BD300013FF28700120307004B070BD2DE9FF4161
:10BD4000094E1C460F46054613F0070F21D103F09C
:10BD5000F7F9F0B19DF80800002818BF012807D0B6
:10BD600002280CD019E000009085001080510200DC
:10BD7000F070012202A9082000F0D4FF0DE0F0705D
:10BD800004208DF80800012202A9082000F0CAFF53
:10BD900003E004F00700022803D004B00020BDE84F
:10BDA000F081F07828700120387004B0BDE8F0818F
:10BDB0007FB51C460D46064613F0070F08D103F069
:10BDC000BFF928B1012202A9082000F0ABFF03E06F
:10BDD00004F00700022802D004B0002070BDFBF779
:10BDE000C7FC801E052813D2DFE800F003070E050C
:10BDF000100000240DE001240BE0022406F079FF7E
:10BE0000042808BF052404E0032402E0042400E021
:10BE1000FF2434700120287004B070BD2DE9F0417A
:10BE20001C4617460E46054613F0070F0BD103F0CC
:10BE300087F940B1384607F0C1FF002211460120C2
:10BE400000F070FF03E004F00700022802D0002099
:10BE5000BDE8F08107F0B5FF287001203070BDE823
:10BE6000F08110B5104613F0070F08BF08F069F80D
:10BE7000002010BD10B5104613F0070F08BF08F0E2
:10BE800067F8002010BD70B5044603F007000D46AA
:10BE900002281CBF002070BD08F062F8207001204D
:10BEA000287070BD03F0070230B4FA4B4FF0000C5D
:10BEB000012A05D0022A04BF1A78022A0BD01EE0FC
:10BEC00002201870F448C3F80CC06FF07F4100687E
:10BED000081AD86113E0DA68042A28BF104606D28F
:10BEE000DD69D40025FA04F40470501CD8600428DD
:10BEF00005D10120C3F80CC008700320187030BCB5
:10BF00000120704713F0070F04BFE44802700020BF
:10BF1000704710B503F00700DE49012804BF002078
:10BF2000C86013D013F0070F10D1C868DC4B042889
:10BF30003CBFD3F800C00CF80020401CC8600428A7
:10BF400004D104221220196800F0ECFE002010BD7C
:10BF50002DE9F047164603F007020024CD4F012AD1
:10BF600004BFFC603C6164D0DFF8388313F0070F36
:10BF700007D0022A33D0042A04BF387806284FD0CD
:10BF800058E0FD68002D08BF3E6225D0012D06D087
:10BF9000D7F81490AC1E4C4516D284B908E0701C3A
:10BFA0007861396A0844B0F5007F88BF7C6113E08E
:10BFB0004FF400724FF47A31BB4813F0F0FCB849EB
:10BFC000386A096820440E54601C484504D1B648BC
:10BFD000C0F8FC8106203870681CF8602AE0FF2257
:10BFE00002707B69CBB1D7F820C03A699444BCF5A4
:10BFF000007F10D2AD4D2D68454518BF047005D1A6
:10C000000CF5783C9CF800C880F800C0501C9842A1
:10C0100004BF01200870501C38610120BDE8F08782
:10C020004FF47A30F7F73EFF9F494FF47A30F7F735
:10C03000DBFF3C700020BDE8F0872DE9F0478C461F
:10C0400003F007010024934F1646012904BFFC604A
:10C050003C6162D013F0070F954BDFF8588207D090
:10C06000022932D0042904BF387806284DD055E083
:10C07000FD68002D08BF3E6224D0012D06D0D7F800
:10C080001490AC1E4C4515D27CB908E0701C786148
:10C09000396A0844B0F5007F88BF7C6112E04FF434
:10C0A00000721946804813F07AFC7D49386A0968A5
:10C0B00020440E54601C484504D17B48C0F8FC81E4
:10C0C00006203870681CF86028E0FF2101707B6949
:10C0D000C3B13A6A39690A44B2F5007F10D2764D8D
:10C0E0002D68454518BF047004D102F5783292F8E6
:10C0F00000260270481C984204BF01208CF8000002
:10C10000481C38610120BDE8F0871D461846F7F746
:10C11000C9FE65492846F7F767FF3C700020BDE877
:10C12000F08770B503F007005A4C1546012804BF8C
:10C130000020E06014D013F0070F11D103F000F8D5
:10C1400070B1E068564902283CBF0A681554401C8B
:10C15000E060022804D102220968052000F0E2FD17
:10C16000002070BD2DE9F041054603F007004C4C5E
:10C17000484E0F4601280AD013F0070F14D00228AA
:10C180001BD0042804BF3078062834D03FE00020BC
:10C19000F060216808702168487021688870216803
:10C1A000C8700520307032E0F06804282FD2216872
:10C1B0000A54401CF060062028E0F06860B907F0DF
:10C1C000EFFB216808702268010A51702268010C97
:10C1D000000E91702168C870F06804283ABF216889
:10C1E000095CFF21297024BF01213970401CF060D7
:10C1F0000120BDE8F08102F0A3FF40B12068C178C2
:10C20000006861F31F6007F0C6FB03203070002058
:10C21000BDE8F08170B503F007011E4C0646012908
:10C220000BD01F4D13F0070F11D0022919D004298C
:10C2300004BF2078062822D02AE00020E060EA2A05
:10C2400014BF0620122060700520207020E0E068F6
:10C25000B0F5007F1CD229680A54401CE06006201B
:10C2600015E0E06818B96178286813F01FFC2868A9
:10C27000E168405C3070481CE060012070BD02F055
:10C280005FFF28B1E168286813F015FC03202070D7
:10C29000002070BD90850010BC8400103A8400100E
:10C2A00080510200554E564DB4A80010FCE9030021
:10C2B00000E60300324E564DFCE703007FB51C46F6
:10C2C0000E46054613F0070F08D102F039FF28B1DA
:10C2D000012202A9262000F025FD03E004F007005A
:10C2E000022802D004B0002070BD07F05FFE287065
:10C2F0000120307004B070BD70B503F00700FE4C33
:10C30000012809D0FD4D13F0070F0AD0042804BFFF
:10C31000207806280FD01EE00020E0600520207065
:10C3200019E0E068B0F5007F15D229680A54401C76
:10C33000E06006200EE002F003FF60B1FBF715FAA3
:10C34000064603F022F802463346E168286803F007
:10C3500073FA03202070002070BD7FB51C460E4686
:10C36000054613F0070F08D102F0EAFE28B10122BA
:10C3700002A9112000F0D6FC03E004F00700022817
:10C3800002D004B0002070BD11F091F82870012097
:10C39000307004B070BD2DE9F041054603F0070090
:10C3A000D64CD54E0F4601280AD013F0070F14D0F3
:10C3B00002281BD0042804BF3078062834D03FE080
:10C3C0000020F0602168087021684870216888703A
:10C3D0002168C8700520307032E0F06804282FD240
:10C3E00021680A54401CF060062028E0F06860B91B
:10C3F00013F066FB216808702268010A51702268F8
:10C40000010C000E91702168C870F06804283ABFD2
:10C410002168095CFF21297024BF01213970401C6B
:10C42000F0600120BDE8F08102F08AFE40B1206892
:10C43000C178006861F31F6013F047FB0320307080
:10C440000020BDE8F0817FB50D46044613F0070FCC
:10C4500004D003F00700022808D004E0012202A95A
:10C46000242000F05FFC04B0002070BD13F032FB0C
:10C4700020700120287004B070BD7FB51C460E46A8
:10C48000054613F0070F08D102F05AFE28B1012229
:10C4900002A9272000F046FC03E004F00700022870
:10C4A00002D004B0002070BDFBF7CFFA2870012045
:10C4B000307004B070BD70B50D46044613F0070F20
:10C4C00004D003F00700022805D002E010460AF06D
:10C4D000C4FC002070BD0AF0D4FC2070012028703C
:10C4E00070BD10B503F00702844C834B4FF0000C75
:10C4F000012A02D0022A30D02DE0C3F80CC002F08D
:10C500001FFE002827D07E4802F025FF18B37D4883
:10C510000068007E10F0040F79480ED0C18A2268AE
:10C52000090A11702268817D5170818A2268090A86
:10C5300091702168007DC8700DE0818A2268090A27
:10C5400011702268017D5170C18A2268090A9170B8
:10C550002168807DC870002010BDDA68042A28BFD9
:10C56000104604D22468A45C0470501CD8600428CF
:10C5700003D10120C3F80CC00870012010BD70B5B4
:10C5800003F007015D4D5C4C012902D002290CD05B
:10C5900009E00020E06001F023FE20812968087096
:10C5A0002968000A4870002070BDE168022902D2A3
:10C5B0002A68525C0270481CE060012070BD2DE9C1
:10C5C000F04103F0070200264B4D0F460446012AB6
:10C5D00002D0022A0AD006E0EE6028894000686195
:10C5E000012001F0EFFD0020BDE8F081EA686869F4
:10C5F000824228BF104608D212F0010F1CBF687893
:10C6000020700ED0E868401CE8606969884205D156
:10C610000120EE603870002001F0D4FD0120BDE85B
:10C62000F08101F0ECFD010A21706870EAE71FB5A6
:10C6300013F0070F04D1012202A91A2000F072FBA7
:10C6400004B0002010BD2DE9F041044603F00700BE
:10C65000294E0F46012804BF0020F06001D00228B7
:10C6600002D00020BDE8F081244DF06860B9FDF7EC
:10C67000DFF82A68010E11702A68010C51702A68CF
:10C68000010A91702968C870F06804283ABF2968C7
:10C69000095CFF21217024BF01213970401CF0602A
:10C6A0000120BDE8F0812DE9F04103F00702124DB1
:10C6B0000E460446012A04BF0020E86001D0022A89
:10C6C00002D00020BDE8F0810C4FE86830B913F0CB
:10C6D00006FA3A68010A117039684870EA68022A55
:10C6E0003ABF3868805CFF20207024BF0120307082
:10C6F000501CE860012007E0908500108051020086
:10C70000A4390110A8860010BDE8F08103F00700ED
:10C71000F949012806D013F0070F04BF0878012853
:10C7200006D014E0012008700020C86088610DE088
:10C73000C868042805D28B69401C42EA03228A613A
:10C74000C860042803D103200870886908620020AB
:10C75000704703F00700DFF8A0C3012807D013F0EB
:10C76000070F04BF9CF80000022809D01EE0022039
:10C770008CF800000020CCF80C00CCF81C0015E070
:10C78000DCF80C00022808D2DCF81C10401C42EA3D
:10C790000121CCF81C10CCF80C00022806D1DCF8E2
:10C7A0001C00CCF8240003208CF800000020704707
:10C7B00070B403F007020025CF4C012A02D0022AF0
:10C7C00006D002E002202070E56070BC00207047B7
:10C7D0002278022A1CD1D4F824C0E268624528BF1E
:10C7E00010460ED212F0030F04D1236A53F8046BE3
:10C7F000C4E90763237F0370E069000AE061501C0D
:10C80000E060604504D10120E560087003202070DD
:10C8100070BC0120704770B503F007000025B64CCE
:10C820000E46012806D013F0070F04BF2078022817
:10C8300005D02BE002202070E560E56126E0616A0A
:10C84000E068884219D2E169090A41EA0262401CA3
:10C85000E26110F0030FE0600FD1206AB0F5802F85
:10C8600028BF026006D2B0F5005F03D30422A349BB
:10C87000F7F70EFC206A001D2062616AE0688842BA
:10C8800004D10120E560307003202070002070BDCD
:10C8900070B503F0070C0025974CBCF1010F08BFE1
:10C8A000E5603AD013F0070F03D0BCF1020F36D089
:10C8B00033E0052A08BF4FF47A302DD005DC16D2BC
:10C8C000DFE802F0171A1D2022008D48202A006898
:10C8D00008BFB43020D006DC102A1DD0112A08BFB2
:10C8E000884819D003E0302A11D0312A12D0A5612E
:10C8F00013E04FF400500FE04FF47F300CE04FF4A2
:10C90000503009E0804807E04FF47C3004E001F04B
:10C910004DFE01E010F04EF9A061002070BDE2680C
:10C92000042A07D2C2F10303D4F818C0DB002CFAA2
:10C9300003F30370501CE060042824BF012008703A
:10C94000012070BD70B403F0070C6B4DBCF1010FFA
:10C9500007D06E4C13F0070F07D0BCF1020F21D0A7
:10C960001DE00020E860286119E0E86805283CBF68
:10C9700021680A54042810D123682268D4F800C022
:10C98000D3F80130A96912781BBA9CF804C023F0CF
:10C99000FF0343EA0C0341F82230401CE86070BCFE
:10C9A000002070472B6973B1042B07D22268032B38
:10C9B0001A445278027004BF01200870581C286184
:10C9C00070BC012070472268D5F818C012785CF856
:10C9D000222026684FEA126C86F801C026684FEACA
:10C9E000124C86F802C026684FEA122C86F803C063
:10C9F000D4F800C08CF80420D8E710B503F0070085
:10CA0000012804D1002211460E2000F08BF90020ED
:10CA100010BD2DE9F04103F00704374E1746884654
:10CA20000546012C04BF0020F06017D013F0070F5B
:10CA300012D102F085FB78B1F068344902283CBF7E
:10CA40000A681754401CF060022807D102220968C6
:10CA5000072000F067F901E0022C02D00020BDE8B9
:10CA6000F081F26812B1012A04D009E0FAF780FEE1
:10CA7000287005E0FAF782FE2870012088F800008F
:10CA8000F068401CF0600120BDE8F08170B503F053
:10CA900007000025184C012808D013F0070F0BD011
:10CAA000042804BF2078062832D03AE0A561E56169
:10CAB0006570E560257034E0E068022807D2A1695E
:10CAC00042EA0121A16161781144617010E00428FB
:10CAD00007D2E16942EA0121E161617811446170A4
:10CAE00006E0052804D261788A4204BF062121703D
:10CAF000401CE06015E0000090850010AC8500103F
:10CB0000A8860010A439011000EE03008051020035
:10CB1000D4E9060101F0AEFD002804BF0120A07099
:10CB20002570002070BD10B56C4C13F0070F07D0B6
:10CB300003F00700042804BF2078062822D02BE049
:10CB4000E068022807D2A16942EA0121A161617867
:10CB50001144617013E06249091808D261490968FB
:10CB6000014401F8022C61781144617007E05E49CC
:10CB7000091804D261788A4204BF06212170401C42
:10CB8000E06009E05949A06901F096FD002804BF62
:10CB90000120A07000202070002010BD03F0070CC1
:10CBA000BCF1010F00D0BEE74C49002088614870FD
:10CBB000C8600870704730B403F007050024DFF840
:10CBC0001CC1012D07D013F0070F0DD0022D3CD052
:10CBD000042D54D06FE0CCF81840CCF81C40CCF8B1
:10CBE0000C408CF8004066E0DCF80C0002280BD208
:10CBF000DCF8181042EA0121CCF818109CF801105A
:10CC000011448CF8011019E0042817D2DCF81C102C
:10CC1000032842EA0121CCF81C109CF801301A4488
:10CC20008CF801200AD106228CF80020DCF81820AC
:10CC3000114304BF4FF40071CCF81C102C49401C68
:10CC4000CCF82C10CCF80C0035E0DCF80C20042AD1
:10CC500028BF10460AD2C2F10303DCF82C50DB00D7
:10CC600025FA03F30370501CCCF80C00042803D100
:10CC70000120CCF80C40087030BC012070479CF8B3
:10CC80000000062815D1DCF8180000224102DCF86B
:10CC90001C0043021046B2EB930F06D251F8045B1E
:10CCA000401C2A44B0EB930FF8D3CCF82C208CF81E
:10CCB0000040CCF80C4030BC002070474FF47F306F
:10CCC0000168880A424211EB822218BF401C404290
:10CCD00001EB8000C01C20F003007047908500101D
:10CCE000FEFDFFFF80510200FDFDFFFFB4A8001014
:10CCF000EFBEADDEF9480022027042708270027110
:10CD00004271C270DFF8D8C3114601EB4103002025
:10CD10000CEB43031A54401C0628FBD3491C202962
:10CD2000F3D3704712F0E0BE2DE9F04115460E46F0
:10CD30000746F7F709FD00F008040820F7F7FFFCA5
:10CD40002A463146384612F0CFFE05462046F7F710
:10CD5000F1FC2846BDE8F081E04880787047DF4864
:10CD600040787047DD490020487070472DE9F04158
:10CD700000250C46292880F0F581DFE800F0F0CC92
:10CD800015232C3B1A48EF4BF08389BAEE8E97A1FE
:10CD9000EDECEBEAE9CDF1FFE6F0E5E4E3E2E1F00A
:10CDA000E0DFDEDD9CDCF6000020F8F7F5FF00F0A8
:10CDB0009CB92078AC280CBF01200220FAF7AEFD08
:10CDC00000F093B921780120FAF7EDFCC349012066
:10CDD000487000F08AB9E178206861F31F6002F0C2
:10CDE000CBFA01210320FAF7DEFCBC490120487090
:10CDF00000F07BB9208840BA06F0D5FD022103205F
:10CE0000FAF7D1FCB5490120487000F06EB961789D
:10CE100020787EE0B14E01277770307870BBF6F74E
:10CE200000F858B324783770FAF7A2FC012808BF3D
:10CE3000002414F0040F18BFFCF7F6FC14F0020FE6
:10CE400006D01F20FBF7B4FCF9F725F944F00104E4
:10CE500014F0010F10D0FAF78BFC022802D106F073
:10CE6000C1FF48B1FAF784FC052802D101F05FFC4C
:10CE700010B10020F9F7F8F8002030700020707031
:10CE800000F070B92078401E01F04AFF00F02DB983
:10CE9000207807F06BF800F028B9207810F00F0028
:10CEA00018BF01200DF082FA00F05CB920780DF077
:10CEB00073FA00F057B9207807F06CF800F052B917
:10CEC000207818B1012809D000F04CB9002010F0EA
:10CED000EBFA00200FF070FE002006E0012010F0B9
:10CEE000E3FA03200FF068FE01200FF088FE00F047
:10CEF00039B9207800287CD0FAF73AFC022818BF0C
:10CF0000012507F018F801460220FAF74CFC00F062
:10CF100029B9FAF748FCE8E02078002818BF01207A
:10CF200006F0F2FF2078002818BF012001F0EAFB8C
:10CF300000F018B919E012E109E10CE101E1FCE0AF
:10CF4000D5E0CFE0D8E09FE063E01BE016E007E02B
:10CF500085E079E073E05FE051E024E035E057E000
:10CF6000207806F0BDFF00F0FDB801F017FD014686
:10CF70002078814218BF01F00CFDF3E0208807F013
:10CF800089F8B2E0207820B1012841D0022805D0EC
:10CF9000E8E04FF47F30F6F785FFE3E002F028F990
:10CFA00000210420B5E7F7F7CFFB00F008040820C4
:10CFB000F7F7C5FB4949CA78002A04BF00228A70E6
:10CFC0002046F7F7B7FB012170E02078062804D24D
:10CFD000DFE800F003070A0C0F120221084698E769
:10CFE00007E00221052094E7002106E0002104204B
:10CFF0008FE7002106208CE70421032089E7E078F1
:10D000002268002360F31F626221072005F0B2FD51
:10D01000A8E0F9F792FB68E020786178000140EA27
:10D0200011100BF027FD6178A07801F00F0140EAA4
:10D0300001200BF025FDE0780BF02EFD21E020888B
:10D0400040BA0BF004FD8DE020780BF03DFD6078D8
:10D050000BF04DFD608840BA0BF05CFD82E020785B
:10D060000BF06DFD6078A178000140EA11100BF023
:10D0700078FDA178E07801F00F0140EA01200BF083
:10D0800064FD0BF080FD6DE0FAF772FB02281CBF17
:10D090000628052866D12078012804D0022818BF68
:10D0A000002805D021E00BF0CBFE0021062030E760
:10D0B000FAF776FB0546FAF75BFB06462078002870
:10D0C00004BF0020F8F768FE022D14BF052D062EC0
:10D0D0000BD106F030FF014628461AE7CC85001038
:10D0E000B4AA0010207807F078F801253AE02078FB
:10D0F00007F07BF8012535E00DF022FD247807F0DC
:10D100003CF8012C11D0022C12D0042C18BF082C92
:10D11000EBD140F0005006F071FF042C18BF082C32
:10D12000E3D120460DF007FDDFE706F067FFF8E7E3
:10D1300040F0805006F062FFF3E7207810F049FBE2
:10D1400010E020780DF0EEFC06F082FE0AE0207878
:10D1500000F011FB06E0207812F0CBFC02E0207812
:10D16000FAF763FC2846BDE8F081EB49CA68104332
:10D17000C860704710B5E8B1FAF7FAFA0446F7F755
:10D1800019FF0220F7F7B6FF052C0ED07820F3F731
:10D190009DFE0520F7F7FBFEE048F8F72DF8F8F7BD
:10D1A00010F8BDE81040F7F793BF3C20F3F78EFE70
:10D1B0000320EFE7F7F795FFF8F710F80020F8F7EE
:10D1C0001BF8BDE81040F7F7D7BE10B5F3F767FEC0
:10D1D00010F0010F08BF10BDFAF7CAFA052818BFF2
:10D1E00010BDF3F77FFE3C2804D0BDE810400220BC
:10D1F000F7F780BFFAF7C2FA022804D0BDE8104062
:10D200000020F7F777BFBDE810400120F7F772BFA5
:10D21000C14910B508208871FAF7AAFA022818BF88
:10D22000012811D0032818BF05280DD00020F5F7DC
:10D2300000FEF7F756FFF7F7D1FF0020F7F7DCFF06
:10D24000BDE81040F7F798BEAFF2D700BDE8104038
:10D25000F5F7EFBD2DE9F0474FF00008F5F7F1FDC8
:10D26000DFF8B4920446D9F80C0048B1D9F80C00A4
:10D2700010F0400F18BF44F004040020C9F80C005F
:10D2800014F00F0669D00127FAF772FA0546304606
:10D29000F5F7F4FD012E1DD0FAF770FA44EA0064A8
:10D2A000002322460321072005F064FC14F0050F3B
:10D2B00014BF00200120F3F755F814F0060F4CD0EE
:10D2C0004FF0010806F08EFD0646022D30D0052DE8
:10D2D0000AD042E099F80600854208BF002789F885
:10D2E0000650002FD8D1E8E714F0020F13D0F3F75F
:10D2F000ADFA00281CBF0020F3F7B4FA0120F8F7BC
:10D300004BFD0120F3F7BAFA0020F8F759FD002091
:10D31000F8F75FFD13E010F006FE007810F0080F3C
:10D320000AD0F3F793FA00281CBF0020F3F79AFA0B
:10D330000120F8F731FD02E00120F8F741FD01F08E
:10D3400002FA002818BF01F005FA022E05D0022DBE
:10D350004FF0020004D001F0DFF94046BDE8F0874D
:10D3600006F0E1FDF9E72DE9F84F0025F7F7A7FFF3
:10D37000FAF7FEF9022804D101F09EFE002818BF3A
:10D380000125FAF7F5F9052817D1F8F71FFDA0B127
:10D3900001F0D6F95A2810D3F3F758FA00281CBF29
:10D3A0000020F3F75FFA0120F8F7F6FC0020F8F709
:10D3B00007FD0120F8F70DFD0125FFF74BFF0028C1
:10D3C00018BF0125DFF8508198F8020000287DD0B1
:10D3D000D8F808006E464FF0FF344FF0000940B116
:10D3E000D8F8082000230121084605F0C3FBC8F83F
:10D3F0000890F7F7A9F900F0080A0820F7F79FF955
:10D4000098F80300DFF818B108B398F8050000EBAE
:10D410004001401CC0B20BEB410188F805002028F8
:10D4200028BF88F8059098F80300401E88F803008C
:10D430004C780F780020002C05DD0A1892783254C1
:10D44000401C8442F9DC81F8009081F8019050463C
:10D45000F7F770F9002C49DB22466946F8B2FFF76E
:10D4600085FC08B1012541E0D8F808006E464FF070
:10D47000FF3440B1D8F8082000230121084605F008
:10D4800079FBC8F80890F7F75FF900F0080A082060
:10D49000F7F755F998F8030018B398F8050000EB72
:10D4A0004001401CC0B20BEB410188F80500202868
:10D4B00028BF88F8059098F80300401E88F80300FC
:10D4C0004C780F780020002C07DD00E01EE00A18E1
:10D4D00092783254401C8442F7DC81F8009081F845
:10D4E00001905046F7F726F9002CB5DAF7F72CF93A
:10D4F00000F008040820F7F722F998F80310002933
:10D5000008BF88F802902046F7F714F9002D14BFE1
:10D5100001200020BDE8F88FCC8500101BF1000031
:10D52000B4AA001002460020022928BF70473AB171
:10D53000012A0AD0022A04BFFE4800EB41107047BE
:10D5400040F2DB104843FC4904E001EB4100C0EB32
:10D550004110FA4901EB8000704770B5F7F7F4F815
:10D5600000F008060820F7F7EAF8F54D002468787F
:10D57000FF2806D240F6D861EF4812F015FAAC70D9
:10D58000EC70A879FF2805D2E821EC4812F00CFADB
:10D59000EC712C72E87AFF2822D2EA49C1F8C04324
:10D5A000C1F8C443C1F8C843C1F8CC43C1F8D04363
:10D5B000C1F8D443C1F8D843C1F8DC43C1F8E04313
:10D5C000C1F8E443C1F8E843C1F8EC43C1F8F043C3
:10D5D000C1F8F443C1F8F843C1F8FC432C736C73F1
:10D5E0003046BDE87040F7F7A5B8DFF85CC300FB34
:10D5F00001F31CEB030C88BF7047D14B5A62C3E99F
:10D6000007017047DFF838C30028DCF81C3018BF6A
:10D610000360CB480029006A18BF0860002A1CBFBD
:10D62000DCF82410116058437047C548012101718E
:10D63000007840F2DB1180F001004843BE4901EB65
:10D6400080007047BE488278002132B1C27822B98A
:10D65000027882F001020270817001717047B8494E
:10D660001E284A78487008BF002003D01F2808BF32
:10D67000012000D1087010467047B148007840F290
:10D68000DB1180F001004843AB4901EB800070479B
:10D69000F0B4AB4E96F800C040F2DB140CFB04FC77
:10D6A000A54CF56904EB8C0C03FB05F40CEB440C66
:10D6B0008D4234BF2C460C46366AF31A934238BF6B
:10D6C0001A460026002A9CBFF0BC70470023002C9D
:10D6D00006D930F813702CF813705B1C9C42F8D8F4
:10D6E000761C0CEB450C00EB41009642EED3F0BCEF
:10D6F00070472DE9F041924F14468C4601467A78E6
:10D7000006981D468A4218BFBDE8F0810121F970D4
:10D71000012802D0022824D029E0387840F2DB1119
:10D7200048438549FE6901EB8001A64234BF324679
:10D730002246386AA84238BF05460023002D16D974
:10D740000020002A06D91CF8007021F81070401C37
:10D750008242F8D85B1C01EB4601A444AB42EFD3F4
:10D7600005E000232A4621466046FFF791FFBDE809
:10D77000F04100F0DEBD724A01281146D0734978AD
:10D7800008BF242004D0002806BF2429FF207047AA
:10D79000507070476A48C07B704770B4DFF8ACC106
:10D7A000DCF800C0DCF818C01CF0040F1ABF01241C
:10D7B00024EA0C060CF0010605680C68002E1CBF5C
:10D7C0001B1B5C1E1CF0020F1CBF521B551E1CF0C5
:10D7D000040F19BF04600D6005600C6070BC7047D9
:10D7E000002808BF70475649594B4A7859491B7859
:10D7F000002A097818BF022A05D0042A18BF092A6E
:10D8000001D0012244E7544A1278012A84BF534AC6
:10D810001378012200F0A7BD2DE9F04FDFF8209129
:10D820008BB0012189F803104D494B4C4B4E0D78BC
:10D830004749DFF804B10F7899F80110112933D066
:10D840000CDC042920D004DC002918BF022911D1E6
:10D850001AE0092918D0102926D00BE0212967D019
:10D8600004DC122918BF132904D11DE022295FD03E
:10D8700024295ED0002800F0348100233A4629464E
:10D88000FFF706FF00F02DB92178012902D93549AB
:10D8900037780D78002800F0248100233A46294685
:10D8A00000F061FD00F01DB9F5F7A9F9F5F7AEF844
:10D8B0000090002818BFF5F744FB2078012888BFA6
:10D8C0003778F5F7BBFA10F0020F18BF7F1CDFF8AE
:10D8D000988099F8016099F8000040F2DB1141430B
:10D8E000D9F81C000BEB8104A84238BF0546D9F8D3
:10D8F0002000B84238BF0746F5F7BAFB0190002078
:10D90000F6F731F84FF0000A002F52DD4FF0000912
:10D91000002DC4BF0AEB4A0000EB0A1B41DD019851
:10D9200010F90900262824BF002024F819001DE062
:10D9300052E059E034BB001074AB00104CBA001038
:10D94000DC85001074B700104AFCFFFFA8860010A9
:10D950004D850010538500104E8500105085001035
:10D960004C8500104F8500100000013015D200F0EA
:10D97000010108EB813100EBD07001EB8B0140100D
:10D98000102E51F820001AD0112E1FD0122E0CBFCD
:10D99000C0B2F5F7EEFF24F8190009F10109A94515
:10D9A000BDDBF6480AF1010ABA45C06904EB400440
:10D9B000ACDB0098002818BFF5F7C6FA91E010F428
:10D9C000003FC0F34230E6D04042E4E710F4803F2D
:10D9D000C0F30420F8D1DEE700287DD00023BA1C74
:10D9E0002946FFF755FE7CE000287AD00646E44839
:10D9F0000068007E10F0040F07BF2C46BA463C4674
:10DA0000AA46A1084FEA9A020592A4EB9400069256
:10DA100000916208401ECDE901020391AAEB9A0130
:10DA200004904FEA5A02491ECDE907210991534655
:10DA3000224605A96846FFF7B0FE5346224605AFC9
:10DA400006A9E84601A8FFF7A8FE5346224607F1BB
:10DA5000080108F10800FFF7A0FE5346224607F12F
:10DA60000C0108F10C00FFF798FE5346224607F11F
:10DA7000100108F11000FFF790FE99F8000040F245
:10DA8000DB11414300220BEB8100914620F81290FC
:10DA900058F82210A1F1010C491C61451ED357F81A
:10DAA00022104B1E491C99420FD303FB05C136F9C6
:10DAB000114030F912108C42C8BF20F8124057F8BC
:10DAC00022105B1C491C9942EFD258F822100CF12D
:10DAD000010C491C614500E003E0E0D2521C052A1C
:10DAE000D4D30BB0BDE8F04F00F023BCA348012114
:10DAF0004172407980F0010000EB4001C1EB401021
:10DB0000A04901EB800070479C48C279002132B1E6
:10DB1000027A22B9427982F001024271C1714172E6
:10DB2000704796491E288A79887108BF002003D063
:10DB30001F2808BF012000D14871104670478F4848
:10DB4000407980F0010000EB4001C1EB40108D49AD
:10DB500001EB800070472DE9F04F8B49DFF81C8204
:10DB600085B00F7889490E78012188F8081098F857
:10DB70000610844C4FF00009102918BF11293AD023
:10DB8000122918BF132936D0F0B198F8051001EB0F
:10DB90004102C2EB411104EB8102002116EB070C9C
:10DBA00018BF774C10D02368002E5B8A03BF30F873
:10DBB00011500B4422F8135030F8113018BF22F8DE
:10DBC0001130491C8C45EED8F6F7BEFD00F0080474
:10DBD0000820F6F7B4FD98F8090000281CBF0121C1
:10DBE00088F807107CD02046F6F7A4FD88F8089046
:10DBF00005B0BDE8F08FF5F702F8F4F707FF0290E3
:10DC0000002818BFF5F79DF998F80650D8F82800B5
:10DC1000009098F8050000EB4001C1EB401004EBC8
:10DC2000800BF3F77FFF00286AD01120F2F7DDFEAA
:10DC300000280CBF1220112060F3070A0120F2F720
:10DC4000D4FE002814BF0120022060F30F2A0AF03E
:10DC5000FF000190F5F787FEF5F708FA002403901E
:10DC6000002E1FD903980257142AA8BF143A02DACB
:10DC70000A2AA8BF1232262A28BF2BF814900ED2E7
:10DC8000DDE90010F4F744FD102D4AD0112D4FD0DE
:10DC9000122D0CBFC0B2F5F76CFE2BF81400641CFB
:10DCA000B442DFD30BEB4606CAF3072B5846F5F711
:10DCB0005AFEF5F7DDF900248246002F1AD91AF929
:10DCC0000420262A28BF26F8149010D2584600991E
:10DCD000F4F71EFD102D31D0112D36D0122D00E09D
:10DCE00039E00CBFC0B2F5F744FE26F81400641CFE
:10DCF000BC42E4D30298002818BFF5F725F963E782
:10DD00000120F2F772FE002814BF0120022060F308
:10DD1000070A1120F2F769FE002814BF1120122013
:10DD200093E710F4003FC0F34230B6D04042B4E76E
:10DD300010F4803FC0F30420F8D1AEE710F4003FA8
:10DD4000C0F34230D1D04042CFE710F4803FC0F35F
:10DD50000420F8D1C9E798F8050080F0010088F8A0
:10DD6000050088F807903EE7044801218173807A16
:10DD7000074980F0010001EB40107047DC8500107E
:10DD8000A88600104CBA0010518500105285001072
:10DD900034BB0010FE48027B002132B1427B22B925
:10DDA000827A82F001028272017381737047F849AE
:10DDB0001E28CA7AC87208BF002003D01F2808BFD7
:10DDC000012000D1887210467047F148807AF149ED
:10DDD00080F0010001EB401070472DE9F04FEC4955
:10DDE00085B001224A73EC4CC97AEA4D22786378F7
:10DDF0004FF0000B1344122932D004DC102918BF55
:10DE0000112904D12CE013292AD01D2979D088B1F9
:10DE1000DF49897A05EB41120021002B0AD930F83D
:10DE2000113022F81130237894F801C0491C634462
:10DE30008B42F4D8F6F788FC00F008050820F6F7C6
:10DE40007EFCD34CA07B00281CBF0121217379D01C
:10DE50002846F6F76FFC84F80DB005B0BDE8F08FEA
:10DE6000F4F7CDFEF4F7D2FD0290002818BFF5F7C5
:10DE700068F8207861784718C8A0C549D0E9002023
:10DE800091F80B80CDE90020886A0390887A05EB31
:10DE90004016486AB84238BF0746F5F749FA814646
:10DEA0000025EA461AF80500F2F79FFD18B31AF8A4
:10DEB0000500F5F758FD0024002F1CDD19F904209A
:10DEC000052A28BF26F814B012D21AF805000399C3
:10DED000F4F71EFCB8F1100F14D0B8F1110F18D0E0
:10DEE000B8F1120F0CBFC0B2F5F743FD26F81400CD
:10DEF000641CBC42E2DB6D1C052DD3D3029880BBB1
:10DF000098E70CE010F4003FC0F34230EED04042FE
:10DF1000ECE710F4803FC0F30420F8D1E6E79C4919
:10DF2000897A05EB411570B10021002B82D930F8B8
:10DF3000112025F8112022786378491C1A448A425E
:10DF4000F5D877E710E0F4F75AFEF4F75FFD040028
:10DF500018BFF4F7F6FF284601F028FF002C3FF425
:10DF600069AFF4F7F1FF65E7A07A80F00100A072D5
:10DF700084F80CB06CE770B50D4685490122CA7073
:10DF8000884A49781678884A212914781EBF2229A0
:10DF9000232970BD002818BF002D11D00023224670
:10DFA0003146FFF775FB631C012221462846FFF727
:10DFB0006FFB05EB4400A31C01223146FFF768FB11
:10DFC000BDE8704000F0B5B970B504464069704DC9
:10DFD00020B1E97A002908BFFFF7FFFEE87A102890
:10DFE00004BF0020FFF7F9FEE87A112804BF0020E3
:10DFF000FFF7F3FEE87A122804BF0020FFF7EDFEDA
:10E00000E87A132804BF0020FFF7E7FE01F0B7F914
:10E01000002801BFE87A1D280020FFF7DEFEE06837
:10E0200068B1697859B96149097801298CBF60499B
:10E030005D490B785F490122097800F094F9A068E6
:10E0400020B16978002908BFFFF7E6FB687810283F
:10E0500004BF0020FFF7E0FB6878112804BF002010
:10E06000FFF7DAFB6878122804BF0020FFF7D4FB23
:10E070006878132804BF0020FFF7CEFB206920B189
:10E08000A979002908BFFFF766FDA879102804BF09
:10E090000020FFF760FDA879112804BF0020FFF7DA
:10E0A0005AFDA879122804BF0020FFF754FDA87973
:10E0B000132818BF70BD0020BDE870404BE52DE966
:10E0C000F74F804637480D46002690F800A03648A6
:10E0D0002F49344690F80090BAFBF5F000FB09F7A1
:10E0E0000120C870887C0978DFF8CCB088420ED057
:10E0F000274A40F2DB1148430BEB8001107840F2D5
:10E10000DB1250430BEB8000920011F057FC029899
:10E11000002888BFDFF878B02DD99BF813C0002203
:10E12000BCFBF9F009FB10C101FB0AF100FB051073
:10E13000002D12D938F814309BF8001040F2DB1E85
:10E1400001FB0EFE1C49641C01EB8E0100EB020E6C
:10E15000521C21F81E309542ECD80CF10100C0B2DF
:10E160008BF81300B84224BF00208BF81300761CF4
:10E1700002988642D1D30649C87C401EC0B2C874FA
:10E1800087429CBF781EC8740878887403B015E075
:10E19000DC85001034BB0010548500104041514212
:10E1A000520000004C8500104D8500104E85001077
:10E1B000508500105385001074AB0010BDE8F04F7F
:10E1C00000F0B7B88A4908747047894800218182F5
:10E1D000C1820183417440F6D861864811F0E4BBE6
:10E1E0008348417C49B18349C28A31F81210A1F5B4
:10E1F0005062B63A04BF008B7047002070477C4ADB
:10E200004FF6FF70517C012918BF70477948D18AB9
:10E21000DFF8E4C1002330F81100491C89B2D18233
:10E220001CEB010C28BFD382118B491E0904090C79
:10E23000118308BF537470472DE9F00100256C4F1E
:10E2400040F2B633AC46002A88BF002639D9BC8AD2
:10E2500031F81C8020F81480641CA4B2BC829C425B
:10E2600028BFBE823C8B9C423CBF641C3C8307D3CE
:10E27000FC8A0125641CA4B2FC82A34298BFFE82E2
:10E280000CF1010C1FFA8CFC9445E0D3012D18D140
:10E29000F98A40F6B65230F81110914211D0F98A3D
:10E2A000491C89B2F982994228BFFE82398B491EE6
:10E2B0000904090C398309D0F98A30F81110914208
:10E2C000EDD101207874BDE8F00170477E74BDE89F
:10E2D000F00170472DE9F0478946DDE908644449BB
:10E2E0001D46174680460A7C012AFCD0F6F72CFA18
:10E2F00000F0080A0820F6F722FA1FFA89F24146D0
:10E300003C48FFF799FFAAB239463A48FFF794FF15
:10E31000A2B231463748FFF78FFF5046BDE8F047BD
:10E32000F6F708BA3349400801EB400000F26C7080
:10E33000704770B5F6F708FA00F008060820F6F7FF
:10E34000FEF92B4C20790025002801BF207880F0B1
:10E3500001002070A5701CBF0120A0703046F6F7A8
:10E36000E9F9E57070BD2DE9F047994616460D466E
:10E370000446F4F782FE5FEA000C1CD01C490878C2
:10E3800040F2DB1250431B4AD1F81C8002EB8000A4
:10E3900009FB08F200EB4200454594BF2F46474673
:10E3A000096AA1EB0901B14238BF0E460021002ED7
:10E3B00009D8BDE8F0874B46324629462046BDE8DD
:10E3C000F047FFF765B90023002F08D91CF9032097
:10E3D00034F8122020F813205B1C9F42F6D8491C09
:10E3E00000EB480004EB4504B142ECD3BDE8F087F4
:10E3F000DC85001074AB00104AFCFFFF6149002867
:10E4000014BF00200120087070475E480078002883
:10E410000CBF01200020704701205A494870704706
:10E42000584800214170017800291ABF406800282F
:10E4300070475548016821F001010160704751485B
:10E44000017821B150490A6842F001020A600021B6
:10E4500041608160C160016170474A48017821B123
:10E4600049490A6842F001020A6000214160816066
:10E47000C1600161704770B50446F6F765F900F0B8
:10E4800008050820F6F75BF93E4A40490023D068AA
:10E4900001EBC001401CD060B0F5807F28BFD36085
:10E4A0002078087060784870A0788870E078C8702C
:10E4B0002079087160794871A0798871E079C87114
:10E4C0001069B0F5807F3CBF401C106116D31D2041
:10E4D000087001204870207888706078C870A07833
:10E4E0000871E0784871207988716079C871906806
:10E4F000401C9060B0F5807F28BF9360506840F06A
:10E5000001005060107830B1507820B91E48016881
:10E5100021F0010101602846F6F70CF9012070BDD9
:10E5200000B50178427883B0890141EA82018DF813
:10E530000010418809098DF80110818809098DF8BA
:10E540000210817801F00F02017962F31F118DF83A
:10E550000310017A8DF80410417A8DF80510817945
:10E56000C27901F03F0102F00C0241EA02118DF87C
:10E570000610C07980018DF807006846FFF77BFF21
:10E5800003B000BD08860010144C004074BB00109E
:10E59000002818BF2D482E49886370472C48806B8F
:10E5A0002A4988420CBF0120002070472848704744
:10E5B000284B4FF0000C1D681B1F1C68244B196072
:10E5C0005A602549D963DD6215F0804F22D0210CB5
:10E5D0005985210A83F8291083F82840598D19B1EB
:10E5E0005A8D012141EA024C93F8291039B193F870
:10E5F0002910022242EA014C18490968196393F86C
:10E60000281039B193F82810032242EA014C14492A
:10E61000096859631349C1F800C0134A8169116040
:10E62000B0E816109960DA601C61C3F814C090E875
:10E6300007109861D9611A62C3F824C0986B034926
:10E64000884202D10A4909480860FEE7504D554406
:10E65000005F01102CED00E0544C414638ED00E025
:10E6600034ED00E0384C00403C4C0040AD2007B099
:10E67000304C004070B50E460446F9F779F804288E
:10E6800011D1A4F5C87070280DD2A019A0F2911074
:10E69000702808D265020024002E04D92846F5F718
:10E6A00001FC012801D0002070BD641C05F5007537
:10E6B000B442F3D3012070BD70B50D460446F9F79E
:10E6C00057F804280AD1A4F5C870702806D2600251
:10E6D0002946F5F789FC012808BF70BD002070BDF0
:10E6E00010B5074CFEF73FFE012808BF10BD20689B
:10E6F00000F022FE002818BFF9F7ABF8F2E700009F
:10E70000A8860010FE4A0028916814BF41F001005D
:10E7100021F0010090607047F94B99680A0E1207CA
:10E7200021F07F4142EA0060084398607047F44856
:10E730008068C0F303607047F1488068000F70473D
:10E74000EF4800697047EE48C0697047EC49012006
:10E75000C8617047EA490020C86170472DE9F0415F
:10E76000ACB000270FF04BF80646A021684611F028
:10E770001BF9002425464FF00308305D10F0800F90
:10E7800018D0601C8DF8A1008DF8A7508DF8A080DE
:10E79000ADF8A4508DF8A850ADF8A2508DF8A65051
:10E7A0008DF8A9508DF8AC503555012728A9684639
:10E7B000F1F7D9FE601CC4B20A2CDED3012F04D1BC
:10E7C000102269460620F1F7A7FD0EF092FE2CB04C
:10E7D000BDE8F0812DE9F04387B0054640F20F34E3
:10E7E0000CF03CF9002818BF40F20E3421462846B0
:10E7F000F9F753F9002804BF07B0BDE8F08311F022
:10E800007DF911F080F9F7F76FFA5FEA00097DD121
:10E81000F2F79FFEBB48F4F744F90120F4F734F90E
:10E82000F2F73DFBB84DB64EB84F10F0010FC84699
:10E8300015D00020F2F73CFBFEF7C7FCC5F80080BE
:10E840002020F5F78EFAB248F5F791FA2020F5F777
:10E850007AFA33202860386890F8170128E0F5F735
:10E8600095FFAC48F6F747F8F6F72EF8F6F757F8A5
:10E8700039684000B1F80621B0FBF2F0401CC0F34B
:10E880004F00708091F80811317051B1F6F747F8D8
:10E8900039684000B1F80411B0FBF1F0401CC0F33E
:10E8A0004F00F5F7ACFF17202860386890F8160184
:10E8B000F060F4F7A4F9F4F7A9F8002808BFF4F71A
:10E8C00024FB307838B1401E10F0FF00307004BFD8
:10E8D0007088F5F794FFB068C0F303642146052003
:10E8E000F1F7FCFCFEF73FFD012807D0B068C0F34C
:10E8F0000360A04208BFB9F1000F27D0F4F723FE50
:10E90000C5F800802020F5F72CFA00E015E0002083
:10E91000F5F72DFAF5F7C3FF40B1F5F7A8FFF5F7C6
:10E92000DEFF0020F5F7E7FFF5F73DFFF4F767F9A5
:10E93000F4F76EF80020F4F7B4F811F0E4F811F0F1
:10E94000E7F8F9F7A2FA07B0BDE8F0836846F4F7F4
:10E950008FFD98B16846FFF737FBF8F709FF2146AE
:10E96000009A08F013FA684611F0D7F8814608F0CB
:10E970003DFAF4F7E8FDF8F782FFB3E73868406E38
:10E9800010F0704F02D0F8F764FFABE7F8F77EFFA6
:10E99000A8E75B49042838BF48607047584840687A
:10E9A00070472DE9F04F5949800083B00A68D2F8CA
:10E9B000F81021FA00F000F00F0401F00F000190B0
:10E9C000C1F303400090D2F8F400C1F30325C0F373
:10E9D000032A00F00F09C0F3034849480E0FC1F3A2
:10E9E0000337D0F804B0AC4206D10F2F04D00CF09E
:10E9F000B3F8022808BF3C46AC420ED10F2E0CD013
:10EA000005F0EDFA20B10CF09BF8082818BF344649
:10EA10003B48016AA14218BF0462F2F73DFA06467C
:10EA2000F2F73DFA0746012E02D117F0010F1DD172
:10EA300033484068022819D0F7F7D1F9012815D1D9
:10EA40000198844204D1B9F10F0F18BF4C460DD183
:10EA5000AC4204D1BAF10F0F18BF544606D100984A
:10EA6000844203D1B8F10F0F18BF44464BEA04208B
:10EA700040EA064040EA076200238921072004F0AB
:10EA800079F803B02046BDE8F08F2DE9F0411F482A
:10EA90000068B0F90E11B0F90C0110F0F3FFF1F7B6
:10EAA00030FE0120F7F778F900200CF052F80EF054
:10EAB00081FE0420FFF775FFF7F76CF9002005F0E1
:10EAC000EAFB0AF008F9F8F753FE0D4D052808BFD8
:10EAD000002637D1A8682E61C0F303646E6120461A
:10EAE000AE61FFF75EFF07462146052004F0D0F82F
:10EAF000002C4BD0022C45D0042C4BD00A2C0BE020
:10EB00001C8600100949001010480040A88600101B
:10EB1000614100109B410010A8684FEA106120F08D
:10EB20007F404FEA017118BF41F000710843A860AF
:10EB3000FEF719FC012805D00EF0DBFCF8F718FEF3
:10EB40000528C7D0F7F727F90EF039FE4FF48050AB
:10EB5000F8F765FFF8F70CFE022818BF00201DD05B
:10EB6000F1F71EFE0020F1F789FEF8F701FE0528F7
:10EB700008BFBDE8F0810020F7F72BF9032068609B
:10EB8000BDE8F0813846FFF725FED1E7384610F0A2
:10EB9000C9FFCDE7384605F075FCC9E7F1F75CFE23
:10EBA00010B9F1F753FE38B10020F1F75BFE0020F9
:10EBB000F1F755FE0120D3E70120F1F753FE0020C5
:10EBC000F1F7EEFDCEE700007047002808BF704760
:10EBD00080220146014810F0E2BE704774C3001065
:10EBE000704708283CBFFE49087070470020FC4968
:10EBF00088604860FB48006890F88100082838BFAA
:10EC0000087070470020F64948607047F448007863
:10EC1000704770B5F34D0024286890F86C0010F030
:10EC2000020F0BD0F8F7A4FD022807D1EC482968A1
:10EC3000007801EB8000B0F8840084B2204670BDFB
:10EC400070B5E84D4FF48054286890F86C0010F0CF
:10EC5000020F0DD0F8F78CFD022809D1E048296891
:10EC6000007801EB8000D0F88400000CC0F313049E
:10EC7000204670BDDA488078002818BF0120704710
:10EC80002DE9F041F8F774FD022803D105F0AAF848
:10EC9000022803D04FF48050BDE8F0814FF4805536
:10ECA0002E4605F060F9DFF83C830446CC4FD8F8D7
:10ECB000000090F86C1011F0010F0CD0B0F8760045
:10ECC000B9684042814206DC2CB10020641EB86065
:10ECD000204605F04BF9D8F8001091F86C0010F0C0
:10ECE000040F18BF002C0AD0B1F87C00621E9040BF
:10ECF000B1F87E20824238BF1046C0F31306D1F827
:10ED0000A40010F0020F1CBFB978002902D0000C3B
:10ED1000C0F31305B54298BF35462846BDE8F081DB
:10ED20002DE9F04FDFF8BCA287B0DAF8001091F8B7
:10ED30006C2012F0020F0DD0A94A91F88090DFF8F4
:10ED4000A8B21778002809DB484503D2B84218BF9B
:10ED5000064643D107B00020BDE8F08F3E464FF095
:10ED6000FF38F3F755FEF4F77DFE0025B9F1000FEB
:10ED700034D9DAF80000002400EB8500B0F88400F4
:10ED800081B22046F2F7E6FCF4F7BFF86846F4F7E4
:10ED90006FFB002866D0029878B1014693489BF833
:10EDA000002000785043421E07D331F9020B00289F
:10EDB000B8BF40420444521EF7D2F4F7C4FBF3F745
:10EDC00027FE002322469221072003F0D3FEA04510
:10EDD00084BF2E46A0466D1C4D45CAD3B74244D0D1
:10EDE000082E3CBF7E490E70DAF80000B0F88210A1
:10EDF00039B300EB870200EB8600B2F88420B0F84C
:10EE0000840092B280B2801A484340F30F34F6F780
:10EE100041FB774B9BF80020002193F800C002FBD8
:10EE20000CF2002A0DD930F81120224420F81120CC
:10EE30009BF8002093F800C0491C02FB0CF28A42A8
:10EE4000F1D84FF4800005F0D9F9DAF8000000237A
:10EE500000EB86008021B0F8840082B2072003F026
:10EE600089FE09E0F8F7F5FC90E705F07CF8032847
:10EE70003CBF401C05F07AF8012007B0BDE8F08FD8
:10EE8000584857490068B0F8760042428868824284
:10EE9000BCBF401E886070472DE9F04F93B0934689
:10EEA0000E4604464FF0000A05F05DF8DFF83481A5
:10EEB0004B4F0500D14610D110F039FED8F80010A4
:10EEC000B1F87810884208D30120C7F8089005F0FF
:10EED0004DF813B00120BDE8F08F002E1FDDB8689B
:10EEE0000028B8BFC7F8089007DBD8F80010B1F8C1
:10EEF00074108842BCBF401CB860D8F80000B968E4
:10EF0000B0F87400884215DC032D13D2681CC7F8D2
:10EF1000089005F02BF813B00120BDE8F08F09D15F
:10EF2000D8F80000B0F876004142B8688842C4BF03
:10EF3000401EB860B87850B1D8F8000090F8A4002E
:10EF400010F0040F1EBF002013B0BDE8F08FD8F8FA
:10EF50000000B0F972108C420EDD796821447960AE
:10EF6000B0F86E00884210DC4FF0FF30C7F8049014
:10EF7000FFF7D6FE824608E07868002805DD002C01
:10EF8000D4BF01212146401A7860DFF8689099F8D3
:10EF9000000007283BD118485946007842006846CF
:10EFA00010F00CFDADF80040ADF80260ADF8045073
:10EFB0003889ADF80600B888ADF80800D8F8000028
:10EFC000B0F87210ADF80A10B0F87410ADF80C106B
:10EFD000B0F86E10ADF80E10B0F876000EE000003C
:10EFE00090860010A88600104C85001050850010F7
:10EFF0004D850010DD85001053850010ADF8100020
:10F0000099F80000072804BF6846FEF7E9FB504660
:10F0100013B0BDE8F08F474810B50068D0F8A400E1
:10F0200010F4807F06D0C0F30330012101FA00F014
:10F03000F5F7BAF8404900204870887010BD70B5E7
:10F040003D4D0024A878002814BF012600266878CA
:10F0500028B904F097FF002808BF002100D0012143
:10F060008E4227D00A1C18BF0122AA7031480068BE
:10F07000D0F8A43013F0040F0ED021B1C3F3031065
:10F08000082808D206E00021A960696090F8810094
:10F09000082800D22870012413F0020F18BF0124A1
:10F0A000002A18BF012200238221072003F062FDFD
:10F0B000F1F73EF9204670BD2DE9F0411D480027CB
:10F0C0000068D0F8A41011F4807F30D01A4E707808
:10F0D000051C18BF0125C1F30330184A52680123EB
:10F0E00003FA00F0024011F4007F0AD092B10BF055
:10F0F00027FD042818BF08280AD002200BF01BFDAA
:10F1000006E03AB10BF01CFD042818BF0828F4D122
:10F11000012403E0002401200BF00DFDA54206D0E0
:10F12000201C18BF01207070FFF789FF0746384682
:10F13000BDE8F081A8860010908600100010004005
:10F140006B48007870476A48406800F54070704727
:10F150006748406800F58070704770B5644C4FF4A4
:10F160005030644A60600168914204BF4168B1F563
:10F170000C7F3BD18168B1F5264F37D85E4AC56810
:10F18000954223D04FF0000C03466246BCEB910F32
:10F190000AD253F8046B521C86EA0C0CB2EB910FA6
:10F1A000F7D3BCF1000F21D1026A7AB14FF0000C05
:10F1B00003466246BCEB910F06D253F8046B521C17
:10F1C000B444B2EB910FF8D365450FD1012500F59A
:10F1D000807000F0B1F848B1606800F5407000F050
:10F1E000BAF800281EBF2570012070BD002070BD38
:10F1F0003F49002008704FF45030F4F753BE3C48AC
:10F20000017841B140683B4A0168914202BF4168C0
:10F21000B1F50C7F704700207047354B5B6803F5F4
:10F2200080731844F4F734BF314B5B6803F54073C7
:10F230001844F4F72DBF2E484068006970472C49E8
:10F2400049680A6982429CBF0020704700EB400079
:10F2500001EB001000F580607047254A526802EB10
:10F260008000436A406E1A4400FB01207047204929
:10F27000886070471E48806870472DE9F0011C4B7C
:10F2800000220127D3E901469046831893F92030E4
:10F29000002B12DB07FA02FC1CEA060F0DD002F06D
:10F2A000FF0C04EB8C0CDCF82450DCF864C0254423
:10F2B00003FB0C5341F8223001E041F82280521C3C
:10F2C000102AE2D3BDE8F00170470029B8BF7047AB
:10F2D00030B49446064A526802EB8000446A406E9D
:10F2E000224401FB002030BC1A466146F4F7D0BE30
:10F2F0009C86001054465053EFBEADDE10B5FFF7AC
:10F300002CFFA8B1FFF71FFF0146D022174810F0CD
:10F3100046FBFFF71DFF164C01464FF4E2722068D2
:10F3200010F03DFB2068406DBDE8104004F0A6BD24
:10F330000220F8F7F3FAE2E758B10E4A0168914269
:10F3400007D1406820F00F00B0F51C7F04BF0120FA
:10F3500070470020704730B1006820F00F0070281F
:10F3600004BF01207047002070470000A43901103D
:10F37000A886001041505352FE4948607047FD482E
:10F3800080687047FB4908707047FA4800787047FA
:10F390000200F9484FF008010068438A008A03FB25
:10F3A00000101CBFC01C20F003007047F0B40446DE
:10F3B000481E02280FD8012505FA04F010F4637FD7
:10F3C00018BF002C07D0032C05D8EB4B4FF4483066
:10F3D00001221B6802E0F0BC00207047A24214D05A
:10F3E00005FA02FC1CF4637F0CD05E8A1F8A4FF082
:10F3F000080C06FB07CC0CF1030C2CF0030C0CEBF7
:10F400004C0C6044521C032AE8D901228A4204BFF2
:10F41000F0BC70474FF0080C5C8A1D8A521C04FB3C
:10F4200005CC0CF1030C2CF0030C6044032AEDD93D
:10F43000F0BC70472DE9F04F0E4690F821A090F8EF
:10F44000209000F15005ADF20C4D174601241146F5
:10F450003046FFF7ABFF012E08BFDFF820B308D01E
:10F46000022E08BFDFF818B303D0032E08BFDFF861
:10F4700014B34FF0000830B10168594504BF40682B
:10F48000CDE9001001D0CDE900B8BB48022E0068DC
:10F490000CBFB0F92E11B0F9CE108E460CBFB0F9EA
:10F4A0002C21B0F9CC20934600230AFB09FCBCF1C7
:10F4B000000F0ED935F913007045D8BF834505DC20
:10F4C0009042C8BF02468842B8BF01465B1C9C45BB
:10F4D000F0D8501800EBD07042100021BCF1000FA2
:10F4E00088BF6B4617D935F91100801A00EBD07030
:10F4F00040107F28C8BF7F2005DC10F1800FB8BF07
:10F500006FF07F0000DA002403EB0109491C89F841
:10F5100008008C45E7D88DF804409DF80500FF28C9
:10F520003CBF401C8DF80500ADF806206C463946FE
:10F530003046FFF73BFF5FEA000C0DD00020FFF7DD
:10F5400027FF024621466046F4F7A2FD01280CBFC2
:10F550004FF001084FF0000840460DF20C4DBDE899
:10F56000F08F0021002818BF042183480068008B19
:10F57000C0F3072000EB400001EB4000704700B5EE
:10F580000120FFF705FF00EB4000400000F5483088
:10F5900000BD2DE9F0410546774800240068008B46
:10F5A000C0F3072C0120FFF7F3FE00EB4000400002
:10F5B00010F5483622D074493068884208BF0120CF
:10F5C0001CD10021BCF1000F88BF471E10D907FBDA
:10F5D0000C1206EB420293884FEA132804EB410316
:10F5E000491C05F803802B4412795A708C45EED8DB
:10F5F000401CC0B204EB4C040328E2D92046BDE80D
:10F60000F0812DE9F04190F8223090F823C00F46A8
:10F6100090F8212090F8201003EB0C04531802FB03
:10F62000013100EB41008AB000F15005EC460120A9
:10F63000FFF7AEFE00EB40004000DFF84C814E4E7D
:10F6400010F548310FD0086840450CD130680422CD
:10F65000008BC0F3072000EB400002EB4002604645
:10F6600010F09DF90DE030680421008BC0F30720F5
:10F6700000EB400001EB4001604610F095F9CDF839
:10F680000080781E6043694601EB4000011D0020A8
:10F69000002C06D935F8102021F81020401C844297
:10F6A000F8D8EC460120FFF773FE00EB4000400065
:10F6B00010F5483004BF0AB0BDE8F081042331687A
:10F6C000098BC1F3072202EB420103EB41026146C1
:10F6D000F4F7DEFC012818BF00200AB0BDE8F08175
:10F6E0004B1E022B9CBF431E032B32BF022A00205D
:10F6F00070474FF4A8735943C0EBC00001EB0010F2
:10F70000C2EBC20100EBC10000F5403000F53950FA
:10F7100070472DE9F0411D4D844605604FF47F3060
:10F720000F4601681646880A424211EB822218BF32
:10F73000401C404201EB8000C01C20F0030000F59B
:10F740000050418A427C49BA007C62F31F4141EA81
:10F750000060CCF804000748002231468088ACF8ED
:10F760000A003846FFF7BCFF0446012231463846FE
:10F770000EE00000AC860010A886001046545259D6
:10F7800046544D3246544D3346464346464648530A
:10F79000FFF7A6FF014601220CB32068A8421ED144
:10F7A0002089F1B10B68AB421BD10989884298BF0F
:10F7B0000846401C80B2ACF8080082433146384607
:10F7C000FFF78EFF002808BFBDE8F08138226146B0
:10F7D000F4F75EFC012818BF0020BDE8F08100208E
:10F7E000E7E71046E5E730B58FB0002300930193BB
:10F7F0000293039304930593069307930893099345
:10F800000A930B930C930D93036928300393B0E88C
:10F8100038100DF1100E8EE83810B0E838100DF1E8
:10F82000200E8EE83810D0E90030CDE90C30684663
:10F83000FFF76FFF0FB030BDF0B51D46144603460D
:10F8400000206A1E8FB0022A9CBF621E032A24BFBA
:10F850000FB0F0BD00200090019002900390049042
:10F86000059006900790089009900A900B900C90D4
:10F870006E460D90022C18BF032C13D0282928BFE8
:10F880002821C81C20F00302194606F1100010F0D0
:10F8900095F8FE48022C0168488A0B8A18BF032C91
:10F8A0000AD038E0082928BF0821C81C20F003022C
:10F8B000194606F11800EAE700210122002814D9B0
:10F8C0004FEA511C06EB8C0C01F01F07DCF818C046
:10F8D00002FA07F71CEA070F04D0039941F0200150
:10F8E000039102E0491C8142EAD3C118884212D236
:10F8F000430906EB830300F01F0C9B6902FA0CFC22
:10F9000013EA0C0F04D0039840F01000039002E0BB
:10F91000401C8142ECD82A4621466846FFF7F9FE92
:10F920000FB0F0BD012200B50021824012F4637FC8
:10F930000DD001281CBF0228032804D0072808BFC7
:10F940004FF4A87103E00020FFF722FD01460846AE
:10F9500000BD012300B50022834013F4637F0FD064
:10F9600001281CBF0228032802D0072803D007E083
:10F97000FFF71CFD03E000220120FFF7B1FE024665
:10F98000104600BD2DE9F0474FF0010907464D46EE
:10F99000F7F7EBFE8046401E022884BF0020BDE83A
:10F9A000F087BB4E706810F4807F18BF022413D11B
:10F9B00010F4007F18BF03240ED13178022908BF4C
:10F9C00002242BD0032908BF032427D010F00700FE
:10F9D00014BF0124BDE8F0870120A04010F4637F2C
:10F9E00005D0424621463846FFF724FD814630794E
:10F9F00010F0100F04D041463846FFF702FE814652
:10FA0000002D1CBF3869002805D0424621463846E3
:10FA1000FFF7E9FE81464846BDE8F0870025DBE7B1
:10FA20009B49C86070479A4810B4C068002808BF56
:10FA30004FF47C30974A016891421CD14168B1F57E
:10FA4000007F18D3836800228446B3F5056F88BF12
:10FA50004FF405630021B1EB930F24BF10BC704736
:10FA60005CF82140491C2244B1EB930FF8D3002AE3
:10FA700004BF10BC7047002010BC704770B505462D
:10FA80000020E860D5F808C001262C460346BCF5E6
:10FA9000056F88BF4FF4056C0022B2EB9C0F06D2B5
:10FAA00054F82200521C0344B2EB9C0FF8D3584286
:10FAB000E8602046FFF766FF7548007910F0800F78
:10FAC00007D14FF47C304FF405622946F4F7E0FA91
:10FAD0000646012E0CBF0120002070BDFF2270B52C
:10FAE0000025044605614FF4006150300FF089FF96
:10FAF000A584E584E562A56265632563E563A56386
:10FB000065642564E5640120A56470BD2DE9F041BC
:10FB10004FF47C3104465F4E0868B04218D1486803
:10FB2000B0F5007F14D38A6800230D46B2F5056F47
:10FB300094BF94464FF4056C0020B0EB9C0F26D286
:10FB400055F82070401C3B44B0EB9C0FF8D3F3B148
:10FB5000FF224FF4056120460FF053FF4FF4087069
:10FB6000C4E900604FF40560A0600020E06084F804
:10FB7000200084F8210084F8220084F8230020610A
:10FB80006061A061E0612046FFF7A8FF07E0B2F5E1
:10FB9000056F88BF4FF4056220460FF000FF01207B
:10FBA000BDE8F08170B402684FF4087151600168DB
:10FBB00001F1500291F821C091F820300CFB03F1C3
:10FBC00002EB41010022BCF1000F08D900EB420416
:10FBD000521CB4F8EA4021F8024B9445F6D80022B2
:10FBE000002B08D900EB4204521CB4F8124121F852
:10FBF000024B9342F6D80468002294F82240002C6D
:10FC00000BD900EB4204521CB4F8BE4321F8024B5E
:10FC1000046894F822409442F3D80468002294F8CF
:10FC20002340002C0BD900EB4204521CB4F8CE4305
:10FC300021F8024B046894F823409442F3D8002240
:10FC4000BCF1000F08D900EB4204521CB4F870401C
:10FC500021F8024B9445F6D80022002B08D900EB7E
:10FC60004204521CB4F8984021F8024B9342F6D853
:10FC7000B0F8E62021F8022BB0F8E82021F8022B9A
:10FC8000B0F8E42021F8022B002405E0A88600103B
:10FC9000AC86001053454C460022BCF1000F0ED933
:10FCA00004EB440505EB041500EB850505EB420666
:10FCB000521CB6F85E6121F8026B6245F6D3002251
:10FCC000002B0ED904EB440505EB041500EB85056C
:10FCD00005EB4206521CB6F88E6221F8026B9A427E
:10FCE000F6D3641C042CD0D30023D0F800C000222B
:10FCF0009CF822C0BCF1000F88BF00EB031C0BD99D
:10FD00000CEB4204521CB4F8DE4321F8024B0468A9
:10FD100094F822409442F3D8D0F800C000229CF816
:10FD200023C0BCF1000F88BF00EB031C0BD90CEB08
:10FD30004204521CB4F8FE4321F8024B046894F8C4
:10FD400023409442F3D85B1C022BCED303680022DD
:10FD500093F82230002B0FD9036893F82230134414
:10FD600000EB4303521CB3F8BE3321F8023B036897
:10FD700093F822309342EFD80368002293F823309F
:10FD8000002B9CBF70BC7047036893F8233013446A
:10FD900000EB4303521CB3F8CE3321F8023B036857
:10FDA00093F823309342EFD870BC70474FF47C3205
:10FDB000FE4B1168994218BF70475168B1F5007F3A
:10FDC00038BF704730B4D2F808C000231446BCF5E1
:10FDD000056F88BF4FF4056C0021B1EB9C0F0AD270
:10FDE00054F82150491C2B44B1EB9C0FF8D3002B45
:10FDF0001CBF30BC704702F1500C92F8211092F8F1
:10FE0000203001FB03F40CEB440C19440CEB4103D0
:10FE100092F8221092F823201144CAB20021002A3D
:10FE2000DCBF30BC704733F811C020F811C0491C4A
:10FE30008A42F8DC30BC70472DE9F74F88B00025C6
:10FE40000A992C462E460968049101F1500309993C
:10FE5000002984BFD649D1F800801CD9002200288F
:10FE600088BFB8F9CE700DD933F9021B0029B4BF91
:10FE7000C1F1000C8C46BC45BCBF0D44641C521C37
:10FE80008242F1D30999761C8E42E7D3002CC8BF79
:10FE900095FBF4FA08DC4908414301EB5002049950
:10FEA00001EB4201B1F950A00021029101910499A6
:10FEB0005031009100210391099900296DD9BC4965
:10FEC000009E069609684FF0000B4FF00109B1F94A
:10FED000C0E0D1F8B4105F46C1F30741D846CDF871
:10FEE00014B00791002829D9B6F900204FF0000C72
:10FEF00006999344634600280DD9B1F90040A51A2C
:10FF000048BF151B7545B8BF0CF1010C01EB490149
:10FF10005B1C8342F1D307998C4503D305997F1C61
:10FF20001144059108F1010806EB49068045DBD331
:10FF3000002FC4BF059991FBF7F101DC9BFBF0F1A9
:10FF4000039B0A9A09B202EB4302A2F87010984A86
:10FF50001268B2F9BA30AAEB030399420ADDB2F98A
:10FF6000B82052448A4205DD019A11440191029958
:10FF7000491C02910099099A01EB400100910399F3
:10FF8000491C039191429AD30299002905DDDDE9CC
:10FF9000011291FBF2F1019102E05146CDF804A06B
:10FFA0000A9AA2F8E61000210291039104995031B7
:10FFB000009100210491002868D97D49009F06978F
:10FFC00009684FF0000B099EB1F9BCE0D1F8B410FC
:10FFD000D846090ED946CDF814B00791002E2BD97A
:10FFE000B7F900204FF0000C069993446346002EA9
:10FFF0000DD9B1F90040A51A48BF151B7545B8BF0A
:020000021000EC
:100000000CF1010C01EB40015B1CB342F1D30799E9
:100010008C4504D3059908F101081144059109F1B3
:10002000010907EB4007B145DAD3B8F1000FC4BFAF
:10003000059991FBF8F101DC9BFBF6F1049B0A9A10
:1000400009B202EB4302A2F89810594A1268B2F9B9
:10005000BA30AAEB030399420ADDB2F9B820524440
:100060008A4205DD039A114403910299491C0291C9
:100070000099891C00910499491C049181429CD3E8
:1000800002980028C4BF039991FBF0FA0A98A0F8DF
:10009000E8A001980A99504400B200EBD0704010DB
:1000A000A1F8E4000BB0BDE8F08F2DE9F04F8BB064
:1000B0000646A1F12000146815460F46009020293D
:1000C0003DBF0120B840401E4FF0FF30049038BFC4
:1000D000002006D300984FF0010101FA00F0A0F1D2
:1000E00001000390202E3DBF0120B040401E4FF084
:1000F000FF3038BF002207D3A6F120024FF00101E4
:1001000001FA02F1A1F10102C7F120010591202FAE
:1001100032BF20FA01F1009900FA01F1BA4011430F
:10012000B840CDE90110206920F4FE60206121482B
:10013000406810F0010F00F0C48110F4807F06D0F9
:100140002A463946304602F069F800F0A5B910F4A5
:10015000007F00F034810020D5F800C02862E861FB
:10016000A86101466861002F4AD9701EA7F1010BF2
:1001700006900020002E40D901F01F02012303FA4F
:1001800002FE4B0905EB830201FB06030CEB430364
:100190000029B3F9508018BF594510D100281CBF61
:1001A000069B98420BD1024B1B6805E053454C4619
:1001B000A8860010AC860010B3F9363103E0FE4B80
:1001C0001B68B3F93431984514DDD2F81C90012333
:1001D00049EA0E08C2F81C804FEA501805EB880A5D
:1001E00000F01F09DAF8148003FA09F348EA030360
:1001F000CAF81430401CB042C6D3491CB942B8D327
:10020000ED48006890F83801002800F04581002191
:10021000002E66D9B81E0990781E0890701E0790AF
:100220000CEB41000023B0F950A0012F56D001F093
:100230001F00012202FA00F04A0905EB820806902D
:10024000581C00FB06100CEB4000B0F95020002AAF
:10025000C8BFBAF1000F3CDDB2EB0A0048BFAAEB01
:1002600002005245C8BF92464FF4484900FB09F0CE
:1002700090FBFAF000F2FF104FEA502BCE48002B13
:10028000D0F800A09AF838011CBFDDF824904B4547
:1002900006D100291ABF079881429AF8090118D19E
:1002A000834516DD4FEA531905EB890E03F01F0B4A
:1002B0004FF00109DEF81CA009FA0BF04AEA000031
:1002C000CEF81C00D8F81490069849EA0000C8F847
:1002D000140008985B1C92468342B1D3491CB1427A
:1002E0009ED30023002F40F2D780B01E0990781EC5
:1002F0000890701E079003FB06F00CEB40000021F5
:10030000B0F95000012E56D003F01F024FF0010843
:1003100008FA02F24FEA531805EB8808069203FB2D
:1003200006120CEB4202B2F95220002AC8BF002884
:100330003CDDB2EB000948BFA0EB02098242C8BF16
:10034000104682464FF4484009FB00F999FBFAF049
:1003500000F2FF104FEA502B97480029D0F800A078
:100360009AF838011CBFDDF82490494506D1002BCE
:100370001ABF089883429AF8090117D1834515DD01
:10038000D8F81CA006984FF001094AEA0000C8F806
:100390001C00480905EB800E01F01F0BDEF814A0CD
:1003A00009FA0BF04AEA0000CEF814001046079A4A
:1003B000491C9142B3D35B1CBB429CD36CE02A46E0
:1003C0003946304601F011FE0020A8616861002E18
:1003D00084BF794A01231ED905EB4001B1F9981079
:1003E0000029B8BF494209B2D2F800C0BCF9CCC05C
:1003F0008C450DDD4FEA501C05EB8C0100F01F0809
:10040000D1F814C003FA08F84CEA080CC1F814C07B
:10041000401CB042E0D30020012E3DD0DFF898A16F
:10042000A6F101084FF0010905EB4001B1F99A303E
:10043000B1F99820991A48BFD11A09B2DAF800C068
:10044000BCF9C4C08C4524DAB5F9E810B2EB010C54
:1004500048BFA1EB020C0FFA8CFC5A1A48BFCA1A0B
:1004600011B28C450ADB420905EB820100F01F0343
:100470004A6909FA03F31A434A610AE0411C4B092D
:1004800005EB830201F01F01536909FA01F11943D9
:100490005161401C4045C7D36969E869B9400843C8
:1004A0002063A969286AB940084360636A69202FFC
:1004B00039BF059922FA01F1009902FA01F10843C6
:1004C00060633E484068079010F0040F00F0CB8155
:1004D000002129630846E962002F84BFDFF8D8C0F5
:1004E0004FF001081BD9DCF8003005EB4002B2F9EF
:1004F0005E21B3F9D890914503DCB3F9DA30934229
:100500000ADA430905EB830200F01F09D36A08FAEF
:1005100009F943EA0903D362401CB842E3D3A96254
:1005200000206962002E84BFDFF88CC04FF0010804
:100530001BD9DCF8003005EB4002B2F98E22B3F98A
:10054000D890914503DCB3F9DA3093420ADA4309D3
:1005500005EB830200F01F09536A08FA09F943EA20
:1005600009035362401CB042E3D329640020E963CD
:10057000002F84BFDFF840C04FF001081BD9DCF822
:10058000003005EB4002B2F9AA21B3F9DC909145A5
:1005900003DCB3F9DE3093420ADA430905EB830248
:1005A00000F01F09D36B08FA09F943EA0903D36382
:1005B000401CB842E3D303E0A8860010AC860010CC
:1005C000A96300206963002E84BFDFF848C44FF0A0
:1005D00001081BD9DCF8003005EB4002B2F9DA2241
:1005E000B3F9DC90914503DCB3F9DE3093420ADACB
:1005F000430905EB830200F01F09536B08FA09F960
:1006000043EA09035363401CB042E3D3002028654A
:10061000E864A8646864002F84BFFE4B4FF0010CAF
:100620001AD91A6805EB4001B1F9F611B2F9E08068
:10063000884503DCB2F9E2208A420ADA420905EB76
:10064000820100F01F08CA6C0CFA08F842EA08029E
:10065000CA64401CB842E4D30020002E84BFED4B96
:100660004FF0010C1AD91A6805EB4001B1F92613B5
:10067000B2F9E080884503DCB2F9E2208A420ADA66
:10068000420905EB820100F01F084A6C0CFA08F8D9
:1006900042EA08024A64401CB042E4D3696AE86A4C
:1006A000B94040EA0109C4F83890A96A286BB940FA
:1006B0000843E0636A6A202F39BF059922FA01F1E5
:1006C000009902FA01F141EA0008C4F83C80696B24
:1006D000E86B01FA07F140EA01022264A96B286C79
:1006E00001FA07F140EA010161646B6B39BF0598BB
:1006F00023FA00F0009803FA00F040EA0101616477
:100700006B6CE86C03FA07F340EA0300A064069000
:10071000AB6C286D03FA07F340EA0300E064D5F8F8
:1007200044C039BF059B2CFA03F3009B0CFA03F37A
:1007300043EA0000E064059032EA090521EA080C6A
:1007400049EA05002564009048EA0C0A07EB060117
:10075000C4F844C008BFBCF1000F46D000221346C5
:100760001046002988BF01263FD94FEA501B04EBF1
:100770008B0B00F01F0EDBF840B006FA0EFE1BEAF2
:100780000E0F03D0874294BF5B1C521C401C814259
:10079000EBD8012A12D10498284040EA0900A0634E
:1007A00003980CEA000040EA0800E063049825EA98
:1007B0000000206403982CEA00006064012B14D12F
:1007C000206C029AA36B02401A43A263626C019BE5
:1007D000D4F83CC0134043EA0C03E363029B984304
:1007E0002064019822EA00006064009A069830EACA
:1007F0000202A264009840EA020C059820EA0A006E
:100800004AEA0005E06408BF002821D000231A4608
:100810001846002988BF012617D94FEA501804EB63
:10082000880800F01F09D8F8488006FA09F918EA84
:10083000090F03D0874294BF521C5B1C401C8142AD
:10084000EBD8002B18BF002A02D10020A064E0647E
:10085000079810F0010F06D0206B20EA0C002063EF
:10086000606BA8436063206B0299084203D1626BFE
:1008700001990A4203D0216941F0100121610499D4
:10088000084203D1616B0398014203D0206940F014
:1008900020002061A06B0299084203D1E26B01990C
:1008A0000A4203D0216941F04001216104990842C4
:1008B00003D1E16B0398014203D0206940F080002E
:1008C0002061206C0299084203D1626C01990A42AE
:1008D00003D0216941F4807121610499084203D158
:1008E000616C0398014203D0206940F400702061DC
:1008F000A06C002804BFE06C002803D0206940F4FD
:10090000806020610BB00120BDE8F08F2DE9F04F31
:10091000CBB017460D460446F2F77AF80120F0F7FF
:1009200064F806461120F0F760F8304314BF012048
:1009300002208DF8180014BF112012208DF8190024
:10094000F1F7F0F838B19DF818009DF819108DF8FE
:1009500018108DF819009DF81800F0F746F80028D7
:1009600018BF284604909DF81900F0F73EF80028BB
:1009700018BF20460590F2F779FB00220146002DB2
:1009800088BF24A80BD98B56142BA8BF143B02DABE
:100990000A2BA8BF12338354521CAA42F3D3F2F796
:1009A00067FB0021002C88BF24AA07D9435C02EB17
:1009B000010C491C8CF826308C42F7D8F2F73EFA2D
:1009C000039015480DF1180A007910F0200F5AD045
:1009D00007F1EA00009028300025E9460DF1100BE0
:1009E00001905BF825601AF80500F2F7BCFF0024BF
:1009F000002E1FD905EB450000EB051024A901EBE3
:100A0000400818F90420262A28BF00200BD21AF823
:100A1000050003E0A8860010AC8600100021F1F765
:100A200077FEF2F7A6FF59F8251021F81400641C90
:100A3000B442E6D36D1C022DD3D3FE4C25781D2D78
:100A400021D100210A4607AE5BF822C00020BCF18C
:100A5000000F88BF59F8223007D933F8108026F8E4
:100A60001180401C491C8445F7D8521C022AEBD344
:100A70001D2D08D13046FDF76EF820781D2804BFE3
:100A800007A8FDF768F8EC4D287910F00C0F00F07E
:100A90006F83039800F0F000F2F787F89DF81800D4
:100AA000F0F744FE07909DF81800F0F7AEFE002422
:100AB00037901AF80400F1F773FD44A941F82400B7
:100AC0001AF80400F0F7DEFE0EA941F824001AF827
:100AD0000400F1F72AF820A941F824001AF80400CC
:100AE000F1F75BF822A941F824001AF80400EFF7A7
:100AF000BBFF46A918AA41F824001CA81AA902EBBA
:100B0000840200EB840001EB84010092CDE9011026
:100B100016A800EB840314A800EB840212A800EBD3
:100B200084011AF80400F1F71AFB1AF80400F1F72F
:100B300048FC1EA941F824001AF80400F1F780FDD2
:100B400010A941F82400641C022CB2D3BB4E3068BB
:100B5000B0F8E4109DF81800F0F7FCFD0024002127
:100B60001AF80400F1F702FDB44E306890F8E61070
:100B70001AF80400F0F79AFE1AF804000021F0F7C2
:100B8000EEFF1AF804000021F1F721F81AF804002A
:100B90000121EFF74FFF3068B0F8E8101AF80400B1
:100BA000F1F799FB1AF804000021F1F711FD641C1C
:100BB000022CD4D3A048007910F0040F00F0AB81D0
:100BC000DFF8788202240126D8F80000B0F8EC1093
:100BD000CDE90014029690F8EB3090F8EA209DF8E9
:100BE00018000B21F1F7FFF8D8F80000B0F8EC106E
:100BF000CDE90014029690F8EB3090F8EA209DF8C9
:100C000019000B21F1F7EFF89DF818000021F1F71A
:100C1000DFFC9DF819000021F1F7DAFC3AA801F099
:100C2000CDF93E99002204AD002055F82230002B6A
:100C30000ED902EB420C0CEB021C07EB0C1C31F83A
:100C4000029B0CEB400B401CABF85E918342F6D844
:100C5000521C022AE8D37A48D0E90010CDE90C10E2
:100C60009DF81800EFF7C1FE48909DF81900EFF7C6
:100C7000BCFE49909DF8180040A9F0F7B4FE9DF81D
:100C8000190042A9F0F7AFFE9DF8180008A9F0F787
:100C90001CFF9DF819000AA9F0F717FFDFF89C81E7
:100CA0000224D8F80000B0F8EE10CDE90014029646
:100CB00090F8EB3090F8EA209DF818000B21F1F73E
:100CC00092F8D8F80000B0F8EE10CDE900140296C2
:100CD00090F8EB3090F8EA209DF819000B21F1F71D
:100CE00082F89DF818000CA9F0F7CDFE9DF81900C8
:100CF0000CA9F0F7C8FE0024A1469DF818000021B9
:100D0000F1F766FC9DF819000021F1F761FC9DF8F0
:100D100018000021EFF74FFE9DF819000021EFF7B2
:100D20004AFE1AF804000121EFF745FE1AF8040004
:100D3000C0F30110012806D184F0010001211AF846
:100D40000000EFF738FECDF8E090CDF8E4909DF884
:100D5000180038A9F0F727FE9DF8190038A9F0F718
:100D600022FE04A8002150F824801AF80400F1F7AC
:100D700075FD00250190B8F1000F4CD904EB44003B
:100D800000EB041024A901EB400107EB001B0091CC
:100D9000009838AA00214657CDF8E090CDF8E490AD
:100DA0001AF80400F1F777FC202E06DBA6F12001EB
:100DB00001208840CDE9389003E00120B040CDE922
:100DC00038091AF8040038A9F0F7EDFD389838AA68
:100DD000C043389039980921C04339901AF804006B
:100DE000F1F759FC3AAEF2F790F8FCF7BCFA01289B
:100DF00006D03046F2F73CFB00287DD0F2F7A3FB8B
:100E0000F1F706FE019800880BEB45016D1CA1F877
:100E1000AA014545BCD3CDF8E090CDF8E4901AF88E
:100E2000040038AA0021F1F736FC641C022CFFF400
:100E300064AF07E0E2850010AC860010A8860010C1
:100E4000845102009DF8180008A9F0F71CFE9DF8D7
:100E500019000AA9F0F717FE9DF818004899EFF756
:100E6000AAFD9DF819004999EFF7A5FD9DF8180016
:100E700040A9F0F798FD9DF8190042A9F0F793FDFD
:100E8000FF4E022501243068B0F8F010CDE90015BE
:100E9000029490F8EB3090F8EA209DF818000B21AE
:100EA000F0F7A1FF3068B0F8F010CDE9001502941A
:100EB00090F8EB3090F8EA209DF819000B21F0F73C
:100EC00092FF9DF818000121F1F782FB9DF81900AF
:100ED0000121F1F77DFB3AA801F070F83E9900225C
:100EE00004AC002054F822C0BCF1000F10D902EB72
:100EF000420303EB021300E06DE007EB031331F84C
:100F0000025B03EB4006401CA6F8F6518445F6D878
:100F1000521C022AE5D3DB48007910F0080F7DD07F
:100F2000D74D022601242868B0F8F210CDE900164A
:100F3000029490F8EB3090F8EA209DF818000B210D
:100F4000F0F751FF2868B0F8F210CDE900160294CE
:100F500090F8EB3090F8EA209DF819000B21F0F79B
:100F600042FF00210A4604AE002056F821C0BCF121
:100F7000000F0CD901EB410303EB011307EB031343
:100F800003EB4004401CA4F842228445F8D8491CD5
:100F90000229E9D32868002490F82401B4EB400F1B
:100FA0003CDA286890F82401A042D4BF0121002136
:100FB0009DF81800F1F70CFB286890F82401A04276
:100FC000D4BF012100219DF81900F1F701FB3AAED1
:100FD000F1F79BFF02E0F6F73CFC06E7FCF7C3F9EC
:100FE000012805D03046F2F743FAD8B3F2F7ABFA4E
:100FF000F1F70EFD3E994FF0000904AB002253F8C3
:1010000029601046002E05D931F91030401C1A44D1
:101010008642F9D8B2FBF6F2701E00E04DE03DD0FA
:1010200009EB490303EB091307EB031B31F91030FC
:1010300001EB400C3CF9028CB3EB080348BF5B4268
:1010400031F91080B8EB020831F910804CBFA2EBE7
:101050000808A8EB02083CF902EC3CF902CCBEEB14
:10106000020E00E00FE04CBFA2EB0C0CACEB020C4C
:10107000E0450BEB400C09DDBCF942824345C8BF9B
:10108000ACF8423208E0F6F7E4FBA7E7BCF940828F
:101090009845B8BFACF84032401EC7D109F10109EC
:1010A00001EB4601B9F1020FA7D32868641C90F840
:1010B0002401B4EB400FFFF674AF9DF818000799B8
:1010C000F0F748FB9DF818003799F0F7ADFB0024C6
:1010D0001CAD1EAE20AF0DF188080DF588790DF519
:1010E0008C7B59F824101AF80400F1F73FFA0EA887
:1010F00050F824101AF80400F0F7D8FB57F8241021
:101100001AF80400F0F72BFD58F824101AF8040020
:10111000F0F75DFD5BF824101AF80400EFF78AFC85
:101120001AA918A851F8241055F8242050F82400C2
:10113000CDE9000116A8029250F8243014A850F806
:10114000242012A850F824101AF80400F0F74BFEDF
:1011500056F824101AF80400F1F7BDF810A850F85A
:1011600024101AF80400F1F733FA641C022CB8D3E7
:101170000398F1F71AFD4BB0BDE8F08F2DE9F04F61
:10118000DBB017460D460646F1F742FC4020EFF76C
:101190002CFC28B140208DF818008DF8190013E0C0
:1011A0004120EFF722FC04465120EFF71EFC2043BC
:1011B00004D04120EFF72DFC002867D042208DF8A5
:1011C000180052208DF81900CDE90465F2F7B0F847
:1011D00000220DF1100A00215AF82230002B84BFA2
:1011E0000DF1D80C0CEBC20C05D9445C0CF8014095
:1011F000491C8B42F9D8521C022AECD3F1F71EFE8F
:10120000469020480DF1180B007910F0210F66D0A0
:101210009DF8180008A9F0F7E6FB9DF819000AA947
:10122000F0F7E1FB00255AF825601BF80500F2F7FE
:101230009AFB0024002E18DD36A807EB051900EBF9
:10124000C50818F90420052A28BF002006D21BF87B
:1012500005000021F1F75CFAF2F78BFB09EB440182
:10126000641CA1F8BE03B442EBDB6D1C022DDAD383
:10127000054C94F80080B8F11D0F30D10BE005E06B
:10128000A8860010AC860010E785001041208DF87C
:101290001800512096E700210A466E465AF822505F
:1012A0000020002D88BF07EB021309D903EB400C87
:1012B000401CBCF8BEC326F811C0491C8542F5D8B5
:1012C000521C022AEAD3B8F11D0F08D13046FCF7B0
:1012D00084FD20781D2804BF6846FCF77EFDFE488B
:1012E000007910F0010F7DD000240EAE0DF16009E1
:1012F00022AD1BF80400EFF7B7FB34A941F8240036
:101300001BF80400F1F79CF92CA941F8240032A83D
:1013100000EB840330A800EB840204EB840006EBAE
:1013200080010091CDE9012309EB800305EB8002E8
:101330002EA800EB84011BF80400F0F710FF641CDA
:10134000022CD6D3469800F47740F1F72EFC002407
:1013500002264FF001081BF804000121EFF76AFB99
:101360001BF804000021F1F733F904EB84000EA907
:1013700001EB8001CDE9001618A901EB800322A939
:1013800001EB8002CDF808801BF804000F21F0F774
:10139000FAFD641C022CDED30120F8F7DDF90446C7
:1013A00000210120F8F7CBF91F20F7F701FAF1F738
:1013B0002FFB21460120F8F7C2F99DF8180008A973
:1013C000F0F711FB9DF819000AA9F0F70CFB0024B7
:1013D0005AF824601BF80400F2F7C5FA0025002E25
:1013E0001DDD00E04DE036A807EB041900EBC40852
:1013F00018F90520052A28BF002006D21BF8040092
:101400000021F1F785F9F2F7B4FA5AF824102944CB
:1014100009EB41016D1CA1F8BE03B542E8DB641C79
:10142000022CD5D300242EAD30AE0DF1C8080DF13D
:10143000380934A850F824101BF80400EFF7FAFA22
:1014400056F8242058F8243004EB840009EB80017E
:10145000CDE90012029318A901EB800322A901EB48
:10146000800255F824101BF80400F0F78CFD2CA81E
:1014700050F824101BF80400F1F7AAF8641C022CA1
:10148000D7D39548007910F0040F00F03A824698BF
:1014900000F47740F1F789FB9DF81800F0F746F962
:1014A00003909DF81800F0F7B0F9002407901BF89E
:1014B0000400F1F775F856A941F824001BF8040060
:1014C000F0F7E0F948A941F824001BF80400F0F710
:1014D0002CFB52A941F824001BF80400F0F75DFB37
:1014E00054A941F824001BF80400EFF7BDFA58A9ED
:1014F00004EB840541F8240050A800EB84010EAAF7
:101500004EA802EB850200EB84000092CDE90101B8
:1015100018A800EB850322A800EB85024CA800EB7D
:1015200084011BF80400F0F71AFE2CA800EB8501DB
:101530001BF80400F0F7D8FF1BF80400F1F780F85F
:101540004AA941F82400641C022CB0D3634D2868DA
:10155000B0F8E4109DF81800F0F7FCF80024002122
:101560001BF80400F1F702F8286890F8E6101BF861
:101570000400F0F79BF91BF804000021F0F7EFFAE4
:101580001BF804000021F0F722FB1BF804000121E6
:10159000EFF750FA2868B0F8E8101BF80400F0F7ED
:1015A0009AFE1BF804000021F1F712F8641C022CCB
:1015B000D5D3286802244FF00109B0F8EC10CDE92A
:1015C0000014CDF8089090F8EB3090F8EA204E46E1
:1015D0009DF818000B21F0F706FC2868B0F8EC1015
:1015E000CDE90014029690F8EB3090F8EA209DF8CF
:1015F00019000B21F0F7F7FB9DF818000121F0F717
:10160000E7FF9DF819000121F0F7E2FF3EA800F086
:10161000D5FC4399002200205AF822C0BCF1000FEB
:1016200088BF07EB421308D931F8026B03EB40087F
:10163000401CA8F8DE638445F6D8521C022AEAD37F
:101640002748D0E90210CDE944109DF81800EFF7C3
:10165000CCF95A909DF81900EFF7C7F947909DF81B
:10166000180008A9F0F7BFF99DF819000AA9F0F7CA
:10167000BAF99DF818003AA9F0F727FA9DF8190071
:101680003CA9F0F722FA28684E46B0F8EE10CDE9F2
:101690000014CDF8089090F8EB3090F8EA209DF80F
:1016A00018000B21F0F79FFB2868B0F8EE10CDE989
:1016B0000014029690F8EB3090F8EA209DF819009B
:1016C0000B21F0F790FB9DF8180044A9F0F7DBF927
:1016D0009DF8190044A905E0AC860010A88600100A
:1016E00084510200F0F7CFF900250C950CAA0121D6
:1016F00028460D95F0F7CFFF0024AA469DF8180064
:101700000021F0F765FF9DF819000021F0F760FF58
:101710009DF818000121EFF74EF99DF819000021FE
:10172000EFF749F904A8002150F824901BF80400B1
:10173000F1F794F800250190B9F1000F4FDD36A8BC
:1017400000EBC40007EB4418009000984657052EA4
:1017500024BF08EB4500A0F8EEA33DD2CDF830A0A1
:10176000CDF834A01BF804000CAA0021F0F793FF79
:10177000202E06DBA6F1200101208840CDE90CA037
:1017800003E00120B040CDE90C0A1BF804000CA9CD
:10179000F0F709F90C980CAAC0430C900D98082199
:1017A000C0430D901BF80400F0F775FF3EAEF1F753
:1017B000ACFBFBF7D8FD012806D03046F1F758FE08
:1017C00000287DD0F1F7BFFEF1F722F901980088DB
:1017D00008EB4501A1F8EE036D1C4D45B5DBCDF8D6
:1017E00030A0CDF834A01BF804000CAA0021F0F7BB
:1017F00052FF641C82D00021CDF830A00CAA08460C
:10180000CDF834A0F0F747FF9DF818003AA9F0F79B
:101810003AF99DF819003CA9F0F735F99DF8180040
:101820005A99EFF7C8F89DF819004799EFF7C3F8F0
:101830009DF8180008A9F0F7B6F89DF819000AA954
:10184000F0F7B1F89DF818000399EFF783FF9DF8C2
:1018500018000799EFF7E8FF002418AE22AF0DF14A
:10186000B0080DF5AC790DF5B07A59F824101BF8D5
:101870000400F0F77BFE48A850F824101BF8040081
:10188000F0F714F852A850F824101BF80400F0F7F1
:1018900066F954A850F824101BF80400F0F797F9E3
:1018A0005AF824101BF80400EFF7C4F850A84EA90A
:1018B00050F8240051F8241004EB84050EAA00E02F
:1018C00025E002EB8502CDE9002102904CA806EB51
:1018D000850350F8241007EB85021BF80400F0F78D
:1018E00052FB08EB85011BF80400F0F78DFD4AA8B8
:1018F00050F824101BF80400F0F76AFE641C022C58
:10190000B3D34698F1F751F95BB0BDE8F08FF5F726
:10191000A0FF4EE72DE9F04FFF4D4FF44071ADF2BF
:10192000344D686831EA000004BF0DF2344DBDE863
:10193000F08F0120A8601D20FBF791FE06461D20B8
:10194000FCF7EFF807461D20FCF731FACDF820042C
:101950004FF484616846EC680EF026F80094A8887D
:1019600010F4804F1CBF2046FEF7B8F86A46009876
:1019700090F8203090F821C050300CFB03F100EBC0
:1019800041000021BCF1000F08D902EB410930F8F9
:10199000028B491CA9F8EA808C45F6D80021002B5F
:1019A00008D902EB410930F8028B491CA9F81281D1
:1019B0008B42F6D8D2F80080002198F82280B8F146
:1019C000000F0CD902EB410930F8028BA9F8BE8355
:1019D000D2F80080491C98F822808845F2D8D2F8C5
:1019E0000080002198F82380B8F1000F0CD902EB99
:1019F000410930F8028BA9F8CE83D2F80080491C47
:101A000098F823808845F2D80021BCF1000F08D94E
:101A100002EB410930F8028B491CA9F870808C4513
:101A2000F6D80021002B08D902EB410930F8028BCF
:101A3000491CA9F898808B42F6D830F8021BA2F80E
:101A4000E61030F8021BA2F8E81030F8021BA2F8EA
:101A5000E4104FF000080021BCF1000F0ED908EB94
:101A6000480909EB081902EB890909EB410B30F829
:101A700002AB491CABF85EA16145F6D30021002BF7
:101A80000ED908EB480909EB081902EB890909EBA3
:101A9000410B30F802AB491CABF88EA29942F6D349
:101AA00008F10108B8F1040FD5D34FF00008D2F8BF
:101AB0000090002199F82290B9F1000F88BF02EB45
:101AC00008190CD909EB410B30F802ABABF8DEA3D7
:101AD000D2F800A0491C9AF822A08A45F2D8D2F880
:101AE0000090002199F82390B9F1000F88BF02EB14
:101AF00008190CD909EB410B30F802ABABF8FEA387
:101B0000D2F800A0491C9AF823A08A45F2D808F11F
:101B10000108B8F1020FCAD361461846FEF78CF9E6
:101B200068684FF0010810F4004F03D1694600F0D7
:101B300035FE80463046FBF792FD3846FBF7F1FF55
:101B4000DDF82004FCF733F994F82000CDF82804E0
:101B500094F82100CDF82C04B8F1000F1FBFDDF878
:101B600028040028DDF82C0400287DD06A4840684D
:101B7000CDF8300410F0020F00F01A81009DDDF85E
:101B80002C74DDF8282428696E4620F00F002861A7
:101B900047F6FF706FEA0009CDF82004002005F138
:101BA000500804900390029082460190002F51D972
:101BB0000AFB02F04FF0010C38F9101000208B46A0
:101BC0005B46CDF82404012A1BD90AFB02C038F970
:101BD00010009842C8BF03468842B8BF0146B0EB28
:101BE0000B0E48BFABEB000E0FFA8EFBDDF824E4C2
:101BF000F345C8BFCDF824B483460CF1010C9445DD
:101C0000E3D34B45C8BF9946DDF820048142B8BFF5
